{
  "_format": "hh-sol-artifact-1",
  "contractName": "ZaaNetPayment",
  "sourceName": "contracts/ZaaNetPayment.sol",
  "abi": [
    {
      "inputs": [
        {
          "internalType": "address",
          "name": "_usdt",
          "type": "address"
        },
        {
          "internalType": "address",
          "name": "_storageContract",
          "type": "address"
        },
        {
          "internalType": "address",
          "name": "_adminContract",
          "type": "address"
        }
      ],
      "stateMutability": "nonpayable",
      "type": "constructor"
    },
    {
      "inputs": [],
      "name": "EnforcedPause",
      "type": "error"
    },
    {
      "inputs": [],
      "name": "ExpectedPause",
      "type": "error"
    },
    {
      "inputs": [
        {
          "internalType": "address",
          "name": "owner",
          "type": "address"
        }
      ],
      "name": "OwnableInvalidOwner",
      "type": "error"
    },
    {
      "inputs": [
        {
          "internalType": "address",
          "name": "account",
          "type": "address"
        }
      ],
      "name": "OwnableUnauthorizedAccount",
      "type": "error"
    },
    {
      "inputs": [],
      "name": "ReentrancyGuardReentrantCall",
      "type": "error"
    },
    {
      "anonymous": false,
      "inputs": [
        {
          "indexed": true,
          "internalType": "address",
          "name": "previousOwner",
          "type": "address"
        },
        {
          "indexed": true,
          "internalType": "address",
          "name": "newOwner",
          "type": "address"
        }
      ],
      "name": "OwnershipTransferred",
      "type": "event"
    },
    {
      "anonymous": false,
      "inputs": [
        {
          "indexed": false,
          "internalType": "address",
          "name": "account",
          "type": "address"
        }
      ],
      "name": "Paused",
      "type": "event"
    },
    {
      "anonymous": false,
      "inputs": [
        {
          "indexed": true,
          "internalType": "uint256",
          "name": "sessionId",
          "type": "uint256"
        },
        {
          "indexed": true,
          "internalType": "uint256",
          "name": "networkId",
          "type": "uint256"
        },
        {
          "indexed": true,
          "internalType": "address",
          "name": "paymentAddress",
          "type": "address"
        },
        {
          "indexed": false,
          "internalType": "uint256",
          "name": "amount",
          "type": "uint256"
        },
        {
          "indexed": false,
          "internalType": "uint256",
          "name": "platformFee",
          "type": "uint256"
        }
      ],
      "name": "PaymentReceived",
      "type": "event"
    },
    {
      "anonymous": false,
      "inputs": [
        {
          "indexed": true,
          "internalType": "uint256",
          "name": "sessionId",
          "type": "uint256"
        },
        {
          "indexed": true,
          "internalType": "uint256",
          "name": "networkId",
          "type": "uint256"
        },
        {
          "indexed": true,
          "internalType": "address",
          "name": "paymentAddress",
          "type": "address"
        },
        {
          "indexed": false,
          "internalType": "uint256",
          "name": "amount",
          "type": "uint256"
        },
        {
          "indexed": false,
          "internalType": "bool",
          "name": "active",
          "type": "bool"
        },
        {
          "indexed": false,
          "internalType": "string",
          "name": "voucherId",
          "type": "string"
        },
        {
          "indexed": false,
          "internalType": "string",
          "name": "userId",
          "type": "string"
        },
        {
          "indexed": false,
          "internalType": "uint256",
          "name": "startTime",
          "type": "uint256"
        }
      ],
      "name": "SessionStarted",
      "type": "event"
    },
    {
      "anonymous": false,
      "inputs": [
        {
          "indexed": false,
          "internalType": "address",
          "name": "account",
          "type": "address"
        }
      ],
      "name": "Unpaused",
      "type": "event"
    },
    {
      "inputs": [],
      "name": "MAX_PAYMENT_AMOUNT",
      "outputs": [
        {
          "internalType": "uint256",
          "name": "",
          "type": "uint256"
        }
      ],
      "stateMutability": "view",
      "type": "function"
    },
    {
      "inputs": [
        {
          "internalType": "uint256",
          "name": "_networkId",
          "type": "uint256"
        },
        {
          "internalType": "uint256",
          "name": "_amount",
          "type": "uint256"
        },
        {
          "internalType": "string",
          "name": "_voucherId",
          "type": "string"
        },
        {
          "internalType": "string",
          "name": "_userId",
          "type": "string"
        }
      ],
      "name": "acceptPayment",
      "outputs": [],
      "stateMutability": "nonpayable",
      "type": "function"
    },
    {
      "inputs": [],
      "name": "adminContract",
      "outputs": [
        {
          "internalType": "contract ZaaNetAdmin",
          "name": "",
          "type": "address"
        }
      ],
      "stateMutability": "view",
      "type": "function"
    },
    {
      "inputs": [
        {
          "internalType": "uint256",
          "name": "amount",
          "type": "uint256"
        }
      ],
      "name": "calculateFees",
      "outputs": [
        {
          "internalType": "uint256",
          "name": "hostAmount",
          "type": "uint256"
        },
        {
          "internalType": "uint256",
          "name": "platformFee",
          "type": "uint256"
        }
      ],
      "stateMutability": "view",
      "type": "function"
    },
    {
      "inputs": [
        {
          "internalType": "uint256",
          "name": "_sessionId",
          "type": "uint256"
        }
      ],
      "name": "getSession",
      "outputs": [
        {
          "components": [
            {
              "internalType": "uint256",
              "name": "sessionId",
              "type": "uint256"
            },
            {
              "internalType": "uint256",
              "name": "networkId",
              "type": "uint256"
            },
            {
              "internalType": "address",
              "name": "paymentAddress",
              "type": "address"
            },
            {
              "internalType": "uint256",
              "name": "amount",
              "type": "uint256"
            },
            {
              "internalType": "bool",
              "name": "active",
              "type": "bool"
            },
            {
              "internalType": "string",
              "name": "voucherId",
              "type": "string"
            },
            {
              "internalType": "string",
              "name": "userId",
              "type": "string"
            },
            {
              "internalType": "uint256",
              "name": "startTime",
              "type": "uint256"
            }
          ],
          "internalType": "struct ZaaNetStorage.Session",
          "name": "",
          "type": "tuple"
        }
      ],
      "stateMutability": "view",
      "type": "function"
    },
    {
      "inputs": [],
      "name": "owner",
      "outputs": [
        {
          "internalType": "address",
          "name": "",
          "type": "address"
        }
      ],
      "stateMutability": "view",
      "type": "function"
    },
    {
      "inputs": [],
      "name": "pause",
      "outputs": [],
      "stateMutability": "nonpayable",
      "type": "function"
    },
    {
      "inputs": [],
      "name": "paused",
      "outputs": [
        {
          "internalType": "bool",
          "name": "",
          "type": "bool"
        }
      ],
      "stateMutability": "view",
      "type": "function"
    },
    {
      "inputs": [],
      "name": "renounceOwnership",
      "outputs": [],
      "stateMutability": "nonpayable",
      "type": "function"
    },
    {
      "inputs": [],
      "name": "storageContract",
      "outputs": [
        {
          "internalType": "contract ZaaNetStorage",
          "name": "",
          "type": "address"
        }
      ],
      "stateMutability": "view",
      "type": "function"
    },
    {
      "inputs": [
        {
          "internalType": "address",
          "name": "newOwner",
          "type": "address"
        }
      ],
      "name": "transferOwnership",
      "outputs": [],
      "stateMutability": "nonpayable",
      "type": "function"
    },
    {
      "inputs": [],
      "name": "unpause",
      "outputs": [],
      "stateMutability": "nonpayable",
      "type": "function"
    },
    {
      "inputs": [
        {
          "internalType": "address",
          "name": "_newAdmin",
          "type": "address"
        }
      ],
      "name": "updateAdminContract",
      "outputs": [],
      "stateMutability": "nonpayable",
      "type": "function"
    },
    {
      "inputs": [
        {
          "internalType": "address",
          "name": "_newUSDT",
          "type": "address"
        }
      ],
      "name": "updateUSDTAddress",
      "outputs": [],
      "stateMutability": "nonpayable",
      "type": "function"
    },
    {
      "inputs": [],
      "name": "usdt",
      "outputs": [
        {
          "internalType": "contract TestUSDT",
          "name": "",
          "type": "address"
        }
      ],
      "stateMutability": "view",
      "type": "function"
    }
  ],
  "bytecode": "0x60803461020657601f61152938819003918201601f19168301916001600160401b0383118484101761020b578084926060946040528339810103126102065761004781610221565b90610060604061005960208401610221565b9201610221565b9033156101f05760008054336001600160a01b0319821681178355604051959290916001600160a01b0316907f8be0079c531659141344cd1fd0a4f28419497f9722a3daafe3b4186f6b6457e09080a3600180556001600160a01b03169283156101ae57506001600160a01b0316908115610169576001600160a01b03169182156101245760018060a01b0319600254161760025560018060a01b0319600354161760035560018060a01b031960045416176004556040516112f390816102368239f35b60405162461bcd60e51b815260206004820152601560248201527f496e76616c69642041646d696e206164647265737300000000000000000000006044820152606490fd5b60405162461bcd60e51b815260206004820152601760248201527f496e76616c69642053746f7261676520616464726573730000000000000000006044820152606490fd5b62461bcd60e51b815260206004820152601460248201527f496e76616c6964205553445420616464726573730000000000000000000000006044820152606490fd5b631e4fbdf760e01b600052600060045260246000fd5b600080fd5b634e487b7160e01b600052604160045260246000fd5b51906001600160a01b03821682036102065756fe608080604052600436101561001357600080fd5b600090813560e01c90816311ce026714611040575080632f48ab7d14611017578063306247091461081d578063388d2c24146107905780633f4ba83a1461064e578063402ff0db146104cd5780635197f2d5146104a857806352238fdd146103f35780635c975abb146103ce578063715018a61461037457806375d60372146102e85780638456cb59146101a45780638da5cb5b1461017d578063c05c5e94146101545763f2fde38b146100c657600080fd5b34610151576020366003190112610151576004356001600160a01b0381169081900361014f576100f4611294565b801561013b5781546001600160a01b03198116821783556001600160a01b03167f8be0079c531659141344cd1fd0a4f28419497f9722a3daafe3b4186f6b6457e08380a380f35b631e4fbdf760e01b82526004829052602482fd5b505b80fd5b50346101515780600319360112610151576004546040516001600160a01b039091168152602090f35b5034610151578060031936011261015157546040516001600160a01b039091168152602090f35b50346101515780600319360112610151578054336001600160a01b03821614801561025a575b15610215576101d7611274565b60ff60a01b1916600160a01b1781556040513381527f62e78cea01bee320cd4e420270b5ea74000d11b0c9f74754ebdbfc544b05a25890602090a180f35b60405162461bcd60e51b815260206004820152601760248201527f4e6f7420617574686f72697a656420746f2070617573650000000000000000006044820152606490fd5b5060048054604051638da5cb5b60e01b81529160209183919082906001600160a01b03165afa9081156102dd57839161029f575b506001600160a01b031633146101ca565b90506020813d6020116102d5575b816102ba60209383611098565b810103126102d1576102cb906111d8565b3861028e565b8280fd5b3d91506102ad565b6040513d85823e3d90fd5b5034610151576020366003190112610151576004356001600160a01b0381169081900361014f57610317611294565b8015610338576bffffffffffffffffffffffff60a01b600254161760025580f35b60405162461bcd60e51b8152602060048201526014602482015273496e76616c69642055534454206164647265737360601b6044820152606490fd5b503461015157806003193601126101515761038d611294565b80546001600160a01b03198116825581906001600160a01b03167f8be0079c531659141344cd1fd0a4f28419497f9722a3daafe3b4186f6b6457e08280a380f35b503461015157806003193601126101515760ff6020915460a01c166040519015158152f35b50346101515760203660031901126101515760048054604051638c639a8560e01b81528235929091602091839182906001600160a01b03165afa92831561049c5792610461575b50610454606461044c6040948461123e565b048092611267565b9082519182526020820152f35b91506020823d602011610494575b8161047c60209383611098565b8101031261048f5790519061045461043a565b600080fd5b3d915061046f565b604051903d90823e3d90fd5b5034610151578060031936011261015157602060405169021e19e0c9bab24000008152f35b5034610151576020366003190112610151578060249160e06040516104f181611065565b828152826020820152826040820152826060820152826080820152606060a0820152606060c082015201528060018060a01b03600354166040519384809263402ff0db60e01b825260043560048301525afa90811561049c57809161056b575b6040516020808252819061056790820185611165565b0390f35b90503d8082843e61057c8184611098565b82019160208184031261014f5780519067ffffffffffffffff82116102d15701916101008382031261014f57604051916105b583611065565b83518352602084015160208401526105cf604085016111d8565b6040840152606084015160608401526105ea60808501611231565b608084015260a084015167ffffffffffffffff811161014f578261060f9186016111ec565b60a084015260c08401519067ffffffffffffffff821161015157509261063c60e0926105679583016111ec565b60c0840152015160e082015238610551565b50346101515780600319360112610151578054336001600160a01b038216148015610711575b156106cc5760ff8160a01c16156106bd5760ff60a01b191681556040513381527f5db9ee0a495bf2e6ff9c91a7834c1ba4fdd244a5e8aa4e537bd38aeae4b073aa90602090a180f35b638dfc202b60e01b8252600482fd5b60405162461bcd60e51b815260206004820152601960248201527f4e6f7420617574686f72697a656420746f20756e7061757365000000000000006044820152606490fd5b5060048054604051638da5cb5b60e01b81529160209183919082906001600160a01b03165afa9081156102dd578391610756575b506001600160a01b03163314610674565b90506020813d602011610788575b8161077160209383611098565b810103126102d157610782906111d8565b38610745565b3d9150610764565b5034610151576020366003190112610151576004356001600160a01b0381169081900361014f576107bf611294565b80156107e0576bffffffffffffffffffffffff60a01b600454161760045580f35b60405162461bcd60e51b8152602060048201526015602482015274496e76616c69642061646d696e206164647265737360581b6044820152606490fd5b50346101515760803660031901126101515760243560043560443567ffffffffffffffff8111611013576108559036906004016110d6565b60643567ffffffffffffffff811161100f576108759036906004016110d6565b9061087e611274565b60026001541461100057600260015583151580610fec575b15610fae576003546040516395ea571760e01b8152600481018590526001600160a01b0390911691908681602481865afa908115610fa3578791610ec3575b50608081015115610e865760408101518610610e485760018060a01b03600454169360405193638c639a8560e01b8552602085600481895afa948515610e08578995610e13575b506020600495966040519687809263c5f956af60e01b82525afa948515610e08578995610dc8575b506001600160a01b03851615610d835760148611610d465760646109698a978a61123e565b04946020610977878b611267565b926004604051809a819363cc50764160e01b83525af1968715610c62578a97610d12575b5060018060a01b03600354168a6040516109b481611065565b8981528a60208201523360408201528b6060820152600160808201528760a08201528560c08201524260e0820152823b1561014f57610a18928a83604051809681958294631dcd400b60e11b84526004840152604060248401526044830190611165565b03925af18015610d0757610cec575b506002546040516323b872dd60e01b81523360048201526001600160a01b0392831660248201526044810188905291602091839116818d81606481015b03925af1908115610c62578a91610cb2575b5015610c6d57600254602093840180516040516323b872dd60e01b81523360048201526001600160a01b0391821660248201526044810185905291959192839160649183918f91165af1908115610c62578a91610c24575b5015610bdf5760035492516001600160a01b03938416938a929116843b156102d1576044908360405196879485936370e3d45560e11b8552600485015260248401525af19088821561049c5787938793610bbf575b5050610b7a7f4cf76f1607429a1ba564f99e3071202cedecedced41885abc9d7faf01598415791610b6c604051968b88526001602089015260a0604089015260a0880190611140565b908682036060880152611140565b934260808201528033950390a460405193845260208401527f5cd7214f6a35088a9d01c8364579ef0efbf9eab3a80310601fbaef534bbb69af60403394a46001805580f35b610bcd929450819350611098565b610bdb578385918838610b23565b8680fd5b60405162461bcd60e51b815260206004820152601c60248201527f486f7374207061796d656e74207472616e73666572206661696c6564000000006044820152606490fd5b90506020813d602011610c5a575b81610c3f60209383611098565b81010312610c5657610c5090611231565b38610ace565b8980fd5b3d9150610c32565b6040513d8c823e3d90fd5b60405162461bcd60e51b815260206004820152601c60248201527f506c6174666f726d20666565207472616e73666572206661696c6564000000006044820152606490fd5b90506020813d602011610ce4575b81610ccd60209383611098565b81010312610c5657610cde90611231565b38610a76565b3d9150610cc0565b868b610cfe610a64949d602094611098565b9b925050610a27565b6040513d8d823e3d90fd5b9096506020813d602011610d3e575b81610d2e60209383611098565b81010312610c565751953861099b565b3d9150610d21565b60405162461bcd60e51b81526020600482015260156024820152740a0d8c2e8ccdee4da40cccaca40e8dede40d0d2ced605b1b6044820152606490fd5b60405162461bcd60e51b815260206004820152601860248201527f496e76616c6964207472656173757279206164647265737300000000000000006044820152606490fd5b9094506020813d602011610e00575b81610de460209383611098565b81010312610dfc57610df5906111d8565b9338610944565b8880fd5b3d9150610dd7565b6040513d8b823e3d90fd5b94506020853d602011610e40575b81610e2e60209383611098565b81010312610dfc57935193602061091c565b3d9150610e21565b60405162461bcd60e51b81526020600482015260166024820152755061796d656e7420616d6f756e7420746f6f206c6f7760501b6044820152606490fd5b60405162461bcd60e51b81526020600482015260156024820152744e6574776f726b206973206e6f742061637469766560581b6044820152606490fd5b90503d8088833e610ed48183611098565b810190602081830312610f9f5780519067ffffffffffffffff8211610dfc57019060e082820312610f9f576040519160e0830183811067ffffffffffffffff821117610f8b5760405280518352610f2d602082016111d8565b602084015260408101516040840152606081015167ffffffffffffffff8111610c565760c092610f5e9183016111ec565b6060840152610f6f60808201611231565b608084015260a081015160a0840152015160c0820152386108d5565b634e487b7160e01b8a52604160045260248afd5b8780fd5b6040513d89823e3d90fd5b60405162461bcd60e51b8152602060048201526016602482015275125b9d985b1a59081c185e5b595b9d08185b5bdd5b9d60521b6044820152606490fd5b5069021e19e0c9bab2400000841115610896565b633ee5aeb560e01b8552600485fd5b8480fd5b8380fd5b50346101515780600319360112610151576002546040516001600160a01b039091168152602090f35b90503461014f578160031936011261014f576003546001600160a01b03168152602090f35b610100810190811067ffffffffffffffff82111761108257604052565b634e487b7160e01b600052604160045260246000fd5b90601f8019910116810190811067ffffffffffffffff82111761108257604052565b67ffffffffffffffff811161108257601f01601f191660200190565b81601f8201121561048f578035906110ed826110ba565b926110fb6040519485611098565b8284526020838301011161048f57816000926020809301838601378301015290565b60005b8381106111305750506000910152565b8181015183820152602001611120565b906020916111598151809281855285808601910161111d565b601f01601f1916010190565b90815181526020820151602082015260018060a01b0360408301511660408201526060820151606082015260808201511515608082015260e0806111cf6111bd60a086015161010060a0870152610100860190611140565b60c086015185820360c0870152611140565b93015191015290565b51906001600160a01b038216820361048f57565b81601f8201121561048f578051611202816110ba565b926112106040519485611098565b8184526020828401011161048f5761122e916020808501910161111d565b90565b5190811515820361048f57565b8181029291811591840414171561125157565b634e487b7160e01b600052601160045260246000fd5b9190820391821161125157565b60ff60005460a01c1661128357565b63d93c066560e01b60005260046000fd5b6000546001600160a01b031633036112a857565b63118cdaa760e01b6000523360045260246000fdfea2646970667358221220de4b0ee727f0fd6f7fedfbc9134ab08027938699554e906ee56e86dcdd33b79664736f6c634300081c0033",
  "linkReferences": {},
  "deployedLinkReferences": {}
}