{
  "_format": "hh-sol-artifact-1",
  "contractName": "VoucherPayment",
  "sourceName": "contracts/ZaaNetVoucher.sol",
  "abi": [
    {
      "inputs": [
        {
          "internalType": "address",
          "name": "_usdtToken",
          "type": "address"
        },
        {
          "internalType": "address",
          "name": "_treasuryWallet",
          "type": "address"
        },
        {
          "internalType": "address",
          "name": "_zaaNetStorage",
          "type": "address"
        }
      ],
      "stateMutability": "nonpayable",
      "type": "constructor"
    },
    {
      "inputs": [
        {
          "internalType": "address",
          "name": "owner",
          "type": "address"
        }
      ],
      "name": "OwnableInvalidOwner",
      "type": "error"
    },
    {
      "inputs": [
        {
          "internalType": "address",
          "name": "account",
          "type": "address"
        }
      ],
      "name": "OwnableUnauthorizedAccount",
      "type": "error"
    },
    {
      "inputs": [],
      "name": "ReentrancyGuardReentrantCall",
      "type": "error"
    },
    {
      "anonymous": false,
      "inputs": [
        {
          "indexed": true,
          "internalType": "address",
          "name": "previousOwner",
          "type": "address"
        },
        {
          "indexed": true,
          "internalType": "address",
          "name": "newOwner",
          "type": "address"
        }
      ],
      "name": "OwnershipTransferred",
      "type": "event"
    },
    {
      "anonymous": false,
      "inputs": [
        {
          "indexed": true,
          "internalType": "address",
          "name": "buyer",
          "type": "address"
        },
        {
          "indexed": true,
          "internalType": "uint256",
          "name": "networkId",
          "type": "uint256"
        },
        {
          "indexed": false,
          "internalType": "uint256",
          "name": "amount",
          "type": "uint256"
        },
        {
          "indexed": false,
          "internalType": "uint256",
          "name": "timestamp",
          "type": "uint256"
        }
      ],
      "name": "VoucherPurchased",
      "type": "event"
    },
    {
      "inputs": [
        {
          "internalType": "uint256",
          "name": "networkId",
          "type": "uint256"
        },
        {
          "internalType": "uint256",
          "name": "amount",
          "type": "uint256"
        },
        {
          "internalType": "address",
          "name": "buyer",
          "type": "address"
        }
      ],
      "name": "buyVoucher",
      "outputs": [],
      "stateMutability": "nonpayable",
      "type": "function"
    },
    {
      "inputs": [],
      "name": "owner",
      "outputs": [
        {
          "internalType": "address",
          "name": "",
          "type": "address"
        }
      ],
      "stateMutability": "view",
      "type": "function"
    },
    {
      "inputs": [],
      "name": "renounceOwnership",
      "outputs": [],
      "stateMutability": "nonpayable",
      "type": "function"
    },
    {
      "inputs": [
        {
          "internalType": "address",
          "name": "newOwner",
          "type": "address"
        }
      ],
      "name": "transferOwnership",
      "outputs": [],
      "stateMutability": "nonpayable",
      "type": "function"
    },
    {
      "inputs": [],
      "name": "treasuryWallet",
      "outputs": [
        {
          "internalType": "address",
          "name": "",
          "type": "address"
        }
      ],
      "stateMutability": "view",
      "type": "function"
    },
    {
      "inputs": [
        {
          "internalType": "address",
          "name": "newTreasury",
          "type": "address"
        }
      ],
      "name": "updateTreasuryWallet",
      "outputs": [],
      "stateMutability": "nonpayable",
      "type": "function"
    },
    {
      "inputs": [],
      "name": "usdt",
      "outputs": [
        {
          "internalType": "contract TestUSDT",
          "name": "",
          "type": "address"
        }
      ],
      "stateMutability": "view",
      "type": "function"
    },
    {
      "inputs": [],
      "name": "zaaNetStorage",
      "outputs": [
        {
          "internalType": "contract ZaaNetStorage",
          "name": "",
          "type": "address"
        }
      ],
      "stateMutability": "view",
      "type": "function"
    }
  ],
  "bytecode": "0x60803461011557601f61087d38819003918201601f19168301916001600160401b0383118484101761011a578084926060946040528339810103126101155761004781610130565b90610060604061005960208401610130565b9201610130565b90600160005533156100ff5760018054336001600160a01b0319821681179092556040519491906001600160a01b03167f8be0079c531659141344cd1fd0a4f28419497f9722a3daafe3b4186f6b6457e0600080a3600280546001600160a01b03199081166001600160a01b03938416179091556003805482169383169390931790925560048054909216921691909117905561073890816101458239f35b631e4fbdf760e01b600052600060045260246000fd5b600080fd5b634e487b7160e01b600052604160045260246000fd5b51906001600160a01b03821682036101155756fe608080604052600436101561001357600080fd5b60003560e01c9081632f48ab7d1461065a5750806345891680146102625780634626402b146102395780634d59f94c14610210578063715018a6146101b3578063809d458d1461012f5780638da5cb5b146101065763f2fde38b1461007757600080fd5b346101015760203660031901126101015761009061067e565b6100986106d9565b6001600160a01b031680156100eb57600180546001600160a01b0319811683179091556001600160a01b03167f8be0079c531659141344cd1fd0a4f28419497f9722a3daafe3b4186f6b6457e0600080a3005b631e4fbdf760e01b600052600060045260246000fd5b600080fd5b34610101576000366003190112610101576001546040516001600160a01b039091168152602090f35b346101015760203660031901126101015761014861067e565b6101506106d9565b6001600160a01b0316801561017c576bffffffffffffffffffffffff60a01b6003541617600355600080f35b60405162461bcd60e51b815260206004820152600f60248201526e496e76616c6964206164647265737360881b6044820152606490fd5b34610101576000366003190112610101576101cc6106d9565b600180546001600160a01b031981169091556000906001600160a01b03167f8be0079c531659141344cd1fd0a4f28419497f9722a3daafe3b4186f6b6457e08280a3005b34610101576000366003190112610101576004546040516001600160a01b039091168152602090f35b34610101576000366003190112610101576003546040516001600160a01b039091168152602090f35b34610101576060366003190112610101576024356004356044356001600160a01b0381169081900361010157600260005414610649576024926002600055600060018060a01b0360045416604051958680926395ea571760e01b82528760048301525afa9384156103f3576000946104d8575b5090919260808101511561049b576040015181111561043c5781156103ff576002546003546040516323b872dd60e01b8152600481018590526001600160a01b039182166024820152604481018490529160209183916064918391600091165af19081156103f3576000916103b9575b50156103825760407f1885e69698a7feb1996880dc751e52fa84140b158c769239d0e04ec35564096f918151908152426020820152a36001600055005b60405162461bcd60e51b815260206004820152600f60248201526e151c985b9cd9995c8819985a5b1959608a1b6044820152606490fd5b90506020813d6020116103eb575b816103d460209383610694565b81010312610101576103e5906106cc565b84610345565b3d91506103c7565b6040513d6000823e3d90fd5b60405162461bcd60e51b8152602060048201526015602482015274496e76616c6964206275796572206164647265737360581b6044820152606490fd5b60405162461bcd60e51b815260206004820152603160248201527f416d6f756e74206d7573742062652067726561746572207468616e2074686520604482015270383934b1b2903832b91039b2b9b9b4b7b760791b6064820152608490fd5b60405162461bcd60e51b81526020600482015260156024820152744e6574776f726b206973206e6f742061637469766560581b6044820152606490fd5b3d8086833e6104e78183610694565b8101906020818303126106415780519067ffffffffffffffff8211610645570160e081830312610641576040519160e0830183811067ffffffffffffffff82111761062d576040528151835260208201516001600160a01b038116810361062957602084015260408201516040840152606082015167ffffffffffffffff81116106295782019681601f8901121561062657875167ffffffffffffffff811161061257604051926105a2601f8301601f191660200185610694565b8184526020828b01011161060e57815b8181106105f9575060c09495969798506020908301015260608401526105da608082016106cc565b608084015260a081015160a0840152015160c0820152929190846102d5565b80602080928c010151828287010152016105b2565b5080fd5b634e487b7160e01b82526041600452602482fd5b80fd5b8780fd5b634e487b7160e01b88526041600452602488fd5b8580fd5b8680fd5b633ee5aeb560e01b60005260046000fd5b34610101576000366003190112610101576002546001600160a01b03168152602090f35b600435906001600160a01b038216820361010157565b90601f8019910116810190811067ffffffffffffffff8211176106b657604052565b634e487b7160e01b600052604160045260246000fd5b5190811515820361010157565b6001546001600160a01b031633036106ed57565b63118cdaa760e01b6000523360045260246000fdfea26469706673582212202e0f61a3a0afd2ec1c6bac75a60a4d3c66d172ed748979a33c1d2048ed95454364736f6c634300081c0033",
  "linkReferences": {},
  "deployedLinkReferences": {}
}