{
  "contracts/ZaaNetNetwork.sol": {
    "ZaaNetNetwork": {
      "abi": [
        {
          "inputs": [
            {
              "internalType": "address",
              "name": "_storageContract",
              "type": "address"
            }
          ],
          "stateMutability": "nonpayable",
          "type": "constructor"
        },
        {
          "inputs": [],
          "name": "EnforcedPause",
          "type": "error"
        },
        {
          "inputs": [],
          "name": "ExpectedPause",
          "type": "error"
        },
        {
          "inputs": [
            {
              "internalType": "address",
              "name": "owner",
              "type": "address"
            }
          ],
          "name": "OwnableInvalidOwner",
          "type": "error"
        },
        {
          "inputs": [
            {
              "internalType": "address",
              "name": "account",
              "type": "address"
            }
          ],
          "name": "OwnableUnauthorizedAccount",
          "type": "error"
        },
        {
          "inputs": [],
          "name": "ReentrancyGuardReentrantCall",
          "type": "error"
        },
        {
          "anonymous": false,
          "inputs": [
            {
              "indexed": true,
              "internalType": "address",
              "name": "newHostAddress",
              "type": "address"
            }
          ],
          "name": "HostAdded",
          "type": "event"
        },
        {
          "anonymous": false,
          "inputs": [
            {
              "indexed": true,
              "internalType": "uint256",
              "name": "networkId",
              "type": "uint256"
            },
            {
              "indexed": false,
              "internalType": "uint256",
              "name": "oldPrice",
              "type": "uint256"
            },
            {
              "indexed": false,
              "internalType": "uint256",
              "name": "newPrice",
              "type": "uint256"
            }
          ],
          "name": "NetworkPriceUpdated",
          "type": "event"
        },
        {
          "anonymous": false,
          "inputs": [
            {
              "indexed": true,
              "internalType": "uint256",
              "name": "networkId",
              "type": "uint256"
            },
            {
              "indexed": true,
              "internalType": "address",
              "name": "hostAddress",
              "type": "address"
            },
            {
              "indexed": false,
              "internalType": "string",
              "name": "mongoDataId",
              "type": "string"
            }
          ],
          "name": "NetworkRegistered",
          "type": "event"
        },
        {
          "anonymous": false,
          "inputs": [
            {
              "indexed": true,
              "internalType": "uint256",
              "name": "networkId",
              "type": "uint256"
            },
            {
              "indexed": false,
              "internalType": "bool",
              "name": "oldStatus",
              "type": "bool"
            },
            {
              "indexed": false,
              "internalType": "bool",
              "name": "newStatus",
              "type": "bool"
            }
          ],
          "name": "NetworkStatusChanged",
          "type": "event"
        },
        {
          "anonymous": false,
          "inputs": [
            {
              "indexed": true,
              "internalType": "uint256",
              "name": "networkId",
              "type": "uint256"
            },
            {
              "indexed": true,
              "internalType": "address",
              "name": "hostAddress",
              "type": "address"
            },
            {
              "indexed": false,
              "internalType": "uint256",
              "name": "pricePerHour",
              "type": "uint256"
            },
            {
              "indexed": false,
              "internalType": "string",
              "name": "mongoDataId",
              "type": "string"
            },
            {
              "indexed": false,
              "internalType": "bool",
              "name": "isActive",
              "type": "bool"
            }
          ],
          "name": "NetworkUpdated",
          "type": "event"
        },
        {
          "anonymous": false,
          "inputs": [
            {
              "indexed": true,
              "internalType": "address",
              "name": "previousOwner",
              "type": "address"
            },
            {
              "indexed": true,
              "internalType": "address",
              "name": "newOwner",
              "type": "address"
            }
          ],
          "name": "OwnershipTransferred",
          "type": "event"
        },
        {
          "anonymous": false,
          "inputs": [
            {
              "indexed": false,
              "internalType": "address",
              "name": "account",
              "type": "address"
            }
          ],
          "name": "Paused",
          "type": "event"
        },
        {
          "anonymous": false,
          "inputs": [
            {
              "indexed": false,
              "internalType": "address",
              "name": "account",
              "type": "address"
            }
          ],
          "name": "Unpaused",
          "type": "event"
        },
        {
          "inputs": [],
          "name": "MAX_MONGO_DATA_LENGTH",
          "outputs": [
            {
              "internalType": "uint256",
              "name": "",
              "type": "uint256"
            }
          ],
          "stateMutability": "view",
          "type": "function"
        },
        {
          "inputs": [],
          "name": "MAX_PRICE_PER_SESSION",
          "outputs": [
            {
              "internalType": "uint256",
              "name": "",
              "type": "uint256"
            }
          ],
          "stateMutability": "view",
          "type": "function"
        },
        {
          "inputs": [],
          "name": "MIN_PRICE_PER_SESSION",
          "outputs": [
            {
              "internalType": "uint256",
              "name": "",
              "type": "uint256"
            }
          ],
          "stateMutability": "view",
          "type": "function"
        },
        {
          "inputs": [],
          "name": "REGISTRATION_COOLDOWN",
          "outputs": [
            {
              "internalType": "uint256",
              "name": "",
              "type": "uint256"
            }
          ],
          "stateMutability": "view",
          "type": "function"
        },
        {
          "inputs": [
            {
              "internalType": "uint256",
              "name": "_networkId",
              "type": "uint256"
            }
          ],
          "name": "deactivateNetwork",
          "outputs": [],
          "stateMutability": "nonpayable",
          "type": "function"
        },
        {
          "inputs": [
            {
              "internalType": "address",
              "name": "hostAddress",
              "type": "address"
            }
          ],
          "name": "getActiveHostNetworks",
          "outputs": [
            {
              "components": [
                {
                  "internalType": "uint256",
                  "name": "id",
                  "type": "uint256"
                },
                {
                  "internalType": "address",
                  "name": "hostAddress",
                  "type": "address"
                },
                {
                  "internalType": "uint256",
                  "name": "pricePerSession",
                  "type": "uint256"
                },
                {
                  "internalType": "string",
                  "name": "mongoDataId",
                  "type": "string"
                },
                {
                  "internalType": "bool",
                  "name": "isActive",
                  "type": "bool"
                },
                {
                  "internalType": "uint256",
                  "name": "createdAt",
                  "type": "uint256"
                },
                {
                  "internalType": "uint256",
                  "name": "updatedAt",
                  "type": "uint256"
                }
              ],
              "internalType": "struct ZaaNetStorage.Network[]",
              "name": "",
              "type": "tuple[]"
            }
          ],
          "stateMutability": "view",
          "type": "function"
        },
        {
          "inputs": [],
          "name": "getAllActiveNetworks",
          "outputs": [
            {
              "components": [
                {
                  "internalType": "uint256",
                  "name": "id",
                  "type": "uint256"
                },
                {
                  "internalType": "address",
                  "name": "hostAddress",
                  "type": "address"
                },
                {
                  "internalType": "uint256",
                  "name": "pricePerSession",
                  "type": "uint256"
                },
                {
                  "internalType": "string",
                  "name": "mongoDataId",
                  "type": "string"
                },
                {
                  "internalType": "bool",
                  "name": "isActive",
                  "type": "bool"
                },
                {
                  "internalType": "uint256",
                  "name": "createdAt",
                  "type": "uint256"
                },
                {
                  "internalType": "uint256",
                  "name": "updatedAt",
                  "type": "uint256"
                }
              ],
              "internalType": "struct ZaaNetStorage.Network[]",
              "name": "",
              "type": "tuple[]"
            }
          ],
          "stateMutability": "view",
          "type": "function"
        },
        {
          "inputs": [],
          "name": "getContractStats",
          "outputs": [
            {
              "internalType": "uint256",
              "name": "totalNetworks",
              "type": "uint256"
            }
          ],
          "stateMutability": "view",
          "type": "function"
        },
        {
          "inputs": [
            {
              "internalType": "address",
              "name": "hostAddress",
              "type": "address"
            }
          ],
          "name": "getHostNetworks",
          "outputs": [
            {
              "internalType": "uint256[]",
              "name": "",
              "type": "uint256[]"
            }
          ],
          "stateMutability": "view",
          "type": "function"
        },
        {
          "inputs": [
            {
              "internalType": "address",
              "name": "hostAddress",
              "type": "address"
            }
          ],
          "name": "getHostStats",
          "outputs": [
            {
              "internalType": "uint256",
              "name": "totalNetworks",
              "type": "uint256"
            },
            {
              "internalType": "uint256",
              "name": "activeNetworks",
              "type": "uint256"
            },
            {
              "internalType": "uint256",
              "name": "totalEarnings",
              "type": "uint256"
            }
          ],
          "stateMutability": "view",
          "type": "function"
        },
        {
          "inputs": [
            {
              "internalType": "uint256",
              "name": "_networkId",
              "type": "uint256"
            }
          ],
          "name": "getHostedNetworkById",
          "outputs": [
            {
              "components": [
                {
                  "internalType": "uint256",
                  "name": "id",
                  "type": "uint256"
                },
                {
                  "internalType": "address",
                  "name": "hostAddress",
                  "type": "address"
                },
                {
                  "internalType": "uint256",
                  "name": "pricePerSession",
                  "type": "uint256"
                },
                {
                  "internalType": "string",
                  "name": "mongoDataId",
                  "type": "string"
                },
                {
                  "internalType": "bool",
                  "name": "isActive",
                  "type": "bool"
                },
                {
                  "internalType": "uint256",
                  "name": "createdAt",
                  "type": "uint256"
                },
                {
                  "internalType": "uint256",
                  "name": "updatedAt",
                  "type": "uint256"
                }
              ],
              "internalType": "struct ZaaNetStorage.Network",
              "name": "",
              "type": "tuple"
            }
          ],
          "stateMutability": "view",
          "type": "function"
        },
        {
          "inputs": [
            {
              "internalType": "uint256",
              "name": "offset",
              "type": "uint256"
            },
            {
              "internalType": "uint256",
              "name": "limit",
              "type": "uint256"
            }
          ],
          "name": "getNetworksPaginated",
          "outputs": [
            {
              "components": [
                {
                  "internalType": "uint256",
                  "name": "id",
                  "type": "uint256"
                },
                {
                  "internalType": "address",
                  "name": "hostAddress",
                  "type": "address"
                },
                {
                  "internalType": "uint256",
                  "name": "pricePerSession",
                  "type": "uint256"
                },
                {
                  "internalType": "string",
                  "name": "mongoDataId",
                  "type": "string"
                },
                {
                  "internalType": "bool",
                  "name": "isActive",
                  "type": "bool"
                },
                {
                  "internalType": "uint256",
                  "name": "createdAt",
                  "type": "uint256"
                },
                {
                  "internalType": "uint256",
                  "name": "updatedAt",
                  "type": "uint256"
                }
              ],
              "internalType": "struct ZaaNetStorage.Network[]",
              "name": "networks",
              "type": "tuple[]"
            },
            {
              "internalType": "uint256",
              "name": "totalCount",
              "type": "uint256"
            }
          ],
          "stateMutability": "view",
          "type": "function"
        },
        {
          "inputs": [
            {
              "internalType": "address",
              "name": "",
              "type": "address"
            }
          ],
          "name": "isHost",
          "outputs": [
            {
              "internalType": "bool",
              "name": "",
              "type": "bool"
            }
          ],
          "stateMutability": "view",
          "type": "function"
        },
        {
          "inputs": [
            {
              "internalType": "address",
              "name": "hostAddress",
              "type": "address"
            }
          ],
          "name": "isRegisteredHost",
          "outputs": [
            {
              "internalType": "bool",
              "name": "",
              "type": "bool"
            }
          ],
          "stateMutability": "view",
          "type": "function"
        },
        {
          "inputs": [
            {
              "internalType": "address",
              "name": "",
              "type": "address"
            }
          ],
          "name": "lastRegistrationTime",
          "outputs": [
            {
              "internalType": "uint256",
              "name": "",
              "type": "uint256"
            }
          ],
          "stateMutability": "view",
          "type": "function"
        },
        {
          "inputs": [
            {
              "internalType": "uint256",
              "name": "",
              "type": "uint256"
            }
          ],
          "name": "networkToHost",
          "outputs": [
            {
              "internalType": "address",
              "name": "",
              "type": "address"
            }
          ],
          "stateMutability": "view",
          "type": "function"
        },
        {
          "inputs": [],
          "name": "owner",
          "outputs": [
            {
              "internalType": "address",
              "name": "",
              "type": "address"
            }
          ],
          "stateMutability": "view",
          "type": "function"
        },
        {
          "inputs": [],
          "name": "pause",
          "outputs": [],
          "stateMutability": "nonpayable",
          "type": "function"
        },
        {
          "inputs": [],
          "name": "paused",
          "outputs": [
            {
              "internalType": "bool",
              "name": "",
              "type": "bool"
            }
          ],
          "stateMutability": "view",
          "type": "function"
        },
        {
          "inputs": [
            {
              "internalType": "uint256",
              "name": "_pricePerHour",
              "type": "uint256"
            },
            {
              "internalType": "string",
              "name": "_mongoDataId",
              "type": "string"
            },
            {
              "internalType": "bool",
              "name": "_isActive",
              "type": "bool"
            }
          ],
          "name": "registerNetwork",
          "outputs": [],
          "stateMutability": "nonpayable",
          "type": "function"
        },
        {
          "inputs": [],
          "name": "renounceOwnership",
          "outputs": [],
          "stateMutability": "nonpayable",
          "type": "function"
        },
        {
          "inputs": [],
          "name": "storageContract",
          "outputs": [
            {
              "internalType": "contract ZaaNetStorage",
              "name": "",
              "type": "address"
            }
          ],
          "stateMutability": "view",
          "type": "function"
        },
        {
          "inputs": [
            {
              "internalType": "address",
              "name": "newOwner",
              "type": "address"
            }
          ],
          "name": "transferOwnership",
          "outputs": [],
          "stateMutability": "nonpayable",
          "type": "function"
        },
        {
          "inputs": [],
          "name": "unpause",
          "outputs": [],
          "stateMutability": "nonpayable",
          "type": "function"
        },
        {
          "inputs": [
            {
              "internalType": "uint256",
              "name": "_networkId",
              "type": "uint256"
            },
            {
              "internalType": "uint256",
              "name": "_pricePerHour",
              "type": "uint256"
            },
            {
              "internalType": "bool",
              "name": "_isActive",
              "type": "bool"
            }
          ],
          "name": "updateNetwork",
          "outputs": [],
          "stateMutability": "nonpayable",
          "type": "function"
        }
      ],
      "evm": {
        "bytecode": {
          "linkReferences": {},
          "object": "60803461012557601f611b9d38819003918201601f19168301916001600160401b0383118484101761012a5780849260209460405283398101031261012557516001600160a01b0381169081900361012557331561010f5760008054336001600160a01b03198216811783556040519290916001600160a01b0316907f8be0079c531659141344cd1fd0a4f28419497f9722a3daafe3b4186f6b6457e09080a36001805581156100cd5750600280546001600160a01b031916919091179055604051611a5c90816101418239f35b62461bcd60e51b815260206004820181905260248201527f496e76616c69642073746f7261676520636f6e747261637420616464726573736044820152606490fd5b631e4fbdf760e01b600052600060045260246000fd5b600080fd5b634e487b7160e01b600052604160045260246000fdfe608080604052600436101561001357600080fd5b600090813560e01c90816309115e97146115335750806311ce02671461150a57806316cb6eff146114085780631b63fe671461119d5780632b2a748c14610fd05780633f4ba83a14610f625780634335521414610f2f5780634b9791e814610bad5780635c975abb14610b88578063715018a614610b2e578063764ac7341461098e57806379f0dc57146108d55780637f6e8cbf146108985780638456cb5914610837578063867f1a09146102715780638da5cb5b14610810578063900e41b114610444578063b0ff638314610428578063cd83fb9a14610386578063d4f38d0414610363578063dfe6b5d6146102cf578063e67d86f1146102b3578063eb2931b714610271578063f2fde38b146101e35763fa9c81a41461013457600080fd5b346101e05760403660031901126101e057600254604051633ea7206960e21b81526004803590820152602480359082015291908190839060449082906001600160a01b03165afa80156101d3576101a3928280926101ad575b50506040519283926040845260408401906115f9565b9060208301520390f35b9091506101cc92503d8091833e6101c48183611693565b8101906117b5565b388061018d565b50604051903d90823e3d90fd5b80fd5b50346101e05760203660031901126101e0576004356001600160a01b0381169081900361026d576102126119fd565b80156102595781546001600160a01b03198116821783556001600160a01b03167f8be0079c531659141344cd1fd0a4f28419497f9722a3daafe3b4186f6b6457e08380a380f35b631e4fbdf760e01b82526004829052602482fd5b5080fd5b50346101e05760203660031901126101e0576004356001600160a01b0381169081900361026d5760408260ff9260209452600384522054166040519015158152f35b50346101e057806003193601126101e057602060405160c88152f35b50346101e057806003193601126101e05760025460405163217c682d60e01b81529190602090839060049082906001600160a01b03165afa908115610357579061031f575b602090604051908152f35b506020813d60201161034f575b8161033960209383611693565b8101031261034a5760209051610314565b600080fd5b3d915061032c565b604051903d90823e3d90fd5b50346101e057806003193601126101e0576020604051674563918244f400008152f35b50346101e05760203660031901126101e0576103a06118a8565b506002546040516395ea571760e01b81526004803590820152908290829060249082906001600160a01b03165afa90811561041d57826103f693926103fa575b505060405191829160208352602083019061159d565b0390f35b61041692503d8091833e61040e8183611693565b81019061192f565b38806103e0565b6040513d84823e3d90fd5b50346101e057806003193601126101e0576020604051603c8152f35b50346101e05760603660031901126101e05760243560043567ffffffffffffffff821161070e573660238301121561070e5782826004013592610486846116b5565b936104946040519586611693565b808552366024828401011161070e578060246020930183870137840101526104ba611652565b6104c26119bb565b6104ca6119db565b33845260066020526040842054603c81018091116107fc5742106107b7576702c68af0bb140000821015806107a5575b61050390611958565b82518015159081610799575b5015610754576002546040516329487fe360e11b815292859290916020908590600490829087906001600160a01b03165af1938415610749578394610712575b5060018060a01b0360025416906040519261056984611661565b8584523360208501526040840152856060840152151560808301524260a08301524260c0830152803b1561070e57604051631430350760e21b815291839183918290849082906105bd908a600484016119a4565b03925af1801561041d576106f9575b5050338352600460205260408320805490680100000000000000008210156106e557600182018082558210156106d1579082918552602085200155808352600560205260408320336bffffffffffffffffffffffff60a01b8254161790553383526006602052426040842055338352600360205260ff60408420541615610690575b7fac8d319e4ba2a19144062917c8cb50cc9cffb2f0eea3004b86b48c06cc6845c8604051602081528061068633956020830190611578565b0390a36001805580f35b33808452600360205260408420805460ff191660011790557f8ff9310abede1de3c5d3fdbb7cf09c40bc8258ca75c0f949ad92f964deac98b38480a261064e565b634e487b7160e01b85526032600452602485fd5b634e487b7160e01b85526041600452602485fd5b8161070391611693565b61070e5782386105cc565b8280fd5b925092506020823d602011610741575b8161072f60209383611693565b8101031261034a57849151923861054f565b3d9150610722565b6040513d85823e3d90fd5b60405162461bcd60e51b815260206004820152601a60248201527f496e76616c6964204d6f6e676f446174614944206c656e6774680000000000006044820152606490fd5b60c8915011153861050f565b50674563918244f400008211156104fa565b60405162461bcd60e51b815260206004820152601c60248201527f526567697374726174696f6e20636f6f6c646f776e20616374697665000000006044820152606490fd5b634e487b7160e01b85526011600452602485fd5b50346101e057806003193601126101e057546040516001600160a01b039091168152602090f35b50346101e057806003193601126101e0576108506119fd565b6108586119bb565b805460ff60a01b1916600160a01b1781556040513381527f62e78cea01bee320cd4e420270b5ea74000d11b0c9f74754ebdbfc544b05a25890602090a180f35b50346101e05760203660031901126101e0576004356001600160a01b0381169081900361026d578160409160209352600683522054604051908152f35b50346101e05760203660031901126101e0576004356001600160a01b0381169081900361026d578152600460205260408120604051908160208254918281520190819285526020852090855b8181106109785750505082610937910383611693565b604051928392602084019060208552518091526040840192915b81811061095f575050500390f35b8251845285945060209384019390920191600101610951565b8254845260209093019260019283019201610921565b50346101e05760203660031901126101e0576004356001600160a01b0381169081900361026d57818183526004602052604083205460018060a01b03600254169060405193636d65573f60e01b8552806004860152602085602481865afa948515610b23578695610aef575b508552600460205260408520906040518083602082955493848152019089526020892092895b818110610ad6575050610a3592500383611693565b855b8251811015610abf57610a4a8184611859565b51604051906395ea571760e01b825260048201528781602481885afa8015610ab4576080918991610a9a575b500151610a86575b600101610a37565b93610a92600191611883565b949050610a7e565b610aae91503d808b833e61040e8183611693565b38610a76565b6040513d8a823e3d90fd5b606082878760405192835260208301526040820152f35b8454835260019485019487945060209093019201610a20565b9094506020813d602011610b1b575b81610b0b60209383611693565b8101031261034a575193386109fa565b3d9150610afe565b6040513d88823e3d90fd5b50346101e057806003193601126101e057610b476119fd565b80546001600160a01b03198116825581906001600160a01b03167f8be0079c531659141344cd1fd0a4f28419497f9722a3daafe3b4186f6b6457e08280a380f35b50346101e057806003193601126101e05760ff6020915460a01c166040519015158152f35b50346101e05760203660031901126101e057600435610bca6119bb565b6002546040516395ea571760e01b815260048101839052908390829060249082906001600160a01b03165afa908115610749578391610f15575b5060208101516001600160a01b03163303610ed057608081015115610e8b5760409081015160025491516395ea571760e01b8152600481018490529092916001600160a01b03168482602481845afa918215610e80578592610e64575b506020820151336001600160a01b0390911603610e28576702c68af0bb14000084101580610e16575b610c9390611958565b846040830151926080810151151590606081019360a0855192015160405192610cbb84611661565b888452336020850152896040850152606084015284608084015260a08301524260c0830152803b15610e1257610d0c8492918392604051968780948193631430350760e21b83528d600484016119a4565b03925af19283156101d3578693610df1575b50509081610d7393928286897f54505b9e522263d538acc1f6de9658c2ae4fd39b8771f562481c2d375d1c1f2d9803610dba575b5050610d83575b505051604051948552606060208601526060850190611578565b928460408201528033940390a380f35b60407fb061566845b6680f66461fbe29235493f3aa355419d464d868114a32e0e7ae7b918151908152896020820152a28338610d59565b60407f07d20e42fbc3910f3e2536c15bfb3d2deec361f7b0534c071570af6608429f019181519081528b6020820152a28238610d52565b819294935090610e0091611693565b610e0e579083908638610d1e565b8580fd5b8380fd5b50674563918244f40000841115610c8a565b60405162461bcd60e51b81526020600482015260146024820152734f6e6c7920686f73742063616e2075706461746560601b6044820152606490fd5b610e799192503d8087833e61040e8183611693565b9038610c61565b6040513d87823e3d90fd5b60405162461bcd60e51b815260206004820152601860248201527f4e6574776f726b20616c726561647920696e61637469766500000000000000006044820152606490fd5b60405162461bcd60e51b815260206004820152601860248201527f4f6e6c7920686f73742063616e206465616374697661746500000000000000006044820152606490fd5b610f2991503d8085833e61040e8183611693565b38610c04565b50346101e05760203660031901126101e057602090600435815260058252604060018060a01b0391205416604051908152f35b50346101e057806003193601126101e057610f7b6119fd565b805460ff8160a01c1615610fc15760ff60a01b191681556040513381527f5db9ee0a495bf2e6ff9c91a7834c1ba4fdd244a5e8aa4e537bd38aeae4b073aa90602090a180f35b638dfc202b60e01b8252600482fd5b50346101e05760203660031901126101e0576004356001600160a01b0381169081900361026d5781526004602052604081206040518082602082945493848152019085526020852092855b81811061118457505061103092500382611693565b60025482906001600160a01b031681805b84518110156110be576110548186611859565b51604051906395ea571760e01b825260048201528281602481875afa80156107495760809184916110a4575b500151611090575b600101611041565b9261109c600191611883565b939050611088565b6110b891503d8086833e61040e8183611693565b38611080565b5050906110ca906118df565b8390845b845181101561116e576110e18186611859565b51604051906395ea571760e01b825260048201528681602481885afa908115611163578791611149575b50608081015161111f575b506001016110ce565b83611142916111316001949686611859565b5261113c8185611859565b50611883565b9290611116565b61115d91503d8089833e61040e8183611693565b3861110b565b6040513d89823e3d90fd5b604051602080825281906103f6908201856115f9565b845483526001948501948694506020909301920161101b565b50346101e05760603660031901126101e0576024356004356111bd611652565b916111c66119bb565b6111ce6119db565b6002546040516395ea571760e01b815260048101849052906001600160a01b03168582602481845afa918215610b235786926113ec575b506020820151336001600160a01b0390911603610e28576702c68af0bb140000831015806113da575b61123790611958565b6040820151866080840151151592606085019460a08651910151986040519161125f83611661565b898352336020840152886040840152606083015215159889608083015260a08201524260c0820152813b1561070e5782916112b191604051948580948193631430350760e21b83528d600484016119a4565b03925af18015610ab457611398575b509184611317928185877f54505b9e522263d538acc1f6de9658c2ae4fd39b8771f562481c2d375d1c1f2d989703611361575b505087810361132a575b505051604051928352606060208401526060830190611578565b9360408201528033940390a36001805580f35b60407fb061566845b6680f66461fbe29235493f3aa355419d464d868114a32e0e7ae7b918151908152896020820152a284386112fd565b60407f07d20e42fbc3910f3e2536c15bfb3d2deec361f7b0534c071570af6608429f01918151908152886020820152a281386112f3565b6113179286896113cd7f54505b9e522263d538acc1f6de9658c2ae4fd39b8771f562481c2d375d1c1f2d9897959b8395611693565b99939596505092506112c0565b50674563918244f4000083111561122e565b6114019192503d8088833e61040e8183611693565b9038611205565b50346101e057806003193601126101e057600254604051633ea7206960e21b8152600481018390526064602482015291908190839060449082906001600160a01b03165afa9182156101d35781926114ed575b5080815b83518110156114985760806114748286611859565b510151611484575b60010161145f565b90611490600191611883565b91905061147c565b506114a2906118df565b815b835181101561116e5760806114b98286611859565b5101516114c9575b6001016114a4565b916114e56001916114da8587611859565b516111318286611859565b9290506114c1565b6115029192503d8084833e6101c48183611693565b50903861145b565b50346101e057806003193601126101e0576002546040516001600160a01b039091168152602090f35b90503461026d578160031936011261026d57806702c68af0bb14000060209252f35b60005b8381106115685750506000910152565b8181015183820152602001611558565b9060209161159181518092818552858086019101611555565b601f01601f1916010190565b908151815260018060a01b0360208301511660208201526040820151604082015260c0806115da606085015160e0606086015260e0850190611578565b9360808101511515608085015260a081015160a0850152015191015290565b9080602083519182815201916020808360051b8301019401926000915b83831061162557505050505090565b9091929394602080611643600193601f19868203018752895161159d565b97019301930191939290611616565b60443590811515820361034a57565b60e0810190811067ffffffffffffffff82111761167d57604052565b634e487b7160e01b600052604160045260246000fd5b90601f8019910116810190811067ffffffffffffffff82111761167d57604052565b67ffffffffffffffff811161167d57601f01601f191660200190565b67ffffffffffffffff811161167d5760051b60200190565b91909160e08184031261034a576040519061170382611661565b805182526020810151919384926001600160a01b038116810361034a57602084015260408201516040840152606082015167ffffffffffffffff811161034a57820181601f8201121561034a57805161175b816116b5565b926117696040519485611693565b8184526020828401011161034a576117879160208085019101611555565b60608301526080810151801515810361034a5760c0918291608085015260a081015160a08501520151910152565b919060408382031261034a57825167ffffffffffffffff811161034a5783019080601f8301121561034a5781516117eb816116d1565b926117f96040519485611693565b81845260208085019260051b8201019183831161034a5760208201905b83821061182b57505050505060209092015190565b815167ffffffffffffffff811161034a5760209161184e878480948801016116e9565b815201910190611816565b805182101561186d5760209160051b010190565b634e487b7160e01b600052603260045260246000fd5b60001981146118925760010190565b634e487b7160e01b600052601160045260246000fd5b604051906118b582611661565b600060c0838281528260208201528260408201526060808201528260808201528260a08201520152565b906118e9826116d1565b6118f66040519182611693565b8281528092611907601f19916116d1565b019060005b82811061191857505050565b6020906119236118a8565b8282850101520161190c565b9060208282031261034a57815167ffffffffffffffff811161034a5761195592016116e9565b90565b1561195f57565b60405162461bcd60e51b815260206004820152601a60248201527f5072696365206f7574206f6620616c6c6f7765642072616e67650000000000006044820152606490fd5b60409061195593928152816020820152019061159d565b60ff60005460a01c166119ca57565b63d93c066560e01b60005260046000fd5b6002600154146119ec576002600155565b633ee5aeb560e01b60005260046000fd5b6000546001600160a01b03163303611a1157565b63118cdaa760e01b6000523360045260246000fdfea2646970667358221220c9558fb6453ec7ca55b19de52259006e6ec38f310e5fb94b1cbde8bc8b5ecd0664736f6c634300081c0033",
          "opcodes": "PUSH1 0x80 CALLVALUE PUSH2 0x125 JUMPI PUSH1 0x1F PUSH2 0x1B9D CODESIZE DUP2 SWAP1 SUB SWAP2 DUP3 ADD PUSH1 0x1F NOT AND DUP4 ADD SWAP2 PUSH1 0x1 PUSH1 0x1 PUSH1 0x40 SHL SUB DUP4 GT DUP5 DUP5 LT OR PUSH2 0x12A JUMPI DUP1 DUP5 SWAP3 PUSH1 0x20 SWAP5 PUSH1 0x40 MSTORE DUP4 CODECOPY DUP2 ADD SUB SLT PUSH2 0x125 JUMPI MLOAD PUSH1 0x1 PUSH1 0x1 PUSH1 0xA0 SHL SUB DUP2 AND SWAP1 DUP2 SWAP1 SUB PUSH2 0x125 JUMPI CALLER ISZERO PUSH2 0x10F JUMPI PUSH1 0x0 DUP1 SLOAD CALLER PUSH1 0x1 PUSH1 0x1 PUSH1 0xA0 SHL SUB NOT DUP3 AND DUP2 OR DUP4 SSTORE PUSH1 0x40 MLOAD SWAP3 SWAP1 SWAP2 PUSH1 0x1 PUSH1 0x1 PUSH1 0xA0 SHL SUB AND SWAP1 PUSH32 0x8BE0079C531659141344CD1FD0A4F28419497F9722A3DAAFE3B4186F6B6457E0 SWAP1 DUP1 LOG3 PUSH1 0x1 DUP1 SSTORE DUP2 ISZERO PUSH2 0xCD JUMPI POP PUSH1 0x2 DUP1 SLOAD PUSH1 0x1 PUSH1 0x1 PUSH1 0xA0 SHL SUB NOT AND SWAP2 SWAP1 SWAP2 OR SWAP1 SSTORE PUSH1 0x40 MLOAD PUSH2 0x1A5C SWAP1 DUP2 PUSH2 0x141 DUP3 CODECOPY RETURN JUMPDEST PUSH3 0x461BCD PUSH1 0xE5 SHL DUP2 MSTORE PUSH1 0x20 PUSH1 0x4 DUP3 ADD DUP2 SWAP1 MSTORE PUSH1 0x24 DUP3 ADD MSTORE PUSH32 0x496E76616C69642073746F7261676520636F6E74726163742061646472657373 PUSH1 0x44 DUP3 ADD MSTORE PUSH1 0x64 SWAP1 REVERT JUMPDEST PUSH4 0x1E4FBDF7 PUSH1 0xE0 SHL PUSH1 0x0 MSTORE PUSH1 0x0 PUSH1 0x4 MSTORE PUSH1 0x24 PUSH1 0x0 REVERT JUMPDEST PUSH1 0x0 DUP1 REVERT JUMPDEST PUSH4 0x4E487B71 PUSH1 0xE0 SHL PUSH1 0x0 MSTORE PUSH1 0x41 PUSH1 0x4 MSTORE PUSH1 0x24 PUSH1 0x0 REVERT INVALID PUSH1 0x80 DUP1 PUSH1 0x40 MSTORE PUSH1 0x4 CALLDATASIZE LT ISZERO PUSH2 0x13 JUMPI PUSH1 0x0 DUP1 REVERT JUMPDEST PUSH1 0x0 SWAP1 DUP2 CALLDATALOAD PUSH1 0xE0 SHR SWAP1 DUP2 PUSH4 0x9115E97 EQ PUSH2 0x1533 JUMPI POP DUP1 PUSH4 0x11CE0267 EQ PUSH2 0x150A JUMPI DUP1 PUSH4 0x16CB6EFF EQ PUSH2 0x1408 JUMPI DUP1 PUSH4 0x1B63FE67 EQ PUSH2 0x119D JUMPI DUP1 PUSH4 0x2B2A748C EQ PUSH2 0xFD0 JUMPI DUP1 PUSH4 0x3F4BA83A EQ PUSH2 0xF62 JUMPI DUP1 PUSH4 0x43355214 EQ PUSH2 0xF2F JUMPI DUP1 PUSH4 0x4B9791E8 EQ PUSH2 0xBAD JUMPI DUP1 PUSH4 0x5C975ABB EQ PUSH2 0xB88 JUMPI DUP1 PUSH4 0x715018A6 EQ PUSH2 0xB2E JUMPI DUP1 PUSH4 0x764AC734 EQ PUSH2 0x98E JUMPI DUP1 PUSH4 0x79F0DC57 EQ PUSH2 0x8D5 JUMPI DUP1 PUSH4 0x7F6E8CBF EQ PUSH2 0x898 JUMPI DUP1 PUSH4 0x8456CB59 EQ PUSH2 0x837 JUMPI DUP1 PUSH4 0x867F1A09 EQ PUSH2 0x271 JUMPI DUP1 PUSH4 0x8DA5CB5B EQ PUSH2 0x810 JUMPI DUP1 PUSH4 0x900E41B1 EQ PUSH2 0x444 JUMPI DUP1 PUSH4 0xB0FF6383 EQ PUSH2 0x428 JUMPI DUP1 PUSH4 0xCD83FB9A EQ PUSH2 0x386 JUMPI DUP1 PUSH4 0xD4F38D04 EQ PUSH2 0x363 JUMPI DUP1 PUSH4 0xDFE6B5D6 EQ PUSH2 0x2CF JUMPI DUP1 PUSH4 0xE67D86F1 EQ PUSH2 0x2B3 JUMPI DUP1 PUSH4 0xEB2931B7 EQ PUSH2 0x271 JUMPI DUP1 PUSH4 0xF2FDE38B EQ PUSH2 0x1E3 JUMPI PUSH4 0xFA9C81A4 EQ PUSH2 0x134 JUMPI PUSH1 0x0 DUP1 REVERT JUMPDEST CALLVALUE PUSH2 0x1E0 JUMPI PUSH1 0x40 CALLDATASIZE PUSH1 0x3 NOT ADD SLT PUSH2 0x1E0 JUMPI PUSH1 0x2 SLOAD PUSH1 0x40 MLOAD PUSH4 0x3EA72069 PUSH1 0xE2 SHL DUP2 MSTORE PUSH1 0x4 DUP1 CALLDATALOAD SWAP1 DUP3 ADD MSTORE PUSH1 0x24 DUP1 CALLDATALOAD SWAP1 DUP3 ADD MSTORE SWAP2 SWAP1 DUP2 SWAP1 DUP4 SWAP1 PUSH1 0x44 SWAP1 DUP3 SWAP1 PUSH1 0x1 PUSH1 0x1 PUSH1 0xA0 SHL SUB AND GAS STATICCALL DUP1 ISZERO PUSH2 0x1D3 JUMPI PUSH2 0x1A3 SWAP3 DUP3 DUP1 SWAP3 PUSH2 0x1AD JUMPI JUMPDEST POP POP PUSH1 0x40 MLOAD SWAP3 DUP4 SWAP3 PUSH1 0x40 DUP5 MSTORE PUSH1 0x40 DUP5 ADD SWAP1 PUSH2 0x15F9 JUMP JUMPDEST SWAP1 PUSH1 0x20 DUP4 ADD MSTORE SUB SWAP1 RETURN JUMPDEST SWAP1 SWAP2 POP PUSH2 0x1CC SWAP3 POP RETURNDATASIZE DUP1 SWAP2 DUP4 RETURNDATACOPY PUSH2 0x1C4 DUP2 DUP4 PUSH2 0x1693 JUMP JUMPDEST DUP2 ADD SWAP1 PUSH2 0x17B5 JUMP JUMPDEST CODESIZE DUP1 PUSH2 0x18D JUMP JUMPDEST POP PUSH1 0x40 MLOAD SWAP1 RETURNDATASIZE SWAP1 DUP3 RETURNDATACOPY RETURNDATASIZE SWAP1 REVERT JUMPDEST DUP1 REVERT JUMPDEST POP CALLVALUE PUSH2 0x1E0 JUMPI PUSH1 0x20 CALLDATASIZE PUSH1 0x3 NOT ADD SLT PUSH2 0x1E0 JUMPI PUSH1 0x4 CALLDATALOAD PUSH1 0x1 PUSH1 0x1 PUSH1 0xA0 SHL SUB DUP2 AND SWAP1 DUP2 SWAP1 SUB PUSH2 0x26D JUMPI PUSH2 0x212 PUSH2 0x19FD JUMP JUMPDEST DUP1 ISZERO PUSH2 0x259 JUMPI DUP2 SLOAD PUSH1 0x1 PUSH1 0x1 PUSH1 0xA0 SHL SUB NOT DUP2 AND DUP3 OR DUP4 SSTORE PUSH1 0x1 PUSH1 0x1 PUSH1 0xA0 SHL SUB AND PUSH32 0x8BE0079C531659141344CD1FD0A4F28419497F9722A3DAAFE3B4186F6B6457E0 DUP4 DUP1 LOG3 DUP1 RETURN JUMPDEST PUSH4 0x1E4FBDF7 PUSH1 0xE0 SHL DUP3 MSTORE PUSH1 0x4 DUP3 SWAP1 MSTORE PUSH1 0x24 DUP3 REVERT JUMPDEST POP DUP1 REVERT JUMPDEST POP CALLVALUE PUSH2 0x1E0 JUMPI PUSH1 0x20 CALLDATASIZE PUSH1 0x3 NOT ADD SLT PUSH2 0x1E0 JUMPI PUSH1 0x4 CALLDATALOAD PUSH1 0x1 PUSH1 0x1 PUSH1 0xA0 SHL SUB DUP2 AND SWAP1 DUP2 SWAP1 SUB PUSH2 0x26D JUMPI PUSH1 0x40 DUP3 PUSH1 0xFF SWAP3 PUSH1 0x20 SWAP5 MSTORE PUSH1 0x3 DUP5 MSTORE KECCAK256 SLOAD AND PUSH1 0x40 MLOAD SWAP1 ISZERO ISZERO DUP2 MSTORE RETURN JUMPDEST POP CALLVALUE PUSH2 0x1E0 JUMPI DUP1 PUSH1 0x3 NOT CALLDATASIZE ADD SLT PUSH2 0x1E0 JUMPI PUSH1 0x20 PUSH1 0x40 MLOAD PUSH1 0xC8 DUP2 MSTORE RETURN JUMPDEST POP CALLVALUE PUSH2 0x1E0 JUMPI DUP1 PUSH1 0x3 NOT CALLDATASIZE ADD SLT PUSH2 0x1E0 JUMPI PUSH1 0x2 SLOAD PUSH1 0x40 MLOAD PUSH4 0x217C682D PUSH1 0xE0 SHL DUP2 MSTORE SWAP2 SWAP1 PUSH1 0x20 SWAP1 DUP4 SWAP1 PUSH1 0x4 SWAP1 DUP3 SWAP1 PUSH1 0x1 PUSH1 0x1 PUSH1 0xA0 SHL SUB AND GAS STATICCALL SWAP1 DUP2 ISZERO PUSH2 0x357 JUMPI SWAP1 PUSH2 0x31F JUMPI JUMPDEST PUSH1 0x20 SWAP1 PUSH1 0x40 MLOAD SWAP1 DUP2 MSTORE RETURN JUMPDEST POP PUSH1 0x20 DUP2 RETURNDATASIZE PUSH1 0x20 GT PUSH2 0x34F JUMPI JUMPDEST DUP2 PUSH2 0x339 PUSH1 0x20 SWAP4 DUP4 PUSH2 0x1693 JUMP JUMPDEST DUP2 ADD SUB SLT PUSH2 0x34A JUMPI PUSH1 0x20 SWAP1 MLOAD PUSH2 0x314 JUMP JUMPDEST PUSH1 0x0 DUP1 REVERT JUMPDEST RETURNDATASIZE SWAP2 POP PUSH2 0x32C JUMP JUMPDEST PUSH1 0x40 MLOAD SWAP1 RETURNDATASIZE SWAP1 DUP3 RETURNDATACOPY RETURNDATASIZE SWAP1 REVERT JUMPDEST POP CALLVALUE PUSH2 0x1E0 JUMPI DUP1 PUSH1 0x3 NOT CALLDATASIZE ADD SLT PUSH2 0x1E0 JUMPI PUSH1 0x20 PUSH1 0x40 MLOAD PUSH8 0x4563918244F40000 DUP2 MSTORE RETURN JUMPDEST POP CALLVALUE PUSH2 0x1E0 JUMPI PUSH1 0x20 CALLDATASIZE PUSH1 0x3 NOT ADD SLT PUSH2 0x1E0 JUMPI PUSH2 0x3A0 PUSH2 0x18A8 JUMP JUMPDEST POP PUSH1 0x2 SLOAD PUSH1 0x40 MLOAD PUSH4 0x95EA5717 PUSH1 0xE0 SHL DUP2 MSTORE PUSH1 0x4 DUP1 CALLDATALOAD SWAP1 DUP3 ADD MSTORE SWAP1 DUP3 SWAP1 DUP3 SWAP1 PUSH1 0x24 SWAP1 DUP3 SWAP1 PUSH1 0x1 PUSH1 0x1 PUSH1 0xA0 SHL SUB AND GAS STATICCALL SWAP1 DUP2 ISZERO PUSH2 0x41D JUMPI DUP3 PUSH2 0x3F6 SWAP4 SWAP3 PUSH2 0x3FA JUMPI JUMPDEST POP POP PUSH1 0x40 MLOAD SWAP2 DUP3 SWAP2 PUSH1 0x20 DUP4 MSTORE PUSH1 0x20 DUP4 ADD SWAP1 PUSH2 0x159D JUMP JUMPDEST SUB SWAP1 RETURN JUMPDEST PUSH2 0x416 SWAP3 POP RETURNDATASIZE DUP1 SWAP2 DUP4 RETURNDATACOPY PUSH2 0x40E DUP2 DUP4 PUSH2 0x1693 JUMP JUMPDEST DUP2 ADD SWAP1 PUSH2 0x192F JUMP JUMPDEST CODESIZE DUP1 PUSH2 0x3E0 JUMP JUMPDEST PUSH1 0x40 MLOAD RETURNDATASIZE DUP5 DUP3 RETURNDATACOPY RETURNDATASIZE SWAP1 REVERT JUMPDEST POP CALLVALUE PUSH2 0x1E0 JUMPI DUP1 PUSH1 0x3 NOT CALLDATASIZE ADD SLT PUSH2 0x1E0 JUMPI PUSH1 0x20 PUSH1 0x40 MLOAD PUSH1 0x3C DUP2 MSTORE RETURN JUMPDEST POP CALLVALUE PUSH2 0x1E0 JUMPI PUSH1 0x60 CALLDATASIZE PUSH1 0x3 NOT ADD SLT PUSH2 0x1E0 JUMPI PUSH1 0x24 CALLDATALOAD PUSH1 0x4 CALLDATALOAD PUSH8 0xFFFFFFFFFFFFFFFF DUP3 GT PUSH2 0x70E JUMPI CALLDATASIZE PUSH1 0x23 DUP4 ADD SLT ISZERO PUSH2 0x70E JUMPI DUP3 DUP3 PUSH1 0x4 ADD CALLDATALOAD SWAP3 PUSH2 0x486 DUP5 PUSH2 0x16B5 JUMP JUMPDEST SWAP4 PUSH2 0x494 PUSH1 0x40 MLOAD SWAP6 DUP7 PUSH2 0x1693 JUMP JUMPDEST DUP1 DUP6 MSTORE CALLDATASIZE PUSH1 0x24 DUP3 DUP5 ADD ADD GT PUSH2 0x70E JUMPI DUP1 PUSH1 0x24 PUSH1 0x20 SWAP4 ADD DUP4 DUP8 ADD CALLDATACOPY DUP5 ADD ADD MSTORE PUSH2 0x4BA PUSH2 0x1652 JUMP JUMPDEST PUSH2 0x4C2 PUSH2 0x19BB JUMP JUMPDEST PUSH2 0x4CA PUSH2 0x19DB JUMP JUMPDEST CALLER DUP5 MSTORE PUSH1 0x6 PUSH1 0x20 MSTORE PUSH1 0x40 DUP5 KECCAK256 SLOAD PUSH1 0x3C DUP2 ADD DUP1 SWAP2 GT PUSH2 0x7FC JUMPI TIMESTAMP LT PUSH2 0x7B7 JUMPI PUSH8 0x2C68AF0BB140000 DUP3 LT ISZERO DUP1 PUSH2 0x7A5 JUMPI JUMPDEST PUSH2 0x503 SWAP1 PUSH2 0x1958 JUMP JUMPDEST DUP3 MLOAD DUP1 ISZERO ISZERO SWAP1 DUP2 PUSH2 0x799 JUMPI JUMPDEST POP ISZERO PUSH2 0x754 JUMPI PUSH1 0x2 SLOAD PUSH1 0x40 MLOAD PUSH4 0x29487FE3 PUSH1 0xE1 SHL DUP2 MSTORE SWAP3 DUP6 SWAP3 SWAP1 SWAP2 PUSH1 0x20 SWAP1 DUP6 SWAP1 PUSH1 0x4 SWAP1 DUP3 SWAP1 DUP8 SWAP1 PUSH1 0x1 PUSH1 0x1 PUSH1 0xA0 SHL SUB AND GAS CALL SWAP4 DUP5 ISZERO PUSH2 0x749 JUMPI DUP4 SWAP5 PUSH2 0x712 JUMPI JUMPDEST POP PUSH1 0x1 DUP1 PUSH1 0xA0 SHL SUB PUSH1 0x2 SLOAD AND SWAP1 PUSH1 0x40 MLOAD SWAP3 PUSH2 0x569 DUP5 PUSH2 0x1661 JUMP JUMPDEST DUP6 DUP5 MSTORE CALLER PUSH1 0x20 DUP6 ADD MSTORE PUSH1 0x40 DUP5 ADD MSTORE DUP6 PUSH1 0x60 DUP5 ADD MSTORE ISZERO ISZERO PUSH1 0x80 DUP4 ADD MSTORE TIMESTAMP PUSH1 0xA0 DUP4 ADD MSTORE TIMESTAMP PUSH1 0xC0 DUP4 ADD MSTORE DUP1 EXTCODESIZE ISZERO PUSH2 0x70E JUMPI PUSH1 0x40 MLOAD PUSH4 0x14303507 PUSH1 0xE2 SHL DUP2 MSTORE SWAP2 DUP4 SWAP2 DUP4 SWAP2 DUP3 SWAP1 DUP5 SWAP1 DUP3 SWAP1 PUSH2 0x5BD SWAP1 DUP11 PUSH1 0x4 DUP5 ADD PUSH2 0x19A4 JUMP JUMPDEST SUB SWAP3 GAS CALL DUP1 ISZERO PUSH2 0x41D JUMPI PUSH2 0x6F9 JUMPI JUMPDEST POP POP CALLER DUP4 MSTORE PUSH1 0x4 PUSH1 0x20 MSTORE PUSH1 0x40 DUP4 KECCAK256 DUP1 SLOAD SWAP1 PUSH9 0x10000000000000000 DUP3 LT ISZERO PUSH2 0x6E5 JUMPI PUSH1 0x1 DUP3 ADD DUP1 DUP3 SSTORE DUP3 LT ISZERO PUSH2 0x6D1 JUMPI SWAP1 DUP3 SWAP2 DUP6 MSTORE PUSH1 0x20 DUP6 KECCAK256 ADD SSTORE DUP1 DUP4 MSTORE PUSH1 0x5 PUSH1 0x20 MSTORE PUSH1 0x40 DUP4 KECCAK256 CALLER PUSH12 0xFFFFFFFFFFFFFFFFFFFFFFFF PUSH1 0xA0 SHL DUP3 SLOAD AND OR SWAP1 SSTORE CALLER DUP4 MSTORE PUSH1 0x6 PUSH1 0x20 MSTORE TIMESTAMP PUSH1 0x40 DUP5 KECCAK256 SSTORE CALLER DUP4 MSTORE PUSH1 0x3 PUSH1 0x20 MSTORE PUSH1 0xFF PUSH1 0x40 DUP5 KECCAK256 SLOAD AND ISZERO PUSH2 0x690 JUMPI JUMPDEST PUSH32 0xAC8D319E4BA2A19144062917C8CB50CC9CFFB2F0EEA3004B86B48C06CC6845C8 PUSH1 0x40 MLOAD PUSH1 0x20 DUP2 MSTORE DUP1 PUSH2 0x686 CALLER SWAP6 PUSH1 0x20 DUP4 ADD SWAP1 PUSH2 0x1578 JUMP JUMPDEST SUB SWAP1 LOG3 PUSH1 0x1 DUP1 SSTORE DUP1 RETURN JUMPDEST CALLER DUP1 DUP5 MSTORE PUSH1 0x3 PUSH1 0x20 MSTORE PUSH1 0x40 DUP5 KECCAK256 DUP1 SLOAD PUSH1 0xFF NOT AND PUSH1 0x1 OR SWAP1 SSTORE PUSH32 0x8FF9310ABEDE1DE3C5D3FDBB7CF09C40BC8258CA75C0F949AD92F964DEAC98B3 DUP5 DUP1 LOG2 PUSH2 0x64E JUMP JUMPDEST PUSH4 0x4E487B71 PUSH1 0xE0 SHL DUP6 MSTORE PUSH1 0x32 PUSH1 0x4 MSTORE PUSH1 0x24 DUP6 REVERT JUMPDEST PUSH4 0x4E487B71 PUSH1 0xE0 SHL DUP6 MSTORE PUSH1 0x41 PUSH1 0x4 MSTORE PUSH1 0x24 DUP6 REVERT JUMPDEST DUP2 PUSH2 0x703 SWAP2 PUSH2 0x1693 JUMP JUMPDEST PUSH2 0x70E JUMPI DUP3 CODESIZE PUSH2 0x5CC JUMP JUMPDEST DUP3 DUP1 REVERT JUMPDEST SWAP3 POP SWAP3 POP PUSH1 0x20 DUP3 RETURNDATASIZE PUSH1 0x20 GT PUSH2 0x741 JUMPI JUMPDEST DUP2 PUSH2 0x72F PUSH1 0x20 SWAP4 DUP4 PUSH2 0x1693 JUMP JUMPDEST DUP2 ADD SUB SLT PUSH2 0x34A JUMPI DUP5 SWAP2 MLOAD SWAP3 CODESIZE PUSH2 0x54F JUMP JUMPDEST RETURNDATASIZE SWAP2 POP PUSH2 0x722 JUMP JUMPDEST PUSH1 0x40 MLOAD RETURNDATASIZE DUP6 DUP3 RETURNDATACOPY RETURNDATASIZE SWAP1 REVERT JUMPDEST PUSH1 0x40 MLOAD PUSH3 0x461BCD PUSH1 0xE5 SHL DUP2 MSTORE PUSH1 0x20 PUSH1 0x4 DUP3 ADD MSTORE PUSH1 0x1A PUSH1 0x24 DUP3 ADD MSTORE PUSH32 0x496E76616C6964204D6F6E676F446174614944206C656E677468000000000000 PUSH1 0x44 DUP3 ADD MSTORE PUSH1 0x64 SWAP1 REVERT JUMPDEST PUSH1 0xC8 SWAP2 POP GT ISZERO CODESIZE PUSH2 0x50F JUMP JUMPDEST POP PUSH8 0x4563918244F40000 DUP3 GT ISZERO PUSH2 0x4FA JUMP JUMPDEST PUSH1 0x40 MLOAD PUSH3 0x461BCD PUSH1 0xE5 SHL DUP2 MSTORE PUSH1 0x20 PUSH1 0x4 DUP3 ADD MSTORE PUSH1 0x1C PUSH1 0x24 DUP3 ADD MSTORE PUSH32 0x526567697374726174696F6E20636F6F6C646F776E2061637469766500000000 PUSH1 0x44 DUP3 ADD MSTORE PUSH1 0x64 SWAP1 REVERT JUMPDEST PUSH4 0x4E487B71 PUSH1 0xE0 SHL DUP6 MSTORE PUSH1 0x11 PUSH1 0x4 MSTORE PUSH1 0x24 DUP6 REVERT JUMPDEST POP CALLVALUE PUSH2 0x1E0 JUMPI DUP1 PUSH1 0x3 NOT CALLDATASIZE ADD SLT PUSH2 0x1E0 JUMPI SLOAD PUSH1 0x40 MLOAD PUSH1 0x1 PUSH1 0x1 PUSH1 0xA0 SHL SUB SWAP1 SWAP2 AND DUP2 MSTORE PUSH1 0x20 SWAP1 RETURN JUMPDEST POP CALLVALUE PUSH2 0x1E0 JUMPI DUP1 PUSH1 0x3 NOT CALLDATASIZE ADD SLT PUSH2 0x1E0 JUMPI PUSH2 0x850 PUSH2 0x19FD JUMP JUMPDEST PUSH2 0x858 PUSH2 0x19BB JUMP JUMPDEST DUP1 SLOAD PUSH1 0xFF PUSH1 0xA0 SHL NOT AND PUSH1 0x1 PUSH1 0xA0 SHL OR DUP2 SSTORE PUSH1 0x40 MLOAD CALLER DUP2 MSTORE PUSH32 0x62E78CEA01BEE320CD4E420270B5EA74000D11B0C9F74754EBDBFC544B05A258 SWAP1 PUSH1 0x20 SWAP1 LOG1 DUP1 RETURN JUMPDEST POP CALLVALUE PUSH2 0x1E0 JUMPI PUSH1 0x20 CALLDATASIZE PUSH1 0x3 NOT ADD SLT PUSH2 0x1E0 JUMPI PUSH1 0x4 CALLDATALOAD PUSH1 0x1 PUSH1 0x1 PUSH1 0xA0 SHL SUB DUP2 AND SWAP1 DUP2 SWAP1 SUB PUSH2 0x26D JUMPI DUP2 PUSH1 0x40 SWAP2 PUSH1 0x20 SWAP4 MSTORE PUSH1 0x6 DUP4 MSTORE KECCAK256 SLOAD PUSH1 0x40 MLOAD SWAP1 DUP2 MSTORE RETURN JUMPDEST POP CALLVALUE PUSH2 0x1E0 JUMPI PUSH1 0x20 CALLDATASIZE PUSH1 0x3 NOT ADD SLT PUSH2 0x1E0 JUMPI PUSH1 0x4 CALLDATALOAD PUSH1 0x1 PUSH1 0x1 PUSH1 0xA0 SHL SUB DUP2 AND SWAP1 DUP2 SWAP1 SUB PUSH2 0x26D JUMPI DUP2 MSTORE PUSH1 0x4 PUSH1 0x20 MSTORE PUSH1 0x40 DUP2 KECCAK256 PUSH1 0x40 MLOAD SWAP1 DUP2 PUSH1 0x20 DUP3 SLOAD SWAP2 DUP3 DUP2 MSTORE ADD SWAP1 DUP2 SWAP3 DUP6 MSTORE PUSH1 0x20 DUP6 KECCAK256 SWAP1 DUP6 JUMPDEST DUP2 DUP2 LT PUSH2 0x978 JUMPI POP POP POP DUP3 PUSH2 0x937 SWAP2 SUB DUP4 PUSH2 0x1693 JUMP JUMPDEST PUSH1 0x40 MLOAD SWAP3 DUP4 SWAP3 PUSH1 0x20 DUP5 ADD SWAP1 PUSH1 0x20 DUP6 MSTORE MLOAD DUP1 SWAP2 MSTORE PUSH1 0x40 DUP5 ADD SWAP3 SWAP2 JUMPDEST DUP2 DUP2 LT PUSH2 0x95F JUMPI POP POP POP SUB SWAP1 RETURN JUMPDEST DUP3 MLOAD DUP5 MSTORE DUP6 SWAP5 POP PUSH1 0x20 SWAP4 DUP5 ADD SWAP4 SWAP1 SWAP3 ADD SWAP2 PUSH1 0x1 ADD PUSH2 0x951 JUMP JUMPDEST DUP3 SLOAD DUP5 MSTORE PUSH1 0x20 SWAP1 SWAP4 ADD SWAP3 PUSH1 0x1 SWAP3 DUP4 ADD SWAP3 ADD PUSH2 0x921 JUMP JUMPDEST POP CALLVALUE PUSH2 0x1E0 JUMPI PUSH1 0x20 CALLDATASIZE PUSH1 0x3 NOT ADD SLT PUSH2 0x1E0 JUMPI PUSH1 0x4 CALLDATALOAD PUSH1 0x1 PUSH1 0x1 PUSH1 0xA0 SHL SUB DUP2 AND SWAP1 DUP2 SWAP1 SUB PUSH2 0x26D JUMPI DUP2 DUP2 DUP4 MSTORE PUSH1 0x4 PUSH1 0x20 MSTORE PUSH1 0x40 DUP4 KECCAK256 SLOAD PUSH1 0x1 DUP1 PUSH1 0xA0 SHL SUB PUSH1 0x2 SLOAD AND SWAP1 PUSH1 0x40 MLOAD SWAP4 PUSH4 0x6D65573F PUSH1 0xE0 SHL DUP6 MSTORE DUP1 PUSH1 0x4 DUP7 ADD MSTORE PUSH1 0x20 DUP6 PUSH1 0x24 DUP2 DUP7 GAS STATICCALL SWAP5 DUP6 ISZERO PUSH2 0xB23 JUMPI DUP7 SWAP6 PUSH2 0xAEF JUMPI JUMPDEST POP DUP6 MSTORE PUSH1 0x4 PUSH1 0x20 MSTORE PUSH1 0x40 DUP6 KECCAK256 SWAP1 PUSH1 0x40 MLOAD DUP1 DUP4 PUSH1 0x20 DUP3 SWAP6 SLOAD SWAP4 DUP5 DUP2 MSTORE ADD SWAP1 DUP10 MSTORE PUSH1 0x20 DUP10 KECCAK256 SWAP3 DUP10 JUMPDEST DUP2 DUP2 LT PUSH2 0xAD6 JUMPI POP POP PUSH2 0xA35 SWAP3 POP SUB DUP4 PUSH2 0x1693 JUMP JUMPDEST DUP6 JUMPDEST DUP3 MLOAD DUP2 LT ISZERO PUSH2 0xABF JUMPI PUSH2 0xA4A DUP2 DUP5 PUSH2 0x1859 JUMP JUMPDEST MLOAD PUSH1 0x40 MLOAD SWAP1 PUSH4 0x95EA5717 PUSH1 0xE0 SHL DUP3 MSTORE PUSH1 0x4 DUP3 ADD MSTORE DUP8 DUP2 PUSH1 0x24 DUP2 DUP9 GAS STATICCALL DUP1 ISZERO PUSH2 0xAB4 JUMPI PUSH1 0x80 SWAP2 DUP10 SWAP2 PUSH2 0xA9A JUMPI JUMPDEST POP ADD MLOAD PUSH2 0xA86 JUMPI JUMPDEST PUSH1 0x1 ADD PUSH2 0xA37 JUMP JUMPDEST SWAP4 PUSH2 0xA92 PUSH1 0x1 SWAP2 PUSH2 0x1883 JUMP JUMPDEST SWAP5 SWAP1 POP PUSH2 0xA7E JUMP JUMPDEST PUSH2 0xAAE SWAP2 POP RETURNDATASIZE DUP1 DUP12 DUP4 RETURNDATACOPY PUSH2 0x40E DUP2 DUP4 PUSH2 0x1693 JUMP JUMPDEST CODESIZE PUSH2 0xA76 JUMP JUMPDEST PUSH1 0x40 MLOAD RETURNDATASIZE DUP11 DUP3 RETURNDATACOPY RETURNDATASIZE SWAP1 REVERT JUMPDEST PUSH1 0x60 DUP3 DUP8 DUP8 PUSH1 0x40 MLOAD SWAP3 DUP4 MSTORE PUSH1 0x20 DUP4 ADD MSTORE PUSH1 0x40 DUP3 ADD MSTORE RETURN JUMPDEST DUP5 SLOAD DUP4 MSTORE PUSH1 0x1 SWAP5 DUP6 ADD SWAP5 DUP8 SWAP5 POP PUSH1 0x20 SWAP1 SWAP4 ADD SWAP3 ADD PUSH2 0xA20 JUMP JUMPDEST SWAP1 SWAP5 POP PUSH1 0x20 DUP2 RETURNDATASIZE PUSH1 0x20 GT PUSH2 0xB1B JUMPI JUMPDEST DUP2 PUSH2 0xB0B PUSH1 0x20 SWAP4 DUP4 PUSH2 0x1693 JUMP JUMPDEST DUP2 ADD SUB SLT PUSH2 0x34A JUMPI MLOAD SWAP4 CODESIZE PUSH2 0x9FA JUMP JUMPDEST RETURNDATASIZE SWAP2 POP PUSH2 0xAFE JUMP JUMPDEST PUSH1 0x40 MLOAD RETURNDATASIZE DUP9 DUP3 RETURNDATACOPY RETURNDATASIZE SWAP1 REVERT JUMPDEST POP CALLVALUE PUSH2 0x1E0 JUMPI DUP1 PUSH1 0x3 NOT CALLDATASIZE ADD SLT PUSH2 0x1E0 JUMPI PUSH2 0xB47 PUSH2 0x19FD JUMP JUMPDEST DUP1 SLOAD PUSH1 0x1 PUSH1 0x1 PUSH1 0xA0 SHL SUB NOT DUP2 AND DUP3 SSTORE DUP2 SWAP1 PUSH1 0x1 PUSH1 0x1 PUSH1 0xA0 SHL SUB AND PUSH32 0x8BE0079C531659141344CD1FD0A4F28419497F9722A3DAAFE3B4186F6B6457E0 DUP3 DUP1 LOG3 DUP1 RETURN JUMPDEST POP CALLVALUE PUSH2 0x1E0 JUMPI DUP1 PUSH1 0x3 NOT CALLDATASIZE ADD SLT PUSH2 0x1E0 JUMPI PUSH1 0xFF PUSH1 0x20 SWAP2 SLOAD PUSH1 0xA0 SHR AND PUSH1 0x40 MLOAD SWAP1 ISZERO ISZERO DUP2 MSTORE RETURN JUMPDEST POP CALLVALUE PUSH2 0x1E0 JUMPI PUSH1 0x20 CALLDATASIZE PUSH1 0x3 NOT ADD SLT PUSH2 0x1E0 JUMPI PUSH1 0x4 CALLDATALOAD PUSH2 0xBCA PUSH2 0x19BB JUMP JUMPDEST PUSH1 0x2 SLOAD PUSH1 0x40 MLOAD PUSH4 0x95EA5717 PUSH1 0xE0 SHL DUP2 MSTORE PUSH1 0x4 DUP2 ADD DUP4 SWAP1 MSTORE SWAP1 DUP4 SWAP1 DUP3 SWAP1 PUSH1 0x24 SWAP1 DUP3 SWAP1 PUSH1 0x1 PUSH1 0x1 PUSH1 0xA0 SHL SUB AND GAS STATICCALL SWAP1 DUP2 ISZERO PUSH2 0x749 JUMPI DUP4 SWAP2 PUSH2 0xF15 JUMPI JUMPDEST POP PUSH1 0x20 DUP2 ADD MLOAD PUSH1 0x1 PUSH1 0x1 PUSH1 0xA0 SHL SUB AND CALLER SUB PUSH2 0xED0 JUMPI PUSH1 0x80 DUP2 ADD MLOAD ISZERO PUSH2 0xE8B JUMPI PUSH1 0x40 SWAP1 DUP2 ADD MLOAD PUSH1 0x2 SLOAD SWAP2 MLOAD PUSH4 0x95EA5717 PUSH1 0xE0 SHL DUP2 MSTORE PUSH1 0x4 DUP2 ADD DUP5 SWAP1 MSTORE SWAP1 SWAP3 SWAP2 PUSH1 0x1 PUSH1 0x1 PUSH1 0xA0 SHL SUB AND DUP5 DUP3 PUSH1 0x24 DUP2 DUP5 GAS STATICCALL SWAP2 DUP3 ISZERO PUSH2 0xE80 JUMPI DUP6 SWAP3 PUSH2 0xE64 JUMPI JUMPDEST POP PUSH1 0x20 DUP3 ADD MLOAD CALLER PUSH1 0x1 PUSH1 0x1 PUSH1 0xA0 SHL SUB SWAP1 SWAP2 AND SUB PUSH2 0xE28 JUMPI PUSH8 0x2C68AF0BB140000 DUP5 LT ISZERO DUP1 PUSH2 0xE16 JUMPI JUMPDEST PUSH2 0xC93 SWAP1 PUSH2 0x1958 JUMP JUMPDEST DUP5 PUSH1 0x40 DUP4 ADD MLOAD SWAP3 PUSH1 0x80 DUP2 ADD MLOAD ISZERO ISZERO SWAP1 PUSH1 0x60 DUP2 ADD SWAP4 PUSH1 0xA0 DUP6 MLOAD SWAP3 ADD MLOAD PUSH1 0x40 MLOAD SWAP3 PUSH2 0xCBB DUP5 PUSH2 0x1661 JUMP JUMPDEST DUP9 DUP5 MSTORE CALLER PUSH1 0x20 DUP6 ADD MSTORE DUP10 PUSH1 0x40 DUP6 ADD MSTORE PUSH1 0x60 DUP5 ADD MSTORE DUP5 PUSH1 0x80 DUP5 ADD MSTORE PUSH1 0xA0 DUP4 ADD MSTORE TIMESTAMP PUSH1 0xC0 DUP4 ADD MSTORE DUP1 EXTCODESIZE ISZERO PUSH2 0xE12 JUMPI PUSH2 0xD0C DUP5 SWAP3 SWAP2 DUP4 SWAP3 PUSH1 0x40 MLOAD SWAP7 DUP8 DUP1 SWAP5 DUP2 SWAP4 PUSH4 0x14303507 PUSH1 0xE2 SHL DUP4 MSTORE DUP14 PUSH1 0x4 DUP5 ADD PUSH2 0x19A4 JUMP JUMPDEST SUB SWAP3 GAS CALL SWAP3 DUP4 ISZERO PUSH2 0x1D3 JUMPI DUP7 SWAP4 PUSH2 0xDF1 JUMPI JUMPDEST POP POP SWAP1 DUP2 PUSH2 0xD73 SWAP4 SWAP3 DUP3 DUP7 DUP10 PUSH32 0x54505B9E522263D538ACC1F6DE9658C2AE4FD39B8771F562481C2D375D1C1F2D SWAP9 SUB PUSH2 0xDBA JUMPI JUMPDEST POP POP PUSH2 0xD83 JUMPI JUMPDEST POP POP MLOAD PUSH1 0x40 MLOAD SWAP5 DUP6 MSTORE PUSH1 0x60 PUSH1 0x20 DUP7 ADD MSTORE PUSH1 0x60 DUP6 ADD SWAP1 PUSH2 0x1578 JUMP JUMPDEST SWAP3 DUP5 PUSH1 0x40 DUP3 ADD MSTORE DUP1 CALLER SWAP5 SUB SWAP1 LOG3 DUP1 RETURN JUMPDEST PUSH1 0x40 PUSH32 0xB061566845B6680F66461FBE29235493F3AA355419D464D868114A32E0E7AE7B SWAP2 DUP2 MLOAD SWAP1 DUP2 MSTORE DUP10 PUSH1 0x20 DUP3 ADD MSTORE LOG2 DUP4 CODESIZE PUSH2 0xD59 JUMP JUMPDEST PUSH1 0x40 PUSH32 0x7D20E42FBC3910F3E2536C15BFB3D2DEEC361F7B0534C071570AF6608429F01 SWAP2 DUP2 MLOAD SWAP1 DUP2 MSTORE DUP12 PUSH1 0x20 DUP3 ADD MSTORE LOG2 DUP3 CODESIZE PUSH2 0xD52 JUMP JUMPDEST DUP2 SWAP3 SWAP5 SWAP4 POP SWAP1 PUSH2 0xE00 SWAP2 PUSH2 0x1693 JUMP JUMPDEST PUSH2 0xE0E JUMPI SWAP1 DUP4 SWAP1 DUP7 CODESIZE PUSH2 0xD1E JUMP JUMPDEST DUP6 DUP1 REVERT JUMPDEST DUP4 DUP1 REVERT JUMPDEST POP PUSH8 0x4563918244F40000 DUP5 GT ISZERO PUSH2 0xC8A JUMP JUMPDEST PUSH1 0x40 MLOAD PUSH3 0x461BCD PUSH1 0xE5 SHL DUP2 MSTORE PUSH1 0x20 PUSH1 0x4 DUP3 ADD MSTORE PUSH1 0x14 PUSH1 0x24 DUP3 ADD MSTORE PUSH20 0x4F6E6C7920686F73742063616E20757064617465 PUSH1 0x60 SHL PUSH1 0x44 DUP3 ADD MSTORE PUSH1 0x64 SWAP1 REVERT JUMPDEST PUSH2 0xE79 SWAP2 SWAP3 POP RETURNDATASIZE DUP1 DUP8 DUP4 RETURNDATACOPY PUSH2 0x40E DUP2 DUP4 PUSH2 0x1693 JUMP JUMPDEST SWAP1 CODESIZE PUSH2 0xC61 JUMP JUMPDEST PUSH1 0x40 MLOAD RETURNDATASIZE DUP8 DUP3 RETURNDATACOPY RETURNDATASIZE SWAP1 REVERT JUMPDEST PUSH1 0x40 MLOAD PUSH3 0x461BCD PUSH1 0xE5 SHL DUP2 MSTORE PUSH1 0x20 PUSH1 0x4 DUP3 ADD MSTORE PUSH1 0x18 PUSH1 0x24 DUP3 ADD MSTORE PUSH32 0x4E6574776F726B20616C726561647920696E6163746976650000000000000000 PUSH1 0x44 DUP3 ADD MSTORE PUSH1 0x64 SWAP1 REVERT JUMPDEST PUSH1 0x40 MLOAD PUSH3 0x461BCD PUSH1 0xE5 SHL DUP2 MSTORE PUSH1 0x20 PUSH1 0x4 DUP3 ADD MSTORE PUSH1 0x18 PUSH1 0x24 DUP3 ADD MSTORE PUSH32 0x4F6E6C7920686F73742063616E20646561637469766174650000000000000000 PUSH1 0x44 DUP3 ADD MSTORE PUSH1 0x64 SWAP1 REVERT JUMPDEST PUSH2 0xF29 SWAP2 POP RETURNDATASIZE DUP1 DUP6 DUP4 RETURNDATACOPY PUSH2 0x40E DUP2 DUP4 PUSH2 0x1693 JUMP JUMPDEST CODESIZE PUSH2 0xC04 JUMP JUMPDEST POP CALLVALUE PUSH2 0x1E0 JUMPI PUSH1 0x20 CALLDATASIZE PUSH1 0x3 NOT ADD SLT PUSH2 0x1E0 JUMPI PUSH1 0x20 SWAP1 PUSH1 0x4 CALLDATALOAD DUP2 MSTORE PUSH1 0x5 DUP3 MSTORE PUSH1 0x40 PUSH1 0x1 DUP1 PUSH1 0xA0 SHL SUB SWAP2 KECCAK256 SLOAD AND PUSH1 0x40 MLOAD SWAP1 DUP2 MSTORE RETURN JUMPDEST POP CALLVALUE PUSH2 0x1E0 JUMPI DUP1 PUSH1 0x3 NOT CALLDATASIZE ADD SLT PUSH2 0x1E0 JUMPI PUSH2 0xF7B PUSH2 0x19FD JUMP JUMPDEST DUP1 SLOAD PUSH1 0xFF DUP2 PUSH1 0xA0 SHR AND ISZERO PUSH2 0xFC1 JUMPI PUSH1 0xFF PUSH1 0xA0 SHL NOT AND DUP2 SSTORE PUSH1 0x40 MLOAD CALLER DUP2 MSTORE PUSH32 0x5DB9EE0A495BF2E6FF9C91A7834C1BA4FDD244A5E8AA4E537BD38AEAE4B073AA SWAP1 PUSH1 0x20 SWAP1 LOG1 DUP1 RETURN JUMPDEST PUSH4 0x8DFC202B PUSH1 0xE0 SHL DUP3 MSTORE PUSH1 0x4 DUP3 REVERT JUMPDEST POP CALLVALUE PUSH2 0x1E0 JUMPI PUSH1 0x20 CALLDATASIZE PUSH1 0x3 NOT ADD SLT PUSH2 0x1E0 JUMPI PUSH1 0x4 CALLDATALOAD PUSH1 0x1 PUSH1 0x1 PUSH1 0xA0 SHL SUB DUP2 AND SWAP1 DUP2 SWAP1 SUB PUSH2 0x26D JUMPI DUP2 MSTORE PUSH1 0x4 PUSH1 0x20 MSTORE PUSH1 0x40 DUP2 KECCAK256 PUSH1 0x40 MLOAD DUP1 DUP3 PUSH1 0x20 DUP3 SWAP5 SLOAD SWAP4 DUP5 DUP2 MSTORE ADD SWAP1 DUP6 MSTORE PUSH1 0x20 DUP6 KECCAK256 SWAP3 DUP6 JUMPDEST DUP2 DUP2 LT PUSH2 0x1184 JUMPI POP POP PUSH2 0x1030 SWAP3 POP SUB DUP3 PUSH2 0x1693 JUMP JUMPDEST PUSH1 0x2 SLOAD DUP3 SWAP1 PUSH1 0x1 PUSH1 0x1 PUSH1 0xA0 SHL SUB AND DUP2 DUP1 JUMPDEST DUP5 MLOAD DUP2 LT ISZERO PUSH2 0x10BE JUMPI PUSH2 0x1054 DUP2 DUP7 PUSH2 0x1859 JUMP JUMPDEST MLOAD PUSH1 0x40 MLOAD SWAP1 PUSH4 0x95EA5717 PUSH1 0xE0 SHL DUP3 MSTORE PUSH1 0x4 DUP3 ADD MSTORE DUP3 DUP2 PUSH1 0x24 DUP2 DUP8 GAS STATICCALL DUP1 ISZERO PUSH2 0x749 JUMPI PUSH1 0x80 SWAP2 DUP5 SWAP2 PUSH2 0x10A4 JUMPI JUMPDEST POP ADD MLOAD PUSH2 0x1090 JUMPI JUMPDEST PUSH1 0x1 ADD PUSH2 0x1041 JUMP JUMPDEST SWAP3 PUSH2 0x109C PUSH1 0x1 SWAP2 PUSH2 0x1883 JUMP JUMPDEST SWAP4 SWAP1 POP PUSH2 0x1088 JUMP JUMPDEST PUSH2 0x10B8 SWAP2 POP RETURNDATASIZE DUP1 DUP7 DUP4 RETURNDATACOPY PUSH2 0x40E DUP2 DUP4 PUSH2 0x1693 JUMP JUMPDEST CODESIZE PUSH2 0x1080 JUMP JUMPDEST POP POP SWAP1 PUSH2 0x10CA SWAP1 PUSH2 0x18DF JUMP JUMPDEST DUP4 SWAP1 DUP5 JUMPDEST DUP5 MLOAD DUP2 LT ISZERO PUSH2 0x116E JUMPI PUSH2 0x10E1 DUP2 DUP7 PUSH2 0x1859 JUMP JUMPDEST MLOAD PUSH1 0x40 MLOAD SWAP1 PUSH4 0x95EA5717 PUSH1 0xE0 SHL DUP3 MSTORE PUSH1 0x4 DUP3 ADD MSTORE DUP7 DUP2 PUSH1 0x24 DUP2 DUP9 GAS STATICCALL SWAP1 DUP2 ISZERO PUSH2 0x1163 JUMPI DUP8 SWAP2 PUSH2 0x1149 JUMPI JUMPDEST POP PUSH1 0x80 DUP2 ADD MLOAD PUSH2 0x111F JUMPI JUMPDEST POP PUSH1 0x1 ADD PUSH2 0x10CE JUMP JUMPDEST DUP4 PUSH2 0x1142 SWAP2 PUSH2 0x1131 PUSH1 0x1 SWAP5 SWAP7 DUP7 PUSH2 0x1859 JUMP JUMPDEST MSTORE PUSH2 0x113C DUP2 DUP6 PUSH2 0x1859 JUMP JUMPDEST POP PUSH2 0x1883 JUMP JUMPDEST SWAP3 SWAP1 PUSH2 0x1116 JUMP JUMPDEST PUSH2 0x115D SWAP2 POP RETURNDATASIZE DUP1 DUP10 DUP4 RETURNDATACOPY PUSH2 0x40E DUP2 DUP4 PUSH2 0x1693 JUMP JUMPDEST CODESIZE PUSH2 0x110B JUMP JUMPDEST PUSH1 0x40 MLOAD RETURNDATASIZE DUP10 DUP3 RETURNDATACOPY RETURNDATASIZE SWAP1 REVERT JUMPDEST PUSH1 0x40 MLOAD PUSH1 0x20 DUP1 DUP3 MSTORE DUP2 SWAP1 PUSH2 0x3F6 SWAP1 DUP3 ADD DUP6 PUSH2 0x15F9 JUMP JUMPDEST DUP5 SLOAD DUP4 MSTORE PUSH1 0x1 SWAP5 DUP6 ADD SWAP5 DUP7 SWAP5 POP PUSH1 0x20 SWAP1 SWAP4 ADD SWAP3 ADD PUSH2 0x101B JUMP JUMPDEST POP CALLVALUE PUSH2 0x1E0 JUMPI PUSH1 0x60 CALLDATASIZE PUSH1 0x3 NOT ADD SLT PUSH2 0x1E0 JUMPI PUSH1 0x24 CALLDATALOAD PUSH1 0x4 CALLDATALOAD PUSH2 0x11BD PUSH2 0x1652 JUMP JUMPDEST SWAP2 PUSH2 0x11C6 PUSH2 0x19BB JUMP JUMPDEST PUSH2 0x11CE PUSH2 0x19DB JUMP JUMPDEST PUSH1 0x2 SLOAD PUSH1 0x40 MLOAD PUSH4 0x95EA5717 PUSH1 0xE0 SHL DUP2 MSTORE PUSH1 0x4 DUP2 ADD DUP5 SWAP1 MSTORE SWAP1 PUSH1 0x1 PUSH1 0x1 PUSH1 0xA0 SHL SUB AND DUP6 DUP3 PUSH1 0x24 DUP2 DUP5 GAS STATICCALL SWAP2 DUP3 ISZERO PUSH2 0xB23 JUMPI DUP7 SWAP3 PUSH2 0x13EC JUMPI JUMPDEST POP PUSH1 0x20 DUP3 ADD MLOAD CALLER PUSH1 0x1 PUSH1 0x1 PUSH1 0xA0 SHL SUB SWAP1 SWAP2 AND SUB PUSH2 0xE28 JUMPI PUSH8 0x2C68AF0BB140000 DUP4 LT ISZERO DUP1 PUSH2 0x13DA JUMPI JUMPDEST PUSH2 0x1237 SWAP1 PUSH2 0x1958 JUMP JUMPDEST PUSH1 0x40 DUP3 ADD MLOAD DUP7 PUSH1 0x80 DUP5 ADD MLOAD ISZERO ISZERO SWAP3 PUSH1 0x60 DUP6 ADD SWAP5 PUSH1 0xA0 DUP7 MLOAD SWAP2 ADD MLOAD SWAP9 PUSH1 0x40 MLOAD SWAP2 PUSH2 0x125F DUP4 PUSH2 0x1661 JUMP JUMPDEST DUP10 DUP4 MSTORE CALLER PUSH1 0x20 DUP5 ADD MSTORE DUP9 PUSH1 0x40 DUP5 ADD MSTORE PUSH1 0x60 DUP4 ADD MSTORE ISZERO ISZERO SWAP9 DUP10 PUSH1 0x80 DUP4 ADD MSTORE PUSH1 0xA0 DUP3 ADD MSTORE TIMESTAMP PUSH1 0xC0 DUP3 ADD MSTORE DUP2 EXTCODESIZE ISZERO PUSH2 0x70E JUMPI DUP3 SWAP2 PUSH2 0x12B1 SWAP2 PUSH1 0x40 MLOAD SWAP5 DUP6 DUP1 SWAP5 DUP2 SWAP4 PUSH4 0x14303507 PUSH1 0xE2 SHL DUP4 MSTORE DUP14 PUSH1 0x4 DUP5 ADD PUSH2 0x19A4 JUMP JUMPDEST SUB SWAP3 GAS CALL DUP1 ISZERO PUSH2 0xAB4 JUMPI PUSH2 0x1398 JUMPI JUMPDEST POP SWAP2 DUP5 PUSH2 0x1317 SWAP3 DUP2 DUP6 DUP8 PUSH32 0x54505B9E522263D538ACC1F6DE9658C2AE4FD39B8771F562481C2D375D1C1F2D SWAP9 SWAP8 SUB PUSH2 0x1361 JUMPI JUMPDEST POP POP DUP8 DUP2 SUB PUSH2 0x132A JUMPI JUMPDEST POP POP MLOAD PUSH1 0x40 MLOAD SWAP3 DUP4 MSTORE PUSH1 0x60 PUSH1 0x20 DUP5 ADD MSTORE PUSH1 0x60 DUP4 ADD SWAP1 PUSH2 0x1578 JUMP JUMPDEST SWAP4 PUSH1 0x40 DUP3 ADD MSTORE DUP1 CALLER SWAP5 SUB SWAP1 LOG3 PUSH1 0x1 DUP1 SSTORE DUP1 RETURN JUMPDEST PUSH1 0x40 PUSH32 0xB061566845B6680F66461FBE29235493F3AA355419D464D868114A32E0E7AE7B SWAP2 DUP2 MLOAD SWAP1 DUP2 MSTORE DUP10 PUSH1 0x20 DUP3 ADD MSTORE LOG2 DUP5 CODESIZE PUSH2 0x12FD JUMP JUMPDEST PUSH1 0x40 PUSH32 0x7D20E42FBC3910F3E2536C15BFB3D2DEEC361F7B0534C071570AF6608429F01 SWAP2 DUP2 MLOAD SWAP1 DUP2 MSTORE DUP9 PUSH1 0x20 DUP3 ADD MSTORE LOG2 DUP2 CODESIZE PUSH2 0x12F3 JUMP JUMPDEST PUSH2 0x1317 SWAP3 DUP7 DUP10 PUSH2 0x13CD PUSH32 0x54505B9E522263D538ACC1F6DE9658C2AE4FD39B8771F562481C2D375D1C1F2D SWAP9 SWAP8 SWAP6 SWAP12 DUP4 SWAP6 PUSH2 0x1693 JUMP JUMPDEST SWAP10 SWAP4 SWAP6 SWAP7 POP POP SWAP3 POP PUSH2 0x12C0 JUMP JUMPDEST POP PUSH8 0x4563918244F40000 DUP4 GT ISZERO PUSH2 0x122E JUMP JUMPDEST PUSH2 0x1401 SWAP2 SWAP3 POP RETURNDATASIZE DUP1 DUP9 DUP4 RETURNDATACOPY PUSH2 0x40E DUP2 DUP4 PUSH2 0x1693 JUMP JUMPDEST SWAP1 CODESIZE PUSH2 0x1205 JUMP JUMPDEST POP CALLVALUE PUSH2 0x1E0 JUMPI DUP1 PUSH1 0x3 NOT CALLDATASIZE ADD SLT PUSH2 0x1E0 JUMPI PUSH1 0x2 SLOAD PUSH1 0x40 MLOAD PUSH4 0x3EA72069 PUSH1 0xE2 SHL DUP2 MSTORE PUSH1 0x4 DUP2 ADD DUP4 SWAP1 MSTORE PUSH1 0x64 PUSH1 0x24 DUP3 ADD MSTORE SWAP2 SWAP1 DUP2 SWAP1 DUP4 SWAP1 PUSH1 0x44 SWAP1 DUP3 SWAP1 PUSH1 0x1 PUSH1 0x1 PUSH1 0xA0 SHL SUB AND GAS STATICCALL SWAP2 DUP3 ISZERO PUSH2 0x1D3 JUMPI DUP2 SWAP3 PUSH2 0x14ED JUMPI JUMPDEST POP DUP1 DUP2 JUMPDEST DUP4 MLOAD DUP2 LT ISZERO PUSH2 0x1498 JUMPI PUSH1 0x80 PUSH2 0x1474 DUP3 DUP7 PUSH2 0x1859 JUMP JUMPDEST MLOAD ADD MLOAD PUSH2 0x1484 JUMPI JUMPDEST PUSH1 0x1 ADD PUSH2 0x145F JUMP JUMPDEST SWAP1 PUSH2 0x1490 PUSH1 0x1 SWAP2 PUSH2 0x1883 JUMP JUMPDEST SWAP2 SWAP1 POP PUSH2 0x147C JUMP JUMPDEST POP PUSH2 0x14A2 SWAP1 PUSH2 0x18DF JUMP JUMPDEST DUP2 JUMPDEST DUP4 MLOAD DUP2 LT ISZERO PUSH2 0x116E JUMPI PUSH1 0x80 PUSH2 0x14B9 DUP3 DUP7 PUSH2 0x1859 JUMP JUMPDEST MLOAD ADD MLOAD PUSH2 0x14C9 JUMPI JUMPDEST PUSH1 0x1 ADD PUSH2 0x14A4 JUMP JUMPDEST SWAP2 PUSH2 0x14E5 PUSH1 0x1 SWAP2 PUSH2 0x14DA DUP6 DUP8 PUSH2 0x1859 JUMP JUMPDEST MLOAD PUSH2 0x1131 DUP3 DUP7 PUSH2 0x1859 JUMP JUMPDEST SWAP3 SWAP1 POP PUSH2 0x14C1 JUMP JUMPDEST PUSH2 0x1502 SWAP2 SWAP3 POP RETURNDATASIZE DUP1 DUP5 DUP4 RETURNDATACOPY PUSH2 0x1C4 DUP2 DUP4 PUSH2 0x1693 JUMP JUMPDEST POP SWAP1 CODESIZE PUSH2 0x145B JUMP JUMPDEST POP CALLVALUE PUSH2 0x1E0 JUMPI DUP1 PUSH1 0x3 NOT CALLDATASIZE ADD SLT PUSH2 0x1E0 JUMPI PUSH1 0x2 SLOAD PUSH1 0x40 MLOAD PUSH1 0x1 PUSH1 0x1 PUSH1 0xA0 SHL SUB SWAP1 SWAP2 AND DUP2 MSTORE PUSH1 0x20 SWAP1 RETURN JUMPDEST SWAP1 POP CALLVALUE PUSH2 0x26D JUMPI DUP2 PUSH1 0x3 NOT CALLDATASIZE ADD SLT PUSH2 0x26D JUMPI DUP1 PUSH8 0x2C68AF0BB140000 PUSH1 0x20 SWAP3 MSTORE RETURN JUMPDEST PUSH1 0x0 JUMPDEST DUP4 DUP2 LT PUSH2 0x1568 JUMPI POP POP PUSH1 0x0 SWAP2 ADD MSTORE JUMP JUMPDEST DUP2 DUP2 ADD MLOAD DUP4 DUP3 ADD MSTORE PUSH1 0x20 ADD PUSH2 0x1558 JUMP JUMPDEST SWAP1 PUSH1 0x20 SWAP2 PUSH2 0x1591 DUP2 MLOAD DUP1 SWAP3 DUP2 DUP6 MSTORE DUP6 DUP1 DUP7 ADD SWAP2 ADD PUSH2 0x1555 JUMP JUMPDEST PUSH1 0x1F ADD PUSH1 0x1F NOT AND ADD ADD SWAP1 JUMP JUMPDEST SWAP1 DUP2 MLOAD DUP2 MSTORE PUSH1 0x1 DUP1 PUSH1 0xA0 SHL SUB PUSH1 0x20 DUP4 ADD MLOAD AND PUSH1 0x20 DUP3 ADD MSTORE PUSH1 0x40 DUP3 ADD MLOAD PUSH1 0x40 DUP3 ADD MSTORE PUSH1 0xC0 DUP1 PUSH2 0x15DA PUSH1 0x60 DUP6 ADD MLOAD PUSH1 0xE0 PUSH1 0x60 DUP7 ADD MSTORE PUSH1 0xE0 DUP6 ADD SWAP1 PUSH2 0x1578 JUMP JUMPDEST SWAP4 PUSH1 0x80 DUP2 ADD MLOAD ISZERO ISZERO PUSH1 0x80 DUP6 ADD MSTORE PUSH1 0xA0 DUP2 ADD MLOAD PUSH1 0xA0 DUP6 ADD MSTORE ADD MLOAD SWAP2 ADD MSTORE SWAP1 JUMP JUMPDEST SWAP1 DUP1 PUSH1 0x20 DUP4 MLOAD SWAP2 DUP3 DUP2 MSTORE ADD SWAP2 PUSH1 0x20 DUP1 DUP4 PUSH1 0x5 SHL DUP4 ADD ADD SWAP5 ADD SWAP3 PUSH1 0x0 SWAP2 JUMPDEST DUP4 DUP4 LT PUSH2 0x1625 JUMPI POP POP POP POP POP SWAP1 JUMP JUMPDEST SWAP1 SWAP2 SWAP3 SWAP4 SWAP5 PUSH1 0x20 DUP1 PUSH2 0x1643 PUSH1 0x1 SWAP4 PUSH1 0x1F NOT DUP7 DUP3 SUB ADD DUP8 MSTORE DUP10 MLOAD PUSH2 0x159D JUMP JUMPDEST SWAP8 ADD SWAP4 ADD SWAP4 ADD SWAP2 SWAP4 SWAP3 SWAP1 PUSH2 0x1616 JUMP JUMPDEST PUSH1 0x44 CALLDATALOAD SWAP1 DUP2 ISZERO ISZERO DUP3 SUB PUSH2 0x34A JUMPI JUMP JUMPDEST PUSH1 0xE0 DUP2 ADD SWAP1 DUP2 LT PUSH8 0xFFFFFFFFFFFFFFFF DUP3 GT OR PUSH2 0x167D JUMPI PUSH1 0x40 MSTORE JUMP JUMPDEST PUSH4 0x4E487B71 PUSH1 0xE0 SHL PUSH1 0x0 MSTORE PUSH1 0x41 PUSH1 0x4 MSTORE PUSH1 0x24 PUSH1 0x0 REVERT JUMPDEST SWAP1 PUSH1 0x1F DUP1 NOT SWAP2 ADD AND DUP2 ADD SWAP1 DUP2 LT PUSH8 0xFFFFFFFFFFFFFFFF DUP3 GT OR PUSH2 0x167D JUMPI PUSH1 0x40 MSTORE JUMP JUMPDEST PUSH8 0xFFFFFFFFFFFFFFFF DUP2 GT PUSH2 0x167D JUMPI PUSH1 0x1F ADD PUSH1 0x1F NOT AND PUSH1 0x20 ADD SWAP1 JUMP JUMPDEST PUSH8 0xFFFFFFFFFFFFFFFF DUP2 GT PUSH2 0x167D JUMPI PUSH1 0x5 SHL PUSH1 0x20 ADD SWAP1 JUMP JUMPDEST SWAP2 SWAP1 SWAP2 PUSH1 0xE0 DUP2 DUP5 SUB SLT PUSH2 0x34A JUMPI PUSH1 0x40 MLOAD SWAP1 PUSH2 0x1703 DUP3 PUSH2 0x1661 JUMP JUMPDEST DUP1 MLOAD DUP3 MSTORE PUSH1 0x20 DUP2 ADD MLOAD SWAP2 SWAP4 DUP5 SWAP3 PUSH1 0x1 PUSH1 0x1 PUSH1 0xA0 SHL SUB DUP2 AND DUP2 SUB PUSH2 0x34A JUMPI PUSH1 0x20 DUP5 ADD MSTORE PUSH1 0x40 DUP3 ADD MLOAD PUSH1 0x40 DUP5 ADD MSTORE PUSH1 0x60 DUP3 ADD MLOAD PUSH8 0xFFFFFFFFFFFFFFFF DUP2 GT PUSH2 0x34A JUMPI DUP3 ADD DUP2 PUSH1 0x1F DUP3 ADD SLT ISZERO PUSH2 0x34A JUMPI DUP1 MLOAD PUSH2 0x175B DUP2 PUSH2 0x16B5 JUMP JUMPDEST SWAP3 PUSH2 0x1769 PUSH1 0x40 MLOAD SWAP5 DUP6 PUSH2 0x1693 JUMP JUMPDEST DUP2 DUP5 MSTORE PUSH1 0x20 DUP3 DUP5 ADD ADD GT PUSH2 0x34A JUMPI PUSH2 0x1787 SWAP2 PUSH1 0x20 DUP1 DUP6 ADD SWAP2 ADD PUSH2 0x1555 JUMP JUMPDEST PUSH1 0x60 DUP4 ADD MSTORE PUSH1 0x80 DUP2 ADD MLOAD DUP1 ISZERO ISZERO DUP2 SUB PUSH2 0x34A JUMPI PUSH1 0xC0 SWAP2 DUP3 SWAP2 PUSH1 0x80 DUP6 ADD MSTORE PUSH1 0xA0 DUP2 ADD MLOAD PUSH1 0xA0 DUP6 ADD MSTORE ADD MLOAD SWAP2 ADD MSTORE JUMP JUMPDEST SWAP2 SWAP1 PUSH1 0x40 DUP4 DUP3 SUB SLT PUSH2 0x34A JUMPI DUP3 MLOAD PUSH8 0xFFFFFFFFFFFFFFFF DUP2 GT PUSH2 0x34A JUMPI DUP4 ADD SWAP1 DUP1 PUSH1 0x1F DUP4 ADD SLT ISZERO PUSH2 0x34A JUMPI DUP2 MLOAD PUSH2 0x17EB DUP2 PUSH2 0x16D1 JUMP JUMPDEST SWAP3 PUSH2 0x17F9 PUSH1 0x40 MLOAD SWAP5 DUP6 PUSH2 0x1693 JUMP JUMPDEST DUP2 DUP5 MSTORE PUSH1 0x20 DUP1 DUP6 ADD SWAP3 PUSH1 0x5 SHL DUP3 ADD ADD SWAP2 DUP4 DUP4 GT PUSH2 0x34A JUMPI PUSH1 0x20 DUP3 ADD SWAP1 JUMPDEST DUP4 DUP3 LT PUSH2 0x182B JUMPI POP POP POP POP POP PUSH1 0x20 SWAP1 SWAP3 ADD MLOAD SWAP1 JUMP JUMPDEST DUP2 MLOAD PUSH8 0xFFFFFFFFFFFFFFFF DUP2 GT PUSH2 0x34A JUMPI PUSH1 0x20 SWAP2 PUSH2 0x184E DUP8 DUP5 DUP1 SWAP5 DUP9 ADD ADD PUSH2 0x16E9 JUMP JUMPDEST DUP2 MSTORE ADD SWAP2 ADD SWAP1 PUSH2 0x1816 JUMP JUMPDEST DUP1 MLOAD DUP3 LT ISZERO PUSH2 0x186D JUMPI PUSH1 0x20 SWAP2 PUSH1 0x5 SHL ADD ADD SWAP1 JUMP JUMPDEST PUSH4 0x4E487B71 PUSH1 0xE0 SHL PUSH1 0x0 MSTORE PUSH1 0x32 PUSH1 0x4 MSTORE PUSH1 0x24 PUSH1 0x0 REVERT JUMPDEST PUSH1 0x0 NOT DUP2 EQ PUSH2 0x1892 JUMPI PUSH1 0x1 ADD SWAP1 JUMP JUMPDEST PUSH4 0x4E487B71 PUSH1 0xE0 SHL PUSH1 0x0 MSTORE PUSH1 0x11 PUSH1 0x4 MSTORE PUSH1 0x24 PUSH1 0x0 REVERT JUMPDEST PUSH1 0x40 MLOAD SWAP1 PUSH2 0x18B5 DUP3 PUSH2 0x1661 JUMP JUMPDEST PUSH1 0x0 PUSH1 0xC0 DUP4 DUP3 DUP2 MSTORE DUP3 PUSH1 0x20 DUP3 ADD MSTORE DUP3 PUSH1 0x40 DUP3 ADD MSTORE PUSH1 0x60 DUP1 DUP3 ADD MSTORE DUP3 PUSH1 0x80 DUP3 ADD MSTORE DUP3 PUSH1 0xA0 DUP3 ADD MSTORE ADD MSTORE JUMP JUMPDEST SWAP1 PUSH2 0x18E9 DUP3 PUSH2 0x16D1 JUMP JUMPDEST PUSH2 0x18F6 PUSH1 0x40 MLOAD SWAP2 DUP3 PUSH2 0x1693 JUMP JUMPDEST DUP3 DUP2 MSTORE DUP1 SWAP3 PUSH2 0x1907 PUSH1 0x1F NOT SWAP2 PUSH2 0x16D1 JUMP JUMPDEST ADD SWAP1 PUSH1 0x0 JUMPDEST DUP3 DUP2 LT PUSH2 0x1918 JUMPI POP POP POP JUMP JUMPDEST PUSH1 0x20 SWAP1 PUSH2 0x1923 PUSH2 0x18A8 JUMP JUMPDEST DUP3 DUP3 DUP6 ADD ADD MSTORE ADD PUSH2 0x190C JUMP JUMPDEST SWAP1 PUSH1 0x20 DUP3 DUP3 SUB SLT PUSH2 0x34A JUMPI DUP2 MLOAD PUSH8 0xFFFFFFFFFFFFFFFF DUP2 GT PUSH2 0x34A JUMPI PUSH2 0x1955 SWAP3 ADD PUSH2 0x16E9 JUMP JUMPDEST SWAP1 JUMP JUMPDEST ISZERO PUSH2 0x195F JUMPI JUMP JUMPDEST PUSH1 0x40 MLOAD PUSH3 0x461BCD PUSH1 0xE5 SHL DUP2 MSTORE PUSH1 0x20 PUSH1 0x4 DUP3 ADD MSTORE PUSH1 0x1A PUSH1 0x24 DUP3 ADD MSTORE PUSH32 0x5072696365206F7574206F6620616C6C6F7765642072616E6765000000000000 PUSH1 0x44 DUP3 ADD MSTORE PUSH1 0x64 SWAP1 REVERT JUMPDEST PUSH1 0x40 SWAP1 PUSH2 0x1955 SWAP4 SWAP3 DUP2 MSTORE DUP2 PUSH1 0x20 DUP3 ADD MSTORE ADD SWAP1 PUSH2 0x159D JUMP JUMPDEST PUSH1 0xFF PUSH1 0x0 SLOAD PUSH1 0xA0 SHR AND PUSH2 0x19CA JUMPI JUMP JUMPDEST PUSH4 0xD93C0665 PUSH1 0xE0 SHL PUSH1 0x0 MSTORE PUSH1 0x4 PUSH1 0x0 REVERT JUMPDEST PUSH1 0x2 PUSH1 0x1 SLOAD EQ PUSH2 0x19EC JUMPI PUSH1 0x2 PUSH1 0x1 SSTORE JUMP JUMPDEST PUSH4 0x3EE5AEB5 PUSH1 0xE0 SHL PUSH1 0x0 MSTORE PUSH1 0x4 PUSH1 0x0 REVERT JUMPDEST PUSH1 0x0 SLOAD PUSH1 0x1 PUSH1 0x1 PUSH1 0xA0 SHL SUB AND CALLER SUB PUSH2 0x1A11 JUMPI JUMP JUMPDEST PUSH4 0x118CDAA7 PUSH1 0xE0 SHL PUSH1 0x0 MSTORE CALLER PUSH1 0x4 MSTORE PUSH1 0x24 PUSH1 0x0 REVERT INVALID LOG2 PUSH5 0x6970667358 0x22 SLT KECCAK256 0xC9 SSTORE DUP16 0xB6 GASLIMIT RETURNDATACOPY 0xC7 0xCA SSTORE 0xB1 SWAP14 0xE5 0x22 MSIZE STOP PUSH15 0x6EC38F310E5FB94B1CBDE8BC8B5ECD MOD PUSH5 0x736F6C6343 STOP ADDMOD SHR STOP CALLER "
        },
        "methodIdentifiers": {
          "MAX_MONGO_DATA_LENGTH()": "e67d86f1",
          "MAX_PRICE_PER_SESSION()": "d4f38d04",
          "MIN_PRICE_PER_SESSION()": "09115e97",
          "REGISTRATION_COOLDOWN()": "b0ff6383",
          "deactivateNetwork(uint256)": "4b9791e8",
          "getActiveHostNetworks(address)": "2b2a748c",
          "getAllActiveNetworks()": "16cb6eff",
          "getContractStats()": "dfe6b5d6",
          "getHostNetworks(address)": "79f0dc57",
          "getHostStats(address)": "764ac734",
          "getHostedNetworkById(uint256)": "cd83fb9a",
          "getNetworksPaginated(uint256,uint256)": "fa9c81a4",
          "isHost(address)": "eb2931b7",
          "isRegisteredHost(address)": "867f1a09",
          "lastRegistrationTime(address)": "7f6e8cbf",
          "networkToHost(uint256)": "43355214",
          "owner()": "8da5cb5b",
          "pause()": "8456cb59",
          "paused()": "5c975abb",
          "registerNetwork(uint256,string,bool)": "900e41b1",
          "renounceOwnership()": "715018a6",
          "storageContract()": "11ce0267",
          "transferOwnership(address)": "f2fde38b",
          "unpause()": "3f4ba83a",
          "updateNetwork(uint256,uint256,bool)": "1b63fe67"
        }
      }
    }
  }
}