{
  "contracts/ZaaNetStorage.sol": {
    "ZaaNetStorage": {
      "abi": [
        {
          "inputs": [],
          "stateMutability": "nonpayable",
          "type": "constructor"
        },
        {
          "inputs": [
            {
              "internalType": "address",
              "name": "owner",
              "type": "address"
            }
          ],
          "name": "OwnableInvalidOwner",
          "type": "error"
        },
        {
          "inputs": [
            {
              "internalType": "address",
              "name": "account",
              "type": "address"
            }
          ],
          "name": "OwnableUnauthorizedAccount",
          "type": "error"
        },
        {
          "inputs": [],
          "name": "ReentrancyGuardReentrantCall",
          "type": "error"
        },
        {
          "anonymous": false,
          "inputs": [
            {
              "indexed": true,
              "internalType": "address",
              "name": "caller",
              "type": "address"
            },
            {
              "indexed": false,
              "internalType": "bool",
              "name": "status",
              "type": "bool"
            }
          ],
          "name": "AllowedCallerUpdated",
          "type": "event"
        },
        {
          "anonymous": false,
          "inputs": [
            {
              "indexed": true,
              "internalType": "address",
              "name": "hostAddress",
              "type": "address"
            },
            {
              "indexed": false,
              "internalType": "uint256",
              "name": "totalEarned",
              "type": "uint256"
            }
          ],
          "name": "HostEarningsUpdated",
          "type": "event"
        },
        {
          "anonymous": false,
          "inputs": [
            {
              "indexed": true,
              "internalType": "uint256",
              "name": "id",
              "type": "uint256"
            },
            {
              "indexed": true,
              "internalType": "address",
              "name": "hostAddress",
              "type": "address"
            },
            {
              "indexed": false,
              "internalType": "uint256",
              "name": "pricePerSession",
              "type": "uint256"
            }
          ],
          "name": "NetworkStored",
          "type": "event"
        },
        {
          "anonymous": false,
          "inputs": [
            {
              "indexed": true,
              "internalType": "uint256",
              "name": "id",
              "type": "uint256"
            },
            {
              "indexed": true,
              "internalType": "address",
              "name": "hostAddress",
              "type": "address"
            }
          ],
          "name": "NetworkUpdated",
          "type": "event"
        },
        {
          "anonymous": false,
          "inputs": [
            {
              "indexed": true,
              "internalType": "address",
              "name": "previousOwner",
              "type": "address"
            },
            {
              "indexed": true,
              "internalType": "address",
              "name": "newOwner",
              "type": "address"
            }
          ],
          "name": "OwnershipTransferred",
          "type": "event"
        },
        {
          "anonymous": false,
          "inputs": [
            {
              "indexed": true,
              "internalType": "uint256",
              "name": "sessionId",
              "type": "uint256"
            },
            {
              "indexed": true,
              "internalType": "address",
              "name": "paymentAddress",
              "type": "address"
            },
            {
              "indexed": false,
              "internalType": "uint256",
              "name": "amount",
              "type": "uint256"
            }
          ],
          "name": "SessionStored",
          "type": "event"
        },
        {
          "inputs": [],
          "name": "MAX_NETWORKS_PER_QUERY",
          "outputs": [
            {
              "internalType": "uint256",
              "name": "",
              "type": "uint256"
            }
          ],
          "stateMutability": "view",
          "type": "function"
        },
        {
          "inputs": [],
          "name": "MAX_SESSIONS_PER_QUERY",
          "outputs": [
            {
              "internalType": "uint256",
              "name": "",
              "type": "uint256"
            }
          ],
          "stateMutability": "view",
          "type": "function"
        },
        {
          "inputs": [
            {
              "internalType": "address",
              "name": "",
              "type": "address"
            }
          ],
          "name": "allowedCallers",
          "outputs": [
            {
              "internalType": "bool",
              "name": "",
              "type": "bool"
            }
          ],
          "stateMutability": "view",
          "type": "function"
        },
        {
          "inputs": [
            {
              "internalType": "uint256",
              "name": "networkId",
              "type": "uint256"
            }
          ],
          "name": "emergencyDeactivateNetwork",
          "outputs": [],
          "stateMutability": "nonpayable",
          "type": "function"
        },
        {
          "inputs": [
            {
              "internalType": "address",
              "name": "hostAddress",
              "type": "address"
            }
          ],
          "name": "getHostEarnings",
          "outputs": [
            {
              "internalType": "uint256",
              "name": "",
              "type": "uint256"
            }
          ],
          "stateMutability": "view",
          "type": "function"
        },
        {
          "inputs": [
            {
              "internalType": "address",
              "name": "hostAddress",
              "type": "address"
            }
          ],
          "name": "getHostNetworks",
          "outputs": [
            {
              "internalType": "uint256[]",
              "name": "",
              "type": "uint256[]"
            }
          ],
          "stateMutability": "view",
          "type": "function"
        },
        {
          "inputs": [
            {
              "internalType": "uint256",
              "name": "id",
              "type": "uint256"
            }
          ],
          "name": "getNetwork",
          "outputs": [
            {
              "components": [
                {
                  "internalType": "uint256",
                  "name": "id",
                  "type": "uint256"
                },
                {
                  "internalType": "address",
                  "name": "hostAddress",
                  "type": "address"
                },
                {
                  "internalType": "uint256",
                  "name": "pricePerSession",
                  "type": "uint256"
                },
                {
                  "internalType": "string",
                  "name": "mongoDataId",
                  "type": "string"
                },
                {
                  "internalType": "bool",
                  "name": "isActive",
                  "type": "bool"
                },
                {
                  "internalType": "uint256",
                  "name": "createdAt",
                  "type": "uint256"
                },
                {
                  "internalType": "uint256",
                  "name": "updatedAt",
                  "type": "uint256"
                }
              ],
              "internalType": "struct ZaaNetStorage.Network",
              "name": "",
              "type": "tuple"
            }
          ],
          "stateMutability": "view",
          "type": "function"
        },
        {
          "inputs": [
            {
              "internalType": "uint256",
              "name": "offset",
              "type": "uint256"
            },
            {
              "internalType": "uint256",
              "name": "limit",
              "type": "uint256"
            }
          ],
          "name": "getNetworksPaginated",
          "outputs": [
            {
              "components": [
                {
                  "internalType": "uint256",
                  "name": "id",
                  "type": "uint256"
                },
                {
                  "internalType": "address",
                  "name": "hostAddress",
                  "type": "address"
                },
                {
                  "internalType": "uint256",
                  "name": "pricePerSession",
                  "type": "uint256"
                },
                {
                  "internalType": "string",
                  "name": "mongoDataId",
                  "type": "string"
                },
                {
                  "internalType": "bool",
                  "name": "isActive",
                  "type": "bool"
                },
                {
                  "internalType": "uint256",
                  "name": "createdAt",
                  "type": "uint256"
                },
                {
                  "internalType": "uint256",
                  "name": "updatedAt",
                  "type": "uint256"
                }
              ],
              "internalType": "struct ZaaNetStorage.Network[]",
              "name": "",
              "type": "tuple[]"
            },
            {
              "internalType": "uint256",
              "name": "total",
              "type": "uint256"
            }
          ],
          "stateMutability": "view",
          "type": "function"
        },
        {
          "inputs": [
            {
              "internalType": "uint256",
              "name": "id",
              "type": "uint256"
            }
          ],
          "name": "getSession",
          "outputs": [
            {
              "components": [
                {
                  "internalType": "uint256",
                  "name": "sessionId",
                  "type": "uint256"
                },
                {
                  "internalType": "uint256",
                  "name": "networkId",
                  "type": "uint256"
                },
                {
                  "internalType": "address",
                  "name": "paymentAddress",
                  "type": "address"
                },
                {
                  "internalType": "uint256",
                  "name": "amount",
                  "type": "uint256"
                },
                {
                  "internalType": "bool",
                  "name": "active",
                  "type": "bool"
                },
                {
                  "internalType": "string",
                  "name": "voucherId",
                  "type": "string"
                },
                {
                  "internalType": "string",
                  "name": "userId",
                  "type": "string"
                },
                {
                  "internalType": "uint256",
                  "name": "startTime",
                  "type": "uint256"
                }
              ],
              "internalType": "struct ZaaNetStorage.Session",
              "name": "",
              "type": "tuple"
            }
          ],
          "stateMutability": "view",
          "type": "function"
        },
        {
          "inputs": [],
          "name": "getStats",
          "outputs": [
            {
              "internalType": "uint256",
              "name": "totalNetworks",
              "type": "uint256"
            },
            {
              "internalType": "uint256",
              "name": "totalSessions",
              "type": "uint256"
            },
            {
              "internalType": "uint256",
              "name": "activeNetworks",
              "type": "uint256"
            },
            {
              "internalType": "uint256",
              "name": "activeSessions",
              "type": "uint256"
            }
          ],
          "stateMutability": "view",
          "type": "function"
        },
        {
          "inputs": [
            {
              "internalType": "address",
              "name": "",
              "type": "address"
            }
          ],
          "name": "hostEarnings",
          "outputs": [
            {
              "internalType": "uint256",
              "name": "",
              "type": "uint256"
            }
          ],
          "stateMutability": "view",
          "type": "function"
        },
        {
          "inputs": [
            {
              "internalType": "address",
              "name": "",
              "type": "address"
            },
            {
              "internalType": "uint256",
              "name": "",
              "type": "uint256"
            }
          ],
          "name": "hostNetworkIds",
          "outputs": [
            {
              "internalType": "uint256",
              "name": "",
              "type": "uint256"
            }
          ],
          "stateMutability": "view",
          "type": "function"
        },
        {
          "inputs": [
            {
              "internalType": "address",
              "name": "hostAddress",
              "type": "address"
            },
            {
              "internalType": "uint256",
              "name": "amount",
              "type": "uint256"
            }
          ],
          "name": "increaseHostEarnings",
          "outputs": [],
          "stateMutability": "nonpayable",
          "type": "function"
        },
        {
          "inputs": [],
          "name": "incrementNetworkId",
          "outputs": [
            {
              "internalType": "uint256",
              "name": "",
              "type": "uint256"
            }
          ],
          "stateMutability": "nonpayable",
          "type": "function"
        },
        {
          "inputs": [],
          "name": "incrementSessionId",
          "outputs": [
            {
              "internalType": "uint256",
              "name": "",
              "type": "uint256"
            }
          ],
          "stateMutability": "nonpayable",
          "type": "function"
        },
        {
          "inputs": [
            {
              "internalType": "uint256",
              "name": "",
              "type": "uint256"
            }
          ],
          "name": "networkExists",
          "outputs": [
            {
              "internalType": "bool",
              "name": "",
              "type": "bool"
            }
          ],
          "stateMutability": "view",
          "type": "function"
        },
        {
          "inputs": [],
          "name": "networkIdCounter",
          "outputs": [
            {
              "internalType": "uint256",
              "name": "",
              "type": "uint256"
            }
          ],
          "stateMutability": "view",
          "type": "function"
        },
        {
          "inputs": [
            {
              "internalType": "uint256",
              "name": "",
              "type": "uint256"
            }
          ],
          "name": "networks",
          "outputs": [
            {
              "internalType": "uint256",
              "name": "id",
              "type": "uint256"
            },
            {
              "internalType": "address",
              "name": "hostAddress",
              "type": "address"
            },
            {
              "internalType": "uint256",
              "name": "pricePerSession",
              "type": "uint256"
            },
            {
              "internalType": "string",
              "name": "mongoDataId",
              "type": "string"
            },
            {
              "internalType": "bool",
              "name": "isActive",
              "type": "bool"
            },
            {
              "internalType": "uint256",
              "name": "createdAt",
              "type": "uint256"
            },
            {
              "internalType": "uint256",
              "name": "updatedAt",
              "type": "uint256"
            }
          ],
          "stateMutability": "view",
          "type": "function"
        },
        {
          "inputs": [],
          "name": "owner",
          "outputs": [
            {
              "internalType": "address",
              "name": "",
              "type": "address"
            }
          ],
          "stateMutability": "view",
          "type": "function"
        },
        {
          "inputs": [],
          "name": "renounceOwnership",
          "outputs": [],
          "stateMutability": "nonpayable",
          "type": "function"
        },
        {
          "inputs": [
            {
              "internalType": "uint256",
              "name": "",
              "type": "uint256"
            }
          ],
          "name": "sessionExists",
          "outputs": [
            {
              "internalType": "bool",
              "name": "",
              "type": "bool"
            }
          ],
          "stateMutability": "view",
          "type": "function"
        },
        {
          "inputs": [],
          "name": "sessionIdCounter",
          "outputs": [
            {
              "internalType": "uint256",
              "name": "",
              "type": "uint256"
            }
          ],
          "stateMutability": "view",
          "type": "function"
        },
        {
          "inputs": [
            {
              "internalType": "uint256",
              "name": "",
              "type": "uint256"
            }
          ],
          "name": "sessions",
          "outputs": [
            {
              "internalType": "uint256",
              "name": "sessionId",
              "type": "uint256"
            },
            {
              "internalType": "uint256",
              "name": "networkId",
              "type": "uint256"
            },
            {
              "internalType": "address",
              "name": "paymentAddress",
              "type": "address"
            },
            {
              "internalType": "uint256",
              "name": "amount",
              "type": "uint256"
            },
            {
              "internalType": "bool",
              "name": "active",
              "type": "bool"
            },
            {
              "internalType": "string",
              "name": "voucherId",
              "type": "string"
            },
            {
              "internalType": "string",
              "name": "userId",
              "type": "string"
            },
            {
              "internalType": "uint256",
              "name": "startTime",
              "type": "uint256"
            }
          ],
          "stateMutability": "view",
          "type": "function"
        },
        {
          "inputs": [
            {
              "internalType": "address",
              "name": "_caller",
              "type": "address"
            },
            {
              "internalType": "bool",
              "name": "status",
              "type": "bool"
            }
          ],
          "name": "setAllowedCaller",
          "outputs": [],
          "stateMutability": "nonpayable",
          "type": "function"
        },
        {
          "inputs": [
            {
              "internalType": "address[]",
              "name": "_callers",
              "type": "address[]"
            },
            {
              "internalType": "bool",
              "name": "status",
              "type": "bool"
            }
          ],
          "name": "setAllowedCallers",
          "outputs": [],
          "stateMutability": "nonpayable",
          "type": "function"
        },
        {
          "inputs": [
            {
              "internalType": "uint256",
              "name": "id",
              "type": "uint256"
            },
            {
              "components": [
                {
                  "internalType": "uint256",
                  "name": "id",
                  "type": "uint256"
                },
                {
                  "internalType": "address",
                  "name": "hostAddress",
                  "type": "address"
                },
                {
                  "internalType": "uint256",
                  "name": "pricePerSession",
                  "type": "uint256"
                },
                {
                  "internalType": "string",
                  "name": "mongoDataId",
                  "type": "string"
                },
                {
                  "internalType": "bool",
                  "name": "isActive",
                  "type": "bool"
                },
                {
                  "internalType": "uint256",
                  "name": "createdAt",
                  "type": "uint256"
                },
                {
                  "internalType": "uint256",
                  "name": "updatedAt",
                  "type": "uint256"
                }
              ],
              "internalType": "struct ZaaNetStorage.Network",
              "name": "net",
              "type": "tuple"
            }
          ],
          "name": "setNetwork",
          "outputs": [],
          "stateMutability": "nonpayable",
          "type": "function"
        },
        {
          "inputs": [
            {
              "internalType": "uint256",
              "name": "id",
              "type": "uint256"
            },
            {
              "components": [
                {
                  "internalType": "uint256",
                  "name": "sessionId",
                  "type": "uint256"
                },
                {
                  "internalType": "uint256",
                  "name": "networkId",
                  "type": "uint256"
                },
                {
                  "internalType": "address",
                  "name": "paymentAddress",
                  "type": "address"
                },
                {
                  "internalType": "uint256",
                  "name": "amount",
                  "type": "uint256"
                },
                {
                  "internalType": "bool",
                  "name": "active",
                  "type": "bool"
                },
                {
                  "internalType": "string",
                  "name": "voucherId",
                  "type": "string"
                },
                {
                  "internalType": "string",
                  "name": "userId",
                  "type": "string"
                },
                {
                  "internalType": "uint256",
                  "name": "startTime",
                  "type": "uint256"
                }
              ],
              "internalType": "struct ZaaNetStorage.Session",
              "name": "session",
              "type": "tuple"
            }
          ],
          "name": "setSession",
          "outputs": [],
          "stateMutability": "nonpayable",
          "type": "function"
        },
        {
          "inputs": [
            {
              "internalType": "address",
              "name": "newOwner",
              "type": "address"
            }
          ],
          "name": "transferOwnership",
          "outputs": [],
          "stateMutability": "nonpayable",
          "type": "function"
        }
      ],
      "evm": {
        "bytecode": {
          "linkReferences": {},
          "object": "60808060405234607957331560635760008054336001600160a01b0319821681178355916001600160a01b03909116907f8be0079c531659141344cd1fd0a4f28419497f9722a3daafe3b4186f6b6457e09080a360018055611c84908161007f8239f35b631e4fbdf760e01b600052600060045260246000fd5b600080fdfe608080604052600436101561001357600080fd5b60003560e01c908163217c682d146115635750806329c718b514610a095780633b9a80161461118f578063402ff0db14610fef57806350c0d41c14610b4c5780635290ffc614610aec57806352f51f8b146109ab5780635a29352d14610ace5780635a2f406f14610a435780636d65573f14610a09578063715018a6146109b057806371f7cd5b146109ab57806373f9a5d71461089257806379f0dc57146107d85780637b334154146107995780637bae8f5e1461074057806383c4b7a31461068e578063879ecf101461065d5780638bb0a17c146105ca5780638da5cb5b146105a157806395ea57171461053a578063c59d484714610475578063cc50764114610415578063d8b0e71614610386578063e1c7a8aa14610299578063ec13f2a114610268578063f2fde38b146101df5763fa9c81a41461015357600080fd5b346101da5760403660031901126101da57610172602435600435611ad4565b9060405190604082016040835281518091526060830190602060608260051b8601019301916000905b8282106101af578580868960208301520390f35b909192936020806101cc600193605f198a82030186528851611764565b96019201920190929161019b565b600080fd5b346101da5760203660031901126101da576101f861157e565b610200611c25565b6001600160a01b0316801561025257600080546001600160a01b03198116831782556001600160a01b0316907f8be0079c531659141344cd1fd0a4f28419497f9722a3daafe3b4186f6b6457e09080a3005b631e4fbdf760e01b600052600060045260246000fd5b346101da5760203660031901126101da576004356000526009602052602060ff604060002054166040519015158152f35b346101da5760403660031901126101da576102b261157e565b6024359033600052600260205260ff604060002054168015610372575b6102d8906117c0565b6002600154146103615760026001556001600160a01b0316906102fc821515611933565b610307811515611811565b8160005260076020526103206040600020918254611a8f565b90558060005260076020527f61a8b1a557e4d03803db90d13ff76db2c25fba3ed24882cecda8c8423b9b2be06020604060002054604051908152a260018055005b633ee5aeb560e01b60005260046000fd5b506000546001600160a01b031633146102cf565b346101da5760403660031901126101da5761039f61157e565b7fd6fc3082ae3a144ca59421d96180398241c1dd021d45d5a24fb5bf96c9f8212f60206103ca6115f1565b926103d3611c25565b6001600160a01b0316926103e88415156119ab565b836000526002825261040a8160406000209060ff801983541691151516179055565b6040519015158152a2005b346101da5760003660031901126101da5733600052600260205260ff604060002054168015610461575b610448906117c0565b6020610455600454611976565b80600455604051908152f35b506000546001600160a01b0316331461043f565b346101da5760003660031901126101da576003546004549060008060015b838111156104ff575060015b848111156104c25750608093604051938452602084015260408301526060820152f35b80600052600660205260ff600460406000200154166104ea575b6104e590611976565b61049f565b916104f76104e591611976565b9290506104dc565b808352600560205260ff600460408520015416610525575b61052090611976565b610493565b9061053261052091611976565b919050610517565b346101da5760203660031901126101da576004356105566119f0565b5080600052600960205261057160ff6040600020541661185d565b600052600560205261059d6105896040600020611a27565b604051918291602083526020830190611764565b0390f35b346101da5760003660031901126101da576000546040516001600160a01b039091168152602090f35b346101da5760203660031901126101da5760043560005260056020526040600020805460018060a01b0360018301541691600281015461060c600383016116c0565b9161064760ff60048301541693600660058401549301549360405197889788526020880152604087015260e0606087015260e0860190611594565b921515608085015260a084015260c08301520390f35b346101da5760203660031901126101da57600435600052600a602052602060ff604060002054166040519015158152f35b346101da5760203660031901126101da5760043560005260066020526040600020805460018201549161073660018060a01b0360028301541691610728600382015460ff6004840154166106e4600585016116c0565b9160076106f3600687016116c0565b95015496604051998a998a5260208a0152604089015260608801521515608087015261010060a0870152610100860190611594565b9084820360c0860152611594565b9060e08301520390f35b346101da5760403660031901126101da5761075961157e565b6001600160a01b03166000908152600860205260409020805460243591908210156101da5760209161078a91611600565b90549060031b1c604051908152f35b346101da5760203660031901126101da576001600160a01b036107ba61157e565b166000526002602052602060ff604060002054166040519015158152f35b346101da5760203660031901126101da576001600160a01b036107f961157e565b16600052600860205260406000206040518060208354918281520190819360005260206000209060005b81811061087c575050508161083991038261169f565b6040519182916020830190602084525180915260408301919060005b818110610863575050500390f35b8251845285945060209384019390920191600101610855565b8254845260209093019260019283019201610823565b346101da5760403660031901126101da576004356001600160401b0381116101da57366023820112156101da5780600401356001600160401b0381116101da576024820191602436918360051b0101116101da576108ee6115f1565b6108f6611c25565b8015159060005b83811061090657005b60019061092f6001600160a01b0361092761092284898b61199b565b6117fd565b1615156119ab565b818060a01b0361094361092283888a61199b565b1660005260026020526109668360406000209060ff801983541691151516179055565b818060a01b0361097a61092283888a61199b565b167fd6fc3082ae3a144ca59421d96180398241c1dd021d45d5a24fb5bf96c9f8212f6020604051878152a2016108fd565b6115d5565b346101da5760003660031901126101da576109c9611c25565b600080546001600160a01b0319811682556001600160a01b03167f8be0079c531659141344cd1fd0a4f28419497f9722a3daafe3b4186f6b6457e08280a3005b346101da5760203660031901126101da576001600160a01b03610a2a61157e565b1660005260076020526020604060002054604051908152f35b346101da5760203660031901126101da57600435610a5f611c25565b806000526009602052610a7960ff6040600020541661185d565b600081815260056020526040812060048101805460ff19169055426006820155600101546001600160a01b031691907f14796949d4d1a6824063ec05e354db666bde3356a8cf646c6075272b5353185c9080a3005b346101da5760003660031901126101da576020600454604051908152f35b346101da5760003660031901126101da5733600052600260205260ff604060002054168015610b38575b610b1f906117c0565b6020610b2c600354611976565b80600355604051908152f35b506000546001600160a01b03163314610b16565b346101da5760403660031901126101da576024356004356001600160401b0382116101da57816004019160e060031982360301126101da5733600052600260205260ff604060002054168015610fdb575b610ba6906117c0565b8115610fa1576024810190610bcd6001600160a01b03610bc5846117fd565b161515611933565b6044810135938415610f5c5760648201610be781836118af565b905015610f2057846000526009602052608460ff604060002054161593610c23610c1a610c13886117fd565b94866118af565b939092016118a2565b908515610f085742925b60405195610c3a87611684565b3586526001600160a01b0390941660208601908152604086018a815290946001600160401b038111610e395760405192610c7e601f8301601f19166020018561169f565b81845236828201116101da57816000926020928387013784010152606086019182529115156080860190815260a086019384524260c0870190815260008a81526005602052604090209651875594516001870180546001600160a01b0319166001600160a01b03929092169190911790559151600286015551805160038601916001600160401b038211610e3957610d2082610d1a855461162e565b856118e1565b602090601f8311600114610e985782600697969593610d769593610d5b93600092610e8d575b50508160011b916000199060031b1c19161790565b90555b511515600486019060ff801983541691151516179055565b5160058401555191015515610e4f576000828152600960205260409020805460ff191660011790556001600160a01b03610daf826117fd565b16600052600860205260406000209081549068010000000000000000821015610e3957610e05827f3a3ee326dd9451112d67d1babdaf697562d06e41e2571ddd356b4e9be0de478e946001602095018155611600565b815460001960039290921b91821b19169086901b1790556001600160a01b0390610e2e906117fd565b1693604051908152a3005b634e487b7160e01b600052604160045260246000fd5b9091506001600160a01b0390610e64906117fd565b16907f14796949d4d1a6824063ec05e354db666bde3356a8cf646c6075272b5353185c600080a3005b015190508e80610d46565b90601f1983169184600052816000209260005b818110610ef0575092600192859260069a999896610d76989610610ed7575b505050811b019055610d5e565b015160001960f88460031b161c191690558d8080610eca565b92936020600181928786015181550195019301610eab565b87600052600560205260056040600020015492610c2d565b60405162461bcd60e51b8152602060048201526014602482015273135bdb99dbd1185d185251081c995c5d5a5c995960621b6044820152606490fd5b60405162461bcd60e51b815260206004820152601c60248201527f5072696365206d7573742062652067726561746572207468616e2030000000006044820152606490fd5b60405162461bcd60e51b8152602060048201526012602482015271125b9d985b1a59081b995d1ddbdc9ac8125160721b6044820152606490fd5b506000546001600160a01b03163314610b9d565b346101da5760203660031901126101da57600435600060e060405161101381611668565b828152826020820152826040820152826060820152826080820152606060a0820152606060c0820152015280600052600a60205260ff6040600020541615611151576000526006602052604060002060405161106e81611668565b815481526001820154916020820192835261114560018060a01b03600283015416916040840192835261113260038201546060860190815260ff6004840154166080870190151581526110c3600585016116c0565b9160a0880192835260076110d9600687016116c0565b9560c08a0196875201549660e08901978852604051998a9960208b525160208b01525160408a015260018060a01b03905116606089015251608088015251151560a08701525161010060c0870152610120860190611594565b9051848203601f190160e0860152611594565b90516101008301520390f35b60405162461bcd60e51b815260206004820152601660248201527514d95cdcda5bdb88191bd95cc81b9bdd08195e1a5cdd60521b6044820152606490fd5b346101da5760403660031901126101da576024356004356001600160401b0382116101da578160040161010060031984360301126101da5733600052600260205260ff60406000205416801561154f575b6111e9906117c0565b81156115155760448301906001600160a01b03611205836117fd565b16156114d05760648401359361121c851515611811565b60248101359182600052600960205261123c60ff6040600020541661185d565b84600052600660205260406000209281358455600184015561125d846117fd565b6002840180546001600160a01b0319166001600160a01b03909216919091179055600383018690556112a9611294608484016118a2565b600485019060ff801983541691151516179055565b600583016112ba60a48401836118af565b906001600160401b038211610e39576112d782610d1a855461162e565b600090601f831160011461146c576113079291600091836114615750508160011b916000199060031b1c19161790565b90555b61131c600684019160c48401906118af565b906001600160401b038211610e395761133982610d1a855461162e565b600090601f83116001146113d25793602095936113958460079560e4957f6d8d8fde140edbf6c26881f091850cb55bae733f801e9e4f9b7d123b88b620c89b996000926113c75750508160011b916000199060031b1c19161790565b90555b01359101556000848152600a835260409020805460ff191660011790556001600160a01b0390610e2e906117fd565b013590508d80610d46565b8382526020822091601f198416815b81811061144957508460e4947f6d8d8fde140edbf6c26881f091850cb55bae733f801e9e4f9b7d123b88b620c89a989460209a98946007986001951061142f575b505050811b019055611398565b0135600019600384901b60f8161c191690558c8080611422565b919360206001819287870135815501950192016113e1565b013590508a80610d46565b8382526020822091601f198416815b8181106114b8575090846001959493921061149e575b505050811b01905561130a565b0135600019600384901b60f8161c19169055898080611491565b9193602060018192878701358155019501920161147b565b60405162461bcd60e51b815260206004820152601760248201527f496e76616c6964207061796d656e7420616464726573730000000000000000006044820152606490fd5b60405162461bcd60e51b8152602060048201526012602482015271125b9d985b1a59081cd95cdcda5bdb88125160721b6044820152606490fd5b506000546001600160a01b031633146111e0565b346101da5760003660031901126101da576020906003548152f35b600435906001600160a01b03821682036101da57565b919082519283825260005b8481106115c0575050826000602080949584010152601f8019910116010190565b8060208092840101518282860101520161159f565b346101da5760003660031901126101da57602060405160648152f35b6024359081151582036101da57565b80548210156116185760005260206000200190600090565b634e487b7160e01b600052603260045260246000fd5b90600182811c9216801561165e575b602083101461164857565b634e487b7160e01b600052602260045260246000fd5b91607f169161163d565b61010081019081106001600160401b03821117610e3957604052565b60e081019081106001600160401b03821117610e3957604052565b90601f801991011681019081106001600160401b03821117610e3957604052565b90604051918260008254926116d48461162e565b808452936001811690811561174257506001146116fb575b506116f99250038361169f565b565b90506000929192526020600020906000915b8183106117265750509060206116f992820101386116ec565b602091935080600191548385890101520191019091849261170d565b9050602092506116f994915060ff191682840152151560051b820101386116ec565b908151815260018060a01b0360208301511660208201526040820151604082015260c0806117a1606085015160e0606086015260e0850190611594565b9360808101511515608085015260a081015160a0850152015191015290565b156117c757565b60405162461bcd60e51b815260206004820152600e60248201526d139bdd08185d5d1a1bdc9a5e995960921b6044820152606490fd5b356001600160a01b03811681036101da5790565b1561181857565b60405162461bcd60e51b815260206004820152601d60248201527f416d6f756e74206d7573742062652067726561746572207468616e20300000006044820152606490fd5b1561186457565b60405162461bcd60e51b815260206004820152601660248201527513995d1ddbdc9ac8191bd95cc81b9bdd08195e1a5cdd60521b6044820152606490fd5b3580151581036101da5790565b903590601e19813603018212156101da57018035906001600160401b0382116101da576020019181360383136101da57565b601f82116118ee57505050565b6000526020600020906020601f840160051c83019310611929575b601f0160051c01905b81811061191d575050565b60008155600101611912565b9091508190611909565b1561193a57565b60405162461bcd60e51b8152602060048201526014602482015273496e76616c696420686f7374206164647265737360601b6044820152606490fd5b60001981146119855760010190565b634e487b7160e01b600052601160045260246000fd5b91908110156116185760051b0190565b156119b257565b60405162461bcd60e51b8152602060048201526016602482015275496e76616c69642063616c6c6572206164647265737360501b6044820152606490fd5b604051906119fd82611684565b600060c0838281528260208201528260408201526060808201528260808201528260a08201520152565b90604051611a3481611684565b8254815260018301546001600160a01b031660208201526002830154604082015291829060c090600690611a6a600382016116c0565b606085015260ff60048201541615156080850152600581015460a08501520154910152565b9190820180921161198557565b6001600160401b038111610e395760051b60200190565b9190820391821161198557565b80518210156116185760209160051b010190565b91909160648311611bef576003549283821015611bb357611af59082611a8f565b838111611bac575b611b078282611ab3565b91611b1183611a9c565b92611b1f604051948561169f565b808452611b2e601f1991611a9c565b0160005b818110611b95575050805b828110611b4b575050509190565b6001810190818111611985576001916000526005602052611b8e6040600020611b7d611b778685611ab3565b91611a27565b611b878289611ac0565b5286611ac0565b5001611b3d565b602090611ba06119f0565b82828801015201611b32565b5082611afd565b50506040516000611bc560208361169f565b81526000805b818110611bd85750509190565b602090611be36119f0565b82828601015201611bcb565b60405162461bcd60e51b815260206004820152600e60248201526d098d2dad2e840e8dede40d0d2ced60931b6044820152606490fd5b6000546001600160a01b03163303611c3957565b63118cdaa760e01b6000523360045260246000fdfea2646970667358221220ca7e6add7b2d3986fedff597b5d4e7c4c2fd38444ab9a885388a82164eb9b23464736f6c634300081c0033",
          "opcodes": "PUSH1 0x80 DUP1 PUSH1 0x40 MSTORE CALLVALUE PUSH1 0x79 JUMPI CALLER ISZERO PUSH1 0x63 JUMPI PUSH1 0x0 DUP1 SLOAD CALLER PUSH1 0x1 PUSH1 0x1 PUSH1 0xA0 SHL SUB NOT DUP3 AND DUP2 OR DUP4 SSTORE SWAP2 PUSH1 0x1 PUSH1 0x1 PUSH1 0xA0 SHL SUB SWAP1 SWAP2 AND SWAP1 PUSH32 0x8BE0079C531659141344CD1FD0A4F28419497F9722A3DAAFE3B4186F6B6457E0 SWAP1 DUP1 LOG3 PUSH1 0x1 DUP1 SSTORE PUSH2 0x1C84 SWAP1 DUP2 PUSH2 0x7F DUP3 CODECOPY RETURN JUMPDEST PUSH4 0x1E4FBDF7 PUSH1 0xE0 SHL PUSH1 0x0 MSTORE PUSH1 0x0 PUSH1 0x4 MSTORE PUSH1 0x24 PUSH1 0x0 REVERT JUMPDEST PUSH1 0x0 DUP1 REVERT INVALID PUSH1 0x80 DUP1 PUSH1 0x40 MSTORE PUSH1 0x4 CALLDATASIZE LT ISZERO PUSH2 0x13 JUMPI PUSH1 0x0 DUP1 REVERT JUMPDEST PUSH1 0x0 CALLDATALOAD PUSH1 0xE0 SHR SWAP1 DUP2 PUSH4 0x217C682D EQ PUSH2 0x1563 JUMPI POP DUP1 PUSH4 0x29C718B5 EQ PUSH2 0xA09 JUMPI DUP1 PUSH4 0x3B9A8016 EQ PUSH2 0x118F JUMPI DUP1 PUSH4 0x402FF0DB EQ PUSH2 0xFEF JUMPI DUP1 PUSH4 0x50C0D41C EQ PUSH2 0xB4C JUMPI DUP1 PUSH4 0x5290FFC6 EQ PUSH2 0xAEC JUMPI DUP1 PUSH4 0x52F51F8B EQ PUSH2 0x9AB JUMPI DUP1 PUSH4 0x5A29352D EQ PUSH2 0xACE JUMPI DUP1 PUSH4 0x5A2F406F EQ PUSH2 0xA43 JUMPI DUP1 PUSH4 0x6D65573F EQ PUSH2 0xA09 JUMPI DUP1 PUSH4 0x715018A6 EQ PUSH2 0x9B0 JUMPI DUP1 PUSH4 0x71F7CD5B EQ PUSH2 0x9AB JUMPI DUP1 PUSH4 0x73F9A5D7 EQ PUSH2 0x892 JUMPI DUP1 PUSH4 0x79F0DC57 EQ PUSH2 0x7D8 JUMPI DUP1 PUSH4 0x7B334154 EQ PUSH2 0x799 JUMPI DUP1 PUSH4 0x7BAE8F5E EQ PUSH2 0x740 JUMPI DUP1 PUSH4 0x83C4B7A3 EQ PUSH2 0x68E JUMPI DUP1 PUSH4 0x879ECF10 EQ PUSH2 0x65D JUMPI DUP1 PUSH4 0x8BB0A17C EQ PUSH2 0x5CA JUMPI DUP1 PUSH4 0x8DA5CB5B EQ PUSH2 0x5A1 JUMPI DUP1 PUSH4 0x95EA5717 EQ PUSH2 0x53A JUMPI DUP1 PUSH4 0xC59D4847 EQ PUSH2 0x475 JUMPI DUP1 PUSH4 0xCC507641 EQ PUSH2 0x415 JUMPI DUP1 PUSH4 0xD8B0E716 EQ PUSH2 0x386 JUMPI DUP1 PUSH4 0xE1C7A8AA EQ PUSH2 0x299 JUMPI DUP1 PUSH4 0xEC13F2A1 EQ PUSH2 0x268 JUMPI DUP1 PUSH4 0xF2FDE38B EQ PUSH2 0x1DF JUMPI PUSH4 0xFA9C81A4 EQ PUSH2 0x153 JUMPI PUSH1 0x0 DUP1 REVERT JUMPDEST CALLVALUE PUSH2 0x1DA JUMPI PUSH1 0x40 CALLDATASIZE PUSH1 0x3 NOT ADD SLT PUSH2 0x1DA JUMPI PUSH2 0x172 PUSH1 0x24 CALLDATALOAD PUSH1 0x4 CALLDATALOAD PUSH2 0x1AD4 JUMP JUMPDEST SWAP1 PUSH1 0x40 MLOAD SWAP1 PUSH1 0x40 DUP3 ADD PUSH1 0x40 DUP4 MSTORE DUP2 MLOAD DUP1 SWAP2 MSTORE PUSH1 0x60 DUP4 ADD SWAP1 PUSH1 0x20 PUSH1 0x60 DUP3 PUSH1 0x5 SHL DUP7 ADD ADD SWAP4 ADD SWAP2 PUSH1 0x0 SWAP1 JUMPDEST DUP3 DUP3 LT PUSH2 0x1AF JUMPI DUP6 DUP1 DUP7 DUP10 PUSH1 0x20 DUP4 ADD MSTORE SUB SWAP1 RETURN JUMPDEST SWAP1 SWAP2 SWAP3 SWAP4 PUSH1 0x20 DUP1 PUSH2 0x1CC PUSH1 0x1 SWAP4 PUSH1 0x5F NOT DUP11 DUP3 SUB ADD DUP7 MSTORE DUP9 MLOAD PUSH2 0x1764 JUMP JUMPDEST SWAP7 ADD SWAP3 ADD SWAP3 ADD SWAP1 SWAP3 SWAP2 PUSH2 0x19B JUMP JUMPDEST PUSH1 0x0 DUP1 REVERT JUMPDEST CALLVALUE PUSH2 0x1DA JUMPI PUSH1 0x20 CALLDATASIZE PUSH1 0x3 NOT ADD SLT PUSH2 0x1DA JUMPI PUSH2 0x1F8 PUSH2 0x157E JUMP JUMPDEST PUSH2 0x200 PUSH2 0x1C25 JUMP JUMPDEST PUSH1 0x1 PUSH1 0x1 PUSH1 0xA0 SHL SUB AND DUP1 ISZERO PUSH2 0x252 JUMPI PUSH1 0x0 DUP1 SLOAD PUSH1 0x1 PUSH1 0x1 PUSH1 0xA0 SHL SUB NOT DUP2 AND DUP4 OR DUP3 SSTORE PUSH1 0x1 PUSH1 0x1 PUSH1 0xA0 SHL SUB AND SWAP1 PUSH32 0x8BE0079C531659141344CD1FD0A4F28419497F9722A3DAAFE3B4186F6B6457E0 SWAP1 DUP1 LOG3 STOP JUMPDEST PUSH4 0x1E4FBDF7 PUSH1 0xE0 SHL PUSH1 0x0 MSTORE PUSH1 0x0 PUSH1 0x4 MSTORE PUSH1 0x24 PUSH1 0x0 REVERT JUMPDEST CALLVALUE PUSH2 0x1DA JUMPI PUSH1 0x20 CALLDATASIZE PUSH1 0x3 NOT ADD SLT PUSH2 0x1DA JUMPI PUSH1 0x4 CALLDATALOAD PUSH1 0x0 MSTORE PUSH1 0x9 PUSH1 0x20 MSTORE PUSH1 0x20 PUSH1 0xFF PUSH1 0x40 PUSH1 0x0 KECCAK256 SLOAD AND PUSH1 0x40 MLOAD SWAP1 ISZERO ISZERO DUP2 MSTORE RETURN JUMPDEST CALLVALUE PUSH2 0x1DA JUMPI PUSH1 0x40 CALLDATASIZE PUSH1 0x3 NOT ADD SLT PUSH2 0x1DA JUMPI PUSH2 0x2B2 PUSH2 0x157E JUMP JUMPDEST PUSH1 0x24 CALLDATALOAD SWAP1 CALLER PUSH1 0x0 MSTORE PUSH1 0x2 PUSH1 0x20 MSTORE PUSH1 0xFF PUSH1 0x40 PUSH1 0x0 KECCAK256 SLOAD AND DUP1 ISZERO PUSH2 0x372 JUMPI JUMPDEST PUSH2 0x2D8 SWAP1 PUSH2 0x17C0 JUMP JUMPDEST PUSH1 0x2 PUSH1 0x1 SLOAD EQ PUSH2 0x361 JUMPI PUSH1 0x2 PUSH1 0x1 SSTORE PUSH1 0x1 PUSH1 0x1 PUSH1 0xA0 SHL SUB AND SWAP1 PUSH2 0x2FC DUP3 ISZERO ISZERO PUSH2 0x1933 JUMP JUMPDEST PUSH2 0x307 DUP2 ISZERO ISZERO PUSH2 0x1811 JUMP JUMPDEST DUP2 PUSH1 0x0 MSTORE PUSH1 0x7 PUSH1 0x20 MSTORE PUSH2 0x320 PUSH1 0x40 PUSH1 0x0 KECCAK256 SWAP2 DUP3 SLOAD PUSH2 0x1A8F JUMP JUMPDEST SWAP1 SSTORE DUP1 PUSH1 0x0 MSTORE PUSH1 0x7 PUSH1 0x20 MSTORE PUSH32 0x61A8B1A557E4D03803DB90D13FF76DB2C25FBA3ED24882CECDA8C8423B9B2BE0 PUSH1 0x20 PUSH1 0x40 PUSH1 0x0 KECCAK256 SLOAD PUSH1 0x40 MLOAD SWAP1 DUP2 MSTORE LOG2 PUSH1 0x1 DUP1 SSTORE STOP JUMPDEST PUSH4 0x3EE5AEB5 PUSH1 0xE0 SHL PUSH1 0x0 MSTORE PUSH1 0x4 PUSH1 0x0 REVERT JUMPDEST POP PUSH1 0x0 SLOAD PUSH1 0x1 PUSH1 0x1 PUSH1 0xA0 SHL SUB AND CALLER EQ PUSH2 0x2CF JUMP JUMPDEST CALLVALUE PUSH2 0x1DA JUMPI PUSH1 0x40 CALLDATASIZE PUSH1 0x3 NOT ADD SLT PUSH2 0x1DA JUMPI PUSH2 0x39F PUSH2 0x157E JUMP JUMPDEST PUSH32 0xD6FC3082AE3A144CA59421D96180398241C1DD021D45D5A24FB5BF96C9F8212F PUSH1 0x20 PUSH2 0x3CA PUSH2 0x15F1 JUMP JUMPDEST SWAP3 PUSH2 0x3D3 PUSH2 0x1C25 JUMP JUMPDEST PUSH1 0x1 PUSH1 0x1 PUSH1 0xA0 SHL SUB AND SWAP3 PUSH2 0x3E8 DUP5 ISZERO ISZERO PUSH2 0x19AB JUMP JUMPDEST DUP4 PUSH1 0x0 MSTORE PUSH1 0x2 DUP3 MSTORE PUSH2 0x40A DUP2 PUSH1 0x40 PUSH1 0x0 KECCAK256 SWAP1 PUSH1 0xFF DUP1 NOT DUP4 SLOAD AND SWAP2 ISZERO ISZERO AND OR SWAP1 SSTORE JUMP JUMPDEST PUSH1 0x40 MLOAD SWAP1 ISZERO ISZERO DUP2 MSTORE LOG2 STOP JUMPDEST CALLVALUE PUSH2 0x1DA JUMPI PUSH1 0x0 CALLDATASIZE PUSH1 0x3 NOT ADD SLT PUSH2 0x1DA JUMPI CALLER PUSH1 0x0 MSTORE PUSH1 0x2 PUSH1 0x20 MSTORE PUSH1 0xFF PUSH1 0x40 PUSH1 0x0 KECCAK256 SLOAD AND DUP1 ISZERO PUSH2 0x461 JUMPI JUMPDEST PUSH2 0x448 SWAP1 PUSH2 0x17C0 JUMP JUMPDEST PUSH1 0x20 PUSH2 0x455 PUSH1 0x4 SLOAD PUSH2 0x1976 JUMP JUMPDEST DUP1 PUSH1 0x4 SSTORE PUSH1 0x40 MLOAD SWAP1 DUP2 MSTORE RETURN JUMPDEST POP PUSH1 0x0 SLOAD PUSH1 0x1 PUSH1 0x1 PUSH1 0xA0 SHL SUB AND CALLER EQ PUSH2 0x43F JUMP JUMPDEST CALLVALUE PUSH2 0x1DA JUMPI PUSH1 0x0 CALLDATASIZE PUSH1 0x3 NOT ADD SLT PUSH2 0x1DA JUMPI PUSH1 0x3 SLOAD PUSH1 0x4 SLOAD SWAP1 PUSH1 0x0 DUP1 PUSH1 0x1 JUMPDEST DUP4 DUP2 GT ISZERO PUSH2 0x4FF JUMPI POP PUSH1 0x1 JUMPDEST DUP5 DUP2 GT ISZERO PUSH2 0x4C2 JUMPI POP PUSH1 0x80 SWAP4 PUSH1 0x40 MLOAD SWAP4 DUP5 MSTORE PUSH1 0x20 DUP5 ADD MSTORE PUSH1 0x40 DUP4 ADD MSTORE PUSH1 0x60 DUP3 ADD MSTORE RETURN JUMPDEST DUP1 PUSH1 0x0 MSTORE PUSH1 0x6 PUSH1 0x20 MSTORE PUSH1 0xFF PUSH1 0x4 PUSH1 0x40 PUSH1 0x0 KECCAK256 ADD SLOAD AND PUSH2 0x4EA JUMPI JUMPDEST PUSH2 0x4E5 SWAP1 PUSH2 0x1976 JUMP JUMPDEST PUSH2 0x49F JUMP JUMPDEST SWAP2 PUSH2 0x4F7 PUSH2 0x4E5 SWAP2 PUSH2 0x1976 JUMP JUMPDEST SWAP3 SWAP1 POP PUSH2 0x4DC JUMP JUMPDEST DUP1 DUP4 MSTORE PUSH1 0x5 PUSH1 0x20 MSTORE PUSH1 0xFF PUSH1 0x4 PUSH1 0x40 DUP6 KECCAK256 ADD SLOAD AND PUSH2 0x525 JUMPI JUMPDEST PUSH2 0x520 SWAP1 PUSH2 0x1976 JUMP JUMPDEST PUSH2 0x493 JUMP JUMPDEST SWAP1 PUSH2 0x532 PUSH2 0x520 SWAP2 PUSH2 0x1976 JUMP JUMPDEST SWAP2 SWAP1 POP PUSH2 0x517 JUMP JUMPDEST CALLVALUE PUSH2 0x1DA JUMPI PUSH1 0x20 CALLDATASIZE PUSH1 0x3 NOT ADD SLT PUSH2 0x1DA JUMPI PUSH1 0x4 CALLDATALOAD PUSH2 0x556 PUSH2 0x19F0 JUMP JUMPDEST POP DUP1 PUSH1 0x0 MSTORE PUSH1 0x9 PUSH1 0x20 MSTORE PUSH2 0x571 PUSH1 0xFF PUSH1 0x40 PUSH1 0x0 KECCAK256 SLOAD AND PUSH2 0x185D JUMP JUMPDEST PUSH1 0x0 MSTORE PUSH1 0x5 PUSH1 0x20 MSTORE PUSH2 0x59D PUSH2 0x589 PUSH1 0x40 PUSH1 0x0 KECCAK256 PUSH2 0x1A27 JUMP JUMPDEST PUSH1 0x40 MLOAD SWAP2 DUP3 SWAP2 PUSH1 0x20 DUP4 MSTORE PUSH1 0x20 DUP4 ADD SWAP1 PUSH2 0x1764 JUMP JUMPDEST SUB SWAP1 RETURN JUMPDEST CALLVALUE PUSH2 0x1DA JUMPI PUSH1 0x0 CALLDATASIZE PUSH1 0x3 NOT ADD SLT PUSH2 0x1DA JUMPI PUSH1 0x0 SLOAD PUSH1 0x40 MLOAD PUSH1 0x1 PUSH1 0x1 PUSH1 0xA0 SHL SUB SWAP1 SWAP2 AND DUP2 MSTORE PUSH1 0x20 SWAP1 RETURN JUMPDEST CALLVALUE PUSH2 0x1DA JUMPI PUSH1 0x20 CALLDATASIZE PUSH1 0x3 NOT ADD SLT PUSH2 0x1DA JUMPI PUSH1 0x4 CALLDATALOAD PUSH1 0x0 MSTORE PUSH1 0x5 PUSH1 0x20 MSTORE PUSH1 0x40 PUSH1 0x0 KECCAK256 DUP1 SLOAD PUSH1 0x1 DUP1 PUSH1 0xA0 SHL SUB PUSH1 0x1 DUP4 ADD SLOAD AND SWAP2 PUSH1 0x2 DUP2 ADD SLOAD PUSH2 0x60C PUSH1 0x3 DUP4 ADD PUSH2 0x16C0 JUMP JUMPDEST SWAP2 PUSH2 0x647 PUSH1 0xFF PUSH1 0x4 DUP4 ADD SLOAD AND SWAP4 PUSH1 0x6 PUSH1 0x5 DUP5 ADD SLOAD SWAP4 ADD SLOAD SWAP4 PUSH1 0x40 MLOAD SWAP8 DUP9 SWAP8 DUP9 MSTORE PUSH1 0x20 DUP9 ADD MSTORE PUSH1 0x40 DUP8 ADD MSTORE PUSH1 0xE0 PUSH1 0x60 DUP8 ADD MSTORE PUSH1 0xE0 DUP7 ADD SWAP1 PUSH2 0x1594 JUMP JUMPDEST SWAP3 ISZERO ISZERO PUSH1 0x80 DUP6 ADD MSTORE PUSH1 0xA0 DUP5 ADD MSTORE PUSH1 0xC0 DUP4 ADD MSTORE SUB SWAP1 RETURN JUMPDEST CALLVALUE PUSH2 0x1DA JUMPI PUSH1 0x20 CALLDATASIZE PUSH1 0x3 NOT ADD SLT PUSH2 0x1DA JUMPI PUSH1 0x4 CALLDATALOAD PUSH1 0x0 MSTORE PUSH1 0xA PUSH1 0x20 MSTORE PUSH1 0x20 PUSH1 0xFF PUSH1 0x40 PUSH1 0x0 KECCAK256 SLOAD AND PUSH1 0x40 MLOAD SWAP1 ISZERO ISZERO DUP2 MSTORE RETURN JUMPDEST CALLVALUE PUSH2 0x1DA JUMPI PUSH1 0x20 CALLDATASIZE PUSH1 0x3 NOT ADD SLT PUSH2 0x1DA JUMPI PUSH1 0x4 CALLDATALOAD PUSH1 0x0 MSTORE PUSH1 0x6 PUSH1 0x20 MSTORE PUSH1 0x40 PUSH1 0x0 KECCAK256 DUP1 SLOAD PUSH1 0x1 DUP3 ADD SLOAD SWAP2 PUSH2 0x736 PUSH1 0x1 DUP1 PUSH1 0xA0 SHL SUB PUSH1 0x2 DUP4 ADD SLOAD AND SWAP2 PUSH2 0x728 PUSH1 0x3 DUP3 ADD SLOAD PUSH1 0xFF PUSH1 0x4 DUP5 ADD SLOAD AND PUSH2 0x6E4 PUSH1 0x5 DUP6 ADD PUSH2 0x16C0 JUMP JUMPDEST SWAP2 PUSH1 0x7 PUSH2 0x6F3 PUSH1 0x6 DUP8 ADD PUSH2 0x16C0 JUMP JUMPDEST SWAP6 ADD SLOAD SWAP7 PUSH1 0x40 MLOAD SWAP10 DUP11 SWAP10 DUP11 MSTORE PUSH1 0x20 DUP11 ADD MSTORE PUSH1 0x40 DUP10 ADD MSTORE PUSH1 0x60 DUP9 ADD MSTORE ISZERO ISZERO PUSH1 0x80 DUP8 ADD MSTORE PUSH2 0x100 PUSH1 0xA0 DUP8 ADD MSTORE PUSH2 0x100 DUP7 ADD SWAP1 PUSH2 0x1594 JUMP JUMPDEST SWAP1 DUP5 DUP3 SUB PUSH1 0xC0 DUP7 ADD MSTORE PUSH2 0x1594 JUMP JUMPDEST SWAP1 PUSH1 0xE0 DUP4 ADD MSTORE SUB SWAP1 RETURN JUMPDEST CALLVALUE PUSH2 0x1DA JUMPI PUSH1 0x40 CALLDATASIZE PUSH1 0x3 NOT ADD SLT PUSH2 0x1DA JUMPI PUSH2 0x759 PUSH2 0x157E JUMP JUMPDEST PUSH1 0x1 PUSH1 0x1 PUSH1 0xA0 SHL SUB AND PUSH1 0x0 SWAP1 DUP2 MSTORE PUSH1 0x8 PUSH1 0x20 MSTORE PUSH1 0x40 SWAP1 KECCAK256 DUP1 SLOAD PUSH1 0x24 CALLDATALOAD SWAP2 SWAP1 DUP3 LT ISZERO PUSH2 0x1DA JUMPI PUSH1 0x20 SWAP2 PUSH2 0x78A SWAP2 PUSH2 0x1600 JUMP JUMPDEST SWAP1 SLOAD SWAP1 PUSH1 0x3 SHL SHR PUSH1 0x40 MLOAD SWAP1 DUP2 MSTORE RETURN JUMPDEST CALLVALUE PUSH2 0x1DA JUMPI PUSH1 0x20 CALLDATASIZE PUSH1 0x3 NOT ADD SLT PUSH2 0x1DA JUMPI PUSH1 0x1 PUSH1 0x1 PUSH1 0xA0 SHL SUB PUSH2 0x7BA PUSH2 0x157E JUMP JUMPDEST AND PUSH1 0x0 MSTORE PUSH1 0x2 PUSH1 0x20 MSTORE PUSH1 0x20 PUSH1 0xFF PUSH1 0x40 PUSH1 0x0 KECCAK256 SLOAD AND PUSH1 0x40 MLOAD SWAP1 ISZERO ISZERO DUP2 MSTORE RETURN JUMPDEST CALLVALUE PUSH2 0x1DA JUMPI PUSH1 0x20 CALLDATASIZE PUSH1 0x3 NOT ADD SLT PUSH2 0x1DA JUMPI PUSH1 0x1 PUSH1 0x1 PUSH1 0xA0 SHL SUB PUSH2 0x7F9 PUSH2 0x157E JUMP JUMPDEST AND PUSH1 0x0 MSTORE PUSH1 0x8 PUSH1 0x20 MSTORE PUSH1 0x40 PUSH1 0x0 KECCAK256 PUSH1 0x40 MLOAD DUP1 PUSH1 0x20 DUP4 SLOAD SWAP2 DUP3 DUP2 MSTORE ADD SWAP1 DUP2 SWAP4 PUSH1 0x0 MSTORE PUSH1 0x20 PUSH1 0x0 KECCAK256 SWAP1 PUSH1 0x0 JUMPDEST DUP2 DUP2 LT PUSH2 0x87C JUMPI POP POP POP DUP2 PUSH2 0x839 SWAP2 SUB DUP3 PUSH2 0x169F JUMP JUMPDEST PUSH1 0x40 MLOAD SWAP2 DUP3 SWAP2 PUSH1 0x20 DUP4 ADD SWAP1 PUSH1 0x20 DUP5 MSTORE MLOAD DUP1 SWAP2 MSTORE PUSH1 0x40 DUP4 ADD SWAP2 SWAP1 PUSH1 0x0 JUMPDEST DUP2 DUP2 LT PUSH2 0x863 JUMPI POP POP POP SUB SWAP1 RETURN JUMPDEST DUP3 MLOAD DUP5 MSTORE DUP6 SWAP5 POP PUSH1 0x20 SWAP4 DUP5 ADD SWAP4 SWAP1 SWAP3 ADD SWAP2 PUSH1 0x1 ADD PUSH2 0x855 JUMP JUMPDEST DUP3 SLOAD DUP5 MSTORE PUSH1 0x20 SWAP1 SWAP4 ADD SWAP3 PUSH1 0x1 SWAP3 DUP4 ADD SWAP3 ADD PUSH2 0x823 JUMP JUMPDEST CALLVALUE PUSH2 0x1DA JUMPI PUSH1 0x40 CALLDATASIZE PUSH1 0x3 NOT ADD SLT PUSH2 0x1DA JUMPI PUSH1 0x4 CALLDATALOAD PUSH1 0x1 PUSH1 0x1 PUSH1 0x40 SHL SUB DUP2 GT PUSH2 0x1DA JUMPI CALLDATASIZE PUSH1 0x23 DUP3 ADD SLT ISZERO PUSH2 0x1DA JUMPI DUP1 PUSH1 0x4 ADD CALLDATALOAD PUSH1 0x1 PUSH1 0x1 PUSH1 0x40 SHL SUB DUP2 GT PUSH2 0x1DA JUMPI PUSH1 0x24 DUP3 ADD SWAP2 PUSH1 0x24 CALLDATASIZE SWAP2 DUP4 PUSH1 0x5 SHL ADD ADD GT PUSH2 0x1DA JUMPI PUSH2 0x8EE PUSH2 0x15F1 JUMP JUMPDEST PUSH2 0x8F6 PUSH2 0x1C25 JUMP JUMPDEST DUP1 ISZERO ISZERO SWAP1 PUSH1 0x0 JUMPDEST DUP4 DUP2 LT PUSH2 0x906 JUMPI STOP JUMPDEST PUSH1 0x1 SWAP1 PUSH2 0x92F PUSH1 0x1 PUSH1 0x1 PUSH1 0xA0 SHL SUB PUSH2 0x927 PUSH2 0x922 DUP5 DUP10 DUP12 PUSH2 0x199B JUMP JUMPDEST PUSH2 0x17FD JUMP JUMPDEST AND ISZERO ISZERO PUSH2 0x19AB JUMP JUMPDEST DUP2 DUP1 PUSH1 0xA0 SHL SUB PUSH2 0x943 PUSH2 0x922 DUP4 DUP9 DUP11 PUSH2 0x199B JUMP JUMPDEST AND PUSH1 0x0 MSTORE PUSH1 0x2 PUSH1 0x20 MSTORE PUSH2 0x966 DUP4 PUSH1 0x40 PUSH1 0x0 KECCAK256 SWAP1 PUSH1 0xFF DUP1 NOT DUP4 SLOAD AND SWAP2 ISZERO ISZERO AND OR SWAP1 SSTORE JUMP JUMPDEST DUP2 DUP1 PUSH1 0xA0 SHL SUB PUSH2 0x97A PUSH2 0x922 DUP4 DUP9 DUP11 PUSH2 0x199B JUMP JUMPDEST AND PUSH32 0xD6FC3082AE3A144CA59421D96180398241C1DD021D45D5A24FB5BF96C9F8212F PUSH1 0x20 PUSH1 0x40 MLOAD DUP8 DUP2 MSTORE LOG2 ADD PUSH2 0x8FD JUMP JUMPDEST PUSH2 0x15D5 JUMP JUMPDEST CALLVALUE PUSH2 0x1DA JUMPI PUSH1 0x0 CALLDATASIZE PUSH1 0x3 NOT ADD SLT PUSH2 0x1DA JUMPI PUSH2 0x9C9 PUSH2 0x1C25 JUMP JUMPDEST PUSH1 0x0 DUP1 SLOAD PUSH1 0x1 PUSH1 0x1 PUSH1 0xA0 SHL SUB NOT DUP2 AND DUP3 SSTORE PUSH1 0x1 PUSH1 0x1 PUSH1 0xA0 SHL SUB AND PUSH32 0x8BE0079C531659141344CD1FD0A4F28419497F9722A3DAAFE3B4186F6B6457E0 DUP3 DUP1 LOG3 STOP JUMPDEST CALLVALUE PUSH2 0x1DA JUMPI PUSH1 0x20 CALLDATASIZE PUSH1 0x3 NOT ADD SLT PUSH2 0x1DA JUMPI PUSH1 0x1 PUSH1 0x1 PUSH1 0xA0 SHL SUB PUSH2 0xA2A PUSH2 0x157E JUMP JUMPDEST AND PUSH1 0x0 MSTORE PUSH1 0x7 PUSH1 0x20 MSTORE PUSH1 0x20 PUSH1 0x40 PUSH1 0x0 KECCAK256 SLOAD PUSH1 0x40 MLOAD SWAP1 DUP2 MSTORE RETURN JUMPDEST CALLVALUE PUSH2 0x1DA JUMPI PUSH1 0x20 CALLDATASIZE PUSH1 0x3 NOT ADD SLT PUSH2 0x1DA JUMPI PUSH1 0x4 CALLDATALOAD PUSH2 0xA5F PUSH2 0x1C25 JUMP JUMPDEST DUP1 PUSH1 0x0 MSTORE PUSH1 0x9 PUSH1 0x20 MSTORE PUSH2 0xA79 PUSH1 0xFF PUSH1 0x40 PUSH1 0x0 KECCAK256 SLOAD AND PUSH2 0x185D JUMP JUMPDEST PUSH1 0x0 DUP2 DUP2 MSTORE PUSH1 0x5 PUSH1 0x20 MSTORE PUSH1 0x40 DUP2 KECCAK256 PUSH1 0x4 DUP2 ADD DUP1 SLOAD PUSH1 0xFF NOT AND SWAP1 SSTORE TIMESTAMP PUSH1 0x6 DUP3 ADD SSTORE PUSH1 0x1 ADD SLOAD PUSH1 0x1 PUSH1 0x1 PUSH1 0xA0 SHL SUB AND SWAP2 SWAP1 PUSH32 0x14796949D4D1A6824063EC05E354DB666BDE3356A8CF646C6075272B5353185C SWAP1 DUP1 LOG3 STOP JUMPDEST CALLVALUE PUSH2 0x1DA JUMPI PUSH1 0x0 CALLDATASIZE PUSH1 0x3 NOT ADD SLT PUSH2 0x1DA JUMPI PUSH1 0x20 PUSH1 0x4 SLOAD PUSH1 0x40 MLOAD SWAP1 DUP2 MSTORE RETURN JUMPDEST CALLVALUE PUSH2 0x1DA JUMPI PUSH1 0x0 CALLDATASIZE PUSH1 0x3 NOT ADD SLT PUSH2 0x1DA JUMPI CALLER PUSH1 0x0 MSTORE PUSH1 0x2 PUSH1 0x20 MSTORE PUSH1 0xFF PUSH1 0x40 PUSH1 0x0 KECCAK256 SLOAD AND DUP1 ISZERO PUSH2 0xB38 JUMPI JUMPDEST PUSH2 0xB1F SWAP1 PUSH2 0x17C0 JUMP JUMPDEST PUSH1 0x20 PUSH2 0xB2C PUSH1 0x3 SLOAD PUSH2 0x1976 JUMP JUMPDEST DUP1 PUSH1 0x3 SSTORE PUSH1 0x40 MLOAD SWAP1 DUP2 MSTORE RETURN JUMPDEST POP PUSH1 0x0 SLOAD PUSH1 0x1 PUSH1 0x1 PUSH1 0xA0 SHL SUB AND CALLER EQ PUSH2 0xB16 JUMP JUMPDEST CALLVALUE PUSH2 0x1DA JUMPI PUSH1 0x40 CALLDATASIZE PUSH1 0x3 NOT ADD SLT PUSH2 0x1DA JUMPI PUSH1 0x24 CALLDATALOAD PUSH1 0x4 CALLDATALOAD PUSH1 0x1 PUSH1 0x1 PUSH1 0x40 SHL SUB DUP3 GT PUSH2 0x1DA JUMPI DUP2 PUSH1 0x4 ADD SWAP2 PUSH1 0xE0 PUSH1 0x3 NOT DUP3 CALLDATASIZE SUB ADD SLT PUSH2 0x1DA JUMPI CALLER PUSH1 0x0 MSTORE PUSH1 0x2 PUSH1 0x20 MSTORE PUSH1 0xFF PUSH1 0x40 PUSH1 0x0 KECCAK256 SLOAD AND DUP1 ISZERO PUSH2 0xFDB JUMPI JUMPDEST PUSH2 0xBA6 SWAP1 PUSH2 0x17C0 JUMP JUMPDEST DUP2 ISZERO PUSH2 0xFA1 JUMPI PUSH1 0x24 DUP2 ADD SWAP1 PUSH2 0xBCD PUSH1 0x1 PUSH1 0x1 PUSH1 0xA0 SHL SUB PUSH2 0xBC5 DUP5 PUSH2 0x17FD JUMP JUMPDEST AND ISZERO ISZERO PUSH2 0x1933 JUMP JUMPDEST PUSH1 0x44 DUP2 ADD CALLDATALOAD SWAP4 DUP5 ISZERO PUSH2 0xF5C JUMPI PUSH1 0x64 DUP3 ADD PUSH2 0xBE7 DUP2 DUP4 PUSH2 0x18AF JUMP JUMPDEST SWAP1 POP ISZERO PUSH2 0xF20 JUMPI DUP5 PUSH1 0x0 MSTORE PUSH1 0x9 PUSH1 0x20 MSTORE PUSH1 0x84 PUSH1 0xFF PUSH1 0x40 PUSH1 0x0 KECCAK256 SLOAD AND ISZERO SWAP4 PUSH2 0xC23 PUSH2 0xC1A PUSH2 0xC13 DUP9 PUSH2 0x17FD JUMP JUMPDEST SWAP5 DUP7 PUSH2 0x18AF JUMP JUMPDEST SWAP4 SWAP1 SWAP3 ADD PUSH2 0x18A2 JUMP JUMPDEST SWAP1 DUP6 ISZERO PUSH2 0xF08 JUMPI TIMESTAMP SWAP3 JUMPDEST PUSH1 0x40 MLOAD SWAP6 PUSH2 0xC3A DUP8 PUSH2 0x1684 JUMP JUMPDEST CALLDATALOAD DUP7 MSTORE PUSH1 0x1 PUSH1 0x1 PUSH1 0xA0 SHL SUB SWAP1 SWAP5 AND PUSH1 0x20 DUP7 ADD SWAP1 DUP2 MSTORE PUSH1 0x40 DUP7 ADD DUP11 DUP2 MSTORE SWAP1 SWAP5 PUSH1 0x1 PUSH1 0x1 PUSH1 0x40 SHL SUB DUP2 GT PUSH2 0xE39 JUMPI PUSH1 0x40 MLOAD SWAP3 PUSH2 0xC7E PUSH1 0x1F DUP4 ADD PUSH1 0x1F NOT AND PUSH1 0x20 ADD DUP6 PUSH2 0x169F JUMP JUMPDEST DUP2 DUP5 MSTORE CALLDATASIZE DUP3 DUP3 ADD GT PUSH2 0x1DA JUMPI DUP2 PUSH1 0x0 SWAP3 PUSH1 0x20 SWAP3 DUP4 DUP8 ADD CALLDATACOPY DUP5 ADD ADD MSTORE PUSH1 0x60 DUP7 ADD SWAP2 DUP3 MSTORE SWAP2 ISZERO ISZERO PUSH1 0x80 DUP7 ADD SWAP1 DUP2 MSTORE PUSH1 0xA0 DUP7 ADD SWAP4 DUP5 MSTORE TIMESTAMP PUSH1 0xC0 DUP8 ADD SWAP1 DUP2 MSTORE PUSH1 0x0 DUP11 DUP2 MSTORE PUSH1 0x5 PUSH1 0x20 MSTORE PUSH1 0x40 SWAP1 KECCAK256 SWAP7 MLOAD DUP8 SSTORE SWAP5 MLOAD PUSH1 0x1 DUP8 ADD DUP1 SLOAD PUSH1 0x1 PUSH1 0x1 PUSH1 0xA0 SHL SUB NOT AND PUSH1 0x1 PUSH1 0x1 PUSH1 0xA0 SHL SUB SWAP3 SWAP1 SWAP3 AND SWAP2 SWAP1 SWAP2 OR SWAP1 SSTORE SWAP2 MLOAD PUSH1 0x2 DUP7 ADD SSTORE MLOAD DUP1 MLOAD PUSH1 0x3 DUP7 ADD SWAP2 PUSH1 0x1 PUSH1 0x1 PUSH1 0x40 SHL SUB DUP3 GT PUSH2 0xE39 JUMPI PUSH2 0xD20 DUP3 PUSH2 0xD1A DUP6 SLOAD PUSH2 0x162E JUMP JUMPDEST DUP6 PUSH2 0x18E1 JUMP JUMPDEST PUSH1 0x20 SWAP1 PUSH1 0x1F DUP4 GT PUSH1 0x1 EQ PUSH2 0xE98 JUMPI DUP3 PUSH1 0x6 SWAP8 SWAP7 SWAP6 SWAP4 PUSH2 0xD76 SWAP6 SWAP4 PUSH2 0xD5B SWAP4 PUSH1 0x0 SWAP3 PUSH2 0xE8D JUMPI JUMPDEST POP POP DUP2 PUSH1 0x1 SHL SWAP2 PUSH1 0x0 NOT SWAP1 PUSH1 0x3 SHL SHR NOT AND OR SWAP1 JUMP JUMPDEST SWAP1 SSTORE JUMPDEST MLOAD ISZERO ISZERO PUSH1 0x4 DUP7 ADD SWAP1 PUSH1 0xFF DUP1 NOT DUP4 SLOAD AND SWAP2 ISZERO ISZERO AND OR SWAP1 SSTORE JUMP JUMPDEST MLOAD PUSH1 0x5 DUP5 ADD SSTORE MLOAD SWAP2 ADD SSTORE ISZERO PUSH2 0xE4F JUMPI PUSH1 0x0 DUP3 DUP2 MSTORE PUSH1 0x9 PUSH1 0x20 MSTORE PUSH1 0x40 SWAP1 KECCAK256 DUP1 SLOAD PUSH1 0xFF NOT AND PUSH1 0x1 OR SWAP1 SSTORE PUSH1 0x1 PUSH1 0x1 PUSH1 0xA0 SHL SUB PUSH2 0xDAF DUP3 PUSH2 0x17FD JUMP JUMPDEST AND PUSH1 0x0 MSTORE PUSH1 0x8 PUSH1 0x20 MSTORE PUSH1 0x40 PUSH1 0x0 KECCAK256 SWAP1 DUP2 SLOAD SWAP1 PUSH9 0x10000000000000000 DUP3 LT ISZERO PUSH2 0xE39 JUMPI PUSH2 0xE05 DUP3 PUSH32 0x3A3EE326DD9451112D67D1BABDAF697562D06E41E2571DDD356B4E9BE0DE478E SWAP5 PUSH1 0x1 PUSH1 0x20 SWAP6 ADD DUP2 SSTORE PUSH2 0x1600 JUMP JUMPDEST DUP2 SLOAD PUSH1 0x0 NOT PUSH1 0x3 SWAP3 SWAP1 SWAP3 SHL SWAP2 DUP3 SHL NOT AND SWAP1 DUP7 SWAP1 SHL OR SWAP1 SSTORE PUSH1 0x1 PUSH1 0x1 PUSH1 0xA0 SHL SUB SWAP1 PUSH2 0xE2E SWAP1 PUSH2 0x17FD JUMP JUMPDEST AND SWAP4 PUSH1 0x40 MLOAD SWAP1 DUP2 MSTORE LOG3 STOP JUMPDEST PUSH4 0x4E487B71 PUSH1 0xE0 SHL PUSH1 0x0 MSTORE PUSH1 0x41 PUSH1 0x4 MSTORE PUSH1 0x24 PUSH1 0x0 REVERT JUMPDEST SWAP1 SWAP2 POP PUSH1 0x1 PUSH1 0x1 PUSH1 0xA0 SHL SUB SWAP1 PUSH2 0xE64 SWAP1 PUSH2 0x17FD JUMP JUMPDEST AND SWAP1 PUSH32 0x14796949D4D1A6824063EC05E354DB666BDE3356A8CF646C6075272B5353185C PUSH1 0x0 DUP1 LOG3 STOP JUMPDEST ADD MLOAD SWAP1 POP DUP15 DUP1 PUSH2 0xD46 JUMP JUMPDEST SWAP1 PUSH1 0x1F NOT DUP4 AND SWAP2 DUP5 PUSH1 0x0 MSTORE DUP2 PUSH1 0x0 KECCAK256 SWAP3 PUSH1 0x0 JUMPDEST DUP2 DUP2 LT PUSH2 0xEF0 JUMPI POP SWAP3 PUSH1 0x1 SWAP3 DUP6 SWAP3 PUSH1 0x6 SWAP11 SWAP10 SWAP9 SWAP7 PUSH2 0xD76 SWAP9 SWAP7 LT PUSH2 0xED7 JUMPI JUMPDEST POP POP POP DUP2 SHL ADD SWAP1 SSTORE PUSH2 0xD5E JUMP JUMPDEST ADD MLOAD PUSH1 0x0 NOT PUSH1 0xF8 DUP5 PUSH1 0x3 SHL AND SHR NOT AND SWAP1 SSTORE DUP14 DUP1 DUP1 PUSH2 0xECA JUMP JUMPDEST SWAP3 SWAP4 PUSH1 0x20 PUSH1 0x1 DUP2 SWAP3 DUP8 DUP7 ADD MLOAD DUP2 SSTORE ADD SWAP6 ADD SWAP4 ADD PUSH2 0xEAB JUMP JUMPDEST DUP8 PUSH1 0x0 MSTORE PUSH1 0x5 PUSH1 0x20 MSTORE PUSH1 0x5 PUSH1 0x40 PUSH1 0x0 KECCAK256 ADD SLOAD SWAP3 PUSH2 0xC2D JUMP JUMPDEST PUSH1 0x40 MLOAD PUSH3 0x461BCD PUSH1 0xE5 SHL DUP2 MSTORE PUSH1 0x20 PUSH1 0x4 DUP3 ADD MSTORE PUSH1 0x14 PUSH1 0x24 DUP3 ADD MSTORE PUSH20 0x135BDB99DBD1185D185251081C995C5D5A5C9959 PUSH1 0x62 SHL PUSH1 0x44 DUP3 ADD MSTORE PUSH1 0x64 SWAP1 REVERT JUMPDEST PUSH1 0x40 MLOAD PUSH3 0x461BCD PUSH1 0xE5 SHL DUP2 MSTORE PUSH1 0x20 PUSH1 0x4 DUP3 ADD MSTORE PUSH1 0x1C PUSH1 0x24 DUP3 ADD MSTORE PUSH32 0x5072696365206D7573742062652067726561746572207468616E203000000000 PUSH1 0x44 DUP3 ADD MSTORE PUSH1 0x64 SWAP1 REVERT JUMPDEST PUSH1 0x40 MLOAD PUSH3 0x461BCD PUSH1 0xE5 SHL DUP2 MSTORE PUSH1 0x20 PUSH1 0x4 DUP3 ADD MSTORE PUSH1 0x12 PUSH1 0x24 DUP3 ADD MSTORE PUSH18 0x125B9D985B1A59081B995D1DDBDC9AC81251 PUSH1 0x72 SHL PUSH1 0x44 DUP3 ADD MSTORE PUSH1 0x64 SWAP1 REVERT JUMPDEST POP PUSH1 0x0 SLOAD PUSH1 0x1 PUSH1 0x1 PUSH1 0xA0 SHL SUB AND CALLER EQ PUSH2 0xB9D JUMP JUMPDEST CALLVALUE PUSH2 0x1DA JUMPI PUSH1 0x20 CALLDATASIZE PUSH1 0x3 NOT ADD SLT PUSH2 0x1DA JUMPI PUSH1 0x4 CALLDATALOAD PUSH1 0x0 PUSH1 0xE0 PUSH1 0x40 MLOAD PUSH2 0x1013 DUP2 PUSH2 0x1668 JUMP JUMPDEST DUP3 DUP2 MSTORE DUP3 PUSH1 0x20 DUP3 ADD MSTORE DUP3 PUSH1 0x40 DUP3 ADD MSTORE DUP3 PUSH1 0x60 DUP3 ADD MSTORE DUP3 PUSH1 0x80 DUP3 ADD MSTORE PUSH1 0x60 PUSH1 0xA0 DUP3 ADD MSTORE PUSH1 0x60 PUSH1 0xC0 DUP3 ADD MSTORE ADD MSTORE DUP1 PUSH1 0x0 MSTORE PUSH1 0xA PUSH1 0x20 MSTORE PUSH1 0xFF PUSH1 0x40 PUSH1 0x0 KECCAK256 SLOAD AND ISZERO PUSH2 0x1151 JUMPI PUSH1 0x0 MSTORE PUSH1 0x6 PUSH1 0x20 MSTORE PUSH1 0x40 PUSH1 0x0 KECCAK256 PUSH1 0x40 MLOAD PUSH2 0x106E DUP2 PUSH2 0x1668 JUMP JUMPDEST DUP2 SLOAD DUP2 MSTORE PUSH1 0x1 DUP3 ADD SLOAD SWAP2 PUSH1 0x20 DUP3 ADD SWAP3 DUP4 MSTORE PUSH2 0x1145 PUSH1 0x1 DUP1 PUSH1 0xA0 SHL SUB PUSH1 0x2 DUP4 ADD SLOAD AND SWAP2 PUSH1 0x40 DUP5 ADD SWAP3 DUP4 MSTORE PUSH2 0x1132 PUSH1 0x3 DUP3 ADD SLOAD PUSH1 0x60 DUP7 ADD SWAP1 DUP2 MSTORE PUSH1 0xFF PUSH1 0x4 DUP5 ADD SLOAD AND PUSH1 0x80 DUP8 ADD SWAP1 ISZERO ISZERO DUP2 MSTORE PUSH2 0x10C3 PUSH1 0x5 DUP6 ADD PUSH2 0x16C0 JUMP JUMPDEST SWAP2 PUSH1 0xA0 DUP9 ADD SWAP3 DUP4 MSTORE PUSH1 0x7 PUSH2 0x10D9 PUSH1 0x6 DUP8 ADD PUSH2 0x16C0 JUMP JUMPDEST SWAP6 PUSH1 0xC0 DUP11 ADD SWAP7 DUP8 MSTORE ADD SLOAD SWAP7 PUSH1 0xE0 DUP10 ADD SWAP8 DUP9 MSTORE PUSH1 0x40 MLOAD SWAP10 DUP11 SWAP10 PUSH1 0x20 DUP12 MSTORE MLOAD PUSH1 0x20 DUP12 ADD MSTORE MLOAD PUSH1 0x40 DUP11 ADD MSTORE PUSH1 0x1 DUP1 PUSH1 0xA0 SHL SUB SWAP1 MLOAD AND PUSH1 0x60 DUP10 ADD MSTORE MLOAD PUSH1 0x80 DUP9 ADD MSTORE MLOAD ISZERO ISZERO PUSH1 0xA0 DUP8 ADD MSTORE MLOAD PUSH2 0x100 PUSH1 0xC0 DUP8 ADD MSTORE PUSH2 0x120 DUP7 ADD SWAP1 PUSH2 0x1594 JUMP JUMPDEST SWAP1 MLOAD DUP5 DUP3 SUB PUSH1 0x1F NOT ADD PUSH1 0xE0 DUP7 ADD MSTORE PUSH2 0x1594 JUMP JUMPDEST SWAP1 MLOAD PUSH2 0x100 DUP4 ADD MSTORE SUB SWAP1 RETURN JUMPDEST PUSH1 0x40 MLOAD PUSH3 0x461BCD PUSH1 0xE5 SHL DUP2 MSTORE PUSH1 0x20 PUSH1 0x4 DUP3 ADD MSTORE PUSH1 0x16 PUSH1 0x24 DUP3 ADD MSTORE PUSH22 0x14D95CDCDA5BDB88191BD95CC81B9BDD08195E1A5CDD PUSH1 0x52 SHL PUSH1 0x44 DUP3 ADD MSTORE PUSH1 0x64 SWAP1 REVERT JUMPDEST CALLVALUE PUSH2 0x1DA JUMPI PUSH1 0x40 CALLDATASIZE PUSH1 0x3 NOT ADD SLT PUSH2 0x1DA JUMPI PUSH1 0x24 CALLDATALOAD PUSH1 0x4 CALLDATALOAD PUSH1 0x1 PUSH1 0x1 PUSH1 0x40 SHL SUB DUP3 GT PUSH2 0x1DA JUMPI DUP2 PUSH1 0x4 ADD PUSH2 0x100 PUSH1 0x3 NOT DUP5 CALLDATASIZE SUB ADD SLT PUSH2 0x1DA JUMPI CALLER PUSH1 0x0 MSTORE PUSH1 0x2 PUSH1 0x20 MSTORE PUSH1 0xFF PUSH1 0x40 PUSH1 0x0 KECCAK256 SLOAD AND DUP1 ISZERO PUSH2 0x154F JUMPI JUMPDEST PUSH2 0x11E9 SWAP1 PUSH2 0x17C0 JUMP JUMPDEST DUP2 ISZERO PUSH2 0x1515 JUMPI PUSH1 0x44 DUP4 ADD SWAP1 PUSH1 0x1 PUSH1 0x1 PUSH1 0xA0 SHL SUB PUSH2 0x1205 DUP4 PUSH2 0x17FD JUMP JUMPDEST AND ISZERO PUSH2 0x14D0 JUMPI PUSH1 0x64 DUP5 ADD CALLDATALOAD SWAP4 PUSH2 0x121C DUP6 ISZERO ISZERO PUSH2 0x1811 JUMP JUMPDEST PUSH1 0x24 DUP2 ADD CALLDATALOAD SWAP2 DUP3 PUSH1 0x0 MSTORE PUSH1 0x9 PUSH1 0x20 MSTORE PUSH2 0x123C PUSH1 0xFF PUSH1 0x40 PUSH1 0x0 KECCAK256 SLOAD AND PUSH2 0x185D JUMP JUMPDEST DUP5 PUSH1 0x0 MSTORE PUSH1 0x6 PUSH1 0x20 MSTORE PUSH1 0x40 PUSH1 0x0 KECCAK256 SWAP3 DUP2 CALLDATALOAD DUP5 SSTORE PUSH1 0x1 DUP5 ADD SSTORE PUSH2 0x125D DUP5 PUSH2 0x17FD JUMP JUMPDEST PUSH1 0x2 DUP5 ADD DUP1 SLOAD PUSH1 0x1 PUSH1 0x1 PUSH1 0xA0 SHL SUB NOT AND PUSH1 0x1 PUSH1 0x1 PUSH1 0xA0 SHL SUB SWAP1 SWAP3 AND SWAP2 SWAP1 SWAP2 OR SWAP1 SSTORE PUSH1 0x3 DUP4 ADD DUP7 SWAP1 SSTORE PUSH2 0x12A9 PUSH2 0x1294 PUSH1 0x84 DUP5 ADD PUSH2 0x18A2 JUMP JUMPDEST PUSH1 0x4 DUP6 ADD SWAP1 PUSH1 0xFF DUP1 NOT DUP4 SLOAD AND SWAP2 ISZERO ISZERO AND OR SWAP1 SSTORE JUMP JUMPDEST PUSH1 0x5 DUP4 ADD PUSH2 0x12BA PUSH1 0xA4 DUP5 ADD DUP4 PUSH2 0x18AF JUMP JUMPDEST SWAP1 PUSH1 0x1 PUSH1 0x1 PUSH1 0x40 SHL SUB DUP3 GT PUSH2 0xE39 JUMPI PUSH2 0x12D7 DUP3 PUSH2 0xD1A DUP6 SLOAD PUSH2 0x162E JUMP JUMPDEST PUSH1 0x0 SWAP1 PUSH1 0x1F DUP4 GT PUSH1 0x1 EQ PUSH2 0x146C JUMPI PUSH2 0x1307 SWAP3 SWAP2 PUSH1 0x0 SWAP2 DUP4 PUSH2 0x1461 JUMPI POP POP DUP2 PUSH1 0x1 SHL SWAP2 PUSH1 0x0 NOT SWAP1 PUSH1 0x3 SHL SHR NOT AND OR SWAP1 JUMP JUMPDEST SWAP1 SSTORE JUMPDEST PUSH2 0x131C PUSH1 0x6 DUP5 ADD SWAP2 PUSH1 0xC4 DUP5 ADD SWAP1 PUSH2 0x18AF JUMP JUMPDEST SWAP1 PUSH1 0x1 PUSH1 0x1 PUSH1 0x40 SHL SUB DUP3 GT PUSH2 0xE39 JUMPI PUSH2 0x1339 DUP3 PUSH2 0xD1A DUP6 SLOAD PUSH2 0x162E JUMP JUMPDEST PUSH1 0x0 SWAP1 PUSH1 0x1F DUP4 GT PUSH1 0x1 EQ PUSH2 0x13D2 JUMPI SWAP4 PUSH1 0x20 SWAP6 SWAP4 PUSH2 0x1395 DUP5 PUSH1 0x7 SWAP6 PUSH1 0xE4 SWAP6 PUSH32 0x6D8D8FDE140EDBF6C26881F091850CB55BAE733F801E9E4F9B7D123B88B620C8 SWAP12 SWAP10 PUSH1 0x0 SWAP3 PUSH2 0x13C7 JUMPI POP POP DUP2 PUSH1 0x1 SHL SWAP2 PUSH1 0x0 NOT SWAP1 PUSH1 0x3 SHL SHR NOT AND OR SWAP1 JUMP JUMPDEST SWAP1 SSTORE JUMPDEST ADD CALLDATALOAD SWAP2 ADD SSTORE PUSH1 0x0 DUP5 DUP2 MSTORE PUSH1 0xA DUP4 MSTORE PUSH1 0x40 SWAP1 KECCAK256 DUP1 SLOAD PUSH1 0xFF NOT AND PUSH1 0x1 OR SWAP1 SSTORE PUSH1 0x1 PUSH1 0x1 PUSH1 0xA0 SHL SUB SWAP1 PUSH2 0xE2E SWAP1 PUSH2 0x17FD JUMP JUMPDEST ADD CALLDATALOAD SWAP1 POP DUP14 DUP1 PUSH2 0xD46 JUMP JUMPDEST DUP4 DUP3 MSTORE PUSH1 0x20 DUP3 KECCAK256 SWAP2 PUSH1 0x1F NOT DUP5 AND DUP2 JUMPDEST DUP2 DUP2 LT PUSH2 0x1449 JUMPI POP DUP5 PUSH1 0xE4 SWAP5 PUSH32 0x6D8D8FDE140EDBF6C26881F091850CB55BAE733F801E9E4F9B7D123B88B620C8 SWAP11 SWAP9 SWAP5 PUSH1 0x20 SWAP11 SWAP9 SWAP5 PUSH1 0x7 SWAP9 PUSH1 0x1 SWAP6 LT PUSH2 0x142F JUMPI JUMPDEST POP POP POP DUP2 SHL ADD SWAP1 SSTORE PUSH2 0x1398 JUMP JUMPDEST ADD CALLDATALOAD PUSH1 0x0 NOT PUSH1 0x3 DUP5 SWAP1 SHL PUSH1 0xF8 AND SHR NOT AND SWAP1 SSTORE DUP13 DUP1 DUP1 PUSH2 0x1422 JUMP JUMPDEST SWAP2 SWAP4 PUSH1 0x20 PUSH1 0x1 DUP2 SWAP3 DUP8 DUP8 ADD CALLDATALOAD DUP2 SSTORE ADD SWAP6 ADD SWAP3 ADD PUSH2 0x13E1 JUMP JUMPDEST ADD CALLDATALOAD SWAP1 POP DUP11 DUP1 PUSH2 0xD46 JUMP JUMPDEST DUP4 DUP3 MSTORE PUSH1 0x20 DUP3 KECCAK256 SWAP2 PUSH1 0x1F NOT DUP5 AND DUP2 JUMPDEST DUP2 DUP2 LT PUSH2 0x14B8 JUMPI POP SWAP1 DUP5 PUSH1 0x1 SWAP6 SWAP5 SWAP4 SWAP3 LT PUSH2 0x149E JUMPI JUMPDEST POP POP POP DUP2 SHL ADD SWAP1 SSTORE PUSH2 0x130A JUMP JUMPDEST ADD CALLDATALOAD PUSH1 0x0 NOT PUSH1 0x3 DUP5 SWAP1 SHL PUSH1 0xF8 AND SHR NOT AND SWAP1 SSTORE DUP10 DUP1 DUP1 PUSH2 0x1491 JUMP JUMPDEST SWAP2 SWAP4 PUSH1 0x20 PUSH1 0x1 DUP2 SWAP3 DUP8 DUP8 ADD CALLDATALOAD DUP2 SSTORE ADD SWAP6 ADD SWAP3 ADD PUSH2 0x147B JUMP JUMPDEST PUSH1 0x40 MLOAD PUSH3 0x461BCD PUSH1 0xE5 SHL DUP2 MSTORE PUSH1 0x20 PUSH1 0x4 DUP3 ADD MSTORE PUSH1 0x17 PUSH1 0x24 DUP3 ADD MSTORE PUSH32 0x496E76616C6964207061796D656E742061646472657373000000000000000000 PUSH1 0x44 DUP3 ADD MSTORE PUSH1 0x64 SWAP1 REVERT JUMPDEST PUSH1 0x40 MLOAD PUSH3 0x461BCD PUSH1 0xE5 SHL DUP2 MSTORE PUSH1 0x20 PUSH1 0x4 DUP3 ADD MSTORE PUSH1 0x12 PUSH1 0x24 DUP3 ADD MSTORE PUSH18 0x125B9D985B1A59081CD95CDCDA5BDB881251 PUSH1 0x72 SHL PUSH1 0x44 DUP3 ADD MSTORE PUSH1 0x64 SWAP1 REVERT JUMPDEST POP PUSH1 0x0 SLOAD PUSH1 0x1 PUSH1 0x1 PUSH1 0xA0 SHL SUB AND CALLER EQ PUSH2 0x11E0 JUMP JUMPDEST CALLVALUE PUSH2 0x1DA JUMPI PUSH1 0x0 CALLDATASIZE PUSH1 0x3 NOT ADD SLT PUSH2 0x1DA JUMPI PUSH1 0x20 SWAP1 PUSH1 0x3 SLOAD DUP2 MSTORE RETURN JUMPDEST PUSH1 0x4 CALLDATALOAD SWAP1 PUSH1 0x1 PUSH1 0x1 PUSH1 0xA0 SHL SUB DUP3 AND DUP3 SUB PUSH2 0x1DA JUMPI JUMP JUMPDEST SWAP2 SWAP1 DUP3 MLOAD SWAP3 DUP4 DUP3 MSTORE PUSH1 0x0 JUMPDEST DUP5 DUP2 LT PUSH2 0x15C0 JUMPI POP POP DUP3 PUSH1 0x0 PUSH1 0x20 DUP1 SWAP5 SWAP6 DUP5 ADD ADD MSTORE PUSH1 0x1F DUP1 NOT SWAP2 ADD AND ADD ADD SWAP1 JUMP JUMPDEST DUP1 PUSH1 0x20 DUP1 SWAP3 DUP5 ADD ADD MLOAD DUP3 DUP3 DUP7 ADD ADD MSTORE ADD PUSH2 0x159F JUMP JUMPDEST CALLVALUE PUSH2 0x1DA JUMPI PUSH1 0x0 CALLDATASIZE PUSH1 0x3 NOT ADD SLT PUSH2 0x1DA JUMPI PUSH1 0x20 PUSH1 0x40 MLOAD PUSH1 0x64 DUP2 MSTORE RETURN JUMPDEST PUSH1 0x24 CALLDATALOAD SWAP1 DUP2 ISZERO ISZERO DUP3 SUB PUSH2 0x1DA JUMPI JUMP JUMPDEST DUP1 SLOAD DUP3 LT ISZERO PUSH2 0x1618 JUMPI PUSH1 0x0 MSTORE PUSH1 0x20 PUSH1 0x0 KECCAK256 ADD SWAP1 PUSH1 0x0 SWAP1 JUMP JUMPDEST PUSH4 0x4E487B71 PUSH1 0xE0 SHL PUSH1 0x0 MSTORE PUSH1 0x32 PUSH1 0x4 MSTORE PUSH1 0x24 PUSH1 0x0 REVERT JUMPDEST SWAP1 PUSH1 0x1 DUP3 DUP2 SHR SWAP3 AND DUP1 ISZERO PUSH2 0x165E JUMPI JUMPDEST PUSH1 0x20 DUP4 LT EQ PUSH2 0x1648 JUMPI JUMP JUMPDEST PUSH4 0x4E487B71 PUSH1 0xE0 SHL PUSH1 0x0 MSTORE PUSH1 0x22 PUSH1 0x4 MSTORE PUSH1 0x24 PUSH1 0x0 REVERT JUMPDEST SWAP2 PUSH1 0x7F AND SWAP2 PUSH2 0x163D JUMP JUMPDEST PUSH2 0x100 DUP2 ADD SWAP1 DUP2 LT PUSH1 0x1 PUSH1 0x1 PUSH1 0x40 SHL SUB DUP3 GT OR PUSH2 0xE39 JUMPI PUSH1 0x40 MSTORE JUMP JUMPDEST PUSH1 0xE0 DUP2 ADD SWAP1 DUP2 LT PUSH1 0x1 PUSH1 0x1 PUSH1 0x40 SHL SUB DUP3 GT OR PUSH2 0xE39 JUMPI PUSH1 0x40 MSTORE JUMP JUMPDEST SWAP1 PUSH1 0x1F DUP1 NOT SWAP2 ADD AND DUP2 ADD SWAP1 DUP2 LT PUSH1 0x1 PUSH1 0x1 PUSH1 0x40 SHL SUB DUP3 GT OR PUSH2 0xE39 JUMPI PUSH1 0x40 MSTORE JUMP JUMPDEST SWAP1 PUSH1 0x40 MLOAD SWAP2 DUP3 PUSH1 0x0 DUP3 SLOAD SWAP3 PUSH2 0x16D4 DUP5 PUSH2 0x162E JUMP JUMPDEST DUP1 DUP5 MSTORE SWAP4 PUSH1 0x1 DUP2 AND SWAP1 DUP2 ISZERO PUSH2 0x1742 JUMPI POP PUSH1 0x1 EQ PUSH2 0x16FB JUMPI JUMPDEST POP PUSH2 0x16F9 SWAP3 POP SUB DUP4 PUSH2 0x169F JUMP JUMPDEST JUMP JUMPDEST SWAP1 POP PUSH1 0x0 SWAP3 SWAP2 SWAP3 MSTORE PUSH1 0x20 PUSH1 0x0 KECCAK256 SWAP1 PUSH1 0x0 SWAP2 JUMPDEST DUP2 DUP4 LT PUSH2 0x1726 JUMPI POP POP SWAP1 PUSH1 0x20 PUSH2 0x16F9 SWAP3 DUP3 ADD ADD CODESIZE PUSH2 0x16EC JUMP JUMPDEST PUSH1 0x20 SWAP2 SWAP4 POP DUP1 PUSH1 0x1 SWAP2 SLOAD DUP4 DUP6 DUP10 ADD ADD MSTORE ADD SWAP2 ADD SWAP1 SWAP2 DUP5 SWAP3 PUSH2 0x170D JUMP JUMPDEST SWAP1 POP PUSH1 0x20 SWAP3 POP PUSH2 0x16F9 SWAP5 SWAP2 POP PUSH1 0xFF NOT AND DUP3 DUP5 ADD MSTORE ISZERO ISZERO PUSH1 0x5 SHL DUP3 ADD ADD CODESIZE PUSH2 0x16EC JUMP JUMPDEST SWAP1 DUP2 MLOAD DUP2 MSTORE PUSH1 0x1 DUP1 PUSH1 0xA0 SHL SUB PUSH1 0x20 DUP4 ADD MLOAD AND PUSH1 0x20 DUP3 ADD MSTORE PUSH1 0x40 DUP3 ADD MLOAD PUSH1 0x40 DUP3 ADD MSTORE PUSH1 0xC0 DUP1 PUSH2 0x17A1 PUSH1 0x60 DUP6 ADD MLOAD PUSH1 0xE0 PUSH1 0x60 DUP7 ADD MSTORE PUSH1 0xE0 DUP6 ADD SWAP1 PUSH2 0x1594 JUMP JUMPDEST SWAP4 PUSH1 0x80 DUP2 ADD MLOAD ISZERO ISZERO PUSH1 0x80 DUP6 ADD MSTORE PUSH1 0xA0 DUP2 ADD MLOAD PUSH1 0xA0 DUP6 ADD MSTORE ADD MLOAD SWAP2 ADD MSTORE SWAP1 JUMP JUMPDEST ISZERO PUSH2 0x17C7 JUMPI JUMP JUMPDEST PUSH1 0x40 MLOAD PUSH3 0x461BCD PUSH1 0xE5 SHL DUP2 MSTORE PUSH1 0x20 PUSH1 0x4 DUP3 ADD MSTORE PUSH1 0xE PUSH1 0x24 DUP3 ADD MSTORE PUSH14 0x139BDD08185D5D1A1BDC9A5E9959 PUSH1 0x92 SHL PUSH1 0x44 DUP3 ADD MSTORE PUSH1 0x64 SWAP1 REVERT JUMPDEST CALLDATALOAD PUSH1 0x1 PUSH1 0x1 PUSH1 0xA0 SHL SUB DUP2 AND DUP2 SUB PUSH2 0x1DA JUMPI SWAP1 JUMP JUMPDEST ISZERO PUSH2 0x1818 JUMPI JUMP JUMPDEST PUSH1 0x40 MLOAD PUSH3 0x461BCD PUSH1 0xE5 SHL DUP2 MSTORE PUSH1 0x20 PUSH1 0x4 DUP3 ADD MSTORE PUSH1 0x1D PUSH1 0x24 DUP3 ADD MSTORE PUSH32 0x416D6F756E74206D7573742062652067726561746572207468616E2030000000 PUSH1 0x44 DUP3 ADD MSTORE PUSH1 0x64 SWAP1 REVERT JUMPDEST ISZERO PUSH2 0x1864 JUMPI JUMP JUMPDEST PUSH1 0x40 MLOAD PUSH3 0x461BCD PUSH1 0xE5 SHL DUP2 MSTORE PUSH1 0x20 PUSH1 0x4 DUP3 ADD MSTORE PUSH1 0x16 PUSH1 0x24 DUP3 ADD MSTORE PUSH22 0x13995D1DDBDC9AC8191BD95CC81B9BDD08195E1A5CDD PUSH1 0x52 SHL PUSH1 0x44 DUP3 ADD MSTORE PUSH1 0x64 SWAP1 REVERT JUMPDEST CALLDATALOAD DUP1 ISZERO ISZERO DUP2 SUB PUSH2 0x1DA JUMPI SWAP1 JUMP JUMPDEST SWAP1 CALLDATALOAD SWAP1 PUSH1 0x1E NOT DUP2 CALLDATASIZE SUB ADD DUP3 SLT ISZERO PUSH2 0x1DA JUMPI ADD DUP1 CALLDATALOAD SWAP1 PUSH1 0x1 PUSH1 0x1 PUSH1 0x40 SHL SUB DUP3 GT PUSH2 0x1DA JUMPI PUSH1 0x20 ADD SWAP2 DUP2 CALLDATASIZE SUB DUP4 SGT PUSH2 0x1DA JUMPI JUMP JUMPDEST PUSH1 0x1F DUP3 GT PUSH2 0x18EE JUMPI POP POP POP JUMP JUMPDEST PUSH1 0x0 MSTORE PUSH1 0x20 PUSH1 0x0 KECCAK256 SWAP1 PUSH1 0x20 PUSH1 0x1F DUP5 ADD PUSH1 0x5 SHR DUP4 ADD SWAP4 LT PUSH2 0x1929 JUMPI JUMPDEST PUSH1 0x1F ADD PUSH1 0x5 SHR ADD SWAP1 JUMPDEST DUP2 DUP2 LT PUSH2 0x191D JUMPI POP POP JUMP JUMPDEST PUSH1 0x0 DUP2 SSTORE PUSH1 0x1 ADD PUSH2 0x1912 JUMP JUMPDEST SWAP1 SWAP2 POP DUP2 SWAP1 PUSH2 0x1909 JUMP JUMPDEST ISZERO PUSH2 0x193A JUMPI JUMP JUMPDEST PUSH1 0x40 MLOAD PUSH3 0x461BCD PUSH1 0xE5 SHL DUP2 MSTORE PUSH1 0x20 PUSH1 0x4 DUP3 ADD MSTORE PUSH1 0x14 PUSH1 0x24 DUP3 ADD MSTORE PUSH20 0x496E76616C696420686F73742061646472657373 PUSH1 0x60 SHL PUSH1 0x44 DUP3 ADD MSTORE PUSH1 0x64 SWAP1 REVERT JUMPDEST PUSH1 0x0 NOT DUP2 EQ PUSH2 0x1985 JUMPI PUSH1 0x1 ADD SWAP1 JUMP JUMPDEST PUSH4 0x4E487B71 PUSH1 0xE0 SHL PUSH1 0x0 MSTORE PUSH1 0x11 PUSH1 0x4 MSTORE PUSH1 0x24 PUSH1 0x0 REVERT JUMPDEST SWAP2 SWAP1 DUP2 LT ISZERO PUSH2 0x1618 JUMPI PUSH1 0x5 SHL ADD SWAP1 JUMP JUMPDEST ISZERO PUSH2 0x19B2 JUMPI JUMP JUMPDEST PUSH1 0x40 MLOAD PUSH3 0x461BCD PUSH1 0xE5 SHL DUP2 MSTORE PUSH1 0x20 PUSH1 0x4 DUP3 ADD MSTORE PUSH1 0x16 PUSH1 0x24 DUP3 ADD MSTORE PUSH22 0x496E76616C69642063616C6C65722061646472657373 PUSH1 0x50 SHL PUSH1 0x44 DUP3 ADD MSTORE PUSH1 0x64 SWAP1 REVERT JUMPDEST PUSH1 0x40 MLOAD SWAP1 PUSH2 0x19FD DUP3 PUSH2 0x1684 JUMP JUMPDEST PUSH1 0x0 PUSH1 0xC0 DUP4 DUP3 DUP2 MSTORE DUP3 PUSH1 0x20 DUP3 ADD MSTORE DUP3 PUSH1 0x40 DUP3 ADD MSTORE PUSH1 0x60 DUP1 DUP3 ADD MSTORE DUP3 PUSH1 0x80 DUP3 ADD MSTORE DUP3 PUSH1 0xA0 DUP3 ADD MSTORE ADD MSTORE JUMP JUMPDEST SWAP1 PUSH1 0x40 MLOAD PUSH2 0x1A34 DUP2 PUSH2 0x1684 JUMP JUMPDEST DUP3 SLOAD DUP2 MSTORE PUSH1 0x1 DUP4 ADD SLOAD PUSH1 0x1 PUSH1 0x1 PUSH1 0xA0 SHL SUB AND PUSH1 0x20 DUP3 ADD MSTORE PUSH1 0x2 DUP4 ADD SLOAD PUSH1 0x40 DUP3 ADD MSTORE SWAP2 DUP3 SWAP1 PUSH1 0xC0 SWAP1 PUSH1 0x6 SWAP1 PUSH2 0x1A6A PUSH1 0x3 DUP3 ADD PUSH2 0x16C0 JUMP JUMPDEST PUSH1 0x60 DUP6 ADD MSTORE PUSH1 0xFF PUSH1 0x4 DUP3 ADD SLOAD AND ISZERO ISZERO PUSH1 0x80 DUP6 ADD MSTORE PUSH1 0x5 DUP2 ADD SLOAD PUSH1 0xA0 DUP6 ADD MSTORE ADD SLOAD SWAP2 ADD MSTORE JUMP JUMPDEST SWAP2 SWAP1 DUP3 ADD DUP1 SWAP3 GT PUSH2 0x1985 JUMPI JUMP JUMPDEST PUSH1 0x1 PUSH1 0x1 PUSH1 0x40 SHL SUB DUP2 GT PUSH2 0xE39 JUMPI PUSH1 0x5 SHL PUSH1 0x20 ADD SWAP1 JUMP JUMPDEST SWAP2 SWAP1 DUP3 SUB SWAP2 DUP3 GT PUSH2 0x1985 JUMPI JUMP JUMPDEST DUP1 MLOAD DUP3 LT ISZERO PUSH2 0x1618 JUMPI PUSH1 0x20 SWAP2 PUSH1 0x5 SHL ADD ADD SWAP1 JUMP JUMPDEST SWAP2 SWAP1 SWAP2 PUSH1 0x64 DUP4 GT PUSH2 0x1BEF JUMPI PUSH1 0x3 SLOAD SWAP3 DUP4 DUP3 LT ISZERO PUSH2 0x1BB3 JUMPI PUSH2 0x1AF5 SWAP1 DUP3 PUSH2 0x1A8F JUMP JUMPDEST DUP4 DUP2 GT PUSH2 0x1BAC JUMPI JUMPDEST PUSH2 0x1B07 DUP3 DUP3 PUSH2 0x1AB3 JUMP JUMPDEST SWAP2 PUSH2 0x1B11 DUP4 PUSH2 0x1A9C JUMP JUMPDEST SWAP3 PUSH2 0x1B1F PUSH1 0x40 MLOAD SWAP5 DUP6 PUSH2 0x169F JUMP JUMPDEST DUP1 DUP5 MSTORE PUSH2 0x1B2E PUSH1 0x1F NOT SWAP2 PUSH2 0x1A9C JUMP JUMPDEST ADD PUSH1 0x0 JUMPDEST DUP2 DUP2 LT PUSH2 0x1B95 JUMPI POP POP DUP1 JUMPDEST DUP3 DUP2 LT PUSH2 0x1B4B JUMPI POP POP POP SWAP2 SWAP1 JUMP JUMPDEST PUSH1 0x1 DUP2 ADD SWAP1 DUP2 DUP2 GT PUSH2 0x1985 JUMPI PUSH1 0x1 SWAP2 PUSH1 0x0 MSTORE PUSH1 0x5 PUSH1 0x20 MSTORE PUSH2 0x1B8E PUSH1 0x40 PUSH1 0x0 KECCAK256 PUSH2 0x1B7D PUSH2 0x1B77 DUP7 DUP6 PUSH2 0x1AB3 JUMP JUMPDEST SWAP2 PUSH2 0x1A27 JUMP JUMPDEST PUSH2 0x1B87 DUP3 DUP10 PUSH2 0x1AC0 JUMP JUMPDEST MSTORE DUP7 PUSH2 0x1AC0 JUMP JUMPDEST POP ADD PUSH2 0x1B3D JUMP JUMPDEST PUSH1 0x20 SWAP1 PUSH2 0x1BA0 PUSH2 0x19F0 JUMP JUMPDEST DUP3 DUP3 DUP9 ADD ADD MSTORE ADD PUSH2 0x1B32 JUMP JUMPDEST POP DUP3 PUSH2 0x1AFD JUMP JUMPDEST POP POP PUSH1 0x40 MLOAD PUSH1 0x0 PUSH2 0x1BC5 PUSH1 0x20 DUP4 PUSH2 0x169F JUMP JUMPDEST DUP2 MSTORE PUSH1 0x0 DUP1 JUMPDEST DUP2 DUP2 LT PUSH2 0x1BD8 JUMPI POP POP SWAP2 SWAP1 JUMP JUMPDEST PUSH1 0x20 SWAP1 PUSH2 0x1BE3 PUSH2 0x19F0 JUMP JUMPDEST DUP3 DUP3 DUP7 ADD ADD MSTORE ADD PUSH2 0x1BCB JUMP JUMPDEST PUSH1 0x40 MLOAD PUSH3 0x461BCD PUSH1 0xE5 SHL DUP2 MSTORE PUSH1 0x20 PUSH1 0x4 DUP3 ADD MSTORE PUSH1 0xE PUSH1 0x24 DUP3 ADD MSTORE PUSH14 0x98D2DAD2E840E8DEDE40D0D2CED PUSH1 0x93 SHL PUSH1 0x44 DUP3 ADD MSTORE PUSH1 0x64 SWAP1 REVERT JUMPDEST PUSH1 0x0 SLOAD PUSH1 0x1 PUSH1 0x1 PUSH1 0xA0 SHL SUB AND CALLER SUB PUSH2 0x1C39 JUMPI JUMP JUMPDEST PUSH4 0x118CDAA7 PUSH1 0xE0 SHL PUSH1 0x0 MSTORE CALLER PUSH1 0x4 MSTORE PUSH1 0x24 PUSH1 0x0 REVERT INVALID LOG2 PUSH5 0x6970667358 0x22 SLT KECCAK256 0xCA PUSH31 0x6ADD7B2D3986FEDFF597B5D4E7C4C2FD38444AB9A885388A82164EB9B23464 PUSH20 0x6F6C634300081C00330000000000000000000000 "
        },
        "methodIdentifiers": {
          "MAX_NETWORKS_PER_QUERY()": "52f51f8b",
          "MAX_SESSIONS_PER_QUERY()": "71f7cd5b",
          "allowedCallers(address)": "7b334154",
          "emergencyDeactivateNetwork(uint256)": "5a2f406f",
          "getHostEarnings(address)": "6d65573f",
          "getHostNetworks(address)": "79f0dc57",
          "getNetwork(uint256)": "95ea5717",
          "getNetworksPaginated(uint256,uint256)": "fa9c81a4",
          "getSession(uint256)": "402ff0db",
          "getStats()": "c59d4847",
          "hostEarnings(address)": "29c718b5",
          "hostNetworkIds(address,uint256)": "7bae8f5e",
          "increaseHostEarnings(address,uint256)": "e1c7a8aa",
          "incrementNetworkId()": "5290ffc6",
          "incrementSessionId()": "cc507641",
          "networkExists(uint256)": "ec13f2a1",
          "networkIdCounter()": "217c682d",
          "networks(uint256)": "8bb0a17c",
          "owner()": "8da5cb5b",
          "renounceOwnership()": "715018a6",
          "sessionExists(uint256)": "879ecf10",
          "sessionIdCounter()": "5a29352d",
          "sessions(uint256)": "83c4b7a3",
          "setAllowedCaller(address,bool)": "d8b0e716",
          "setAllowedCallers(address[],bool)": "73f9a5d7",
          "setNetwork(uint256,(uint256,address,uint256,string,bool,uint256,uint256))": "50c0d41c",
          "setSession(uint256,(uint256,uint256,address,uint256,bool,string,string,uint256))": "3b9a8016",
          "transferOwnership(address)": "f2fde38b"
        }
      }
    }
  }
}