{
  "contracts/ZaaNetAdmin.sol": {
    "ZaaNetAdmin": {
      "abi": [
        {
          "inputs": [
            {
              "internalType": "address",
              "name": "_storageContract",
              "type": "address"
            },
            {
              "internalType": "address",
              "name": "_treasuryAddress",
              "type": "address"
            },
            {
              "internalType": "uint256",
              "name": "_platformFeePercent",
              "type": "uint256"
            }
          ],
          "stateMutability": "nonpayable",
          "type": "constructor"
        },
        {
          "inputs": [],
          "name": "EnforcedPause",
          "type": "error"
        },
        {
          "inputs": [],
          "name": "ExpectedPause",
          "type": "error"
        },
        {
          "inputs": [
            {
              "internalType": "address",
              "name": "owner",
              "type": "address"
            }
          ],
          "name": "OwnableInvalidOwner",
          "type": "error"
        },
        {
          "inputs": [
            {
              "internalType": "address",
              "name": "account",
              "type": "address"
            }
          ],
          "name": "OwnableUnauthorizedAccount",
          "type": "error"
        },
        {
          "inputs": [],
          "name": "ReentrancyGuardReentrantCall",
          "type": "error"
        },
        {
          "anonymous": false,
          "inputs": [
            {
              "indexed": true,
              "internalType": "address",
              "name": "triggeredBy",
              "type": "address"
            }
          ],
          "name": "AdminPaused",
          "type": "event"
        },
        {
          "anonymous": false,
          "inputs": [
            {
              "indexed": true,
              "internalType": "address",
              "name": "triggeredBy",
              "type": "address"
            }
          ],
          "name": "AdminUnpaused",
          "type": "event"
        },
        {
          "anonymous": false,
          "inputs": [
            {
              "indexed": true,
              "internalType": "address",
              "name": "storageContract",
              "type": "address"
            },
            {
              "indexed": false,
              "internalType": "uint256",
              "name": "timestamp",
              "type": "uint256"
            }
          ],
          "name": "ContractsInitialized",
          "type": "event"
        },
        {
          "anonymous": false,
          "inputs": [
            {
              "indexed": false,
              "internalType": "bool",
              "name": "enabled",
              "type": "bool"
            },
            {
              "indexed": true,
              "internalType": "address",
              "name": "triggeredBy",
              "type": "address"
            }
          ],
          "name": "EmergencyModeToggled",
          "type": "event"
        },
        {
          "anonymous": false,
          "inputs": [
            {
              "indexed": true,
              "internalType": "address",
              "name": "operator",
              "type": "address"
            },
            {
              "indexed": false,
              "internalType": "bool",
              "name": "status",
              "type": "bool"
            },
            {
              "indexed": true,
              "internalType": "address",
              "name": "updatedBy",
              "type": "address"
            }
          ],
          "name": "EmergencyOperatorUpdated",
          "type": "event"
        },
        {
          "anonymous": false,
          "inputs": [
            {
              "indexed": true,
              "internalType": "address",
              "name": "previousOwner",
              "type": "address"
            },
            {
              "indexed": true,
              "internalType": "address",
              "name": "newOwner",
              "type": "address"
            }
          ],
          "name": "OwnershipTransferred",
          "type": "event"
        },
        {
          "anonymous": false,
          "inputs": [
            {
              "indexed": false,
              "internalType": "address",
              "name": "account",
              "type": "address"
            }
          ],
          "name": "Paused",
          "type": "event"
        },
        {
          "anonymous": false,
          "inputs": [
            {
              "indexed": true,
              "internalType": "uint256",
              "name": "oldFee",
              "type": "uint256"
            },
            {
              "indexed": true,
              "internalType": "uint256",
              "name": "newFee",
              "type": "uint256"
            },
            {
              "indexed": true,
              "internalType": "address",
              "name": "changedBy",
              "type": "address"
            }
          ],
          "name": "PlatformFeeUpdated",
          "type": "event"
        },
        {
          "anonymous": false,
          "inputs": [
            {
              "indexed": true,
              "internalType": "address",
              "name": "oldTreasury",
              "type": "address"
            },
            {
              "indexed": true,
              "internalType": "address",
              "name": "newTreasury",
              "type": "address"
            },
            {
              "indexed": true,
              "internalType": "address",
              "name": "changedBy",
              "type": "address"
            }
          ],
          "name": "TreasuryUpdated",
          "type": "event"
        },
        {
          "anonymous": false,
          "inputs": [
            {
              "indexed": false,
              "internalType": "address",
              "name": "account",
              "type": "address"
            }
          ],
          "name": "Unpaused",
          "type": "event"
        },
        {
          "inputs": [],
          "name": "MAX_PLATFORM_FEE",
          "outputs": [
            {
              "internalType": "uint256",
              "name": "",
              "type": "uint256"
            }
          ],
          "stateMutability": "view",
          "type": "function"
        },
        {
          "inputs": [],
          "name": "MIN_PLATFORM_FEE",
          "outputs": [
            {
              "internalType": "uint256",
              "name": "",
              "type": "uint256"
            }
          ],
          "stateMutability": "view",
          "type": "function"
        },
        {
          "inputs": [],
          "name": "admin",
          "outputs": [
            {
              "internalType": "address",
              "name": "",
              "type": "address"
            }
          ],
          "stateMutability": "view",
          "type": "function"
        },
        {
          "inputs": [
            {
              "internalType": "uint256",
              "name": "amount",
              "type": "uint256"
            }
          ],
          "name": "calculatePlatformFee",
          "outputs": [
            {
              "internalType": "uint256",
              "name": "",
              "type": "uint256"
            }
          ],
          "stateMutability": "view",
          "type": "function"
        },
        {
          "inputs": [
            {
              "internalType": "uint256",
              "name": "networkId",
              "type": "uint256"
            }
          ],
          "name": "emergencyDeactivateNetwork",
          "outputs": [],
          "stateMutability": "nonpayable",
          "type": "function"
        },
        {
          "inputs": [],
          "name": "emergencyMode",
          "outputs": [
            {
              "internalType": "bool",
              "name": "",
              "type": "bool"
            }
          ],
          "stateMutability": "view",
          "type": "function"
        },
        {
          "inputs": [
            {
              "internalType": "address",
              "name": "",
              "type": "address"
            }
          ],
          "name": "emergencyOperators",
          "outputs": [
            {
              "internalType": "bool",
              "name": "",
              "type": "bool"
            }
          ],
          "stateMutability": "view",
          "type": "function"
        },
        {
          "inputs": [
            {
              "internalType": "uint256",
              "name": "_newFeePercent",
              "type": "uint256"
            }
          ],
          "name": "emergencySetPlatformFee",
          "outputs": [],
          "stateMutability": "nonpayable",
          "type": "function"
        },
        {
          "inputs": [
            {
              "internalType": "uint256",
              "name": "",
              "type": "uint256"
            }
          ],
          "name": "feeHistory",
          "outputs": [
            {
              "internalType": "uint256",
              "name": "oldFee",
              "type": "uint256"
            },
            {
              "internalType": "uint256",
              "name": "newFee",
              "type": "uint256"
            },
            {
              "internalType": "uint256",
              "name": "timestamp",
              "type": "uint256"
            },
            {
              "internalType": "address",
              "name": "changedBy",
              "type": "address"
            }
          ],
          "stateMutability": "view",
          "type": "function"
        },
        {
          "inputs": [],
          "name": "getAdminStats",
          "outputs": [
            {
              "internalType": "uint256",
              "name": "totalFeeChanges",
              "type": "uint256"
            },
            {
              "internalType": "uint256",
              "name": "totalTreasuryChanges",
              "type": "uint256"
            },
            {
              "internalType": "bool",
              "name": "isEmergencyMode",
              "type": "bool"
            },
            {
              "internalType": "uint256",
              "name": "currentFee",
              "type": "uint256"
            },
            {
              "internalType": "address",
              "name": "currentTreasury",
              "type": "address"
            }
          ],
          "stateMutability": "view",
          "type": "function"
        },
        {
          "inputs": [],
          "name": "getFeeHistory",
          "outputs": [
            {
              "components": [
                {
                  "internalType": "uint256",
                  "name": "oldFee",
                  "type": "uint256"
                },
                {
                  "internalType": "uint256",
                  "name": "newFee",
                  "type": "uint256"
                },
                {
                  "internalType": "uint256",
                  "name": "timestamp",
                  "type": "uint256"
                },
                {
                  "internalType": "address",
                  "name": "changedBy",
                  "type": "address"
                }
              ],
              "internalType": "struct ZaaNetAdmin.FeeChange[]",
              "name": "",
              "type": "tuple[]"
            }
          ],
          "stateMutability": "view",
          "type": "function"
        },
        {
          "inputs": [],
          "name": "getLatestFeeChange",
          "outputs": [
            {
              "components": [
                {
                  "internalType": "uint256",
                  "name": "oldFee",
                  "type": "uint256"
                },
                {
                  "internalType": "uint256",
                  "name": "newFee",
                  "type": "uint256"
                },
                {
                  "internalType": "uint256",
                  "name": "timestamp",
                  "type": "uint256"
                },
                {
                  "internalType": "address",
                  "name": "changedBy",
                  "type": "address"
                }
              ],
              "internalType": "struct ZaaNetAdmin.FeeChange",
              "name": "",
              "type": "tuple"
            }
          ],
          "stateMutability": "view",
          "type": "function"
        },
        {
          "inputs": [],
          "name": "getLatestTreasuryChange",
          "outputs": [
            {
              "components": [
                {
                  "internalType": "address",
                  "name": "oldTreasury",
                  "type": "address"
                },
                {
                  "internalType": "address",
                  "name": "newTreasury",
                  "type": "address"
                },
                {
                  "internalType": "uint256",
                  "name": "timestamp",
                  "type": "uint256"
                },
                {
                  "internalType": "address",
                  "name": "changedBy",
                  "type": "address"
                }
              ],
              "internalType": "struct ZaaNetAdmin.TreasuryChange",
              "name": "",
              "type": "tuple"
            }
          ],
          "stateMutability": "view",
          "type": "function"
        },
        {
          "inputs": [],
          "name": "getPlatformFeeBasisPoints",
          "outputs": [
            {
              "internalType": "uint256",
              "name": "",
              "type": "uint256"
            }
          ],
          "stateMutability": "view",
          "type": "function"
        },
        {
          "inputs": [],
          "name": "getTreasuryHistory",
          "outputs": [
            {
              "components": [
                {
                  "internalType": "address",
                  "name": "oldTreasury",
                  "type": "address"
                },
                {
                  "internalType": "address",
                  "name": "newTreasury",
                  "type": "address"
                },
                {
                  "internalType": "uint256",
                  "name": "timestamp",
                  "type": "uint256"
                },
                {
                  "internalType": "address",
                  "name": "changedBy",
                  "type": "address"
                }
              ],
              "internalType": "struct ZaaNetAdmin.TreasuryChange[]",
              "name": "",
              "type": "tuple[]"
            }
          ],
          "stateMutability": "view",
          "type": "function"
        },
        {
          "inputs": [
            {
              "internalType": "address",
              "name": "_storageContract",
              "type": "address"
            }
          ],
          "name": "initializeStorageContract",
          "outputs": [],
          "stateMutability": "nonpayable",
          "type": "function"
        },
        {
          "inputs": [
            {
              "internalType": "address",
              "name": "operator",
              "type": "address"
            }
          ],
          "name": "isEmergencyOperator",
          "outputs": [
            {
              "internalType": "bool",
              "name": "",
              "type": "bool"
            }
          ],
          "stateMutability": "view",
          "type": "function"
        },
        {
          "inputs": [],
          "name": "owner",
          "outputs": [
            {
              "internalType": "address",
              "name": "",
              "type": "address"
            }
          ],
          "stateMutability": "view",
          "type": "function"
        },
        {
          "inputs": [],
          "name": "pause",
          "outputs": [],
          "stateMutability": "nonpayable",
          "type": "function"
        },
        {
          "inputs": [],
          "name": "paused",
          "outputs": [
            {
              "internalType": "bool",
              "name": "",
              "type": "bool"
            }
          ],
          "stateMutability": "view",
          "type": "function"
        },
        {
          "inputs": [],
          "name": "platformFeePercent",
          "outputs": [
            {
              "internalType": "uint256",
              "name": "",
              "type": "uint256"
            }
          ],
          "stateMutability": "view",
          "type": "function"
        },
        {
          "inputs": [],
          "name": "renounceOwnership",
          "outputs": [],
          "stateMutability": "nonpayable",
          "type": "function"
        },
        {
          "inputs": [
            {
              "internalType": "address",
              "name": "operator",
              "type": "address"
            },
            {
              "internalType": "bool",
              "name": "status",
              "type": "bool"
            }
          ],
          "name": "setEmergencyOperator",
          "outputs": [],
          "stateMutability": "nonpayable",
          "type": "function"
        },
        {
          "inputs": [
            {
              "internalType": "uint256",
              "name": "_newFeePercent",
              "type": "uint256"
            }
          ],
          "name": "setPlatformFee",
          "outputs": [],
          "stateMutability": "nonpayable",
          "type": "function"
        },
        {
          "inputs": [
            {
              "internalType": "address",
              "name": "_newTreasuryAddress",
              "type": "address"
            }
          ],
          "name": "setTreasuryAddress",
          "outputs": [],
          "stateMutability": "nonpayable",
          "type": "function"
        },
        {
          "inputs": [],
          "name": "storageContract",
          "outputs": [
            {
              "internalType": "contract ZaaNetStorage",
              "name": "",
              "type": "address"
            }
          ],
          "stateMutability": "view",
          "type": "function"
        },
        {
          "inputs": [],
          "name": "toggleEmergencyMode",
          "outputs": [],
          "stateMutability": "nonpayable",
          "type": "function"
        },
        {
          "inputs": [
            {
              "internalType": "address",
              "name": "newOwner",
              "type": "address"
            }
          ],
          "name": "transferOwnership",
          "outputs": [],
          "stateMutability": "nonpayable",
          "type": "function"
        },
        {
          "inputs": [],
          "name": "treasury",
          "outputs": [
            {
              "internalType": "address",
              "name": "",
              "type": "address"
            }
          ],
          "stateMutability": "view",
          "type": "function"
        },
        {
          "inputs": [],
          "name": "treasuryAddress",
          "outputs": [
            {
              "internalType": "address",
              "name": "",
              "type": "address"
            }
          ],
          "stateMutability": "view",
          "type": "function"
        },
        {
          "inputs": [
            {
              "internalType": "uint256",
              "name": "",
              "type": "uint256"
            }
          ],
          "name": "treasuryHistory",
          "outputs": [
            {
              "internalType": "address",
              "name": "oldTreasury",
              "type": "address"
            },
            {
              "internalType": "address",
              "name": "newTreasury",
              "type": "address"
            },
            {
              "internalType": "uint256",
              "name": "timestamp",
              "type": "uint256"
            },
            {
              "internalType": "address",
              "name": "changedBy",
              "type": "address"
            }
          ],
          "stateMutability": "view",
          "type": "function"
        },
        {
          "inputs": [],
          "name": "unpause",
          "outputs": [],
          "stateMutability": "nonpayable",
          "type": "function"
        }
      ],
      "evm": {
        "bytecode": {
          "linkReferences": {},
          "object": "6080604052346104cc576040516000906119083881900390601f8201601f191683016001600160401b038111848210176103ca57918084926060946040528339810103126104c857610050816104f0565b91604061005f602084016104f0565b9201519233156104b4578154336001600160a01b031982168117845560405194916001600160a01b03167f8be0079c531659141344cd1fd0a4f28419497f9722a3daafe3b4186f6b6457e08580a3600180556005805460ff191690556001600160a01b03169283156104725750600184101580610467575b15610422576001600160a01b0316806103de575b50600380546001600160a01b03191683179055600483905561010b6104d1565b928184526020840190815260408401428152606085019133835260075495680100000000000000008710156103ca57600187016007556007548710156103b657600790945292517fa66cc928b5edb82af9bd49922954155ab7b0942694bea4ce44661d9a8736c68860029690961b9586015591517fa66cc928b5edb82af9bd49922954155ab7b0942694bea4ce44661d9a8736c68985015590517fa66cc928b5edb82af9bd49922954155ab7b0942694bea4ce44661d9a8736c68a840155517fa66cc928b5edb82af9bd49922954155ab7b0942694bea4ce44661d9a8736c68b90920180546001600160a01b039093166001600160a01b0319909316929092179091556102166104d1565b600081526020810191825260408101428152606082019033825260085493680100000000000000008510156103a0576001850160085560009460085481101561038c576008909552925160029490941b7ff3f7a9fe364faab93b216da50a3214154f22a0a2b415b23a84c8169e8b636ee3810180546001600160a01b03199081166001600160a01b039788161790915593517ff3f7a9fe364faab93b216da50a3214154f22a0a2b415b23a84c8169e8b636ee482018054861691871691909117905590517ff3f7a9fe364faab93b216da50a3214154f22a0a2b415b23a84c8169e8b636ee582015590517ff3f7a9fe364faab93b216da50a3214154f22a0a2b415b23a84c8169e8b636ee69091018054909216921691909117905533600081815260066020908152604091829020805460ff19166001908117909155915191825282917f1d05944b75552398d6505993a2bc80206d8219c4454def4cfd2e97793edbbfce9190a360405161140390816105058239f35b634e487b7160e01b86526032600452602486fd5b634e487b7160e01b600052604160045260246000fd5b634e487b7160e01b85526032600452602485fd5b634e487b7160e01b85526041600452602485fd5b600280546001600160a01b031916821790556040514281527f7f7d6e7886dca58922d0593a44928fb5066cd0e04369c371d72eb96e61368fa890602090a2386100eb565b60405162461bcd60e51b815260206004820152601e60248201527f466565206d757374206265206265747765656e20312520616e642032302500006044820152606490fd5b5060148411156100d7565b62461bcd60e51b815260206004820152601f60248201527f54726561737572792063616e6e6f74206265207a65726f2061646472657373006044820152606490fd5b631e4fbdf760e01b82526004829052602482fd5b5080fd5b600080fd5b60405190608082016001600160401b038111838210176103a057604052565b51906001600160a01b03821682036104cc5756fe6080604052600436101561001257600080fd5b6000803560e01c806302e88899146110245780630905f5601461100157806309705de8146103075780630cbab4f714610fc95780630d35a16714610f6957806310c2861914610e5f57806311ce026714610e3657806312e8e2c314610d5757806318b4f23b14610c685780633998a68114610c4c5780633f4ba83a14610bb95780634863687e14610af4578063492adaa8146109fe5780634c17b530146109755780635071f27b146108b65780635707ed45146107c15780635a2f406f146106d15780635c975abb146106ac57806361d027b31461022c5780636605bfda146104e05780636f04d994146104c4578063715018a61461046a5780637a9b93c6146104235780638456cb591461038b5780638c639a851461036d5780638da5cb5b14610346578063a10eb35414610307578063a380b86b146102a1578063c116d93614610255578063c5f956af1461022c578063f2fde38b146101a65763f851a4401461017d57600080fd5b346101a357806003193601126101a357546040516001600160a01b039091168152602090f35b80fd5b50346101a35760203660031901126101a3576101c06110f4565b6101c86113a4565b6001600160a01b031680156102185781546001600160a01b03198116821783556001600160a01b03167f8be0079c531659141344cd1fd0a4f28419497f9722a3daafe3b4186f6b6457e08380a380f35b631e4fbdf760e01b82526004829052602482fd5b50346101a357806003193601126101a3576003546040516001600160a01b039091168152602090f35b50346101a357806003193601126101a35760a060075460085460ff6005541660045490600180861b03600354169260405194855260208501521515604084015260608301526080820152f35b50346101a35760203660031901126101a357600435906008548210156101a35760806102cc83611144565b50805460018201546002830154600390930154604080516001600160a01b039485168152928416602084015282019390935291166060820152f35b50346101a35760203660031901126101a35760209060ff906040906001600160a01b036103326110f4565b168152600684522054166040519015158152f35b50346101a357806003193601126101a357546040516001600160a01b039091168152602090f35b50346101a357806003193601126101a3576020600454604051908152f35b50346101a357806003193601126101a3576103a46113a4565b805460ff8160a01c166104145760ff60a01b1916600160a01b1781556040513381527f62e78cea01bee320cd4e420270b5ea74000d11b0c9f74754ebdbfc544b05a25890602090a1337ff9c91e483ce8bc4cc31645e7cc0f01a3371813e76469a71104841507f01402908280a280f35b63d93c066560e01b8252600482fd5b50346101a357806003193601126101a3576004549060648202918083046064149015171561045657602082604051908152f35b634e487b7160e01b81526011600452602490fd5b50346101a357806003193601126101a3576104836113a4565b80546001600160a01b03198116825581906001600160a01b03167f8be0079c531659141344cd1fd0a4f28419497f9722a3daafe3b4186f6b6457e08280a380f35b50346101a357806003193601126101a357602060405160018152f35b50346101a35760203660031901126101a3576104fa6110f4565b6105026113a4565b61051160ff6005541615611163565b6001600160a01b03168015610667576003546001600160a01b038116919082821461062d576001600160a01b0319168117600355604051610551816111af565b82815260208101828152604082014281526060830191338352600854600160401b811015610619578060016105899201600855611144565b949094610605575184546001600160a01b03199081166001600160a01b03928316178655915160018601805484169183169190911790559151600285015591516003939093018054909216921691909117905533917f23c12d5579081c5f1077c04a6b1c114d0f3de239e81a436836d30ecb099ffa138480a480f35b634e487b7160e01b88526004889052602488fd5b634e487b7160e01b88526041600452602488fd5b60405162461bcd60e51b8152602060048201526012602482015271151c99585cdd5c9e481d5b98da185b99d95960721b6044820152606490fd5b60405162461bcd60e51b815260206004820152601860248201527f496e76616c6964207472656173757279206164647265737300000000000000006044820152606490fd5b50346101a357806003193601126101a35760ff6020915460a01c166040519015158152f35b50346101a35760203660031901126101a357338152600660205260ff60408220541680156107ae575b610703906112a5565b6002546001600160a01b03168015610769578082913b1561076657818091602460405180958193635a2f406f60e01b835260043560048401525af180156107595761074b5780f35b610754916111e1565b388180f35b50604051903d90823e3d90fd5b50fd5b60405162461bcd60e51b815260206004820152601760248201527f53746f72616765206e6f7420696e697469616c697a65640000000000000000006044820152606490fd5b5080546001600160a01b031633146106fa565b50346101a357806003193601126101a3576007546107de81611351565b6107eb60405191826111e1565b818152600783526020810191837fa66cc928b5edb82af9bd49922954155ab7b0942694bea4ce44661d9a8736c688845b83831061089857868587604051928392602084019060208552518091526040840192915b81811061084d575050500390f35b91935091602060808261088a60019488516060908051835260208101516020840152604081015160408401528160018060a01b0391015116910152565b01940191019184939261083f565b600460206001926108a885611369565b81520192019201919061081b565b50346101a357806003193601126101a3576108cf6112ea565b506007549081156109305760001982019182116104565760806108fa6108f48461110f565b50611369565b61092e60405180926060908051835260208101516020840152604081015160408401528160018060a01b0391015116910152565bf35b60405162461bcd60e51b815260206004820152601760248201527f4e6f20666565206368616e676573207265636f726465640000000000000000006044820152606490fd5b50346101a357806003193601126101a357338152600660205260ff60408220541680156109eb575b6109a6906112a5565b60055460ff8082161516809160ff19161760055560405190151581527fc35ed978e97c366b3a5f9375508bcfbca850fca66bf334b9477118918e6eaa4060203392a280f35b5080546001600160a01b0316331461099d565b50346101a357806003193601126101a357600854610a1b81611351565b610a2860405191826111e1565b818152600883526020810191837ff3f7a9fe364faab93b216da50a3214154f22a0a2b415b23a84c8169e8b636ee3845b838310610ad657868587604051928392602084019060208552518091526040840192915b818110610a8a575050500390f35b825180516001600160a01b039081168652602080830151821681880152604080840151908801526060928301519091169186019190915286955060809094019390920191600101610a7c565b60046020600192610ae68561130f565b815201920192019190610a58565b50346101a357806003193601126101a357610b0d6112ea565b50600854908115610b74576000198201918211610456576080610b38610b3284611144565b5061130f565b6040805182516001600160a01b039081168252602080850151821690830152838301519282019290925260609283015190911691810191909152f35b60405162461bcd60e51b815260206004820152601c60248201527f4e6f207472656173757279206368616e676573207265636f72646564000000006044820152606490fd5b50346101a357806003193601126101a357610bd26113a4565b805460ff8160a01c1615610c3d5760ff60a01b191681556040513381527f5db9ee0a495bf2e6ff9c91a7834c1ba4fdd244a5e8aa4e537bd38aeae4b073aa90602090a1337fcc2b689b01792ccc45f7d02099e9ef3ffd7058e45803395690c61efdd0f0c6348280a280f35b638dfc202b60e01b8252600482fd5b50346101a357806003193601126101a357602060405160148152f35b50346101a35760203660031901126101a357600435338252600660205260ff6040832054168015610d44575b610c9d906112a5565b60148111610cff576004549080600455610cd6604051610cbc816111af565b838152826020820152426040820152336060820152611203565b33917f9e74d2175d1604ca094d3c60971771fb54aa1a0adbadcedcb69c48cfbd4feb998480a480f35b60405162461bcd60e51b815260206004820152601960248201527f4665652063616e6e6f7420657863656564206d6178696d756d000000000000006044820152606490fd5b5081546001600160a01b03163314610c94565b50346101a35760203660031901126101a357600435610d746113a4565b610d8360ff6005541615611163565b600181101580610e2b575b15610de65760045490818114610db15780600455610cd6604051610cbc816111af565b60405162461bcd60e51b815260206004820152600d60248201526c119959481d5b98da185b99d959609a1b6044820152606490fd5b60405162461bcd60e51b815260206004820152601e60248201527f466565206d757374206265206265747765656e20312520616e642032302500006044820152606490fd5b506014811115610d8e565b50346101a357806003193601126101a3576002546040516001600160a01b039091168152602090f35b50346101a35760203660031901126101a357610e796110f4565b610e816113a4565b6001600160a01b03168015610f24576002546001600160a01b038116610edf576001600160a01b03191681176002556040514281527f7f7d6e7886dca58922d0593a44928fb5066cd0e04369c371d72eb96e61368fa890602090a280f35b60405162461bcd60e51b815260206004820152601b60248201527f53746f7261676520616c726561647920696e697469616c697a656400000000006044820152606490fd5b60405162461bcd60e51b815260206004820152601860248201527f496e76616c69642073746f7261676520636f6e747261637400000000000000006044820152606490fd5b50346101a35760203660031901126101a357600435906007548210156101a3576080610f948361110f565b50805490600181015490600281015490600360018060a01b039101541691604051938452602084015260408301526060820152f35b50346101a35760203660031901126101a357600435906004549182810292818404149015171561045657602082606460405191048152f35b50346101a357806003193601126101a357602060ff600554166040519015158152f35b50346101a35760403660031901126101a35761103e6110f4565b602435908115158092036110f0576110546113a4565b6001600160a01b031680156110ab5780835260066020526040832060ff1981541660ff84161790556040519182527f1d05944b75552398d6505993a2bc80206d8219c4454def4cfd2e97793edbbfce60203393a380f35b60405162461bcd60e51b815260206004820152601860248201527f496e76616c6964206f70657261746f72206164647265737300000000000000006044820152606490fd5b8280fd5b600435906001600160a01b038216820361110a57565b600080fd5b60075481101561112e57600760005260206000209060021b0190600090565b634e487b7160e01b600052603260045260246000fd5b60085481101561112e57600860005260206000209060021b0190600090565b1561116a57565b60405162461bcd60e51b815260206004820152601860248201527f53797374656d20696e20656d657267656e6379206d6f646500000000000000006044820152606490fd5b6080810190811067ffffffffffffffff8211176111cb57604052565b634e487b7160e01b600052604160045260246000fd5b90601f8019910116810190811067ffffffffffffffff8211176111cb57604052565b600754600160401b8110156111cb57600181016007556000600754821015611291576007905260021b7fa66cc928b5edb82af9bd49922954155ab7b0942694bea4ce44661d9a8736c68801908051825560208101516001830155604081015160028301556060015160039190910180546001600160a01b0319166001600160a01b0392909216919091179055565b634e487b7160e01b81526032600452602490fd5b156112ac57565b60405162461bcd60e51b81526020600482015260166024820152752737ba1032b6b2b933b2b731bc9037b832b930ba37b960511b6044820152606490fd5b604051906112f7826111af565b60006060838281528260208201528260408201520152565b9060405161131c816111af565b82546001600160a01b039081168252600184015481166020830152600284015460408301526003909301549092166060830152565b67ffffffffffffffff81116111cb5760051b60200190565b90604051611376816111af565b8254815260018301546020820152600283015460408201526003909201546001600160a01b03166060830152565b6000546001600160a01b031633036113b857565b63118cdaa760e01b6000523360045260246000fdfea2646970667358221220d2609eb7a86ba4239d0d20e7fe1433858a890b5ea8ecc453969fd98fc8e6b98a64736f6c634300081c0033",
          "opcodes": "PUSH1 0x80 PUSH1 0x40 MSTORE CALLVALUE PUSH2 0x4CC JUMPI PUSH1 0x40 MLOAD PUSH1 0x0 SWAP1 PUSH2 0x1908 CODESIZE DUP2 SWAP1 SUB SWAP1 PUSH1 0x1F DUP3 ADD PUSH1 0x1F NOT AND DUP4 ADD PUSH1 0x1 PUSH1 0x1 PUSH1 0x40 SHL SUB DUP2 GT DUP5 DUP3 LT OR PUSH2 0x3CA JUMPI SWAP2 DUP1 DUP5 SWAP3 PUSH1 0x60 SWAP5 PUSH1 0x40 MSTORE DUP4 CODECOPY DUP2 ADD SUB SLT PUSH2 0x4C8 JUMPI PUSH2 0x50 DUP2 PUSH2 0x4F0 JUMP JUMPDEST SWAP2 PUSH1 0x40 PUSH2 0x5F PUSH1 0x20 DUP5 ADD PUSH2 0x4F0 JUMP JUMPDEST SWAP3 ADD MLOAD SWAP3 CALLER ISZERO PUSH2 0x4B4 JUMPI DUP2 SLOAD CALLER PUSH1 0x1 PUSH1 0x1 PUSH1 0xA0 SHL SUB NOT DUP3 AND DUP2 OR DUP5 SSTORE PUSH1 0x40 MLOAD SWAP5 SWAP2 PUSH1 0x1 PUSH1 0x1 PUSH1 0xA0 SHL SUB AND PUSH32 0x8BE0079C531659141344CD1FD0A4F28419497F9722A3DAAFE3B4186F6B6457E0 DUP6 DUP1 LOG3 PUSH1 0x1 DUP1 SSTORE PUSH1 0x5 DUP1 SLOAD PUSH1 0xFF NOT AND SWAP1 SSTORE PUSH1 0x1 PUSH1 0x1 PUSH1 0xA0 SHL SUB AND SWAP3 DUP4 ISZERO PUSH2 0x472 JUMPI POP PUSH1 0x1 DUP5 LT ISZERO DUP1 PUSH2 0x467 JUMPI JUMPDEST ISZERO PUSH2 0x422 JUMPI PUSH1 0x1 PUSH1 0x1 PUSH1 0xA0 SHL SUB AND DUP1 PUSH2 0x3DE JUMPI JUMPDEST POP PUSH1 0x3 DUP1 SLOAD PUSH1 0x1 PUSH1 0x1 PUSH1 0xA0 SHL SUB NOT AND DUP4 OR SWAP1 SSTORE PUSH1 0x4 DUP4 SWAP1 SSTORE PUSH2 0x10B PUSH2 0x4D1 JUMP JUMPDEST SWAP3 DUP2 DUP5 MSTORE PUSH1 0x20 DUP5 ADD SWAP1 DUP2 MSTORE PUSH1 0x40 DUP5 ADD TIMESTAMP DUP2 MSTORE PUSH1 0x60 DUP6 ADD SWAP2 CALLER DUP4 MSTORE PUSH1 0x7 SLOAD SWAP6 PUSH9 0x10000000000000000 DUP8 LT ISZERO PUSH2 0x3CA JUMPI PUSH1 0x1 DUP8 ADD PUSH1 0x7 SSTORE PUSH1 0x7 SLOAD DUP8 LT ISZERO PUSH2 0x3B6 JUMPI PUSH1 0x7 SWAP1 SWAP5 MSTORE SWAP3 MLOAD PUSH32 0xA66CC928B5EDB82AF9BD49922954155AB7B0942694BEA4CE44661D9A8736C688 PUSH1 0x2 SWAP7 SWAP1 SWAP7 SHL SWAP6 DUP7 ADD SSTORE SWAP2 MLOAD PUSH32 0xA66CC928B5EDB82AF9BD49922954155AB7B0942694BEA4CE44661D9A8736C689 DUP6 ADD SSTORE SWAP1 MLOAD PUSH32 0xA66CC928B5EDB82AF9BD49922954155AB7B0942694BEA4CE44661D9A8736C68A DUP5 ADD SSTORE MLOAD PUSH32 0xA66CC928B5EDB82AF9BD49922954155AB7B0942694BEA4CE44661D9A8736C68B SWAP1 SWAP3 ADD DUP1 SLOAD PUSH1 0x1 PUSH1 0x1 PUSH1 0xA0 SHL SUB SWAP1 SWAP4 AND PUSH1 0x1 PUSH1 0x1 PUSH1 0xA0 SHL SUB NOT SWAP1 SWAP4 AND SWAP3 SWAP1 SWAP3 OR SWAP1 SWAP2 SSTORE PUSH2 0x216 PUSH2 0x4D1 JUMP JUMPDEST PUSH1 0x0 DUP2 MSTORE PUSH1 0x20 DUP2 ADD SWAP2 DUP3 MSTORE PUSH1 0x40 DUP2 ADD TIMESTAMP DUP2 MSTORE PUSH1 0x60 DUP3 ADD SWAP1 CALLER DUP3 MSTORE PUSH1 0x8 SLOAD SWAP4 PUSH9 0x10000000000000000 DUP6 LT ISZERO PUSH2 0x3A0 JUMPI PUSH1 0x1 DUP6 ADD PUSH1 0x8 SSTORE PUSH1 0x0 SWAP5 PUSH1 0x8 SLOAD DUP2 LT ISZERO PUSH2 0x38C JUMPI PUSH1 0x8 SWAP1 SWAP6 MSTORE SWAP3 MLOAD PUSH1 0x2 SWAP5 SWAP1 SWAP5 SHL PUSH32 0xF3F7A9FE364FAAB93B216DA50A3214154F22A0A2B415B23A84C8169E8B636EE3 DUP2 ADD DUP1 SLOAD PUSH1 0x1 PUSH1 0x1 PUSH1 0xA0 SHL SUB NOT SWAP1 DUP2 AND PUSH1 0x1 PUSH1 0x1 PUSH1 0xA0 SHL SUB SWAP8 DUP9 AND OR SWAP1 SWAP2 SSTORE SWAP4 MLOAD PUSH32 0xF3F7A9FE364FAAB93B216DA50A3214154F22A0A2B415B23A84C8169E8B636EE4 DUP3 ADD DUP1 SLOAD DUP7 AND SWAP2 DUP8 AND SWAP2 SWAP1 SWAP2 OR SWAP1 SSTORE SWAP1 MLOAD PUSH32 0xF3F7A9FE364FAAB93B216DA50A3214154F22A0A2B415B23A84C8169E8B636EE5 DUP3 ADD SSTORE SWAP1 MLOAD PUSH32 0xF3F7A9FE364FAAB93B216DA50A3214154F22A0A2B415B23A84C8169E8B636EE6 SWAP1 SWAP2 ADD DUP1 SLOAD SWAP1 SWAP3 AND SWAP3 AND SWAP2 SWAP1 SWAP2 OR SWAP1 SSTORE CALLER PUSH1 0x0 DUP2 DUP2 MSTORE PUSH1 0x6 PUSH1 0x20 SWAP1 DUP2 MSTORE PUSH1 0x40 SWAP2 DUP3 SWAP1 KECCAK256 DUP1 SLOAD PUSH1 0xFF NOT AND PUSH1 0x1 SWAP1 DUP2 OR SWAP1 SWAP2 SSTORE SWAP2 MLOAD SWAP2 DUP3 MSTORE DUP3 SWAP2 PUSH32 0x1D05944B75552398D6505993A2BC80206D8219C4454DEF4CFD2E97793EDBBFCE SWAP2 SWAP1 LOG3 PUSH1 0x40 MLOAD PUSH2 0x1403 SWAP1 DUP2 PUSH2 0x505 DUP3 CODECOPY RETURN JUMPDEST PUSH4 0x4E487B71 PUSH1 0xE0 SHL DUP7 MSTORE PUSH1 0x32 PUSH1 0x4 MSTORE PUSH1 0x24 DUP7 REVERT JUMPDEST PUSH4 0x4E487B71 PUSH1 0xE0 SHL PUSH1 0x0 MSTORE PUSH1 0x41 PUSH1 0x4 MSTORE PUSH1 0x24 PUSH1 0x0 REVERT JUMPDEST PUSH4 0x4E487B71 PUSH1 0xE0 SHL DUP6 MSTORE PUSH1 0x32 PUSH1 0x4 MSTORE PUSH1 0x24 DUP6 REVERT JUMPDEST PUSH4 0x4E487B71 PUSH1 0xE0 SHL DUP6 MSTORE PUSH1 0x41 PUSH1 0x4 MSTORE PUSH1 0x24 DUP6 REVERT JUMPDEST PUSH1 0x2 DUP1 SLOAD PUSH1 0x1 PUSH1 0x1 PUSH1 0xA0 SHL SUB NOT AND DUP3 OR SWAP1 SSTORE PUSH1 0x40 MLOAD TIMESTAMP DUP2 MSTORE PUSH32 0x7F7D6E7886DCA58922D0593A44928FB5066CD0E04369C371D72EB96E61368FA8 SWAP1 PUSH1 0x20 SWAP1 LOG2 CODESIZE PUSH2 0xEB JUMP JUMPDEST PUSH1 0x40 MLOAD PUSH3 0x461BCD PUSH1 0xE5 SHL DUP2 MSTORE PUSH1 0x20 PUSH1 0x4 DUP3 ADD MSTORE PUSH1 0x1E PUSH1 0x24 DUP3 ADD MSTORE PUSH32 0x466565206D757374206265206265747765656E20312520616E64203230250000 PUSH1 0x44 DUP3 ADD MSTORE PUSH1 0x64 SWAP1 REVERT JUMPDEST POP PUSH1 0x14 DUP5 GT ISZERO PUSH2 0xD7 JUMP JUMPDEST PUSH3 0x461BCD PUSH1 0xE5 SHL DUP2 MSTORE PUSH1 0x20 PUSH1 0x4 DUP3 ADD MSTORE PUSH1 0x1F PUSH1 0x24 DUP3 ADD MSTORE PUSH32 0x54726561737572792063616E6E6F74206265207A65726F206164647265737300 PUSH1 0x44 DUP3 ADD MSTORE PUSH1 0x64 SWAP1 REVERT JUMPDEST PUSH4 0x1E4FBDF7 PUSH1 0xE0 SHL DUP3 MSTORE PUSH1 0x4 DUP3 SWAP1 MSTORE PUSH1 0x24 DUP3 REVERT JUMPDEST POP DUP1 REVERT JUMPDEST PUSH1 0x0 DUP1 REVERT JUMPDEST PUSH1 0x40 MLOAD SWAP1 PUSH1 0x80 DUP3 ADD PUSH1 0x1 PUSH1 0x1 PUSH1 0x40 SHL SUB DUP2 GT DUP4 DUP3 LT OR PUSH2 0x3A0 JUMPI PUSH1 0x40 MSTORE JUMP JUMPDEST MLOAD SWAP1 PUSH1 0x1 PUSH1 0x1 PUSH1 0xA0 SHL SUB DUP3 AND DUP3 SUB PUSH2 0x4CC JUMPI JUMP INVALID PUSH1 0x80 PUSH1 0x40 MSTORE PUSH1 0x4 CALLDATASIZE LT ISZERO PUSH2 0x12 JUMPI PUSH1 0x0 DUP1 REVERT JUMPDEST PUSH1 0x0 DUP1 CALLDATALOAD PUSH1 0xE0 SHR DUP1 PUSH4 0x2E88899 EQ PUSH2 0x1024 JUMPI DUP1 PUSH4 0x905F560 EQ PUSH2 0x1001 JUMPI DUP1 PUSH4 0x9705DE8 EQ PUSH2 0x307 JUMPI DUP1 PUSH4 0xCBAB4F7 EQ PUSH2 0xFC9 JUMPI DUP1 PUSH4 0xD35A167 EQ PUSH2 0xF69 JUMPI DUP1 PUSH4 0x10C28619 EQ PUSH2 0xE5F JUMPI DUP1 PUSH4 0x11CE0267 EQ PUSH2 0xE36 JUMPI DUP1 PUSH4 0x12E8E2C3 EQ PUSH2 0xD57 JUMPI DUP1 PUSH4 0x18B4F23B EQ PUSH2 0xC68 JUMPI DUP1 PUSH4 0x3998A681 EQ PUSH2 0xC4C JUMPI DUP1 PUSH4 0x3F4BA83A EQ PUSH2 0xBB9 JUMPI DUP1 PUSH4 0x4863687E EQ PUSH2 0xAF4 JUMPI DUP1 PUSH4 0x492ADAA8 EQ PUSH2 0x9FE JUMPI DUP1 PUSH4 0x4C17B530 EQ PUSH2 0x975 JUMPI DUP1 PUSH4 0x5071F27B EQ PUSH2 0x8B6 JUMPI DUP1 PUSH4 0x5707ED45 EQ PUSH2 0x7C1 JUMPI DUP1 PUSH4 0x5A2F406F EQ PUSH2 0x6D1 JUMPI DUP1 PUSH4 0x5C975ABB EQ PUSH2 0x6AC JUMPI DUP1 PUSH4 0x61D027B3 EQ PUSH2 0x22C JUMPI DUP1 PUSH4 0x6605BFDA EQ PUSH2 0x4E0 JUMPI DUP1 PUSH4 0x6F04D994 EQ PUSH2 0x4C4 JUMPI DUP1 PUSH4 0x715018A6 EQ PUSH2 0x46A JUMPI DUP1 PUSH4 0x7A9B93C6 EQ PUSH2 0x423 JUMPI DUP1 PUSH4 0x8456CB59 EQ PUSH2 0x38B JUMPI DUP1 PUSH4 0x8C639A85 EQ PUSH2 0x36D JUMPI DUP1 PUSH4 0x8DA5CB5B EQ PUSH2 0x346 JUMPI DUP1 PUSH4 0xA10EB354 EQ PUSH2 0x307 JUMPI DUP1 PUSH4 0xA380B86B EQ PUSH2 0x2A1 JUMPI DUP1 PUSH4 0xC116D936 EQ PUSH2 0x255 JUMPI DUP1 PUSH4 0xC5F956AF EQ PUSH2 0x22C JUMPI DUP1 PUSH4 0xF2FDE38B EQ PUSH2 0x1A6 JUMPI PUSH4 0xF851A440 EQ PUSH2 0x17D JUMPI PUSH1 0x0 DUP1 REVERT JUMPDEST CALLVALUE PUSH2 0x1A3 JUMPI DUP1 PUSH1 0x3 NOT CALLDATASIZE ADD SLT PUSH2 0x1A3 JUMPI SLOAD PUSH1 0x40 MLOAD PUSH1 0x1 PUSH1 0x1 PUSH1 0xA0 SHL SUB SWAP1 SWAP2 AND DUP2 MSTORE PUSH1 0x20 SWAP1 RETURN JUMPDEST DUP1 REVERT JUMPDEST POP CALLVALUE PUSH2 0x1A3 JUMPI PUSH1 0x20 CALLDATASIZE PUSH1 0x3 NOT ADD SLT PUSH2 0x1A3 JUMPI PUSH2 0x1C0 PUSH2 0x10F4 JUMP JUMPDEST PUSH2 0x1C8 PUSH2 0x13A4 JUMP JUMPDEST PUSH1 0x1 PUSH1 0x1 PUSH1 0xA0 SHL SUB AND DUP1 ISZERO PUSH2 0x218 JUMPI DUP2 SLOAD PUSH1 0x1 PUSH1 0x1 PUSH1 0xA0 SHL SUB NOT DUP2 AND DUP3 OR DUP4 SSTORE PUSH1 0x1 PUSH1 0x1 PUSH1 0xA0 SHL SUB AND PUSH32 0x8BE0079C531659141344CD1FD0A4F28419497F9722A3DAAFE3B4186F6B6457E0 DUP4 DUP1 LOG3 DUP1 RETURN JUMPDEST PUSH4 0x1E4FBDF7 PUSH1 0xE0 SHL DUP3 MSTORE PUSH1 0x4 DUP3 SWAP1 MSTORE PUSH1 0x24 DUP3 REVERT JUMPDEST POP CALLVALUE PUSH2 0x1A3 JUMPI DUP1 PUSH1 0x3 NOT CALLDATASIZE ADD SLT PUSH2 0x1A3 JUMPI PUSH1 0x3 SLOAD PUSH1 0x40 MLOAD PUSH1 0x1 PUSH1 0x1 PUSH1 0xA0 SHL SUB SWAP1 SWAP2 AND DUP2 MSTORE PUSH1 0x20 SWAP1 RETURN JUMPDEST POP CALLVALUE PUSH2 0x1A3 JUMPI DUP1 PUSH1 0x3 NOT CALLDATASIZE ADD SLT PUSH2 0x1A3 JUMPI PUSH1 0xA0 PUSH1 0x7 SLOAD PUSH1 0x8 SLOAD PUSH1 0xFF PUSH1 0x5 SLOAD AND PUSH1 0x4 SLOAD SWAP1 PUSH1 0x1 DUP1 DUP7 SHL SUB PUSH1 0x3 SLOAD AND SWAP3 PUSH1 0x40 MLOAD SWAP5 DUP6 MSTORE PUSH1 0x20 DUP6 ADD MSTORE ISZERO ISZERO PUSH1 0x40 DUP5 ADD MSTORE PUSH1 0x60 DUP4 ADD MSTORE PUSH1 0x80 DUP3 ADD MSTORE RETURN JUMPDEST POP CALLVALUE PUSH2 0x1A3 JUMPI PUSH1 0x20 CALLDATASIZE PUSH1 0x3 NOT ADD SLT PUSH2 0x1A3 JUMPI PUSH1 0x4 CALLDATALOAD SWAP1 PUSH1 0x8 SLOAD DUP3 LT ISZERO PUSH2 0x1A3 JUMPI PUSH1 0x80 PUSH2 0x2CC DUP4 PUSH2 0x1144 JUMP JUMPDEST POP DUP1 SLOAD PUSH1 0x1 DUP3 ADD SLOAD PUSH1 0x2 DUP4 ADD SLOAD PUSH1 0x3 SWAP1 SWAP4 ADD SLOAD PUSH1 0x40 DUP1 MLOAD PUSH1 0x1 PUSH1 0x1 PUSH1 0xA0 SHL SUB SWAP5 DUP6 AND DUP2 MSTORE SWAP3 DUP5 AND PUSH1 0x20 DUP5 ADD MSTORE DUP3 ADD SWAP4 SWAP1 SWAP4 MSTORE SWAP2 AND PUSH1 0x60 DUP3 ADD MSTORE RETURN JUMPDEST POP CALLVALUE PUSH2 0x1A3 JUMPI PUSH1 0x20 CALLDATASIZE PUSH1 0x3 NOT ADD SLT PUSH2 0x1A3 JUMPI PUSH1 0x20 SWAP1 PUSH1 0xFF SWAP1 PUSH1 0x40 SWAP1 PUSH1 0x1 PUSH1 0x1 PUSH1 0xA0 SHL SUB PUSH2 0x332 PUSH2 0x10F4 JUMP JUMPDEST AND DUP2 MSTORE PUSH1 0x6 DUP5 MSTORE KECCAK256 SLOAD AND PUSH1 0x40 MLOAD SWAP1 ISZERO ISZERO DUP2 MSTORE RETURN JUMPDEST POP CALLVALUE PUSH2 0x1A3 JUMPI DUP1 PUSH1 0x3 NOT CALLDATASIZE ADD SLT PUSH2 0x1A3 JUMPI SLOAD PUSH1 0x40 MLOAD PUSH1 0x1 PUSH1 0x1 PUSH1 0xA0 SHL SUB SWAP1 SWAP2 AND DUP2 MSTORE PUSH1 0x20 SWAP1 RETURN JUMPDEST POP CALLVALUE PUSH2 0x1A3 JUMPI DUP1 PUSH1 0x3 NOT CALLDATASIZE ADD SLT PUSH2 0x1A3 JUMPI PUSH1 0x20 PUSH1 0x4 SLOAD PUSH1 0x40 MLOAD SWAP1 DUP2 MSTORE RETURN JUMPDEST POP CALLVALUE PUSH2 0x1A3 JUMPI DUP1 PUSH1 0x3 NOT CALLDATASIZE ADD SLT PUSH2 0x1A3 JUMPI PUSH2 0x3A4 PUSH2 0x13A4 JUMP JUMPDEST DUP1 SLOAD PUSH1 0xFF DUP2 PUSH1 0xA0 SHR AND PUSH2 0x414 JUMPI PUSH1 0xFF PUSH1 0xA0 SHL NOT AND PUSH1 0x1 PUSH1 0xA0 SHL OR DUP2 SSTORE PUSH1 0x40 MLOAD CALLER DUP2 MSTORE PUSH32 0x62E78CEA01BEE320CD4E420270B5EA74000D11B0C9F74754EBDBFC544B05A258 SWAP1 PUSH1 0x20 SWAP1 LOG1 CALLER PUSH32 0xF9C91E483CE8BC4CC31645E7CC0F01A3371813E76469A71104841507F0140290 DUP3 DUP1 LOG2 DUP1 RETURN JUMPDEST PUSH4 0xD93C0665 PUSH1 0xE0 SHL DUP3 MSTORE PUSH1 0x4 DUP3 REVERT JUMPDEST POP CALLVALUE PUSH2 0x1A3 JUMPI DUP1 PUSH1 0x3 NOT CALLDATASIZE ADD SLT PUSH2 0x1A3 JUMPI PUSH1 0x4 SLOAD SWAP1 PUSH1 0x64 DUP3 MUL SWAP2 DUP1 DUP4 DIV PUSH1 0x64 EQ SWAP1 ISZERO OR ISZERO PUSH2 0x456 JUMPI PUSH1 0x20 DUP3 PUSH1 0x40 MLOAD SWAP1 DUP2 MSTORE RETURN JUMPDEST PUSH4 0x4E487B71 PUSH1 0xE0 SHL DUP2 MSTORE PUSH1 0x11 PUSH1 0x4 MSTORE PUSH1 0x24 SWAP1 REVERT JUMPDEST POP CALLVALUE PUSH2 0x1A3 JUMPI DUP1 PUSH1 0x3 NOT CALLDATASIZE ADD SLT PUSH2 0x1A3 JUMPI PUSH2 0x483 PUSH2 0x13A4 JUMP JUMPDEST DUP1 SLOAD PUSH1 0x1 PUSH1 0x1 PUSH1 0xA0 SHL SUB NOT DUP2 AND DUP3 SSTORE DUP2 SWAP1 PUSH1 0x1 PUSH1 0x1 PUSH1 0xA0 SHL SUB AND PUSH32 0x8BE0079C531659141344CD1FD0A4F28419497F9722A3DAAFE3B4186F6B6457E0 DUP3 DUP1 LOG3 DUP1 RETURN JUMPDEST POP CALLVALUE PUSH2 0x1A3 JUMPI DUP1 PUSH1 0x3 NOT CALLDATASIZE ADD SLT PUSH2 0x1A3 JUMPI PUSH1 0x20 PUSH1 0x40 MLOAD PUSH1 0x1 DUP2 MSTORE RETURN JUMPDEST POP CALLVALUE PUSH2 0x1A3 JUMPI PUSH1 0x20 CALLDATASIZE PUSH1 0x3 NOT ADD SLT PUSH2 0x1A3 JUMPI PUSH2 0x4FA PUSH2 0x10F4 JUMP JUMPDEST PUSH2 0x502 PUSH2 0x13A4 JUMP JUMPDEST PUSH2 0x511 PUSH1 0xFF PUSH1 0x5 SLOAD AND ISZERO PUSH2 0x1163 JUMP JUMPDEST PUSH1 0x1 PUSH1 0x1 PUSH1 0xA0 SHL SUB AND DUP1 ISZERO PUSH2 0x667 JUMPI PUSH1 0x3 SLOAD PUSH1 0x1 PUSH1 0x1 PUSH1 0xA0 SHL SUB DUP2 AND SWAP2 SWAP1 DUP3 DUP3 EQ PUSH2 0x62D JUMPI PUSH1 0x1 PUSH1 0x1 PUSH1 0xA0 SHL SUB NOT AND DUP2 OR PUSH1 0x3 SSTORE PUSH1 0x40 MLOAD PUSH2 0x551 DUP2 PUSH2 0x11AF JUMP JUMPDEST DUP3 DUP2 MSTORE PUSH1 0x20 DUP2 ADD DUP3 DUP2 MSTORE PUSH1 0x40 DUP3 ADD TIMESTAMP DUP2 MSTORE PUSH1 0x60 DUP4 ADD SWAP2 CALLER DUP4 MSTORE PUSH1 0x8 SLOAD PUSH1 0x1 PUSH1 0x40 SHL DUP2 LT ISZERO PUSH2 0x619 JUMPI DUP1 PUSH1 0x1 PUSH2 0x589 SWAP3 ADD PUSH1 0x8 SSTORE PUSH2 0x1144 JUMP JUMPDEST SWAP5 SWAP1 SWAP5 PUSH2 0x605 JUMPI MLOAD DUP5 SLOAD PUSH1 0x1 PUSH1 0x1 PUSH1 0xA0 SHL SUB NOT SWAP1 DUP2 AND PUSH1 0x1 PUSH1 0x1 PUSH1 0xA0 SHL SUB SWAP3 DUP4 AND OR DUP7 SSTORE SWAP2 MLOAD PUSH1 0x1 DUP7 ADD DUP1 SLOAD DUP5 AND SWAP2 DUP4 AND SWAP2 SWAP1 SWAP2 OR SWAP1 SSTORE SWAP2 MLOAD PUSH1 0x2 DUP6 ADD SSTORE SWAP2 MLOAD PUSH1 0x3 SWAP4 SWAP1 SWAP4 ADD DUP1 SLOAD SWAP1 SWAP3 AND SWAP3 AND SWAP2 SWAP1 SWAP2 OR SWAP1 SSTORE CALLER SWAP2 PUSH32 0x23C12D5579081C5F1077C04A6B1C114D0F3DE239E81A436836D30ECB099FFA13 DUP5 DUP1 LOG4 DUP1 RETURN JUMPDEST PUSH4 0x4E487B71 PUSH1 0xE0 SHL DUP9 MSTORE PUSH1 0x4 DUP9 SWAP1 MSTORE PUSH1 0x24 DUP9 REVERT JUMPDEST PUSH4 0x4E487B71 PUSH1 0xE0 SHL DUP9 MSTORE PUSH1 0x41 PUSH1 0x4 MSTORE PUSH1 0x24 DUP9 REVERT JUMPDEST PUSH1 0x40 MLOAD PUSH3 0x461BCD PUSH1 0xE5 SHL DUP2 MSTORE PUSH1 0x20 PUSH1 0x4 DUP3 ADD MSTORE PUSH1 0x12 PUSH1 0x24 DUP3 ADD MSTORE PUSH18 0x151C99585CDD5C9E481D5B98DA185B99D959 PUSH1 0x72 SHL PUSH1 0x44 DUP3 ADD MSTORE PUSH1 0x64 SWAP1 REVERT JUMPDEST PUSH1 0x40 MLOAD PUSH3 0x461BCD PUSH1 0xE5 SHL DUP2 MSTORE PUSH1 0x20 PUSH1 0x4 DUP3 ADD MSTORE PUSH1 0x18 PUSH1 0x24 DUP3 ADD MSTORE PUSH32 0x496E76616C696420747265617375727920616464726573730000000000000000 PUSH1 0x44 DUP3 ADD MSTORE PUSH1 0x64 SWAP1 REVERT JUMPDEST POP CALLVALUE PUSH2 0x1A3 JUMPI DUP1 PUSH1 0x3 NOT CALLDATASIZE ADD SLT PUSH2 0x1A3 JUMPI PUSH1 0xFF PUSH1 0x20 SWAP2 SLOAD PUSH1 0xA0 SHR AND PUSH1 0x40 MLOAD SWAP1 ISZERO ISZERO DUP2 MSTORE RETURN JUMPDEST POP CALLVALUE PUSH2 0x1A3 JUMPI PUSH1 0x20 CALLDATASIZE PUSH1 0x3 NOT ADD SLT PUSH2 0x1A3 JUMPI CALLER DUP2 MSTORE PUSH1 0x6 PUSH1 0x20 MSTORE PUSH1 0xFF PUSH1 0x40 DUP3 KECCAK256 SLOAD AND DUP1 ISZERO PUSH2 0x7AE JUMPI JUMPDEST PUSH2 0x703 SWAP1 PUSH2 0x12A5 JUMP JUMPDEST PUSH1 0x2 SLOAD PUSH1 0x1 PUSH1 0x1 PUSH1 0xA0 SHL SUB AND DUP1 ISZERO PUSH2 0x769 JUMPI DUP1 DUP3 SWAP2 EXTCODESIZE ISZERO PUSH2 0x766 JUMPI DUP2 DUP1 SWAP2 PUSH1 0x24 PUSH1 0x40 MLOAD DUP1 SWAP6 DUP2 SWAP4 PUSH4 0x5A2F406F PUSH1 0xE0 SHL DUP4 MSTORE PUSH1 0x4 CALLDATALOAD PUSH1 0x4 DUP5 ADD MSTORE GAS CALL DUP1 ISZERO PUSH2 0x759 JUMPI PUSH2 0x74B JUMPI DUP1 RETURN JUMPDEST PUSH2 0x754 SWAP2 PUSH2 0x11E1 JUMP JUMPDEST CODESIZE DUP2 DUP1 RETURN JUMPDEST POP PUSH1 0x40 MLOAD SWAP1 RETURNDATASIZE SWAP1 DUP3 RETURNDATACOPY RETURNDATASIZE SWAP1 REVERT JUMPDEST POP REVERT JUMPDEST PUSH1 0x40 MLOAD PUSH3 0x461BCD PUSH1 0xE5 SHL DUP2 MSTORE PUSH1 0x20 PUSH1 0x4 DUP3 ADD MSTORE PUSH1 0x17 PUSH1 0x24 DUP3 ADD MSTORE PUSH32 0x53746F72616765206E6F7420696E697469616C697A6564000000000000000000 PUSH1 0x44 DUP3 ADD MSTORE PUSH1 0x64 SWAP1 REVERT JUMPDEST POP DUP1 SLOAD PUSH1 0x1 PUSH1 0x1 PUSH1 0xA0 SHL SUB AND CALLER EQ PUSH2 0x6FA JUMP JUMPDEST POP CALLVALUE PUSH2 0x1A3 JUMPI DUP1 PUSH1 0x3 NOT CALLDATASIZE ADD SLT PUSH2 0x1A3 JUMPI PUSH1 0x7 SLOAD PUSH2 0x7DE DUP2 PUSH2 0x1351 JUMP JUMPDEST PUSH2 0x7EB PUSH1 0x40 MLOAD SWAP2 DUP3 PUSH2 0x11E1 JUMP JUMPDEST DUP2 DUP2 MSTORE PUSH1 0x7 DUP4 MSTORE PUSH1 0x20 DUP2 ADD SWAP2 DUP4 PUSH32 0xA66CC928B5EDB82AF9BD49922954155AB7B0942694BEA4CE44661D9A8736C688 DUP5 JUMPDEST DUP4 DUP4 LT PUSH2 0x898 JUMPI DUP7 DUP6 DUP8 PUSH1 0x40 MLOAD SWAP3 DUP4 SWAP3 PUSH1 0x20 DUP5 ADD SWAP1 PUSH1 0x20 DUP6 MSTORE MLOAD DUP1 SWAP2 MSTORE PUSH1 0x40 DUP5 ADD SWAP3 SWAP2 JUMPDEST DUP2 DUP2 LT PUSH2 0x84D JUMPI POP POP POP SUB SWAP1 RETURN JUMPDEST SWAP2 SWAP4 POP SWAP2 PUSH1 0x20 PUSH1 0x80 DUP3 PUSH2 0x88A PUSH1 0x1 SWAP5 DUP9 MLOAD PUSH1 0x60 SWAP1 DUP1 MLOAD DUP4 MSTORE PUSH1 0x20 DUP2 ADD MLOAD PUSH1 0x20 DUP5 ADD MSTORE PUSH1 0x40 DUP2 ADD MLOAD PUSH1 0x40 DUP5 ADD MSTORE DUP2 PUSH1 0x1 DUP1 PUSH1 0xA0 SHL SUB SWAP2 ADD MLOAD AND SWAP2 ADD MSTORE JUMP JUMPDEST ADD SWAP5 ADD SWAP2 ADD SWAP2 DUP5 SWAP4 SWAP3 PUSH2 0x83F JUMP JUMPDEST PUSH1 0x4 PUSH1 0x20 PUSH1 0x1 SWAP3 PUSH2 0x8A8 DUP6 PUSH2 0x1369 JUMP JUMPDEST DUP2 MSTORE ADD SWAP3 ADD SWAP3 ADD SWAP2 SWAP1 PUSH2 0x81B JUMP JUMPDEST POP CALLVALUE PUSH2 0x1A3 JUMPI DUP1 PUSH1 0x3 NOT CALLDATASIZE ADD SLT PUSH2 0x1A3 JUMPI PUSH2 0x8CF PUSH2 0x12EA JUMP JUMPDEST POP PUSH1 0x7 SLOAD SWAP1 DUP2 ISZERO PUSH2 0x930 JUMPI PUSH1 0x0 NOT DUP3 ADD SWAP2 DUP3 GT PUSH2 0x456 JUMPI PUSH1 0x80 PUSH2 0x8FA PUSH2 0x8F4 DUP5 PUSH2 0x110F JUMP JUMPDEST POP PUSH2 0x1369 JUMP JUMPDEST PUSH2 0x92E PUSH1 0x40 MLOAD DUP1 SWAP3 PUSH1 0x60 SWAP1 DUP1 MLOAD DUP4 MSTORE PUSH1 0x20 DUP2 ADD MLOAD PUSH1 0x20 DUP5 ADD MSTORE PUSH1 0x40 DUP2 ADD MLOAD PUSH1 0x40 DUP5 ADD MSTORE DUP2 PUSH1 0x1 DUP1 PUSH1 0xA0 SHL SUB SWAP2 ADD MLOAD AND SWAP2 ADD MSTORE JUMP JUMPDEST RETURN JUMPDEST PUSH1 0x40 MLOAD PUSH3 0x461BCD PUSH1 0xE5 SHL DUP2 MSTORE PUSH1 0x20 PUSH1 0x4 DUP3 ADD MSTORE PUSH1 0x17 PUSH1 0x24 DUP3 ADD MSTORE PUSH32 0x4E6F20666565206368616E676573207265636F72646564000000000000000000 PUSH1 0x44 DUP3 ADD MSTORE PUSH1 0x64 SWAP1 REVERT JUMPDEST POP CALLVALUE PUSH2 0x1A3 JUMPI DUP1 PUSH1 0x3 NOT CALLDATASIZE ADD SLT PUSH2 0x1A3 JUMPI CALLER DUP2 MSTORE PUSH1 0x6 PUSH1 0x20 MSTORE PUSH1 0xFF PUSH1 0x40 DUP3 KECCAK256 SLOAD AND DUP1 ISZERO PUSH2 0x9EB JUMPI JUMPDEST PUSH2 0x9A6 SWAP1 PUSH2 0x12A5 JUMP JUMPDEST PUSH1 0x5 SLOAD PUSH1 0xFF DUP1 DUP3 AND ISZERO AND DUP1 SWAP2 PUSH1 0xFF NOT AND OR PUSH1 0x5 SSTORE PUSH1 0x40 MLOAD SWAP1 ISZERO ISZERO DUP2 MSTORE PUSH32 0xC35ED978E97C366B3A5F9375508BCFBCA850FCA66BF334B9477118918E6EAA40 PUSH1 0x20 CALLER SWAP3 LOG2 DUP1 RETURN JUMPDEST POP DUP1 SLOAD PUSH1 0x1 PUSH1 0x1 PUSH1 0xA0 SHL SUB AND CALLER EQ PUSH2 0x99D JUMP JUMPDEST POP CALLVALUE PUSH2 0x1A3 JUMPI DUP1 PUSH1 0x3 NOT CALLDATASIZE ADD SLT PUSH2 0x1A3 JUMPI PUSH1 0x8 SLOAD PUSH2 0xA1B DUP2 PUSH2 0x1351 JUMP JUMPDEST PUSH2 0xA28 PUSH1 0x40 MLOAD SWAP2 DUP3 PUSH2 0x11E1 JUMP JUMPDEST DUP2 DUP2 MSTORE PUSH1 0x8 DUP4 MSTORE PUSH1 0x20 DUP2 ADD SWAP2 DUP4 PUSH32 0xF3F7A9FE364FAAB93B216DA50A3214154F22A0A2B415B23A84C8169E8B636EE3 DUP5 JUMPDEST DUP4 DUP4 LT PUSH2 0xAD6 JUMPI DUP7 DUP6 DUP8 PUSH1 0x40 MLOAD SWAP3 DUP4 SWAP3 PUSH1 0x20 DUP5 ADD SWAP1 PUSH1 0x20 DUP6 MSTORE MLOAD DUP1 SWAP2 MSTORE PUSH1 0x40 DUP5 ADD SWAP3 SWAP2 JUMPDEST DUP2 DUP2 LT PUSH2 0xA8A JUMPI POP POP POP SUB SWAP1 RETURN JUMPDEST DUP3 MLOAD DUP1 MLOAD PUSH1 0x1 PUSH1 0x1 PUSH1 0xA0 SHL SUB SWAP1 DUP2 AND DUP7 MSTORE PUSH1 0x20 DUP1 DUP4 ADD MLOAD DUP3 AND DUP2 DUP9 ADD MSTORE PUSH1 0x40 DUP1 DUP5 ADD MLOAD SWAP1 DUP9 ADD MSTORE PUSH1 0x60 SWAP3 DUP4 ADD MLOAD SWAP1 SWAP2 AND SWAP2 DUP7 ADD SWAP2 SWAP1 SWAP2 MSTORE DUP7 SWAP6 POP PUSH1 0x80 SWAP1 SWAP5 ADD SWAP4 SWAP1 SWAP3 ADD SWAP2 PUSH1 0x1 ADD PUSH2 0xA7C JUMP JUMPDEST PUSH1 0x4 PUSH1 0x20 PUSH1 0x1 SWAP3 PUSH2 0xAE6 DUP6 PUSH2 0x130F JUMP JUMPDEST DUP2 MSTORE ADD SWAP3 ADD SWAP3 ADD SWAP2 SWAP1 PUSH2 0xA58 JUMP JUMPDEST POP CALLVALUE PUSH2 0x1A3 JUMPI DUP1 PUSH1 0x3 NOT CALLDATASIZE ADD SLT PUSH2 0x1A3 JUMPI PUSH2 0xB0D PUSH2 0x12EA JUMP JUMPDEST POP PUSH1 0x8 SLOAD SWAP1 DUP2 ISZERO PUSH2 0xB74 JUMPI PUSH1 0x0 NOT DUP3 ADD SWAP2 DUP3 GT PUSH2 0x456 JUMPI PUSH1 0x80 PUSH2 0xB38 PUSH2 0xB32 DUP5 PUSH2 0x1144 JUMP JUMPDEST POP PUSH2 0x130F JUMP JUMPDEST PUSH1 0x40 DUP1 MLOAD DUP3 MLOAD PUSH1 0x1 PUSH1 0x1 PUSH1 0xA0 SHL SUB SWAP1 DUP2 AND DUP3 MSTORE PUSH1 0x20 DUP1 DUP6 ADD MLOAD DUP3 AND SWAP1 DUP4 ADD MSTORE DUP4 DUP4 ADD MLOAD SWAP3 DUP3 ADD SWAP3 SWAP1 SWAP3 MSTORE PUSH1 0x60 SWAP3 DUP4 ADD MLOAD SWAP1 SWAP2 AND SWAP2 DUP2 ADD SWAP2 SWAP1 SWAP2 MSTORE RETURN JUMPDEST PUSH1 0x40 MLOAD PUSH3 0x461BCD PUSH1 0xE5 SHL DUP2 MSTORE PUSH1 0x20 PUSH1 0x4 DUP3 ADD MSTORE PUSH1 0x1C PUSH1 0x24 DUP3 ADD MSTORE PUSH32 0x4E6F207472656173757279206368616E676573207265636F7264656400000000 PUSH1 0x44 DUP3 ADD MSTORE PUSH1 0x64 SWAP1 REVERT JUMPDEST POP CALLVALUE PUSH2 0x1A3 JUMPI DUP1 PUSH1 0x3 NOT CALLDATASIZE ADD SLT PUSH2 0x1A3 JUMPI PUSH2 0xBD2 PUSH2 0x13A4 JUMP JUMPDEST DUP1 SLOAD PUSH1 0xFF DUP2 PUSH1 0xA0 SHR AND ISZERO PUSH2 0xC3D JUMPI PUSH1 0xFF PUSH1 0xA0 SHL NOT AND DUP2 SSTORE PUSH1 0x40 MLOAD CALLER DUP2 MSTORE PUSH32 0x5DB9EE0A495BF2E6FF9C91A7834C1BA4FDD244A5E8AA4E537BD38AEAE4B073AA SWAP1 PUSH1 0x20 SWAP1 LOG1 CALLER PUSH32 0xCC2B689B01792CCC45F7D02099E9EF3FFD7058E45803395690C61EFDD0F0C634 DUP3 DUP1 LOG2 DUP1 RETURN JUMPDEST PUSH4 0x8DFC202B PUSH1 0xE0 SHL DUP3 MSTORE PUSH1 0x4 DUP3 REVERT JUMPDEST POP CALLVALUE PUSH2 0x1A3 JUMPI DUP1 PUSH1 0x3 NOT CALLDATASIZE ADD SLT PUSH2 0x1A3 JUMPI PUSH1 0x20 PUSH1 0x40 MLOAD PUSH1 0x14 DUP2 MSTORE RETURN JUMPDEST POP CALLVALUE PUSH2 0x1A3 JUMPI PUSH1 0x20 CALLDATASIZE PUSH1 0x3 NOT ADD SLT PUSH2 0x1A3 JUMPI PUSH1 0x4 CALLDATALOAD CALLER DUP3 MSTORE PUSH1 0x6 PUSH1 0x20 MSTORE PUSH1 0xFF PUSH1 0x40 DUP4 KECCAK256 SLOAD AND DUP1 ISZERO PUSH2 0xD44 JUMPI JUMPDEST PUSH2 0xC9D SWAP1 PUSH2 0x12A5 JUMP JUMPDEST PUSH1 0x14 DUP2 GT PUSH2 0xCFF JUMPI PUSH1 0x4 SLOAD SWAP1 DUP1 PUSH1 0x4 SSTORE PUSH2 0xCD6 PUSH1 0x40 MLOAD PUSH2 0xCBC DUP2 PUSH2 0x11AF JUMP JUMPDEST DUP4 DUP2 MSTORE DUP3 PUSH1 0x20 DUP3 ADD MSTORE TIMESTAMP PUSH1 0x40 DUP3 ADD MSTORE CALLER PUSH1 0x60 DUP3 ADD MSTORE PUSH2 0x1203 JUMP JUMPDEST CALLER SWAP2 PUSH32 0x9E74D2175D1604CA094D3C60971771FB54AA1A0ADBADCEDCB69C48CFBD4FEB99 DUP5 DUP1 LOG4 DUP1 RETURN JUMPDEST PUSH1 0x40 MLOAD PUSH3 0x461BCD PUSH1 0xE5 SHL DUP2 MSTORE PUSH1 0x20 PUSH1 0x4 DUP3 ADD MSTORE PUSH1 0x19 PUSH1 0x24 DUP3 ADD MSTORE PUSH32 0x4665652063616E6E6F7420657863656564206D6178696D756D00000000000000 PUSH1 0x44 DUP3 ADD MSTORE PUSH1 0x64 SWAP1 REVERT JUMPDEST POP DUP2 SLOAD PUSH1 0x1 PUSH1 0x1 PUSH1 0xA0 SHL SUB AND CALLER EQ PUSH2 0xC94 JUMP JUMPDEST POP CALLVALUE PUSH2 0x1A3 JUMPI PUSH1 0x20 CALLDATASIZE PUSH1 0x3 NOT ADD SLT PUSH2 0x1A3 JUMPI PUSH1 0x4 CALLDATALOAD PUSH2 0xD74 PUSH2 0x13A4 JUMP JUMPDEST PUSH2 0xD83 PUSH1 0xFF PUSH1 0x5 SLOAD AND ISZERO PUSH2 0x1163 JUMP JUMPDEST PUSH1 0x1 DUP2 LT ISZERO DUP1 PUSH2 0xE2B JUMPI JUMPDEST ISZERO PUSH2 0xDE6 JUMPI PUSH1 0x4 SLOAD SWAP1 DUP2 DUP2 EQ PUSH2 0xDB1 JUMPI DUP1 PUSH1 0x4 SSTORE PUSH2 0xCD6 PUSH1 0x40 MLOAD PUSH2 0xCBC DUP2 PUSH2 0x11AF JUMP JUMPDEST PUSH1 0x40 MLOAD PUSH3 0x461BCD PUSH1 0xE5 SHL DUP2 MSTORE PUSH1 0x20 PUSH1 0x4 DUP3 ADD MSTORE PUSH1 0xD PUSH1 0x24 DUP3 ADD MSTORE PUSH13 0x119959481D5B98DA185B99D959 PUSH1 0x9A SHL PUSH1 0x44 DUP3 ADD MSTORE PUSH1 0x64 SWAP1 REVERT JUMPDEST PUSH1 0x40 MLOAD PUSH3 0x461BCD PUSH1 0xE5 SHL DUP2 MSTORE PUSH1 0x20 PUSH1 0x4 DUP3 ADD MSTORE PUSH1 0x1E PUSH1 0x24 DUP3 ADD MSTORE PUSH32 0x466565206D757374206265206265747765656E20312520616E64203230250000 PUSH1 0x44 DUP3 ADD MSTORE PUSH1 0x64 SWAP1 REVERT JUMPDEST POP PUSH1 0x14 DUP2 GT ISZERO PUSH2 0xD8E JUMP JUMPDEST POP CALLVALUE PUSH2 0x1A3 JUMPI DUP1 PUSH1 0x3 NOT CALLDATASIZE ADD SLT PUSH2 0x1A3 JUMPI PUSH1 0x2 SLOAD PUSH1 0x40 MLOAD PUSH1 0x1 PUSH1 0x1 PUSH1 0xA0 SHL SUB SWAP1 SWAP2 AND DUP2 MSTORE PUSH1 0x20 SWAP1 RETURN JUMPDEST POP CALLVALUE PUSH2 0x1A3 JUMPI PUSH1 0x20 CALLDATASIZE PUSH1 0x3 NOT ADD SLT PUSH2 0x1A3 JUMPI PUSH2 0xE79 PUSH2 0x10F4 JUMP JUMPDEST PUSH2 0xE81 PUSH2 0x13A4 JUMP JUMPDEST PUSH1 0x1 PUSH1 0x1 PUSH1 0xA0 SHL SUB AND DUP1 ISZERO PUSH2 0xF24 JUMPI PUSH1 0x2 SLOAD PUSH1 0x1 PUSH1 0x1 PUSH1 0xA0 SHL SUB DUP2 AND PUSH2 0xEDF JUMPI PUSH1 0x1 PUSH1 0x1 PUSH1 0xA0 SHL SUB NOT AND DUP2 OR PUSH1 0x2 SSTORE PUSH1 0x40 MLOAD TIMESTAMP DUP2 MSTORE PUSH32 0x7F7D6E7886DCA58922D0593A44928FB5066CD0E04369C371D72EB96E61368FA8 SWAP1 PUSH1 0x20 SWAP1 LOG2 DUP1 RETURN JUMPDEST PUSH1 0x40 MLOAD PUSH3 0x461BCD PUSH1 0xE5 SHL DUP2 MSTORE PUSH1 0x20 PUSH1 0x4 DUP3 ADD MSTORE PUSH1 0x1B PUSH1 0x24 DUP3 ADD MSTORE PUSH32 0x53746F7261676520616C726561647920696E697469616C697A65640000000000 PUSH1 0x44 DUP3 ADD MSTORE PUSH1 0x64 SWAP1 REVERT JUMPDEST PUSH1 0x40 MLOAD PUSH3 0x461BCD PUSH1 0xE5 SHL DUP2 MSTORE PUSH1 0x20 PUSH1 0x4 DUP3 ADD MSTORE PUSH1 0x18 PUSH1 0x24 DUP3 ADD MSTORE PUSH32 0x496E76616C69642073746F7261676520636F6E74726163740000000000000000 PUSH1 0x44 DUP3 ADD MSTORE PUSH1 0x64 SWAP1 REVERT JUMPDEST POP CALLVALUE PUSH2 0x1A3 JUMPI PUSH1 0x20 CALLDATASIZE PUSH1 0x3 NOT ADD SLT PUSH2 0x1A3 JUMPI PUSH1 0x4 CALLDATALOAD SWAP1 PUSH1 0x7 SLOAD DUP3 LT ISZERO PUSH2 0x1A3 JUMPI PUSH1 0x80 PUSH2 0xF94 DUP4 PUSH2 0x110F JUMP JUMPDEST POP DUP1 SLOAD SWAP1 PUSH1 0x1 DUP2 ADD SLOAD SWAP1 PUSH1 0x2 DUP2 ADD SLOAD SWAP1 PUSH1 0x3 PUSH1 0x1 DUP1 PUSH1 0xA0 SHL SUB SWAP2 ADD SLOAD AND SWAP2 PUSH1 0x40 MLOAD SWAP4 DUP5 MSTORE PUSH1 0x20 DUP5 ADD MSTORE PUSH1 0x40 DUP4 ADD MSTORE PUSH1 0x60 DUP3 ADD MSTORE RETURN JUMPDEST POP CALLVALUE PUSH2 0x1A3 JUMPI PUSH1 0x20 CALLDATASIZE PUSH1 0x3 NOT ADD SLT PUSH2 0x1A3 JUMPI PUSH1 0x4 CALLDATALOAD SWAP1 PUSH1 0x4 SLOAD SWAP2 DUP3 DUP2 MUL SWAP3 DUP2 DUP5 DIV EQ SWAP1 ISZERO OR ISZERO PUSH2 0x456 JUMPI PUSH1 0x20 DUP3 PUSH1 0x64 PUSH1 0x40 MLOAD SWAP2 DIV DUP2 MSTORE RETURN JUMPDEST POP CALLVALUE PUSH2 0x1A3 JUMPI DUP1 PUSH1 0x3 NOT CALLDATASIZE ADD SLT PUSH2 0x1A3 JUMPI PUSH1 0x20 PUSH1 0xFF PUSH1 0x5 SLOAD AND PUSH1 0x40 MLOAD SWAP1 ISZERO ISZERO DUP2 MSTORE RETURN JUMPDEST POP CALLVALUE PUSH2 0x1A3 JUMPI PUSH1 0x40 CALLDATASIZE PUSH1 0x3 NOT ADD SLT PUSH2 0x1A3 JUMPI PUSH2 0x103E PUSH2 0x10F4 JUMP JUMPDEST PUSH1 0x24 CALLDATALOAD SWAP1 DUP2 ISZERO ISZERO DUP1 SWAP3 SUB PUSH2 0x10F0 JUMPI PUSH2 0x1054 PUSH2 0x13A4 JUMP JUMPDEST PUSH1 0x1 PUSH1 0x1 PUSH1 0xA0 SHL SUB AND DUP1 ISZERO PUSH2 0x10AB JUMPI DUP1 DUP4 MSTORE PUSH1 0x6 PUSH1 0x20 MSTORE PUSH1 0x40 DUP4 KECCAK256 PUSH1 0xFF NOT DUP2 SLOAD AND PUSH1 0xFF DUP5 AND OR SWAP1 SSTORE PUSH1 0x40 MLOAD SWAP2 DUP3 MSTORE PUSH32 0x1D05944B75552398D6505993A2BC80206D8219C4454DEF4CFD2E97793EDBBFCE PUSH1 0x20 CALLER SWAP4 LOG3 DUP1 RETURN JUMPDEST PUSH1 0x40 MLOAD PUSH3 0x461BCD PUSH1 0xE5 SHL DUP2 MSTORE PUSH1 0x20 PUSH1 0x4 DUP3 ADD MSTORE PUSH1 0x18 PUSH1 0x24 DUP3 ADD MSTORE PUSH32 0x496E76616C6964206F70657261746F7220616464726573730000000000000000 PUSH1 0x44 DUP3 ADD MSTORE PUSH1 0x64 SWAP1 REVERT JUMPDEST DUP3 DUP1 REVERT JUMPDEST PUSH1 0x4 CALLDATALOAD SWAP1 PUSH1 0x1 PUSH1 0x1 PUSH1 0xA0 SHL SUB DUP3 AND DUP3 SUB PUSH2 0x110A JUMPI JUMP JUMPDEST PUSH1 0x0 DUP1 REVERT JUMPDEST PUSH1 0x7 SLOAD DUP2 LT ISZERO PUSH2 0x112E JUMPI PUSH1 0x7 PUSH1 0x0 MSTORE PUSH1 0x20 PUSH1 0x0 KECCAK256 SWAP1 PUSH1 0x2 SHL ADD SWAP1 PUSH1 0x0 SWAP1 JUMP JUMPDEST PUSH4 0x4E487B71 PUSH1 0xE0 SHL PUSH1 0x0 MSTORE PUSH1 0x32 PUSH1 0x4 MSTORE PUSH1 0x24 PUSH1 0x0 REVERT JUMPDEST PUSH1 0x8 SLOAD DUP2 LT ISZERO PUSH2 0x112E JUMPI PUSH1 0x8 PUSH1 0x0 MSTORE PUSH1 0x20 PUSH1 0x0 KECCAK256 SWAP1 PUSH1 0x2 SHL ADD SWAP1 PUSH1 0x0 SWAP1 JUMP JUMPDEST ISZERO PUSH2 0x116A JUMPI JUMP JUMPDEST PUSH1 0x40 MLOAD PUSH3 0x461BCD PUSH1 0xE5 SHL DUP2 MSTORE PUSH1 0x20 PUSH1 0x4 DUP3 ADD MSTORE PUSH1 0x18 PUSH1 0x24 DUP3 ADD MSTORE PUSH32 0x53797374656D20696E20656D657267656E6379206D6F64650000000000000000 PUSH1 0x44 DUP3 ADD MSTORE PUSH1 0x64 SWAP1 REVERT JUMPDEST PUSH1 0x80 DUP2 ADD SWAP1 DUP2 LT PUSH8 0xFFFFFFFFFFFFFFFF DUP3 GT OR PUSH2 0x11CB JUMPI PUSH1 0x40 MSTORE JUMP JUMPDEST PUSH4 0x4E487B71 PUSH1 0xE0 SHL PUSH1 0x0 MSTORE PUSH1 0x41 PUSH1 0x4 MSTORE PUSH1 0x24 PUSH1 0x0 REVERT JUMPDEST SWAP1 PUSH1 0x1F DUP1 NOT SWAP2 ADD AND DUP2 ADD SWAP1 DUP2 LT PUSH8 0xFFFFFFFFFFFFFFFF DUP3 GT OR PUSH2 0x11CB JUMPI PUSH1 0x40 MSTORE JUMP JUMPDEST PUSH1 0x7 SLOAD PUSH1 0x1 PUSH1 0x40 SHL DUP2 LT ISZERO PUSH2 0x11CB JUMPI PUSH1 0x1 DUP2 ADD PUSH1 0x7 SSTORE PUSH1 0x0 PUSH1 0x7 SLOAD DUP3 LT ISZERO PUSH2 0x1291 JUMPI PUSH1 0x7 SWAP1 MSTORE PUSH1 0x2 SHL PUSH32 0xA66CC928B5EDB82AF9BD49922954155AB7B0942694BEA4CE44661D9A8736C688 ADD SWAP1 DUP1 MLOAD DUP3 SSTORE PUSH1 0x20 DUP2 ADD MLOAD PUSH1 0x1 DUP4 ADD SSTORE PUSH1 0x40 DUP2 ADD MLOAD PUSH1 0x2 DUP4 ADD SSTORE PUSH1 0x60 ADD MLOAD PUSH1 0x3 SWAP2 SWAP1 SWAP2 ADD DUP1 SLOAD PUSH1 0x1 PUSH1 0x1 PUSH1 0xA0 SHL SUB NOT AND PUSH1 0x1 PUSH1 0x1 PUSH1 0xA0 SHL SUB SWAP3 SWAP1 SWAP3 AND SWAP2 SWAP1 SWAP2 OR SWAP1 SSTORE JUMP JUMPDEST PUSH4 0x4E487B71 PUSH1 0xE0 SHL DUP2 MSTORE PUSH1 0x32 PUSH1 0x4 MSTORE PUSH1 0x24 SWAP1 REVERT JUMPDEST ISZERO PUSH2 0x12AC JUMPI JUMP JUMPDEST PUSH1 0x40 MLOAD PUSH3 0x461BCD PUSH1 0xE5 SHL DUP2 MSTORE PUSH1 0x20 PUSH1 0x4 DUP3 ADD MSTORE PUSH1 0x16 PUSH1 0x24 DUP3 ADD MSTORE PUSH22 0x2737BA1032B6B2B933B2B731BC9037B832B930BA37B9 PUSH1 0x51 SHL PUSH1 0x44 DUP3 ADD MSTORE PUSH1 0x64 SWAP1 REVERT JUMPDEST PUSH1 0x40 MLOAD SWAP1 PUSH2 0x12F7 DUP3 PUSH2 0x11AF JUMP JUMPDEST PUSH1 0x0 PUSH1 0x60 DUP4 DUP3 DUP2 MSTORE DUP3 PUSH1 0x20 DUP3 ADD MSTORE DUP3 PUSH1 0x40 DUP3 ADD MSTORE ADD MSTORE JUMP JUMPDEST SWAP1 PUSH1 0x40 MLOAD PUSH2 0x131C DUP2 PUSH2 0x11AF JUMP JUMPDEST DUP3 SLOAD PUSH1 0x1 PUSH1 0x1 PUSH1 0xA0 SHL SUB SWAP1 DUP2 AND DUP3 MSTORE PUSH1 0x1 DUP5 ADD SLOAD DUP2 AND PUSH1 0x20 DUP4 ADD MSTORE PUSH1 0x2 DUP5 ADD SLOAD PUSH1 0x40 DUP4 ADD MSTORE PUSH1 0x3 SWAP1 SWAP4 ADD SLOAD SWAP1 SWAP3 AND PUSH1 0x60 DUP4 ADD MSTORE JUMP JUMPDEST PUSH8 0xFFFFFFFFFFFFFFFF DUP2 GT PUSH2 0x11CB JUMPI PUSH1 0x5 SHL PUSH1 0x20 ADD SWAP1 JUMP JUMPDEST SWAP1 PUSH1 0x40 MLOAD PUSH2 0x1376 DUP2 PUSH2 0x11AF JUMP JUMPDEST DUP3 SLOAD DUP2 MSTORE PUSH1 0x1 DUP4 ADD SLOAD PUSH1 0x20 DUP3 ADD MSTORE PUSH1 0x2 DUP4 ADD SLOAD PUSH1 0x40 DUP3 ADD MSTORE PUSH1 0x3 SWAP1 SWAP3 ADD SLOAD PUSH1 0x1 PUSH1 0x1 PUSH1 0xA0 SHL SUB AND PUSH1 0x60 DUP4 ADD MSTORE JUMP JUMPDEST PUSH1 0x0 SLOAD PUSH1 0x1 PUSH1 0x1 PUSH1 0xA0 SHL SUB AND CALLER SUB PUSH2 0x13B8 JUMPI JUMP JUMPDEST PUSH4 0x118CDAA7 PUSH1 0xE0 SHL PUSH1 0x0 MSTORE CALLER PUSH1 0x4 MSTORE PUSH1 0x24 PUSH1 0x0 REVERT INVALID LOG2 PUSH5 0x6970667358 0x22 SLT KECCAK256 0xD2 PUSH1 0x9E 0xB7 0xA8 PUSH12 0xA4239D0D20E7FE1433858A89 SIGNEXTEND MCOPY 0xA8 0xEC 0xC4 MSTORE8 SWAP7 SWAP16 0xD9 DUP16 0xC8 0xE6 0xB9 DUP11 PUSH5 0x736F6C6343 STOP ADDMOD SHR STOP CALLER "
        },
        "methodIdentifiers": {
          "MAX_PLATFORM_FEE()": "3998a681",
          "MIN_PLATFORM_FEE()": "6f04d994",
          "admin()": "f851a440",
          "calculatePlatformFee(uint256)": "0cbab4f7",
          "emergencyDeactivateNetwork(uint256)": "5a2f406f",
          "emergencyMode()": "0905f560",
          "emergencyOperators(address)": "09705de8",
          "emergencySetPlatformFee(uint256)": "18b4f23b",
          "feeHistory(uint256)": "0d35a167",
          "getAdminStats()": "c116d936",
          "getFeeHistory()": "5707ed45",
          "getLatestFeeChange()": "5071f27b",
          "getLatestTreasuryChange()": "4863687e",
          "getPlatformFeeBasisPoints()": "7a9b93c6",
          "getTreasuryHistory()": "492adaa8",
          "initializeStorageContract(address)": "10c28619",
          "isEmergencyOperator(address)": "a10eb354",
          "owner()": "8da5cb5b",
          "pause()": "8456cb59",
          "paused()": "5c975abb",
          "platformFeePercent()": "8c639a85",
          "renounceOwnership()": "715018a6",
          "setEmergencyOperator(address,bool)": "02e88899",
          "setPlatformFee(uint256)": "12e8e2c3",
          "setTreasuryAddress(address)": "6605bfda",
          "storageContract()": "11ce0267",
          "toggleEmergencyMode()": "4c17b530",
          "transferOwnership(address)": "f2fde38b",
          "treasury()": "61d027b3",
          "treasuryAddress()": "c5f956af",
          "treasuryHistory(uint256)": "a380b86b",
          "unpause()": "3f4ba83a"
        }
      }
    }
  }
}