{
  "contracts/ZaaNetPayment.sol": {
    "ZaaNetPayment": {
      "abi": [
        {
          "inputs": [
            {
              "internalType": "address",
              "name": "_usdt",
              "type": "address"
            },
            {
              "internalType": "address",
              "name": "_storageContract",
              "type": "address"
            },
            {
              "internalType": "address",
              "name": "_adminContract",
              "type": "address"
            }
          ],
          "stateMutability": "nonpayable",
          "type": "constructor"
        },
        {
          "inputs": [],
          "name": "EnforcedPause",
          "type": "error"
        },
        {
          "inputs": [],
          "name": "ExpectedPause",
          "type": "error"
        },
        {
          "inputs": [
            {
              "internalType": "address",
              "name": "owner",
              "type": "address"
            }
          ],
          "name": "OwnableInvalidOwner",
          "type": "error"
        },
        {
          "inputs": [
            {
              "internalType": "address",
              "name": "account",
              "type": "address"
            }
          ],
          "name": "OwnableUnauthorizedAccount",
          "type": "error"
        },
        {
          "inputs": [],
          "name": "ReentrancyGuardReentrantCall",
          "type": "error"
        },
        {
          "anonymous": false,
          "inputs": [
            {
              "indexed": true,
              "internalType": "address",
              "name": "previousOwner",
              "type": "address"
            },
            {
              "indexed": true,
              "internalType": "address",
              "name": "newOwner",
              "type": "address"
            }
          ],
          "name": "OwnershipTransferred",
          "type": "event"
        },
        {
          "anonymous": false,
          "inputs": [
            {
              "indexed": false,
              "internalType": "address",
              "name": "account",
              "type": "address"
            }
          ],
          "name": "Paused",
          "type": "event"
        },
        {
          "anonymous": false,
          "inputs": [
            {
              "indexed": true,
              "internalType": "uint256",
              "name": "sessionId",
              "type": "uint256"
            },
            {
              "indexed": true,
              "internalType": "uint256",
              "name": "networkId",
              "type": "uint256"
            },
            {
              "indexed": true,
              "internalType": "address",
              "name": "paymentAddress",
              "type": "address"
            },
            {
              "indexed": false,
              "internalType": "uint256",
              "name": "amount",
              "type": "uint256"
            },
            {
              "indexed": false,
              "internalType": "uint256",
              "name": "platformFee",
              "type": "uint256"
            }
          ],
          "name": "PaymentReceived",
          "type": "event"
        },
        {
          "anonymous": false,
          "inputs": [
            {
              "indexed": true,
              "internalType": "uint256",
              "name": "sessionId",
              "type": "uint256"
            },
            {
              "indexed": true,
              "internalType": "uint256",
              "name": "networkId",
              "type": "uint256"
            },
            {
              "indexed": true,
              "internalType": "address",
              "name": "paymentAddress",
              "type": "address"
            },
            {
              "indexed": false,
              "internalType": "uint256",
              "name": "amount",
              "type": "uint256"
            },
            {
              "indexed": false,
              "internalType": "bool",
              "name": "active",
              "type": "bool"
            },
            {
              "indexed": false,
              "internalType": "string",
              "name": "voucherId",
              "type": "string"
            },
            {
              "indexed": false,
              "internalType": "string",
              "name": "userId",
              "type": "string"
            },
            {
              "indexed": false,
              "internalType": "uint256",
              "name": "startTime",
              "type": "uint256"
            }
          ],
          "name": "SessionStarted",
          "type": "event"
        },
        {
          "anonymous": false,
          "inputs": [
            {
              "indexed": false,
              "internalType": "address",
              "name": "account",
              "type": "address"
            }
          ],
          "name": "Unpaused",
          "type": "event"
        },
        {
          "inputs": [],
          "name": "MAX_PAYMENT_AMOUNT",
          "outputs": [
            {
              "internalType": "uint256",
              "name": "",
              "type": "uint256"
            }
          ],
          "stateMutability": "view",
          "type": "function"
        },
        {
          "inputs": [
            {
              "internalType": "uint256",
              "name": "_networkId",
              "type": "uint256"
            },
            {
              "internalType": "uint256",
              "name": "_amount",
              "type": "uint256"
            },
            {
              "internalType": "string",
              "name": "_voucherId",
              "type": "string"
            },
            {
              "internalType": "string",
              "name": "_userId",
              "type": "string"
            }
          ],
          "name": "acceptPayment",
          "outputs": [],
          "stateMutability": "nonpayable",
          "type": "function"
        },
        {
          "inputs": [],
          "name": "adminContract",
          "outputs": [
            {
              "internalType": "contract ZaaNetAdmin",
              "name": "",
              "type": "address"
            }
          ],
          "stateMutability": "view",
          "type": "function"
        },
        {
          "inputs": [
            {
              "internalType": "uint256",
              "name": "amount",
              "type": "uint256"
            }
          ],
          "name": "calculateFees",
          "outputs": [
            {
              "internalType": "uint256",
              "name": "hostAmount",
              "type": "uint256"
            },
            {
              "internalType": "uint256",
              "name": "platformFee",
              "type": "uint256"
            }
          ],
          "stateMutability": "view",
          "type": "function"
        },
        {
          "inputs": [
            {
              "internalType": "uint256",
              "name": "_sessionId",
              "type": "uint256"
            }
          ],
          "name": "getSession",
          "outputs": [
            {
              "components": [
                {
                  "internalType": "uint256",
                  "name": "sessionId",
                  "type": "uint256"
                },
                {
                  "internalType": "uint256",
                  "name": "networkId",
                  "type": "uint256"
                },
                {
                  "internalType": "address",
                  "name": "paymentAddress",
                  "type": "address"
                },
                {
                  "internalType": "uint256",
                  "name": "amount",
                  "type": "uint256"
                },
                {
                  "internalType": "bool",
                  "name": "active",
                  "type": "bool"
                },
                {
                  "internalType": "string",
                  "name": "voucherId",
                  "type": "string"
                },
                {
                  "internalType": "string",
                  "name": "userId",
                  "type": "string"
                },
                {
                  "internalType": "uint256",
                  "name": "startTime",
                  "type": "uint256"
                }
              ],
              "internalType": "struct ZaaNetStorage.Session",
              "name": "",
              "type": "tuple"
            }
          ],
          "stateMutability": "view",
          "type": "function"
        },
        {
          "inputs": [],
          "name": "owner",
          "outputs": [
            {
              "internalType": "address",
              "name": "",
              "type": "address"
            }
          ],
          "stateMutability": "view",
          "type": "function"
        },
        {
          "inputs": [],
          "name": "pause",
          "outputs": [],
          "stateMutability": "nonpayable",
          "type": "function"
        },
        {
          "inputs": [],
          "name": "paused",
          "outputs": [
            {
              "internalType": "bool",
              "name": "",
              "type": "bool"
            }
          ],
          "stateMutability": "view",
          "type": "function"
        },
        {
          "inputs": [],
          "name": "renounceOwnership",
          "outputs": [],
          "stateMutability": "nonpayable",
          "type": "function"
        },
        {
          "inputs": [],
          "name": "storageContract",
          "outputs": [
            {
              "internalType": "contract ZaaNetStorage",
              "name": "",
              "type": "address"
            }
          ],
          "stateMutability": "view",
          "type": "function"
        },
        {
          "inputs": [
            {
              "internalType": "address",
              "name": "newOwner",
              "type": "address"
            }
          ],
          "name": "transferOwnership",
          "outputs": [],
          "stateMutability": "nonpayable",
          "type": "function"
        },
        {
          "inputs": [],
          "name": "unpause",
          "outputs": [],
          "stateMutability": "nonpayable",
          "type": "function"
        },
        {
          "inputs": [
            {
              "internalType": "address",
              "name": "_newAdmin",
              "type": "address"
            }
          ],
          "name": "updateAdminContract",
          "outputs": [],
          "stateMutability": "nonpayable",
          "type": "function"
        },
        {
          "inputs": [
            {
              "internalType": "address",
              "name": "_newUSDT",
              "type": "address"
            }
          ],
          "name": "updateUSDTAddress",
          "outputs": [],
          "stateMutability": "nonpayable",
          "type": "function"
        },
        {
          "inputs": [],
          "name": "usdt",
          "outputs": [
            {
              "internalType": "contract TestUSDT",
              "name": "",
              "type": "address"
            }
          ],
          "stateMutability": "view",
          "type": "function"
        }
      ],
      "evm": {
        "bytecode": {
          "linkReferences": {},
          "object": "60803461020657601f61152938819003918201601f19168301916001600160401b0383118484101761020b578084926060946040528339810103126102065761004781610221565b90610060604061005960208401610221565b9201610221565b9033156101f05760008054336001600160a01b0319821681178355604051959290916001600160a01b0316907f8be0079c531659141344cd1fd0a4f28419497f9722a3daafe3b4186f6b6457e09080a3600180556001600160a01b03169283156101ae57506001600160a01b0316908115610169576001600160a01b03169182156101245760018060a01b0319600254161760025560018060a01b0319600354161760035560018060a01b031960045416176004556040516112f390816102368239f35b60405162461bcd60e51b815260206004820152601560248201527f496e76616c69642041646d696e206164647265737300000000000000000000006044820152606490fd5b60405162461bcd60e51b815260206004820152601760248201527f496e76616c69642053746f7261676520616464726573730000000000000000006044820152606490fd5b62461bcd60e51b815260206004820152601460248201527f496e76616c6964205553445420616464726573730000000000000000000000006044820152606490fd5b631e4fbdf760e01b600052600060045260246000fd5b600080fd5b634e487b7160e01b600052604160045260246000fd5b51906001600160a01b03821682036102065756fe608080604052600436101561001357600080fd5b600090813560e01c90816311ce026714611040575080632f48ab7d14611017578063306247091461081d578063388d2c24146107905780633f4ba83a1461064e578063402ff0db146104cd5780635197f2d5146104a857806352238fdd146103f35780635c975abb146103ce578063715018a61461037457806375d60372146102e85780638456cb59146101a45780638da5cb5b1461017d578063c05c5e94146101545763f2fde38b146100c657600080fd5b34610151576020366003190112610151576004356001600160a01b0381169081900361014f576100f4611294565b801561013b5781546001600160a01b03198116821783556001600160a01b03167f8be0079c531659141344cd1fd0a4f28419497f9722a3daafe3b4186f6b6457e08380a380f35b631e4fbdf760e01b82526004829052602482fd5b505b80fd5b50346101515780600319360112610151576004546040516001600160a01b039091168152602090f35b5034610151578060031936011261015157546040516001600160a01b039091168152602090f35b50346101515780600319360112610151578054336001600160a01b03821614801561025a575b15610215576101d7611274565b60ff60a01b1916600160a01b1781556040513381527f62e78cea01bee320cd4e420270b5ea74000d11b0c9f74754ebdbfc544b05a25890602090a180f35b60405162461bcd60e51b815260206004820152601760248201527f4e6f7420617574686f72697a656420746f2070617573650000000000000000006044820152606490fd5b5060048054604051638da5cb5b60e01b81529160209183919082906001600160a01b03165afa9081156102dd57839161029f575b506001600160a01b031633146101ca565b90506020813d6020116102d5575b816102ba60209383611098565b810103126102d1576102cb906111d8565b3861028e565b8280fd5b3d91506102ad565b6040513d85823e3d90fd5b5034610151576020366003190112610151576004356001600160a01b0381169081900361014f57610317611294565b8015610338576bffffffffffffffffffffffff60a01b600254161760025580f35b60405162461bcd60e51b8152602060048201526014602482015273496e76616c69642055534454206164647265737360601b6044820152606490fd5b503461015157806003193601126101515761038d611294565b80546001600160a01b03198116825581906001600160a01b03167f8be0079c531659141344cd1fd0a4f28419497f9722a3daafe3b4186f6b6457e08280a380f35b503461015157806003193601126101515760ff6020915460a01c166040519015158152f35b50346101515760203660031901126101515760048054604051638c639a8560e01b81528235929091602091839182906001600160a01b03165afa92831561049c5792610461575b50610454606461044c6040948461123e565b048092611267565b9082519182526020820152f35b91506020823d602011610494575b8161047c60209383611098565b8101031261048f5790519061045461043a565b600080fd5b3d915061046f565b604051903d90823e3d90fd5b5034610151578060031936011261015157602060405169021e19e0c9bab24000008152f35b5034610151576020366003190112610151578060249160e06040516104f181611065565b828152826020820152826040820152826060820152826080820152606060a0820152606060c082015201528060018060a01b03600354166040519384809263402ff0db60e01b825260043560048301525afa90811561049c57809161056b575b6040516020808252819061056790820185611165565b0390f35b90503d8082843e61057c8184611098565b82019160208184031261014f5780519067ffffffffffffffff82116102d15701916101008382031261014f57604051916105b583611065565b83518352602084015160208401526105cf604085016111d8565b6040840152606084015160608401526105ea60808501611231565b608084015260a084015167ffffffffffffffff811161014f578261060f9186016111ec565b60a084015260c08401519067ffffffffffffffff821161015157509261063c60e0926105679583016111ec565b60c0840152015160e082015238610551565b50346101515780600319360112610151578054336001600160a01b038216148015610711575b156106cc5760ff8160a01c16156106bd5760ff60a01b191681556040513381527f5db9ee0a495bf2e6ff9c91a7834c1ba4fdd244a5e8aa4e537bd38aeae4b073aa90602090a180f35b638dfc202b60e01b8252600482fd5b60405162461bcd60e51b815260206004820152601960248201527f4e6f7420617574686f72697a656420746f20756e7061757365000000000000006044820152606490fd5b5060048054604051638da5cb5b60e01b81529160209183919082906001600160a01b03165afa9081156102dd578391610756575b506001600160a01b03163314610674565b90506020813d602011610788575b8161077160209383611098565b810103126102d157610782906111d8565b38610745565b3d9150610764565b5034610151576020366003190112610151576004356001600160a01b0381169081900361014f576107bf611294565b80156107e0576bffffffffffffffffffffffff60a01b600454161760045580f35b60405162461bcd60e51b8152602060048201526015602482015274496e76616c69642061646d696e206164647265737360581b6044820152606490fd5b50346101515760803660031901126101515760243560043560443567ffffffffffffffff8111611013576108559036906004016110d6565b60643567ffffffffffffffff811161100f576108759036906004016110d6565b9061087e611274565b60026001541461100057600260015583151580610fec575b15610fae576003546040516395ea571760e01b8152600481018590526001600160a01b0390911691908681602481865afa908115610fa3578791610ec3575b50608081015115610e865760408101518610610e485760018060a01b03600454169360405193638c639a8560e01b8552602085600481895afa948515610e08578995610e13575b506020600495966040519687809263c5f956af60e01b82525afa948515610e08578995610dc8575b506001600160a01b03851615610d835760148611610d465760646109698a978a61123e565b04946020610977878b611267565b926004604051809a819363cc50764160e01b83525af1968715610c62578a97610d12575b5060018060a01b03600354168a6040516109b481611065565b8981528a60208201523360408201528b6060820152600160808201528760a08201528560c08201524260e0820152823b1561014f57610a18928a83604051809681958294631dcd400b60e11b84526004840152604060248401526044830190611165565b03925af18015610d0757610cec575b506002546040516323b872dd60e01b81523360048201526001600160a01b0392831660248201526044810188905291602091839116818d81606481015b03925af1908115610c62578a91610cb2575b5015610c6d57600254602093840180516040516323b872dd60e01b81523360048201526001600160a01b0391821660248201526044810185905291959192839160649183918f91165af1908115610c62578a91610c24575b5015610bdf5760035492516001600160a01b03938416938a929116843b156102d1576044908360405196879485936370e3d45560e11b8552600485015260248401525af19088821561049c5787938793610bbf575b5050610b7a7f4cf76f1607429a1ba564f99e3071202cedecedced41885abc9d7faf01598415791610b6c604051968b88526001602089015260a0604089015260a0880190611140565b908682036060880152611140565b934260808201528033950390a460405193845260208401527f5cd7214f6a35088a9d01c8364579ef0efbf9eab3a80310601fbaef534bbb69af60403394a46001805580f35b610bcd929450819350611098565b610bdb578385918838610b23565b8680fd5b60405162461bcd60e51b815260206004820152601c60248201527f486f7374207061796d656e74207472616e73666572206661696c6564000000006044820152606490fd5b90506020813d602011610c5a575b81610c3f60209383611098565b81010312610c5657610c5090611231565b38610ace565b8980fd5b3d9150610c32565b6040513d8c823e3d90fd5b60405162461bcd60e51b815260206004820152601c60248201527f506c6174666f726d20666565207472616e73666572206661696c6564000000006044820152606490fd5b90506020813d602011610ce4575b81610ccd60209383611098565b81010312610c5657610cde90611231565b38610a76565b3d9150610cc0565b868b610cfe610a64949d602094611098565b9b925050610a27565b6040513d8d823e3d90fd5b9096506020813d602011610d3e575b81610d2e60209383611098565b81010312610c565751953861099b565b3d9150610d21565b60405162461bcd60e51b81526020600482015260156024820152740a0d8c2e8ccdee4da40cccaca40e8dede40d0d2ced605b1b6044820152606490fd5b60405162461bcd60e51b815260206004820152601860248201527f496e76616c6964207472656173757279206164647265737300000000000000006044820152606490fd5b9094506020813d602011610e00575b81610de460209383611098565b81010312610dfc57610df5906111d8565b9338610944565b8880fd5b3d9150610dd7565b6040513d8b823e3d90fd5b94506020853d602011610e40575b81610e2e60209383611098565b81010312610dfc57935193602061091c565b3d9150610e21565b60405162461bcd60e51b81526020600482015260166024820152755061796d656e7420616d6f756e7420746f6f206c6f7760501b6044820152606490fd5b60405162461bcd60e51b81526020600482015260156024820152744e6574776f726b206973206e6f742061637469766560581b6044820152606490fd5b90503d8088833e610ed48183611098565b810190602081830312610f9f5780519067ffffffffffffffff8211610dfc57019060e082820312610f9f576040519160e0830183811067ffffffffffffffff821117610f8b5760405280518352610f2d602082016111d8565b602084015260408101516040840152606081015167ffffffffffffffff8111610c565760c092610f5e9183016111ec565b6060840152610f6f60808201611231565b608084015260a081015160a0840152015160c0820152386108d5565b634e487b7160e01b8a52604160045260248afd5b8780fd5b6040513d89823e3d90fd5b60405162461bcd60e51b8152602060048201526016602482015275125b9d985b1a59081c185e5b595b9d08185b5bdd5b9d60521b6044820152606490fd5b5069021e19e0c9bab2400000841115610896565b633ee5aeb560e01b8552600485fd5b8480fd5b8380fd5b50346101515780600319360112610151576002546040516001600160a01b039091168152602090f35b90503461014f578160031936011261014f576003546001600160a01b03168152602090f35b610100810190811067ffffffffffffffff82111761108257604052565b634e487b7160e01b600052604160045260246000fd5b90601f8019910116810190811067ffffffffffffffff82111761108257604052565b67ffffffffffffffff811161108257601f01601f191660200190565b81601f8201121561048f578035906110ed826110ba565b926110fb6040519485611098565b8284526020838301011161048f57816000926020809301838601378301015290565b60005b8381106111305750506000910152565b8181015183820152602001611120565b906020916111598151809281855285808601910161111d565b601f01601f1916010190565b90815181526020820151602082015260018060a01b0360408301511660408201526060820151606082015260808201511515608082015260e0806111cf6111bd60a086015161010060a0870152610100860190611140565b60c086015185820360c0870152611140565b93015191015290565b51906001600160a01b038216820361048f57565b81601f8201121561048f578051611202816110ba565b926112106040519485611098565b8184526020828401011161048f5761122e916020808501910161111d565b90565b5190811515820361048f57565b8181029291811591840414171561125157565b634e487b7160e01b600052601160045260246000fd5b9190820391821161125157565b60ff60005460a01c1661128357565b63d93c066560e01b60005260046000fd5b6000546001600160a01b031633036112a857565b63118cdaa760e01b6000523360045260246000fdfea2646970667358221220de4b0ee727f0fd6f7fedfbc9134ab08027938699554e906ee56e86dcdd33b79664736f6c634300081c0033",
          "opcodes": "PUSH1 0x80 CALLVALUE PUSH2 0x206 JUMPI PUSH1 0x1F PUSH2 0x1529 CODESIZE DUP2 SWAP1 SUB SWAP2 DUP3 ADD PUSH1 0x1F NOT AND DUP4 ADD SWAP2 PUSH1 0x1 PUSH1 0x1 PUSH1 0x40 SHL SUB DUP4 GT DUP5 DUP5 LT OR PUSH2 0x20B JUMPI DUP1 DUP5 SWAP3 PUSH1 0x60 SWAP5 PUSH1 0x40 MSTORE DUP4 CODECOPY DUP2 ADD SUB SLT PUSH2 0x206 JUMPI PUSH2 0x47 DUP2 PUSH2 0x221 JUMP JUMPDEST SWAP1 PUSH2 0x60 PUSH1 0x40 PUSH2 0x59 PUSH1 0x20 DUP5 ADD PUSH2 0x221 JUMP JUMPDEST SWAP3 ADD PUSH2 0x221 JUMP JUMPDEST SWAP1 CALLER ISZERO PUSH2 0x1F0 JUMPI PUSH1 0x0 DUP1 SLOAD CALLER PUSH1 0x1 PUSH1 0x1 PUSH1 0xA0 SHL SUB NOT DUP3 AND DUP2 OR DUP4 SSTORE PUSH1 0x40 MLOAD SWAP6 SWAP3 SWAP1 SWAP2 PUSH1 0x1 PUSH1 0x1 PUSH1 0xA0 SHL SUB AND SWAP1 PUSH32 0x8BE0079C531659141344CD1FD0A4F28419497F9722A3DAAFE3B4186F6B6457E0 SWAP1 DUP1 LOG3 PUSH1 0x1 DUP1 SSTORE PUSH1 0x1 PUSH1 0x1 PUSH1 0xA0 SHL SUB AND SWAP3 DUP4 ISZERO PUSH2 0x1AE JUMPI POP PUSH1 0x1 PUSH1 0x1 PUSH1 0xA0 SHL SUB AND SWAP1 DUP2 ISZERO PUSH2 0x169 JUMPI PUSH1 0x1 PUSH1 0x1 PUSH1 0xA0 SHL SUB AND SWAP2 DUP3 ISZERO PUSH2 0x124 JUMPI PUSH1 0x1 DUP1 PUSH1 0xA0 SHL SUB NOT PUSH1 0x2 SLOAD AND OR PUSH1 0x2 SSTORE PUSH1 0x1 DUP1 PUSH1 0xA0 SHL SUB NOT PUSH1 0x3 SLOAD AND OR PUSH1 0x3 SSTORE PUSH1 0x1 DUP1 PUSH1 0xA0 SHL SUB NOT PUSH1 0x4 SLOAD AND OR PUSH1 0x4 SSTORE PUSH1 0x40 MLOAD PUSH2 0x12F3 SWAP1 DUP2 PUSH2 0x236 DUP3 CODECOPY RETURN JUMPDEST PUSH1 0x40 MLOAD PUSH3 0x461BCD PUSH1 0xE5 SHL DUP2 MSTORE PUSH1 0x20 PUSH1 0x4 DUP3 ADD MSTORE PUSH1 0x15 PUSH1 0x24 DUP3 ADD MSTORE PUSH32 0x496E76616C69642041646D696E20616464726573730000000000000000000000 PUSH1 0x44 DUP3 ADD MSTORE PUSH1 0x64 SWAP1 REVERT JUMPDEST PUSH1 0x40 MLOAD PUSH3 0x461BCD PUSH1 0xE5 SHL DUP2 MSTORE PUSH1 0x20 PUSH1 0x4 DUP3 ADD MSTORE PUSH1 0x17 PUSH1 0x24 DUP3 ADD MSTORE PUSH32 0x496E76616C69642053746F726167652061646472657373000000000000000000 PUSH1 0x44 DUP3 ADD MSTORE PUSH1 0x64 SWAP1 REVERT JUMPDEST PUSH3 0x461BCD PUSH1 0xE5 SHL DUP2 MSTORE PUSH1 0x20 PUSH1 0x4 DUP3 ADD MSTORE PUSH1 0x14 PUSH1 0x24 DUP3 ADD MSTORE PUSH32 0x496E76616C696420555344542061646472657373000000000000000000000000 PUSH1 0x44 DUP3 ADD MSTORE PUSH1 0x64 SWAP1 REVERT JUMPDEST PUSH4 0x1E4FBDF7 PUSH1 0xE0 SHL PUSH1 0x0 MSTORE PUSH1 0x0 PUSH1 0x4 MSTORE PUSH1 0x24 PUSH1 0x0 REVERT JUMPDEST PUSH1 0x0 DUP1 REVERT JUMPDEST PUSH4 0x4E487B71 PUSH1 0xE0 SHL PUSH1 0x0 MSTORE PUSH1 0x41 PUSH1 0x4 MSTORE PUSH1 0x24 PUSH1 0x0 REVERT JUMPDEST MLOAD SWAP1 PUSH1 0x1 PUSH1 0x1 PUSH1 0xA0 SHL SUB DUP3 AND DUP3 SUB PUSH2 0x206 JUMPI JUMP INVALID PUSH1 0x80 DUP1 PUSH1 0x40 MSTORE PUSH1 0x4 CALLDATASIZE LT ISZERO PUSH2 0x13 JUMPI PUSH1 0x0 DUP1 REVERT JUMPDEST PUSH1 0x0 SWAP1 DUP2 CALLDATALOAD PUSH1 0xE0 SHR SWAP1 DUP2 PUSH4 0x11CE0267 EQ PUSH2 0x1040 JUMPI POP DUP1 PUSH4 0x2F48AB7D EQ PUSH2 0x1017 JUMPI DUP1 PUSH4 0x30624709 EQ PUSH2 0x81D JUMPI DUP1 PUSH4 0x388D2C24 EQ PUSH2 0x790 JUMPI DUP1 PUSH4 0x3F4BA83A EQ PUSH2 0x64E JUMPI DUP1 PUSH4 0x402FF0DB EQ PUSH2 0x4CD JUMPI DUP1 PUSH4 0x5197F2D5 EQ PUSH2 0x4A8 JUMPI DUP1 PUSH4 0x52238FDD EQ PUSH2 0x3F3 JUMPI DUP1 PUSH4 0x5C975ABB EQ PUSH2 0x3CE JUMPI DUP1 PUSH4 0x715018A6 EQ PUSH2 0x374 JUMPI DUP1 PUSH4 0x75D60372 EQ PUSH2 0x2E8 JUMPI DUP1 PUSH4 0x8456CB59 EQ PUSH2 0x1A4 JUMPI DUP1 PUSH4 0x8DA5CB5B EQ PUSH2 0x17D JUMPI DUP1 PUSH4 0xC05C5E94 EQ PUSH2 0x154 JUMPI PUSH4 0xF2FDE38B EQ PUSH2 0xC6 JUMPI PUSH1 0x0 DUP1 REVERT JUMPDEST CALLVALUE PUSH2 0x151 JUMPI PUSH1 0x20 CALLDATASIZE PUSH1 0x3 NOT ADD SLT PUSH2 0x151 JUMPI PUSH1 0x4 CALLDATALOAD PUSH1 0x1 PUSH1 0x1 PUSH1 0xA0 SHL SUB DUP2 AND SWAP1 DUP2 SWAP1 SUB PUSH2 0x14F JUMPI PUSH2 0xF4 PUSH2 0x1294 JUMP JUMPDEST DUP1 ISZERO PUSH2 0x13B JUMPI DUP2 SLOAD PUSH1 0x1 PUSH1 0x1 PUSH1 0xA0 SHL SUB NOT DUP2 AND DUP3 OR DUP4 SSTORE PUSH1 0x1 PUSH1 0x1 PUSH1 0xA0 SHL SUB AND PUSH32 0x8BE0079C531659141344CD1FD0A4F28419497F9722A3DAAFE3B4186F6B6457E0 DUP4 DUP1 LOG3 DUP1 RETURN JUMPDEST PUSH4 0x1E4FBDF7 PUSH1 0xE0 SHL DUP3 MSTORE PUSH1 0x4 DUP3 SWAP1 MSTORE PUSH1 0x24 DUP3 REVERT JUMPDEST POP JUMPDEST DUP1 REVERT JUMPDEST POP CALLVALUE PUSH2 0x151 JUMPI DUP1 PUSH1 0x3 NOT CALLDATASIZE ADD SLT PUSH2 0x151 JUMPI PUSH1 0x4 SLOAD PUSH1 0x40 MLOAD PUSH1 0x1 PUSH1 0x1 PUSH1 0xA0 SHL SUB SWAP1 SWAP2 AND DUP2 MSTORE PUSH1 0x20 SWAP1 RETURN JUMPDEST POP CALLVALUE PUSH2 0x151 JUMPI DUP1 PUSH1 0x3 NOT CALLDATASIZE ADD SLT PUSH2 0x151 JUMPI SLOAD PUSH1 0x40 MLOAD PUSH1 0x1 PUSH1 0x1 PUSH1 0xA0 SHL SUB SWAP1 SWAP2 AND DUP2 MSTORE PUSH1 0x20 SWAP1 RETURN JUMPDEST POP CALLVALUE PUSH2 0x151 JUMPI DUP1 PUSH1 0x3 NOT CALLDATASIZE ADD SLT PUSH2 0x151 JUMPI DUP1 SLOAD CALLER PUSH1 0x1 PUSH1 0x1 PUSH1 0xA0 SHL SUB DUP3 AND EQ DUP1 ISZERO PUSH2 0x25A JUMPI JUMPDEST ISZERO PUSH2 0x215 JUMPI PUSH2 0x1D7 PUSH2 0x1274 JUMP JUMPDEST PUSH1 0xFF PUSH1 0xA0 SHL NOT AND PUSH1 0x1 PUSH1 0xA0 SHL OR DUP2 SSTORE PUSH1 0x40 MLOAD CALLER DUP2 MSTORE PUSH32 0x62E78CEA01BEE320CD4E420270B5EA74000D11B0C9F74754EBDBFC544B05A258 SWAP1 PUSH1 0x20 SWAP1 LOG1 DUP1 RETURN JUMPDEST PUSH1 0x40 MLOAD PUSH3 0x461BCD PUSH1 0xE5 SHL DUP2 MSTORE PUSH1 0x20 PUSH1 0x4 DUP3 ADD MSTORE PUSH1 0x17 PUSH1 0x24 DUP3 ADD MSTORE PUSH32 0x4E6F7420617574686F72697A656420746F207061757365000000000000000000 PUSH1 0x44 DUP3 ADD MSTORE PUSH1 0x64 SWAP1 REVERT JUMPDEST POP PUSH1 0x4 DUP1 SLOAD PUSH1 0x40 MLOAD PUSH4 0x8DA5CB5B PUSH1 0xE0 SHL DUP2 MSTORE SWAP2 PUSH1 0x20 SWAP2 DUP4 SWAP2 SWAP1 DUP3 SWAP1 PUSH1 0x1 PUSH1 0x1 PUSH1 0xA0 SHL SUB AND GAS STATICCALL SWAP1 DUP2 ISZERO PUSH2 0x2DD JUMPI DUP4 SWAP2 PUSH2 0x29F JUMPI JUMPDEST POP PUSH1 0x1 PUSH1 0x1 PUSH1 0xA0 SHL SUB AND CALLER EQ PUSH2 0x1CA JUMP JUMPDEST SWAP1 POP PUSH1 0x20 DUP2 RETURNDATASIZE PUSH1 0x20 GT PUSH2 0x2D5 JUMPI JUMPDEST DUP2 PUSH2 0x2BA PUSH1 0x20 SWAP4 DUP4 PUSH2 0x1098 JUMP JUMPDEST DUP2 ADD SUB SLT PUSH2 0x2D1 JUMPI PUSH2 0x2CB SWAP1 PUSH2 0x11D8 JUMP JUMPDEST CODESIZE PUSH2 0x28E JUMP JUMPDEST DUP3 DUP1 REVERT JUMPDEST RETURNDATASIZE SWAP2 POP PUSH2 0x2AD JUMP JUMPDEST PUSH1 0x40 MLOAD RETURNDATASIZE DUP6 DUP3 RETURNDATACOPY RETURNDATASIZE SWAP1 REVERT JUMPDEST POP CALLVALUE PUSH2 0x151 JUMPI PUSH1 0x20 CALLDATASIZE PUSH1 0x3 NOT ADD SLT PUSH2 0x151 JUMPI PUSH1 0x4 CALLDATALOAD PUSH1 0x1 PUSH1 0x1 PUSH1 0xA0 SHL SUB DUP2 AND SWAP1 DUP2 SWAP1 SUB PUSH2 0x14F JUMPI PUSH2 0x317 PUSH2 0x1294 JUMP JUMPDEST DUP1 ISZERO PUSH2 0x338 JUMPI PUSH12 0xFFFFFFFFFFFFFFFFFFFFFFFF PUSH1 0xA0 SHL PUSH1 0x2 SLOAD AND OR PUSH1 0x2 SSTORE DUP1 RETURN JUMPDEST PUSH1 0x40 MLOAD PUSH3 0x461BCD PUSH1 0xE5 SHL DUP2 MSTORE PUSH1 0x20 PUSH1 0x4 DUP3 ADD MSTORE PUSH1 0x14 PUSH1 0x24 DUP3 ADD MSTORE PUSH20 0x496E76616C696420555344542061646472657373 PUSH1 0x60 SHL PUSH1 0x44 DUP3 ADD MSTORE PUSH1 0x64 SWAP1 REVERT JUMPDEST POP CALLVALUE PUSH2 0x151 JUMPI DUP1 PUSH1 0x3 NOT CALLDATASIZE ADD SLT PUSH2 0x151 JUMPI PUSH2 0x38D PUSH2 0x1294 JUMP JUMPDEST DUP1 SLOAD PUSH1 0x1 PUSH1 0x1 PUSH1 0xA0 SHL SUB NOT DUP2 AND DUP3 SSTORE DUP2 SWAP1 PUSH1 0x1 PUSH1 0x1 PUSH1 0xA0 SHL SUB AND PUSH32 0x8BE0079C531659141344CD1FD0A4F28419497F9722A3DAAFE3B4186F6B6457E0 DUP3 DUP1 LOG3 DUP1 RETURN JUMPDEST POP CALLVALUE PUSH2 0x151 JUMPI DUP1 PUSH1 0x3 NOT CALLDATASIZE ADD SLT PUSH2 0x151 JUMPI PUSH1 0xFF PUSH1 0x20 SWAP2 SLOAD PUSH1 0xA0 SHR AND PUSH1 0x40 MLOAD SWAP1 ISZERO ISZERO DUP2 MSTORE RETURN JUMPDEST POP CALLVALUE PUSH2 0x151 JUMPI PUSH1 0x20 CALLDATASIZE PUSH1 0x3 NOT ADD SLT PUSH2 0x151 JUMPI PUSH1 0x4 DUP1 SLOAD PUSH1 0x40 MLOAD PUSH4 0x8C639A85 PUSH1 0xE0 SHL DUP2 MSTORE DUP3 CALLDATALOAD SWAP3 SWAP1 SWAP2 PUSH1 0x20 SWAP2 DUP4 SWAP2 DUP3 SWAP1 PUSH1 0x1 PUSH1 0x1 PUSH1 0xA0 SHL SUB AND GAS STATICCALL SWAP3 DUP4 ISZERO PUSH2 0x49C JUMPI SWAP3 PUSH2 0x461 JUMPI JUMPDEST POP PUSH2 0x454 PUSH1 0x64 PUSH2 0x44C PUSH1 0x40 SWAP5 DUP5 PUSH2 0x123E JUMP JUMPDEST DIV DUP1 SWAP3 PUSH2 0x1267 JUMP JUMPDEST SWAP1 DUP3 MLOAD SWAP2 DUP3 MSTORE PUSH1 0x20 DUP3 ADD MSTORE RETURN JUMPDEST SWAP2 POP PUSH1 0x20 DUP3 RETURNDATASIZE PUSH1 0x20 GT PUSH2 0x494 JUMPI JUMPDEST DUP2 PUSH2 0x47C PUSH1 0x20 SWAP4 DUP4 PUSH2 0x1098 JUMP JUMPDEST DUP2 ADD SUB SLT PUSH2 0x48F JUMPI SWAP1 MLOAD SWAP1 PUSH2 0x454 PUSH2 0x43A JUMP JUMPDEST PUSH1 0x0 DUP1 REVERT JUMPDEST RETURNDATASIZE SWAP2 POP PUSH2 0x46F JUMP JUMPDEST PUSH1 0x40 MLOAD SWAP1 RETURNDATASIZE SWAP1 DUP3 RETURNDATACOPY RETURNDATASIZE SWAP1 REVERT JUMPDEST POP CALLVALUE PUSH2 0x151 JUMPI DUP1 PUSH1 0x3 NOT CALLDATASIZE ADD SLT PUSH2 0x151 JUMPI PUSH1 0x20 PUSH1 0x40 MLOAD PUSH10 0x21E19E0C9BAB2400000 DUP2 MSTORE RETURN JUMPDEST POP CALLVALUE PUSH2 0x151 JUMPI PUSH1 0x20 CALLDATASIZE PUSH1 0x3 NOT ADD SLT PUSH2 0x151 JUMPI DUP1 PUSH1 0x24 SWAP2 PUSH1 0xE0 PUSH1 0x40 MLOAD PUSH2 0x4F1 DUP2 PUSH2 0x1065 JUMP JUMPDEST DUP3 DUP2 MSTORE DUP3 PUSH1 0x20 DUP3 ADD MSTORE DUP3 PUSH1 0x40 DUP3 ADD MSTORE DUP3 PUSH1 0x60 DUP3 ADD MSTORE DUP3 PUSH1 0x80 DUP3 ADD MSTORE PUSH1 0x60 PUSH1 0xA0 DUP3 ADD MSTORE PUSH1 0x60 PUSH1 0xC0 DUP3 ADD MSTORE ADD MSTORE DUP1 PUSH1 0x1 DUP1 PUSH1 0xA0 SHL SUB PUSH1 0x3 SLOAD AND PUSH1 0x40 MLOAD SWAP4 DUP5 DUP1 SWAP3 PUSH4 0x402FF0DB PUSH1 0xE0 SHL DUP3 MSTORE PUSH1 0x4 CALLDATALOAD PUSH1 0x4 DUP4 ADD MSTORE GAS STATICCALL SWAP1 DUP2 ISZERO PUSH2 0x49C JUMPI DUP1 SWAP2 PUSH2 0x56B JUMPI JUMPDEST PUSH1 0x40 MLOAD PUSH1 0x20 DUP1 DUP3 MSTORE DUP2 SWAP1 PUSH2 0x567 SWAP1 DUP3 ADD DUP6 PUSH2 0x1165 JUMP JUMPDEST SUB SWAP1 RETURN JUMPDEST SWAP1 POP RETURNDATASIZE DUP1 DUP3 DUP5 RETURNDATACOPY PUSH2 0x57C DUP2 DUP5 PUSH2 0x1098 JUMP JUMPDEST DUP3 ADD SWAP2 PUSH1 0x20 DUP2 DUP5 SUB SLT PUSH2 0x14F JUMPI DUP1 MLOAD SWAP1 PUSH8 0xFFFFFFFFFFFFFFFF DUP3 GT PUSH2 0x2D1 JUMPI ADD SWAP2 PUSH2 0x100 DUP4 DUP3 SUB SLT PUSH2 0x14F JUMPI PUSH1 0x40 MLOAD SWAP2 PUSH2 0x5B5 DUP4 PUSH2 0x1065 JUMP JUMPDEST DUP4 MLOAD DUP4 MSTORE PUSH1 0x20 DUP5 ADD MLOAD PUSH1 0x20 DUP5 ADD MSTORE PUSH2 0x5CF PUSH1 0x40 DUP6 ADD PUSH2 0x11D8 JUMP JUMPDEST PUSH1 0x40 DUP5 ADD MSTORE PUSH1 0x60 DUP5 ADD MLOAD PUSH1 0x60 DUP5 ADD MSTORE PUSH2 0x5EA PUSH1 0x80 DUP6 ADD PUSH2 0x1231 JUMP JUMPDEST PUSH1 0x80 DUP5 ADD MSTORE PUSH1 0xA0 DUP5 ADD MLOAD PUSH8 0xFFFFFFFFFFFFFFFF DUP2 GT PUSH2 0x14F JUMPI DUP3 PUSH2 0x60F SWAP2 DUP7 ADD PUSH2 0x11EC JUMP JUMPDEST PUSH1 0xA0 DUP5 ADD MSTORE PUSH1 0xC0 DUP5 ADD MLOAD SWAP1 PUSH8 0xFFFFFFFFFFFFFFFF DUP3 GT PUSH2 0x151 JUMPI POP SWAP3 PUSH2 0x63C PUSH1 0xE0 SWAP3 PUSH2 0x567 SWAP6 DUP4 ADD PUSH2 0x11EC JUMP JUMPDEST PUSH1 0xC0 DUP5 ADD MSTORE ADD MLOAD PUSH1 0xE0 DUP3 ADD MSTORE CODESIZE PUSH2 0x551 JUMP JUMPDEST POP CALLVALUE PUSH2 0x151 JUMPI DUP1 PUSH1 0x3 NOT CALLDATASIZE ADD SLT PUSH2 0x151 JUMPI DUP1 SLOAD CALLER PUSH1 0x1 PUSH1 0x1 PUSH1 0xA0 SHL SUB DUP3 AND EQ DUP1 ISZERO PUSH2 0x711 JUMPI JUMPDEST ISZERO PUSH2 0x6CC JUMPI PUSH1 0xFF DUP2 PUSH1 0xA0 SHR AND ISZERO PUSH2 0x6BD JUMPI PUSH1 0xFF PUSH1 0xA0 SHL NOT AND DUP2 SSTORE PUSH1 0x40 MLOAD CALLER DUP2 MSTORE PUSH32 0x5DB9EE0A495BF2E6FF9C91A7834C1BA4FDD244A5E8AA4E537BD38AEAE4B073AA SWAP1 PUSH1 0x20 SWAP1 LOG1 DUP1 RETURN JUMPDEST PUSH4 0x8DFC202B PUSH1 0xE0 SHL DUP3 MSTORE PUSH1 0x4 DUP3 REVERT JUMPDEST PUSH1 0x40 MLOAD PUSH3 0x461BCD PUSH1 0xE5 SHL DUP2 MSTORE PUSH1 0x20 PUSH1 0x4 DUP3 ADD MSTORE PUSH1 0x19 PUSH1 0x24 DUP3 ADD MSTORE PUSH32 0x4E6F7420617574686F72697A656420746F20756E706175736500000000000000 PUSH1 0x44 DUP3 ADD MSTORE PUSH1 0x64 SWAP1 REVERT JUMPDEST POP PUSH1 0x4 DUP1 SLOAD PUSH1 0x40 MLOAD PUSH4 0x8DA5CB5B PUSH1 0xE0 SHL DUP2 MSTORE SWAP2 PUSH1 0x20 SWAP2 DUP4 SWAP2 SWAP1 DUP3 SWAP1 PUSH1 0x1 PUSH1 0x1 PUSH1 0xA0 SHL SUB AND GAS STATICCALL SWAP1 DUP2 ISZERO PUSH2 0x2DD JUMPI DUP4 SWAP2 PUSH2 0x756 JUMPI JUMPDEST POP PUSH1 0x1 PUSH1 0x1 PUSH1 0xA0 SHL SUB AND CALLER EQ PUSH2 0x674 JUMP JUMPDEST SWAP1 POP PUSH1 0x20 DUP2 RETURNDATASIZE PUSH1 0x20 GT PUSH2 0x788 JUMPI JUMPDEST DUP2 PUSH2 0x771 PUSH1 0x20 SWAP4 DUP4 PUSH2 0x1098 JUMP JUMPDEST DUP2 ADD SUB SLT PUSH2 0x2D1 JUMPI PUSH2 0x782 SWAP1 PUSH2 0x11D8 JUMP JUMPDEST CODESIZE PUSH2 0x745 JUMP JUMPDEST RETURNDATASIZE SWAP2 POP PUSH2 0x764 JUMP JUMPDEST POP CALLVALUE PUSH2 0x151 JUMPI PUSH1 0x20 CALLDATASIZE PUSH1 0x3 NOT ADD SLT PUSH2 0x151 JUMPI PUSH1 0x4 CALLDATALOAD PUSH1 0x1 PUSH1 0x1 PUSH1 0xA0 SHL SUB DUP2 AND SWAP1 DUP2 SWAP1 SUB PUSH2 0x14F JUMPI PUSH2 0x7BF PUSH2 0x1294 JUMP JUMPDEST DUP1 ISZERO PUSH2 0x7E0 JUMPI PUSH12 0xFFFFFFFFFFFFFFFFFFFFFFFF PUSH1 0xA0 SHL PUSH1 0x4 SLOAD AND OR PUSH1 0x4 SSTORE DUP1 RETURN JUMPDEST PUSH1 0x40 MLOAD PUSH3 0x461BCD PUSH1 0xE5 SHL DUP2 MSTORE PUSH1 0x20 PUSH1 0x4 DUP3 ADD MSTORE PUSH1 0x15 PUSH1 0x24 DUP3 ADD MSTORE PUSH21 0x496E76616C69642061646D696E2061646472657373 PUSH1 0x58 SHL PUSH1 0x44 DUP3 ADD MSTORE PUSH1 0x64 SWAP1 REVERT JUMPDEST POP CALLVALUE PUSH2 0x151 JUMPI PUSH1 0x80 CALLDATASIZE PUSH1 0x3 NOT ADD SLT PUSH2 0x151 JUMPI PUSH1 0x24 CALLDATALOAD PUSH1 0x4 CALLDATALOAD PUSH1 0x44 CALLDATALOAD PUSH8 0xFFFFFFFFFFFFFFFF DUP2 GT PUSH2 0x1013 JUMPI PUSH2 0x855 SWAP1 CALLDATASIZE SWAP1 PUSH1 0x4 ADD PUSH2 0x10D6 JUMP JUMPDEST PUSH1 0x64 CALLDATALOAD PUSH8 0xFFFFFFFFFFFFFFFF DUP2 GT PUSH2 0x100F JUMPI PUSH2 0x875 SWAP1 CALLDATASIZE SWAP1 PUSH1 0x4 ADD PUSH2 0x10D6 JUMP JUMPDEST SWAP1 PUSH2 0x87E PUSH2 0x1274 JUMP JUMPDEST PUSH1 0x2 PUSH1 0x1 SLOAD EQ PUSH2 0x1000 JUMPI PUSH1 0x2 PUSH1 0x1 SSTORE DUP4 ISZERO ISZERO DUP1 PUSH2 0xFEC JUMPI JUMPDEST ISZERO PUSH2 0xFAE JUMPI PUSH1 0x3 SLOAD PUSH1 0x40 MLOAD PUSH4 0x95EA5717 PUSH1 0xE0 SHL DUP2 MSTORE PUSH1 0x4 DUP2 ADD DUP6 SWAP1 MSTORE PUSH1 0x1 PUSH1 0x1 PUSH1 0xA0 SHL SUB SWAP1 SWAP2 AND SWAP2 SWAP1 DUP7 DUP2 PUSH1 0x24 DUP2 DUP7 GAS STATICCALL SWAP1 DUP2 ISZERO PUSH2 0xFA3 JUMPI DUP8 SWAP2 PUSH2 0xEC3 JUMPI JUMPDEST POP PUSH1 0x80 DUP2 ADD MLOAD ISZERO PUSH2 0xE86 JUMPI PUSH1 0x40 DUP2 ADD MLOAD DUP7 LT PUSH2 0xE48 JUMPI PUSH1 0x1 DUP1 PUSH1 0xA0 SHL SUB PUSH1 0x4 SLOAD AND SWAP4 PUSH1 0x40 MLOAD SWAP4 PUSH4 0x8C639A85 PUSH1 0xE0 SHL DUP6 MSTORE PUSH1 0x20 DUP6 PUSH1 0x4 DUP2 DUP10 GAS STATICCALL SWAP5 DUP6 ISZERO PUSH2 0xE08 JUMPI DUP10 SWAP6 PUSH2 0xE13 JUMPI JUMPDEST POP PUSH1 0x20 PUSH1 0x4 SWAP6 SWAP7 PUSH1 0x40 MLOAD SWAP7 DUP8 DUP1 SWAP3 PUSH4 0xC5F956AF PUSH1 0xE0 SHL DUP3 MSTORE GAS STATICCALL SWAP5 DUP6 ISZERO PUSH2 0xE08 JUMPI DUP10 SWAP6 PUSH2 0xDC8 JUMPI JUMPDEST POP PUSH1 0x1 PUSH1 0x1 PUSH1 0xA0 SHL SUB DUP6 AND ISZERO PUSH2 0xD83 JUMPI PUSH1 0x14 DUP7 GT PUSH2 0xD46 JUMPI PUSH1 0x64 PUSH2 0x969 DUP11 SWAP8 DUP11 PUSH2 0x123E JUMP JUMPDEST DIV SWAP5 PUSH1 0x20 PUSH2 0x977 DUP8 DUP12 PUSH2 0x1267 JUMP JUMPDEST SWAP3 PUSH1 0x4 PUSH1 0x40 MLOAD DUP1 SWAP11 DUP2 SWAP4 PUSH4 0xCC507641 PUSH1 0xE0 SHL DUP4 MSTORE GAS CALL SWAP7 DUP8 ISZERO PUSH2 0xC62 JUMPI DUP11 SWAP8 PUSH2 0xD12 JUMPI JUMPDEST POP PUSH1 0x1 DUP1 PUSH1 0xA0 SHL SUB PUSH1 0x3 SLOAD AND DUP11 PUSH1 0x40 MLOAD PUSH2 0x9B4 DUP2 PUSH2 0x1065 JUMP JUMPDEST DUP10 DUP2 MSTORE DUP11 PUSH1 0x20 DUP3 ADD MSTORE CALLER PUSH1 0x40 DUP3 ADD MSTORE DUP12 PUSH1 0x60 DUP3 ADD MSTORE PUSH1 0x1 PUSH1 0x80 DUP3 ADD MSTORE DUP8 PUSH1 0xA0 DUP3 ADD MSTORE DUP6 PUSH1 0xC0 DUP3 ADD MSTORE TIMESTAMP PUSH1 0xE0 DUP3 ADD MSTORE DUP3 EXTCODESIZE ISZERO PUSH2 0x14F JUMPI PUSH2 0xA18 SWAP3 DUP11 DUP4 PUSH1 0x40 MLOAD DUP1 SWAP7 DUP2 SWAP6 DUP3 SWAP5 PUSH4 0x1DCD400B PUSH1 0xE1 SHL DUP5 MSTORE PUSH1 0x4 DUP5 ADD MSTORE PUSH1 0x40 PUSH1 0x24 DUP5 ADD MSTORE PUSH1 0x44 DUP4 ADD SWAP1 PUSH2 0x1165 JUMP JUMPDEST SUB SWAP3 GAS CALL DUP1 ISZERO PUSH2 0xD07 JUMPI PUSH2 0xCEC JUMPI JUMPDEST POP PUSH1 0x2 SLOAD PUSH1 0x40 MLOAD PUSH4 0x23B872DD PUSH1 0xE0 SHL DUP2 MSTORE CALLER PUSH1 0x4 DUP3 ADD MSTORE PUSH1 0x1 PUSH1 0x1 PUSH1 0xA0 SHL SUB SWAP3 DUP4 AND PUSH1 0x24 DUP3 ADD MSTORE PUSH1 0x44 DUP2 ADD DUP9 SWAP1 MSTORE SWAP2 PUSH1 0x20 SWAP2 DUP4 SWAP2 AND DUP2 DUP14 DUP2 PUSH1 0x64 DUP2 ADD JUMPDEST SUB SWAP3 GAS CALL SWAP1 DUP2 ISZERO PUSH2 0xC62 JUMPI DUP11 SWAP2 PUSH2 0xCB2 JUMPI JUMPDEST POP ISZERO PUSH2 0xC6D JUMPI PUSH1 0x2 SLOAD PUSH1 0x20 SWAP4 DUP5 ADD DUP1 MLOAD PUSH1 0x40 MLOAD PUSH4 0x23B872DD PUSH1 0xE0 SHL DUP2 MSTORE CALLER PUSH1 0x4 DUP3 ADD MSTORE PUSH1 0x1 PUSH1 0x1 PUSH1 0xA0 SHL SUB SWAP2 DUP3 AND PUSH1 0x24 DUP3 ADD MSTORE PUSH1 0x44 DUP2 ADD DUP6 SWAP1 MSTORE SWAP2 SWAP6 SWAP2 SWAP3 DUP4 SWAP2 PUSH1 0x64 SWAP2 DUP4 SWAP2 DUP16 SWAP2 AND GAS CALL SWAP1 DUP2 ISZERO PUSH2 0xC62 JUMPI DUP11 SWAP2 PUSH2 0xC24 JUMPI JUMPDEST POP ISZERO PUSH2 0xBDF JUMPI PUSH1 0x3 SLOAD SWAP3 MLOAD PUSH1 0x1 PUSH1 0x1 PUSH1 0xA0 SHL SUB SWAP4 DUP5 AND SWAP4 DUP11 SWAP3 SWAP2 AND DUP5 EXTCODESIZE ISZERO PUSH2 0x2D1 JUMPI PUSH1 0x44 SWAP1 DUP4 PUSH1 0x40 MLOAD SWAP7 DUP8 SWAP5 DUP6 SWAP4 PUSH4 0x70E3D455 PUSH1 0xE1 SHL DUP6 MSTORE PUSH1 0x4 DUP6 ADD MSTORE PUSH1 0x24 DUP5 ADD MSTORE GAS CALL SWAP1 DUP9 DUP3 ISZERO PUSH2 0x49C JUMPI DUP8 SWAP4 DUP8 SWAP4 PUSH2 0xBBF JUMPI JUMPDEST POP POP PUSH2 0xB7A PUSH32 0x4CF76F1607429A1BA564F99E3071202CEDECEDCED41885ABC9D7FAF015984157 SWAP2 PUSH2 0xB6C PUSH1 0x40 MLOAD SWAP7 DUP12 DUP9 MSTORE PUSH1 0x1 PUSH1 0x20 DUP10 ADD MSTORE PUSH1 0xA0 PUSH1 0x40 DUP10 ADD MSTORE PUSH1 0xA0 DUP9 ADD SWAP1 PUSH2 0x1140 JUMP JUMPDEST SWAP1 DUP7 DUP3 SUB PUSH1 0x60 DUP9 ADD MSTORE PUSH2 0x1140 JUMP JUMPDEST SWAP4 TIMESTAMP PUSH1 0x80 DUP3 ADD MSTORE DUP1 CALLER SWAP6 SUB SWAP1 LOG4 PUSH1 0x40 MLOAD SWAP4 DUP5 MSTORE PUSH1 0x20 DUP5 ADD MSTORE PUSH32 0x5CD7214F6A35088A9D01C8364579EF0EFBF9EAB3A80310601FBAEF534BBB69AF PUSH1 0x40 CALLER SWAP5 LOG4 PUSH1 0x1 DUP1 SSTORE DUP1 RETURN JUMPDEST PUSH2 0xBCD SWAP3 SWAP5 POP DUP2 SWAP4 POP PUSH2 0x1098 JUMP JUMPDEST PUSH2 0xBDB JUMPI DUP4 DUP6 SWAP2 DUP9 CODESIZE PUSH2 0xB23 JUMP JUMPDEST DUP7 DUP1 REVERT JUMPDEST PUSH1 0x40 MLOAD PUSH3 0x461BCD PUSH1 0xE5 SHL DUP2 MSTORE PUSH1 0x20 PUSH1 0x4 DUP3 ADD MSTORE PUSH1 0x1C PUSH1 0x24 DUP3 ADD MSTORE PUSH32 0x486F7374207061796D656E74207472616E73666572206661696C656400000000 PUSH1 0x44 DUP3 ADD MSTORE PUSH1 0x64 SWAP1 REVERT JUMPDEST SWAP1 POP PUSH1 0x20 DUP2 RETURNDATASIZE PUSH1 0x20 GT PUSH2 0xC5A JUMPI JUMPDEST DUP2 PUSH2 0xC3F PUSH1 0x20 SWAP4 DUP4 PUSH2 0x1098 JUMP JUMPDEST DUP2 ADD SUB SLT PUSH2 0xC56 JUMPI PUSH2 0xC50 SWAP1 PUSH2 0x1231 JUMP JUMPDEST CODESIZE PUSH2 0xACE JUMP JUMPDEST DUP10 DUP1 REVERT JUMPDEST RETURNDATASIZE SWAP2 POP PUSH2 0xC32 JUMP JUMPDEST PUSH1 0x40 MLOAD RETURNDATASIZE DUP13 DUP3 RETURNDATACOPY RETURNDATASIZE SWAP1 REVERT JUMPDEST PUSH1 0x40 MLOAD PUSH3 0x461BCD PUSH1 0xE5 SHL DUP2 MSTORE PUSH1 0x20 PUSH1 0x4 DUP3 ADD MSTORE PUSH1 0x1C PUSH1 0x24 DUP3 ADD MSTORE PUSH32 0x506C6174666F726D20666565207472616E73666572206661696C656400000000 PUSH1 0x44 DUP3 ADD MSTORE PUSH1 0x64 SWAP1 REVERT JUMPDEST SWAP1 POP PUSH1 0x20 DUP2 RETURNDATASIZE PUSH1 0x20 GT PUSH2 0xCE4 JUMPI JUMPDEST DUP2 PUSH2 0xCCD PUSH1 0x20 SWAP4 DUP4 PUSH2 0x1098 JUMP JUMPDEST DUP2 ADD SUB SLT PUSH2 0xC56 JUMPI PUSH2 0xCDE SWAP1 PUSH2 0x1231 JUMP JUMPDEST CODESIZE PUSH2 0xA76 JUMP JUMPDEST RETURNDATASIZE SWAP2 POP PUSH2 0xCC0 JUMP JUMPDEST DUP7 DUP12 PUSH2 0xCFE PUSH2 0xA64 SWAP5 SWAP14 PUSH1 0x20 SWAP5 PUSH2 0x1098 JUMP JUMPDEST SWAP12 SWAP3 POP POP PUSH2 0xA27 JUMP JUMPDEST PUSH1 0x40 MLOAD RETURNDATASIZE DUP14 DUP3 RETURNDATACOPY RETURNDATASIZE SWAP1 REVERT JUMPDEST SWAP1 SWAP7 POP PUSH1 0x20 DUP2 RETURNDATASIZE PUSH1 0x20 GT PUSH2 0xD3E JUMPI JUMPDEST DUP2 PUSH2 0xD2E PUSH1 0x20 SWAP4 DUP4 PUSH2 0x1098 JUMP JUMPDEST DUP2 ADD SUB SLT PUSH2 0xC56 JUMPI MLOAD SWAP6 CODESIZE PUSH2 0x99B JUMP JUMPDEST RETURNDATASIZE SWAP2 POP PUSH2 0xD21 JUMP JUMPDEST PUSH1 0x40 MLOAD PUSH3 0x461BCD PUSH1 0xE5 SHL DUP2 MSTORE PUSH1 0x20 PUSH1 0x4 DUP3 ADD MSTORE PUSH1 0x15 PUSH1 0x24 DUP3 ADD MSTORE PUSH21 0xA0D8C2E8CCDEE4DA40CCCACA40E8DEDE40D0D2CED PUSH1 0x5B SHL PUSH1 0x44 DUP3 ADD MSTORE PUSH1 0x64 SWAP1 REVERT JUMPDEST PUSH1 0x40 MLOAD PUSH3 0x461BCD PUSH1 0xE5 SHL DUP2 MSTORE PUSH1 0x20 PUSH1 0x4 DUP3 ADD MSTORE PUSH1 0x18 PUSH1 0x24 DUP3 ADD MSTORE PUSH32 0x496E76616C696420747265617375727920616464726573730000000000000000 PUSH1 0x44 DUP3 ADD MSTORE PUSH1 0x64 SWAP1 REVERT JUMPDEST SWAP1 SWAP5 POP PUSH1 0x20 DUP2 RETURNDATASIZE PUSH1 0x20 GT PUSH2 0xE00 JUMPI JUMPDEST DUP2 PUSH2 0xDE4 PUSH1 0x20 SWAP4 DUP4 PUSH2 0x1098 JUMP JUMPDEST DUP2 ADD SUB SLT PUSH2 0xDFC JUMPI PUSH2 0xDF5 SWAP1 PUSH2 0x11D8 JUMP JUMPDEST SWAP4 CODESIZE PUSH2 0x944 JUMP JUMPDEST DUP9 DUP1 REVERT JUMPDEST RETURNDATASIZE SWAP2 POP PUSH2 0xDD7 JUMP JUMPDEST PUSH1 0x40 MLOAD RETURNDATASIZE DUP12 DUP3 RETURNDATACOPY RETURNDATASIZE SWAP1 REVERT JUMPDEST SWAP5 POP PUSH1 0x20 DUP6 RETURNDATASIZE PUSH1 0x20 GT PUSH2 0xE40 JUMPI JUMPDEST DUP2 PUSH2 0xE2E PUSH1 0x20 SWAP4 DUP4 PUSH2 0x1098 JUMP JUMPDEST DUP2 ADD SUB SLT PUSH2 0xDFC JUMPI SWAP4 MLOAD SWAP4 PUSH1 0x20 PUSH2 0x91C JUMP JUMPDEST RETURNDATASIZE SWAP2 POP PUSH2 0xE21 JUMP JUMPDEST PUSH1 0x40 MLOAD PUSH3 0x461BCD PUSH1 0xE5 SHL DUP2 MSTORE PUSH1 0x20 PUSH1 0x4 DUP3 ADD MSTORE PUSH1 0x16 PUSH1 0x24 DUP3 ADD MSTORE PUSH22 0x5061796D656E7420616D6F756E7420746F6F206C6F77 PUSH1 0x50 SHL PUSH1 0x44 DUP3 ADD MSTORE PUSH1 0x64 SWAP1 REVERT JUMPDEST PUSH1 0x40 MLOAD PUSH3 0x461BCD PUSH1 0xE5 SHL DUP2 MSTORE PUSH1 0x20 PUSH1 0x4 DUP3 ADD MSTORE PUSH1 0x15 PUSH1 0x24 DUP3 ADD MSTORE PUSH21 0x4E6574776F726B206973206E6F7420616374697665 PUSH1 0x58 SHL PUSH1 0x44 DUP3 ADD MSTORE PUSH1 0x64 SWAP1 REVERT JUMPDEST SWAP1 POP RETURNDATASIZE DUP1 DUP9 DUP4 RETURNDATACOPY PUSH2 0xED4 DUP2 DUP4 PUSH2 0x1098 JUMP JUMPDEST DUP2 ADD SWAP1 PUSH1 0x20 DUP2 DUP4 SUB SLT PUSH2 0xF9F JUMPI DUP1 MLOAD SWAP1 PUSH8 0xFFFFFFFFFFFFFFFF DUP3 GT PUSH2 0xDFC JUMPI ADD SWAP1 PUSH1 0xE0 DUP3 DUP3 SUB SLT PUSH2 0xF9F JUMPI PUSH1 0x40 MLOAD SWAP2 PUSH1 0xE0 DUP4 ADD DUP4 DUP2 LT PUSH8 0xFFFFFFFFFFFFFFFF DUP3 GT OR PUSH2 0xF8B JUMPI PUSH1 0x40 MSTORE DUP1 MLOAD DUP4 MSTORE PUSH2 0xF2D PUSH1 0x20 DUP3 ADD PUSH2 0x11D8 JUMP JUMPDEST PUSH1 0x20 DUP5 ADD MSTORE PUSH1 0x40 DUP2 ADD MLOAD PUSH1 0x40 DUP5 ADD MSTORE PUSH1 0x60 DUP2 ADD MLOAD PUSH8 0xFFFFFFFFFFFFFFFF DUP2 GT PUSH2 0xC56 JUMPI PUSH1 0xC0 SWAP3 PUSH2 0xF5E SWAP2 DUP4 ADD PUSH2 0x11EC JUMP JUMPDEST PUSH1 0x60 DUP5 ADD MSTORE PUSH2 0xF6F PUSH1 0x80 DUP3 ADD PUSH2 0x1231 JUMP JUMPDEST PUSH1 0x80 DUP5 ADD MSTORE PUSH1 0xA0 DUP2 ADD MLOAD PUSH1 0xA0 DUP5 ADD MSTORE ADD MLOAD PUSH1 0xC0 DUP3 ADD MSTORE CODESIZE PUSH2 0x8D5 JUMP JUMPDEST PUSH4 0x4E487B71 PUSH1 0xE0 SHL DUP11 MSTORE PUSH1 0x41 PUSH1 0x4 MSTORE PUSH1 0x24 DUP11 REVERT JUMPDEST DUP8 DUP1 REVERT JUMPDEST PUSH1 0x40 MLOAD RETURNDATASIZE DUP10 DUP3 RETURNDATACOPY RETURNDATASIZE SWAP1 REVERT JUMPDEST PUSH1 0x40 MLOAD PUSH3 0x461BCD PUSH1 0xE5 SHL DUP2 MSTORE PUSH1 0x20 PUSH1 0x4 DUP3 ADD MSTORE PUSH1 0x16 PUSH1 0x24 DUP3 ADD MSTORE PUSH22 0x125B9D985B1A59081C185E5B595B9D08185B5BDD5B9D PUSH1 0x52 SHL PUSH1 0x44 DUP3 ADD MSTORE PUSH1 0x64 SWAP1 REVERT JUMPDEST POP PUSH10 0x21E19E0C9BAB2400000 DUP5 GT ISZERO PUSH2 0x896 JUMP JUMPDEST PUSH4 0x3EE5AEB5 PUSH1 0xE0 SHL DUP6 MSTORE PUSH1 0x4 DUP6 REVERT JUMPDEST DUP5 DUP1 REVERT JUMPDEST DUP4 DUP1 REVERT JUMPDEST POP CALLVALUE PUSH2 0x151 JUMPI DUP1 PUSH1 0x3 NOT CALLDATASIZE ADD SLT PUSH2 0x151 JUMPI PUSH1 0x2 SLOAD PUSH1 0x40 MLOAD PUSH1 0x1 PUSH1 0x1 PUSH1 0xA0 SHL SUB SWAP1 SWAP2 AND DUP2 MSTORE PUSH1 0x20 SWAP1 RETURN JUMPDEST SWAP1 POP CALLVALUE PUSH2 0x14F JUMPI DUP2 PUSH1 0x3 NOT CALLDATASIZE ADD SLT PUSH2 0x14F JUMPI PUSH1 0x3 SLOAD PUSH1 0x1 PUSH1 0x1 PUSH1 0xA0 SHL SUB AND DUP2 MSTORE PUSH1 0x20 SWAP1 RETURN JUMPDEST PUSH2 0x100 DUP2 ADD SWAP1 DUP2 LT PUSH8 0xFFFFFFFFFFFFFFFF DUP3 GT OR PUSH2 0x1082 JUMPI PUSH1 0x40 MSTORE JUMP JUMPDEST PUSH4 0x4E487B71 PUSH1 0xE0 SHL PUSH1 0x0 MSTORE PUSH1 0x41 PUSH1 0x4 MSTORE PUSH1 0x24 PUSH1 0x0 REVERT JUMPDEST SWAP1 PUSH1 0x1F DUP1 NOT SWAP2 ADD AND DUP2 ADD SWAP1 DUP2 LT PUSH8 0xFFFFFFFFFFFFFFFF DUP3 GT OR PUSH2 0x1082 JUMPI PUSH1 0x40 MSTORE JUMP JUMPDEST PUSH8 0xFFFFFFFFFFFFFFFF DUP2 GT PUSH2 0x1082 JUMPI PUSH1 0x1F ADD PUSH1 0x1F NOT AND PUSH1 0x20 ADD SWAP1 JUMP JUMPDEST DUP2 PUSH1 0x1F DUP3 ADD SLT ISZERO PUSH2 0x48F JUMPI DUP1 CALLDATALOAD SWAP1 PUSH2 0x10ED DUP3 PUSH2 0x10BA JUMP JUMPDEST SWAP3 PUSH2 0x10FB PUSH1 0x40 MLOAD SWAP5 DUP6 PUSH2 0x1098 JUMP JUMPDEST DUP3 DUP5 MSTORE PUSH1 0x20 DUP4 DUP4 ADD ADD GT PUSH2 0x48F JUMPI DUP2 PUSH1 0x0 SWAP3 PUSH1 0x20 DUP1 SWAP4 ADD DUP4 DUP7 ADD CALLDATACOPY DUP4 ADD ADD MSTORE SWAP1 JUMP JUMPDEST PUSH1 0x0 JUMPDEST DUP4 DUP2 LT PUSH2 0x1130 JUMPI POP POP PUSH1 0x0 SWAP2 ADD MSTORE JUMP JUMPDEST DUP2 DUP2 ADD MLOAD DUP4 DUP3 ADD MSTORE PUSH1 0x20 ADD PUSH2 0x1120 JUMP JUMPDEST SWAP1 PUSH1 0x20 SWAP2 PUSH2 0x1159 DUP2 MLOAD DUP1 SWAP3 DUP2 DUP6 MSTORE DUP6 DUP1 DUP7 ADD SWAP2 ADD PUSH2 0x111D JUMP JUMPDEST PUSH1 0x1F ADD PUSH1 0x1F NOT AND ADD ADD SWAP1 JUMP JUMPDEST SWAP1 DUP2 MLOAD DUP2 MSTORE PUSH1 0x20 DUP3 ADD MLOAD PUSH1 0x20 DUP3 ADD MSTORE PUSH1 0x1 DUP1 PUSH1 0xA0 SHL SUB PUSH1 0x40 DUP4 ADD MLOAD AND PUSH1 0x40 DUP3 ADD MSTORE PUSH1 0x60 DUP3 ADD MLOAD PUSH1 0x60 DUP3 ADD MSTORE PUSH1 0x80 DUP3 ADD MLOAD ISZERO ISZERO PUSH1 0x80 DUP3 ADD MSTORE PUSH1 0xE0 DUP1 PUSH2 0x11CF PUSH2 0x11BD PUSH1 0xA0 DUP7 ADD MLOAD PUSH2 0x100 PUSH1 0xA0 DUP8 ADD MSTORE PUSH2 0x100 DUP7 ADD SWAP1 PUSH2 0x1140 JUMP JUMPDEST PUSH1 0xC0 DUP7 ADD MLOAD DUP6 DUP3 SUB PUSH1 0xC0 DUP8 ADD MSTORE PUSH2 0x1140 JUMP JUMPDEST SWAP4 ADD MLOAD SWAP2 ADD MSTORE SWAP1 JUMP JUMPDEST MLOAD SWAP1 PUSH1 0x1 PUSH1 0x1 PUSH1 0xA0 SHL SUB DUP3 AND DUP3 SUB PUSH2 0x48F JUMPI JUMP JUMPDEST DUP2 PUSH1 0x1F DUP3 ADD SLT ISZERO PUSH2 0x48F JUMPI DUP1 MLOAD PUSH2 0x1202 DUP2 PUSH2 0x10BA JUMP JUMPDEST SWAP3 PUSH2 0x1210 PUSH1 0x40 MLOAD SWAP5 DUP6 PUSH2 0x1098 JUMP JUMPDEST DUP2 DUP5 MSTORE PUSH1 0x20 DUP3 DUP5 ADD ADD GT PUSH2 0x48F JUMPI PUSH2 0x122E SWAP2 PUSH1 0x20 DUP1 DUP6 ADD SWAP2 ADD PUSH2 0x111D JUMP JUMPDEST SWAP1 JUMP JUMPDEST MLOAD SWAP1 DUP2 ISZERO ISZERO DUP3 SUB PUSH2 0x48F JUMPI JUMP JUMPDEST DUP2 DUP2 MUL SWAP3 SWAP2 DUP2 ISZERO SWAP2 DUP5 DIV EQ OR ISZERO PUSH2 0x1251 JUMPI JUMP JUMPDEST PUSH4 0x4E487B71 PUSH1 0xE0 SHL PUSH1 0x0 MSTORE PUSH1 0x11 PUSH1 0x4 MSTORE PUSH1 0x24 PUSH1 0x0 REVERT JUMPDEST SWAP2 SWAP1 DUP3 SUB SWAP2 DUP3 GT PUSH2 0x1251 JUMPI JUMP JUMPDEST PUSH1 0xFF PUSH1 0x0 SLOAD PUSH1 0xA0 SHR AND PUSH2 0x1283 JUMPI JUMP JUMPDEST PUSH4 0xD93C0665 PUSH1 0xE0 SHL PUSH1 0x0 MSTORE PUSH1 0x4 PUSH1 0x0 REVERT JUMPDEST PUSH1 0x0 SLOAD PUSH1 0x1 PUSH1 0x1 PUSH1 0xA0 SHL SUB AND CALLER SUB PUSH2 0x12A8 JUMPI JUMP JUMPDEST PUSH4 0x118CDAA7 PUSH1 0xE0 SHL PUSH1 0x0 MSTORE CALLER PUSH1 0x4 MSTORE PUSH1 0x24 PUSH1 0x0 REVERT INVALID LOG2 PUSH5 0x6970667358 0x22 SLT KECCAK256 0xDE 0x4B 0xE 0xE7 0x27 CREATE REVERT PUSH16 0x7FEDFBC9134AB08027938699554E906E 0xE5 PUSH15 0x86DCDD33B79664736F6C634300081C STOP CALLER "
        },
        "methodIdentifiers": {
          "MAX_PAYMENT_AMOUNT()": "5197f2d5",
          "acceptPayment(uint256,uint256,string,string)": "30624709",
          "adminContract()": "c05c5e94",
          "calculateFees(uint256)": "52238fdd",
          "getSession(uint256)": "402ff0db",
          "owner()": "8da5cb5b",
          "pause()": "8456cb59",
          "paused()": "5c975abb",
          "renounceOwnership()": "715018a6",
          "storageContract()": "11ce0267",
          "transferOwnership(address)": "f2fde38b",
          "unpause()": "3f4ba83a",
          "updateAdminContract(address)": "388d2c24",
          "updateUSDTAddress(address)": "75d60372",
          "usdt()": "2f48ab7d"
        }
      }
    }
  }
}