{
  "_format": "hh-sol-artifact-1",
  "contractName": "ZaaNetAdmin",
  "sourceName": "contracts/ZaaNetAdmin.sol",
  "abi": [
    {
      "inputs": [
        {
          "internalType": "address",
          "name": "_storageContract",
          "type": "address"
        },
        {
          "internalType": "address",
          "name": "_treasuryAddress",
          "type": "address"
        },
        {
          "internalType": "uint256",
          "name": "_platformFeePercent",
          "type": "uint256"
        }
      ],
      "stateMutability": "nonpayable",
      "type": "constructor"
    },
    {
      "inputs": [],
      "name": "EnforcedPause",
      "type": "error"
    },
    {
      "inputs": [],
      "name": "ExpectedPause",
      "type": "error"
    },
    {
      "inputs": [
        {
          "internalType": "address",
          "name": "owner",
          "type": "address"
        }
      ],
      "name": "OwnableInvalidOwner",
      "type": "error"
    },
    {
      "inputs": [
        {
          "internalType": "address",
          "name": "account",
          "type": "address"
        }
      ],
      "name": "OwnableUnauthorizedAccount",
      "type": "error"
    },
    {
      "inputs": [],
      "name": "ReentrancyGuardReentrantCall",
      "type": "error"
    },
    {
      "anonymous": false,
      "inputs": [
        {
          "indexed": true,
          "internalType": "address",
          "name": "triggeredBy",
          "type": "address"
        }
      ],
      "name": "AdminPaused",
      "type": "event"
    },
    {
      "anonymous": false,
      "inputs": [
        {
          "indexed": true,
          "internalType": "address",
          "name": "triggeredBy",
          "type": "address"
        }
      ],
      "name": "AdminUnpaused",
      "type": "event"
    },
    {
      "anonymous": false,
      "inputs": [
        {
          "indexed": true,
          "internalType": "address",
          "name": "storageContract",
          "type": "address"
        },
        {
          "indexed": false,
          "internalType": "uint256",
          "name": "timestamp",
          "type": "uint256"
        }
      ],
      "name": "ContractsInitialized",
      "type": "event"
    },
    {
      "anonymous": false,
      "inputs": [
        {
          "indexed": false,
          "internalType": "bool",
          "name": "enabled",
          "type": "bool"
        },
        {
          "indexed": true,
          "internalType": "address",
          "name": "triggeredBy",
          "type": "address"
        }
      ],
      "name": "EmergencyModeToggled",
      "type": "event"
    },
    {
      "anonymous": false,
      "inputs": [
        {
          "indexed": true,
          "internalType": "address",
          "name": "operator",
          "type": "address"
        },
        {
          "indexed": false,
          "internalType": "bool",
          "name": "status",
          "type": "bool"
        },
        {
          "indexed": true,
          "internalType": "address",
          "name": "updatedBy",
          "type": "address"
        }
      ],
      "name": "EmergencyOperatorUpdated",
      "type": "event"
    },
    {
      "anonymous": false,
      "inputs": [
        {
          "indexed": true,
          "internalType": "address",
          "name": "previousOwner",
          "type": "address"
        },
        {
          "indexed": true,
          "internalType": "address",
          "name": "newOwner",
          "type": "address"
        }
      ],
      "name": "OwnershipTransferred",
      "type": "event"
    },
    {
      "anonymous": false,
      "inputs": [
        {
          "indexed": false,
          "internalType": "address",
          "name": "account",
          "type": "address"
        }
      ],
      "name": "Paused",
      "type": "event"
    },
    {
      "anonymous": false,
      "inputs": [
        {
          "indexed": true,
          "internalType": "uint256",
          "name": "oldFee",
          "type": "uint256"
        },
        {
          "indexed": true,
          "internalType": "uint256",
          "name": "newFee",
          "type": "uint256"
        },
        {
          "indexed": true,
          "internalType": "address",
          "name": "changedBy",
          "type": "address"
        }
      ],
      "name": "PlatformFeeUpdated",
      "type": "event"
    },
    {
      "anonymous": false,
      "inputs": [
        {
          "indexed": true,
          "internalType": "address",
          "name": "oldTreasury",
          "type": "address"
        },
        {
          "indexed": true,
          "internalType": "address",
          "name": "newTreasury",
          "type": "address"
        },
        {
          "indexed": true,
          "internalType": "address",
          "name": "changedBy",
          "type": "address"
        }
      ],
      "name": "TreasuryUpdated",
      "type": "event"
    },
    {
      "anonymous": false,
      "inputs": [
        {
          "indexed": false,
          "internalType": "address",
          "name": "account",
          "type": "address"
        }
      ],
      "name": "Unpaused",
      "type": "event"
    },
    {
      "inputs": [],
      "name": "MAX_PLATFORM_FEE",
      "outputs": [
        {
          "internalType": "uint256",
          "name": "",
          "type": "uint256"
        }
      ],
      "stateMutability": "view",
      "type": "function"
    },
    {
      "inputs": [],
      "name": "MIN_PLATFORM_FEE",
      "outputs": [
        {
          "internalType": "uint256",
          "name": "",
          "type": "uint256"
        }
      ],
      "stateMutability": "view",
      "type": "function"
    },
    {
      "inputs": [],
      "name": "admin",
      "outputs": [
        {
          "internalType": "address",
          "name": "",
          "type": "address"
        }
      ],
      "stateMutability": "view",
      "type": "function"
    },
    {
      "inputs": [
        {
          "internalType": "uint256",
          "name": "amount",
          "type": "uint256"
        }
      ],
      "name": "calculatePlatformFee",
      "outputs": [
        {
          "internalType": "uint256",
          "name": "",
          "type": "uint256"
        }
      ],
      "stateMutability": "view",
      "type": "function"
    },
    {
      "inputs": [
        {
          "internalType": "uint256",
          "name": "networkId",
          "type": "uint256"
        }
      ],
      "name": "emergencyDeactivateNetwork",
      "outputs": [],
      "stateMutability": "nonpayable",
      "type": "function"
    },
    {
      "inputs": [],
      "name": "emergencyMode",
      "outputs": [
        {
          "internalType": "bool",
          "name": "",
          "type": "bool"
        }
      ],
      "stateMutability": "view",
      "type": "function"
    },
    {
      "inputs": [
        {
          "internalType": "address",
          "name": "",
          "type": "address"
        }
      ],
      "name": "emergencyOperators",
      "outputs": [
        {
          "internalType": "bool",
          "name": "",
          "type": "bool"
        }
      ],
      "stateMutability": "view",
      "type": "function"
    },
    {
      "inputs": [
        {
          "internalType": "uint256",
          "name": "_newFeePercent",
          "type": "uint256"
        }
      ],
      "name": "emergencySetPlatformFee",
      "outputs": [],
      "stateMutability": "nonpayable",
      "type": "function"
    },
    {
      "inputs": [
        {
          "internalType": "uint256",
          "name": "",
          "type": "uint256"
        }
      ],
      "name": "feeHistory",
      "outputs": [
        {
          "internalType": "uint256",
          "name": "oldFee",
          "type": "uint256"
        },
        {
          "internalType": "uint256",
          "name": "newFee",
          "type": "uint256"
        },
        {
          "internalType": "uint256",
          "name": "timestamp",
          "type": "uint256"
        },
        {
          "internalType": "address",
          "name": "changedBy",
          "type": "address"
        }
      ],
      "stateMutability": "view",
      "type": "function"
    },
    {
      "inputs": [],
      "name": "getAdminStats",
      "outputs": [
        {
          "internalType": "uint256",
          "name": "totalFeeChanges",
          "type": "uint256"
        },
        {
          "internalType": "uint256",
          "name": "totalTreasuryChanges",
          "type": "uint256"
        },
        {
          "internalType": "bool",
          "name": "isEmergencyMode",
          "type": "bool"
        },
        {
          "internalType": "uint256",
          "name": "currentFee",
          "type": "uint256"
        },
        {
          "internalType": "address",
          "name": "currentTreasury",
          "type": "address"
        }
      ],
      "stateMutability": "view",
      "type": "function"
    },
    {
      "inputs": [],
      "name": "getFeeHistory",
      "outputs": [
        {
          "components": [
            {
              "internalType": "uint256",
              "name": "oldFee",
              "type": "uint256"
            },
            {
              "internalType": "uint256",
              "name": "newFee",
              "type": "uint256"
            },
            {
              "internalType": "uint256",
              "name": "timestamp",
              "type": "uint256"
            },
            {
              "internalType": "address",
              "name": "changedBy",
              "type": "address"
            }
          ],
          "internalType": "struct ZaaNetAdmin.FeeChange[]",
          "name": "",
          "type": "tuple[]"
        }
      ],
      "stateMutability": "view",
      "type": "function"
    },
    {
      "inputs": [],
      "name": "getLatestFeeChange",
      "outputs": [
        {
          "components": [
            {
              "internalType": "uint256",
              "name": "oldFee",
              "type": "uint256"
            },
            {
              "internalType": "uint256",
              "name": "newFee",
              "type": "uint256"
            },
            {
              "internalType": "uint256",
              "name": "timestamp",
              "type": "uint256"
            },
            {
              "internalType": "address",
              "name": "changedBy",
              "type": "address"
            }
          ],
          "internalType": "struct ZaaNetAdmin.FeeChange",
          "name": "",
          "type": "tuple"
        }
      ],
      "stateMutability": "view",
      "type": "function"
    },
    {
      "inputs": [],
      "name": "getLatestTreasuryChange",
      "outputs": [
        {
          "components": [
            {
              "internalType": "address",
              "name": "oldTreasury",
              "type": "address"
            },
            {
              "internalType": "address",
              "name": "newTreasury",
              "type": "address"
            },
            {
              "internalType": "uint256",
              "name": "timestamp",
              "type": "uint256"
            },
            {
              "internalType": "address",
              "name": "changedBy",
              "type": "address"
            }
          ],
          "internalType": "struct ZaaNetAdmin.TreasuryChange",
          "name": "",
          "type": "tuple"
        }
      ],
      "stateMutability": "view",
      "type": "function"
    },
    {
      "inputs": [],
      "name": "getPlatformFeeBasisPoints",
      "outputs": [
        {
          "internalType": "uint256",
          "name": "",
          "type": "uint256"
        }
      ],
      "stateMutability": "view",
      "type": "function"
    },
    {
      "inputs": [],
      "name": "getTreasuryHistory",
      "outputs": [
        {
          "components": [
            {
              "internalType": "address",
              "name": "oldTreasury",
              "type": "address"
            },
            {
              "internalType": "address",
              "name": "newTreasury",
              "type": "address"
            },
            {
              "internalType": "uint256",
              "name": "timestamp",
              "type": "uint256"
            },
            {
              "internalType": "address",
              "name": "changedBy",
              "type": "address"
            }
          ],
          "internalType": "struct ZaaNetAdmin.TreasuryChange[]",
          "name": "",
          "type": "tuple[]"
        }
      ],
      "stateMutability": "view",
      "type": "function"
    },
    {
      "inputs": [
        {
          "internalType": "address",
          "name": "_storageContract",
          "type": "address"
        }
      ],
      "name": "initializeStorageContract",
      "outputs": [],
      "stateMutability": "nonpayable",
      "type": "function"
    },
    {
      "inputs": [
        {
          "internalType": "address",
          "name": "operator",
          "type": "address"
        }
      ],
      "name": "isEmergencyOperator",
      "outputs": [
        {
          "internalType": "bool",
          "name": "",
          "type": "bool"
        }
      ],
      "stateMutability": "view",
      "type": "function"
    },
    {
      "inputs": [],
      "name": "owner",
      "outputs": [
        {
          "internalType": "address",
          "name": "",
          "type": "address"
        }
      ],
      "stateMutability": "view",
      "type": "function"
    },
    {
      "inputs": [],
      "name": "pause",
      "outputs": [],
      "stateMutability": "nonpayable",
      "type": "function"
    },
    {
      "inputs": [],
      "name": "paused",
      "outputs": [
        {
          "internalType": "bool",
          "name": "",
          "type": "bool"
        }
      ],
      "stateMutability": "view",
      "type": "function"
    },
    {
      "inputs": [],
      "name": "platformFeePercent",
      "outputs": [
        {
          "internalType": "uint256",
          "name": "",
          "type": "uint256"
        }
      ],
      "stateMutability": "view",
      "type": "function"
    },
    {
      "inputs": [],
      "name": "renounceOwnership",
      "outputs": [],
      "stateMutability": "nonpayable",
      "type": "function"
    },
    {
      "inputs": [
        {
          "internalType": "address",
          "name": "operator",
          "type": "address"
        },
        {
          "internalType": "bool",
          "name": "status",
          "type": "bool"
        }
      ],
      "name": "setEmergencyOperator",
      "outputs": [],
      "stateMutability": "nonpayable",
      "type": "function"
    },
    {
      "inputs": [
        {
          "internalType": "uint256",
          "name": "_newFeePercent",
          "type": "uint256"
        }
      ],
      "name": "setPlatformFee",
      "outputs": [],
      "stateMutability": "nonpayable",
      "type": "function"
    },
    {
      "inputs": [
        {
          "internalType": "address",
          "name": "_newTreasuryAddress",
          "type": "address"
        }
      ],
      "name": "setTreasuryAddress",
      "outputs": [],
      "stateMutability": "nonpayable",
      "type": "function"
    },
    {
      "inputs": [],
      "name": "storageContract",
      "outputs": [
        {
          "internalType": "contract ZaaNetStorage",
          "name": "",
          "type": "address"
        }
      ],
      "stateMutability": "view",
      "type": "function"
    },
    {
      "inputs": [],
      "name": "toggleEmergencyMode",
      "outputs": [],
      "stateMutability": "nonpayable",
      "type": "function"
    },
    {
      "inputs": [
        {
          "internalType": "address",
          "name": "newOwner",
          "type": "address"
        }
      ],
      "name": "transferOwnership",
      "outputs": [],
      "stateMutability": "nonpayable",
      "type": "function"
    },
    {
      "inputs": [],
      "name": "treasury",
      "outputs": [
        {
          "internalType": "address",
          "name": "",
          "type": "address"
        }
      ],
      "stateMutability": "view",
      "type": "function"
    },
    {
      "inputs": [],
      "name": "treasuryAddress",
      "outputs": [
        {
          "internalType": "address",
          "name": "",
          "type": "address"
        }
      ],
      "stateMutability": "view",
      "type": "function"
    },
    {
      "inputs": [
        {
          "internalType": "uint256",
          "name": "",
          "type": "uint256"
        }
      ],
      "name": "treasuryHistory",
      "outputs": [
        {
          "internalType": "address",
          "name": "oldTreasury",
          "type": "address"
        },
        {
          "internalType": "address",
          "name": "newTreasury",
          "type": "address"
        },
        {
          "internalType": "uint256",
          "name": "timestamp",
          "type": "uint256"
        },
        {
          "internalType": "address",
          "name": "changedBy",
          "type": "address"
        }
      ],
      "stateMutability": "view",
      "type": "function"
    },
    {
      "inputs": [],
      "name": "unpause",
      "outputs": [],
      "stateMutability": "nonpayable",
      "type": "function"
    }
  ],
  "bytecode": "0x6080604052346104cc576040516000906119083881900390601f8201601f191683016001600160401b038111848210176103ca57918084926060946040528339810103126104c857610050816104f0565b91604061005f602084016104f0565b9201519233156104b4578154336001600160a01b031982168117845560405194916001600160a01b03167f8be0079c531659141344cd1fd0a4f28419497f9722a3daafe3b4186f6b6457e08580a3600180556005805460ff191690556001600160a01b03169283156104725750600184101580610467575b15610422576001600160a01b0316806103de575b50600380546001600160a01b03191683179055600483905561010b6104d1565b928184526020840190815260408401428152606085019133835260075495680100000000000000008710156103ca57600187016007556007548710156103b657600790945292517fa66cc928b5edb82af9bd49922954155ab7b0942694bea4ce44661d9a8736c68860029690961b9586015591517fa66cc928b5edb82af9bd49922954155ab7b0942694bea4ce44661d9a8736c68985015590517fa66cc928b5edb82af9bd49922954155ab7b0942694bea4ce44661d9a8736c68a840155517fa66cc928b5edb82af9bd49922954155ab7b0942694bea4ce44661d9a8736c68b90920180546001600160a01b039093166001600160a01b0319909316929092179091556102166104d1565b600081526020810191825260408101428152606082019033825260085493680100000000000000008510156103a0576001850160085560009460085481101561038c576008909552925160029490941b7ff3f7a9fe364faab93b216da50a3214154f22a0a2b415b23a84c8169e8b636ee3810180546001600160a01b03199081166001600160a01b039788161790915593517ff3f7a9fe364faab93b216da50a3214154f22a0a2b415b23a84c8169e8b636ee482018054861691871691909117905590517ff3f7a9fe364faab93b216da50a3214154f22a0a2b415b23a84c8169e8b636ee582015590517ff3f7a9fe364faab93b216da50a3214154f22a0a2b415b23a84c8169e8b636ee69091018054909216921691909117905533600081815260066020908152604091829020805460ff19166001908117909155915191825282917f1d05944b75552398d6505993a2bc80206d8219c4454def4cfd2e97793edbbfce9190a360405161140390816105058239f35b634e487b7160e01b86526032600452602486fd5b634e487b7160e01b600052604160045260246000fd5b634e487b7160e01b85526032600452602485fd5b634e487b7160e01b85526041600452602485fd5b600280546001600160a01b031916821790556040514281527f7f7d6e7886dca58922d0593a44928fb5066cd0e04369c371d72eb96e61368fa890602090a2386100eb565b60405162461bcd60e51b815260206004820152601e60248201527f466565206d757374206265206265747765656e20312520616e642032302500006044820152606490fd5b5060148411156100d7565b62461bcd60e51b815260206004820152601f60248201527f54726561737572792063616e6e6f74206265207a65726f2061646472657373006044820152606490fd5b631e4fbdf760e01b82526004829052602482fd5b5080fd5b600080fd5b60405190608082016001600160401b038111838210176103a057604052565b51906001600160a01b03821682036104cc5756fe6080604052600436101561001257600080fd5b6000803560e01c806302e88899146110245780630905f5601461100157806309705de8146103075780630cbab4f714610fc95780630d35a16714610f6957806310c2861914610e5f57806311ce026714610e3657806312e8e2c314610d5757806318b4f23b14610c685780633998a68114610c4c5780633f4ba83a14610bb95780634863687e14610af4578063492adaa8146109fe5780634c17b530146109755780635071f27b146108b65780635707ed45146107c15780635a2f406f146106d15780635c975abb146106ac57806361d027b31461022c5780636605bfda146104e05780636f04d994146104c4578063715018a61461046a5780637a9b93c6146104235780638456cb591461038b5780638c639a851461036d5780638da5cb5b14610346578063a10eb35414610307578063a380b86b146102a1578063c116d93614610255578063c5f956af1461022c578063f2fde38b146101a65763f851a4401461017d57600080fd5b346101a357806003193601126101a357546040516001600160a01b039091168152602090f35b80fd5b50346101a35760203660031901126101a3576101c06110f4565b6101c86113a4565b6001600160a01b031680156102185781546001600160a01b03198116821783556001600160a01b03167f8be0079c531659141344cd1fd0a4f28419497f9722a3daafe3b4186f6b6457e08380a380f35b631e4fbdf760e01b82526004829052602482fd5b50346101a357806003193601126101a3576003546040516001600160a01b039091168152602090f35b50346101a357806003193601126101a35760a060075460085460ff6005541660045490600180861b03600354169260405194855260208501521515604084015260608301526080820152f35b50346101a35760203660031901126101a357600435906008548210156101a35760806102cc83611144565b50805460018201546002830154600390930154604080516001600160a01b039485168152928416602084015282019390935291166060820152f35b50346101a35760203660031901126101a35760209060ff906040906001600160a01b036103326110f4565b168152600684522054166040519015158152f35b50346101a357806003193601126101a357546040516001600160a01b039091168152602090f35b50346101a357806003193601126101a3576020600454604051908152f35b50346101a357806003193601126101a3576103a46113a4565b805460ff8160a01c166104145760ff60a01b1916600160a01b1781556040513381527f62e78cea01bee320cd4e420270b5ea74000d11b0c9f74754ebdbfc544b05a25890602090a1337ff9c91e483ce8bc4cc31645e7cc0f01a3371813e76469a71104841507f01402908280a280f35b63d93c066560e01b8252600482fd5b50346101a357806003193601126101a3576004549060648202918083046064149015171561045657602082604051908152f35b634e487b7160e01b81526011600452602490fd5b50346101a357806003193601126101a3576104836113a4565b80546001600160a01b03198116825581906001600160a01b03167f8be0079c531659141344cd1fd0a4f28419497f9722a3daafe3b4186f6b6457e08280a380f35b50346101a357806003193601126101a357602060405160018152f35b50346101a35760203660031901126101a3576104fa6110f4565b6105026113a4565b61051160ff6005541615611163565b6001600160a01b03168015610667576003546001600160a01b038116919082821461062d576001600160a01b0319168117600355604051610551816111af565b82815260208101828152604082014281526060830191338352600854600160401b811015610619578060016105899201600855611144565b949094610605575184546001600160a01b03199081166001600160a01b03928316178655915160018601805484169183169190911790559151600285015591516003939093018054909216921691909117905533917f23c12d5579081c5f1077c04a6b1c114d0f3de239e81a436836d30ecb099ffa138480a480f35b634e487b7160e01b88526004889052602488fd5b634e487b7160e01b88526041600452602488fd5b60405162461bcd60e51b8152602060048201526012602482015271151c99585cdd5c9e481d5b98da185b99d95960721b6044820152606490fd5b60405162461bcd60e51b815260206004820152601860248201527f496e76616c6964207472656173757279206164647265737300000000000000006044820152606490fd5b50346101a357806003193601126101a35760ff6020915460a01c166040519015158152f35b50346101a35760203660031901126101a357338152600660205260ff60408220541680156107ae575b610703906112a5565b6002546001600160a01b03168015610769578082913b1561076657818091602460405180958193635a2f406f60e01b835260043560048401525af180156107595761074b5780f35b610754916111e1565b388180f35b50604051903d90823e3d90fd5b50fd5b60405162461bcd60e51b815260206004820152601760248201527f53746f72616765206e6f7420696e697469616c697a65640000000000000000006044820152606490fd5b5080546001600160a01b031633146106fa565b50346101a357806003193601126101a3576007546107de81611351565b6107eb60405191826111e1565b818152600783526020810191837fa66cc928b5edb82af9bd49922954155ab7b0942694bea4ce44661d9a8736c688845b83831061089857868587604051928392602084019060208552518091526040840192915b81811061084d575050500390f35b91935091602060808261088a60019488516060908051835260208101516020840152604081015160408401528160018060a01b0391015116910152565b01940191019184939261083f565b600460206001926108a885611369565b81520192019201919061081b565b50346101a357806003193601126101a3576108cf6112ea565b506007549081156109305760001982019182116104565760806108fa6108f48461110f565b50611369565b61092e60405180926060908051835260208101516020840152604081015160408401528160018060a01b0391015116910152565bf35b60405162461bcd60e51b815260206004820152601760248201527f4e6f20666565206368616e676573207265636f726465640000000000000000006044820152606490fd5b50346101a357806003193601126101a357338152600660205260ff60408220541680156109eb575b6109a6906112a5565b60055460ff8082161516809160ff19161760055560405190151581527fc35ed978e97c366b3a5f9375508bcfbca850fca66bf334b9477118918e6eaa4060203392a280f35b5080546001600160a01b0316331461099d565b50346101a357806003193601126101a357600854610a1b81611351565b610a2860405191826111e1565b818152600883526020810191837ff3f7a9fe364faab93b216da50a3214154f22a0a2b415b23a84c8169e8b636ee3845b838310610ad657868587604051928392602084019060208552518091526040840192915b818110610a8a575050500390f35b825180516001600160a01b039081168652602080830151821681880152604080840151908801526060928301519091169186019190915286955060809094019390920191600101610a7c565b60046020600192610ae68561130f565b815201920192019190610a58565b50346101a357806003193601126101a357610b0d6112ea565b50600854908115610b74576000198201918211610456576080610b38610b3284611144565b5061130f565b6040805182516001600160a01b039081168252602080850151821690830152838301519282019290925260609283015190911691810191909152f35b60405162461bcd60e51b815260206004820152601c60248201527f4e6f207472656173757279206368616e676573207265636f72646564000000006044820152606490fd5b50346101a357806003193601126101a357610bd26113a4565b805460ff8160a01c1615610c3d5760ff60a01b191681556040513381527f5db9ee0a495bf2e6ff9c91a7834c1ba4fdd244a5e8aa4e537bd38aeae4b073aa90602090a1337fcc2b689b01792ccc45f7d02099e9ef3ffd7058e45803395690c61efdd0f0c6348280a280f35b638dfc202b60e01b8252600482fd5b50346101a357806003193601126101a357602060405160148152f35b50346101a35760203660031901126101a357600435338252600660205260ff6040832054168015610d44575b610c9d906112a5565b60148111610cff576004549080600455610cd6604051610cbc816111af565b838152826020820152426040820152336060820152611203565b33917f9e74d2175d1604ca094d3c60971771fb54aa1a0adbadcedcb69c48cfbd4feb998480a480f35b60405162461bcd60e51b815260206004820152601960248201527f4665652063616e6e6f7420657863656564206d6178696d756d000000000000006044820152606490fd5b5081546001600160a01b03163314610c94565b50346101a35760203660031901126101a357600435610d746113a4565b610d8360ff6005541615611163565b600181101580610e2b575b15610de65760045490818114610db15780600455610cd6604051610cbc816111af565b60405162461bcd60e51b815260206004820152600d60248201526c119959481d5b98da185b99d959609a1b6044820152606490fd5b60405162461bcd60e51b815260206004820152601e60248201527f466565206d757374206265206265747765656e20312520616e642032302500006044820152606490fd5b506014811115610d8e565b50346101a357806003193601126101a3576002546040516001600160a01b039091168152602090f35b50346101a35760203660031901126101a357610e796110f4565b610e816113a4565b6001600160a01b03168015610f24576002546001600160a01b038116610edf576001600160a01b03191681176002556040514281527f7f7d6e7886dca58922d0593a44928fb5066cd0e04369c371d72eb96e61368fa890602090a280f35b60405162461bcd60e51b815260206004820152601b60248201527f53746f7261676520616c726561647920696e697469616c697a656400000000006044820152606490fd5b60405162461bcd60e51b815260206004820152601860248201527f496e76616c69642073746f7261676520636f6e747261637400000000000000006044820152606490fd5b50346101a35760203660031901126101a357600435906007548210156101a3576080610f948361110f565b50805490600181015490600281015490600360018060a01b039101541691604051938452602084015260408301526060820152f35b50346101a35760203660031901126101a357600435906004549182810292818404149015171561045657602082606460405191048152f35b50346101a357806003193601126101a357602060ff600554166040519015158152f35b50346101a35760403660031901126101a35761103e6110f4565b602435908115158092036110f0576110546113a4565b6001600160a01b031680156110ab5780835260066020526040832060ff1981541660ff84161790556040519182527f1d05944b75552398d6505993a2bc80206d8219c4454def4cfd2e97793edbbfce60203393a380f35b60405162461bcd60e51b815260206004820152601860248201527f496e76616c6964206f70657261746f72206164647265737300000000000000006044820152606490fd5b8280fd5b600435906001600160a01b038216820361110a57565b600080fd5b60075481101561112e57600760005260206000209060021b0190600090565b634e487b7160e01b600052603260045260246000fd5b60085481101561112e57600860005260206000209060021b0190600090565b1561116a57565b60405162461bcd60e51b815260206004820152601860248201527f53797374656d20696e20656d657267656e6379206d6f646500000000000000006044820152606490fd5b6080810190811067ffffffffffffffff8211176111cb57604052565b634e487b7160e01b600052604160045260246000fd5b90601f8019910116810190811067ffffffffffffffff8211176111cb57604052565b600754600160401b8110156111cb57600181016007556000600754821015611291576007905260021b7fa66cc928b5edb82af9bd49922954155ab7b0942694bea4ce44661d9a8736c68801908051825560208101516001830155604081015160028301556060015160039190910180546001600160a01b0319166001600160a01b0392909216919091179055565b634e487b7160e01b81526032600452602490fd5b156112ac57565b60405162461bcd60e51b81526020600482015260166024820152752737ba1032b6b2b933b2b731bc9037b832b930ba37b960511b6044820152606490fd5b604051906112f7826111af565b60006060838281528260208201528260408201520152565b9060405161131c816111af565b82546001600160a01b039081168252600184015481166020830152600284015460408301526003909301549092166060830152565b67ffffffffffffffff81116111cb5760051b60200190565b90604051611376816111af565b8254815260018301546020820152600283015460408201526003909201546001600160a01b03166060830152565b6000546001600160a01b031633036113b857565b63118cdaa760e01b6000523360045260246000fdfea2646970667358221220d2609eb7a86ba4239d0d20e7fe1433858a890b5ea8ecc453969fd98fc8e6b98a64736f6c634300081c0033",
  "linkReferences": {},
  "deployedLinkReferences": {}
}