{
  "_format": "hh-sol-artifact-1",
  "contractName": "ZaaNetStorage",
  "sourceName": "contracts/ZaaNetStorage.sol",
  "abi": [
    {
      "inputs": [],
      "stateMutability": "nonpayable",
      "type": "constructor"
    },
    {
      "inputs": [
        {
          "internalType": "address",
          "name": "owner",
          "type": "address"
        }
      ],
      "name": "OwnableInvalidOwner",
      "type": "error"
    },
    {
      "inputs": [
        {
          "internalType": "address",
          "name": "account",
          "type": "address"
        }
      ],
      "name": "OwnableUnauthorizedAccount",
      "type": "error"
    },
    {
      "inputs": [],
      "name": "ReentrancyGuardReentrantCall",
      "type": "error"
    },
    {
      "anonymous": false,
      "inputs": [
        {
          "indexed": true,
          "internalType": "address",
          "name": "caller",
          "type": "address"
        },
        {
          "indexed": false,
          "internalType": "bool",
          "name": "status",
          "type": "bool"
        }
      ],
      "name": "AllowedCallerUpdated",
      "type": "event"
    },
    {
      "anonymous": false,
      "inputs": [
        {
          "indexed": true,
          "internalType": "address",
          "name": "hostAddress",
          "type": "address"
        },
        {
          "indexed": false,
          "internalType": "uint256",
          "name": "totalEarned",
          "type": "uint256"
        }
      ],
      "name": "HostEarningsUpdated",
      "type": "event"
    },
    {
      "anonymous": false,
      "inputs": [
        {
          "indexed": true,
          "internalType": "uint256",
          "name": "id",
          "type": "uint256"
        },
        {
          "indexed": true,
          "internalType": "address",
          "name": "hostAddress",
          "type": "address"
        },
        {
          "indexed": false,
          "internalType": "uint256",
          "name": "pricePerSession",
          "type": "uint256"
        }
      ],
      "name": "NetworkStored",
      "type": "event"
    },
    {
      "anonymous": false,
      "inputs": [
        {
          "indexed": true,
          "internalType": "uint256",
          "name": "id",
          "type": "uint256"
        },
        {
          "indexed": true,
          "internalType": "address",
          "name": "hostAddress",
          "type": "address"
        }
      ],
      "name": "NetworkUpdated",
      "type": "event"
    },
    {
      "anonymous": false,
      "inputs": [
        {
          "indexed": true,
          "internalType": "address",
          "name": "previousOwner",
          "type": "address"
        },
        {
          "indexed": true,
          "internalType": "address",
          "name": "newOwner",
          "type": "address"
        }
      ],
      "name": "OwnershipTransferred",
      "type": "event"
    },
    {
      "anonymous": false,
      "inputs": [
        {
          "indexed": true,
          "internalType": "uint256",
          "name": "sessionId",
          "type": "uint256"
        },
        {
          "indexed": true,
          "internalType": "address",
          "name": "paymentAddress",
          "type": "address"
        },
        {
          "indexed": false,
          "internalType": "uint256",
          "name": "amount",
          "type": "uint256"
        }
      ],
      "name": "SessionStored",
      "type": "event"
    },
    {
      "inputs": [],
      "name": "MAX_NETWORKS_PER_QUERY",
      "outputs": [
        {
          "internalType": "uint256",
          "name": "",
          "type": "uint256"
        }
      ],
      "stateMutability": "view",
      "type": "function"
    },
    {
      "inputs": [],
      "name": "MAX_SESSIONS_PER_QUERY",
      "outputs": [
        {
          "internalType": "uint256",
          "name": "",
          "type": "uint256"
        }
      ],
      "stateMutability": "view",
      "type": "function"
    },
    {
      "inputs": [
        {
          "internalType": "address",
          "name": "",
          "type": "address"
        }
      ],
      "name": "allowedCallers",
      "outputs": [
        {
          "internalType": "bool",
          "name": "",
          "type": "bool"
        }
      ],
      "stateMutability": "view",
      "type": "function"
    },
    {
      "inputs": [
        {
          "internalType": "uint256",
          "name": "networkId",
          "type": "uint256"
        }
      ],
      "name": "emergencyDeactivateNetwork",
      "outputs": [],
      "stateMutability": "nonpayable",
      "type": "function"
    },
    {
      "inputs": [
        {
          "internalType": "address",
          "name": "hostAddress",
          "type": "address"
        }
      ],
      "name": "getHostEarnings",
      "outputs": [
        {
          "internalType": "uint256",
          "name": "",
          "type": "uint256"
        }
      ],
      "stateMutability": "view",
      "type": "function"
    },
    {
      "inputs": [
        {
          "internalType": "address",
          "name": "hostAddress",
          "type": "address"
        }
      ],
      "name": "getHostNetworks",
      "outputs": [
        {
          "internalType": "uint256[]",
          "name": "",
          "type": "uint256[]"
        }
      ],
      "stateMutability": "view",
      "type": "function"
    },
    {
      "inputs": [
        {
          "internalType": "uint256",
          "name": "id",
          "type": "uint256"
        }
      ],
      "name": "getNetwork",
      "outputs": [
        {
          "components": [
            {
              "internalType": "uint256",
              "name": "id",
              "type": "uint256"
            },
            {
              "internalType": "address",
              "name": "hostAddress",
              "type": "address"
            },
            {
              "internalType": "uint256",
              "name": "pricePerSession",
              "type": "uint256"
            },
            {
              "internalType": "string",
              "name": "mongoDataId",
              "type": "string"
            },
            {
              "internalType": "bool",
              "name": "isActive",
              "type": "bool"
            },
            {
              "internalType": "uint256",
              "name": "createdAt",
              "type": "uint256"
            },
            {
              "internalType": "uint256",
              "name": "updatedAt",
              "type": "uint256"
            }
          ],
          "internalType": "struct ZaaNetStorage.Network",
          "name": "",
          "type": "tuple"
        }
      ],
      "stateMutability": "view",
      "type": "function"
    },
    {
      "inputs": [
        {
          "internalType": "uint256",
          "name": "offset",
          "type": "uint256"
        },
        {
          "internalType": "uint256",
          "name": "limit",
          "type": "uint256"
        }
      ],
      "name": "getNetworksPaginated",
      "outputs": [
        {
          "components": [
            {
              "internalType": "uint256",
              "name": "id",
              "type": "uint256"
            },
            {
              "internalType": "address",
              "name": "hostAddress",
              "type": "address"
            },
            {
              "internalType": "uint256",
              "name": "pricePerSession",
              "type": "uint256"
            },
            {
              "internalType": "string",
              "name": "mongoDataId",
              "type": "string"
            },
            {
              "internalType": "bool",
              "name": "isActive",
              "type": "bool"
            },
            {
              "internalType": "uint256",
              "name": "createdAt",
              "type": "uint256"
            },
            {
              "internalType": "uint256",
              "name": "updatedAt",
              "type": "uint256"
            }
          ],
          "internalType": "struct ZaaNetStorage.Network[]",
          "name": "",
          "type": "tuple[]"
        },
        {
          "internalType": "uint256",
          "name": "total",
          "type": "uint256"
        }
      ],
      "stateMutability": "view",
      "type": "function"
    },
    {
      "inputs": [
        {
          "internalType": "uint256",
          "name": "id",
          "type": "uint256"
        }
      ],
      "name": "getSession",
      "outputs": [
        {
          "components": [
            {
              "internalType": "uint256",
              "name": "sessionId",
              "type": "uint256"
            },
            {
              "internalType": "uint256",
              "name": "networkId",
              "type": "uint256"
            },
            {
              "internalType": "address",
              "name": "paymentAddress",
              "type": "address"
            },
            {
              "internalType": "uint256",
              "name": "amount",
              "type": "uint256"
            },
            {
              "internalType": "bool",
              "name": "active",
              "type": "bool"
            },
            {
              "internalType": "string",
              "name": "voucherId",
              "type": "string"
            },
            {
              "internalType": "string",
              "name": "userId",
              "type": "string"
            },
            {
              "internalType": "uint256",
              "name": "startTime",
              "type": "uint256"
            }
          ],
          "internalType": "struct ZaaNetStorage.Session",
          "name": "",
          "type": "tuple"
        }
      ],
      "stateMutability": "view",
      "type": "function"
    },
    {
      "inputs": [],
      "name": "getStats",
      "outputs": [
        {
          "internalType": "uint256",
          "name": "totalNetworks",
          "type": "uint256"
        },
        {
          "internalType": "uint256",
          "name": "totalSessions",
          "type": "uint256"
        },
        {
          "internalType": "uint256",
          "name": "activeNetworks",
          "type": "uint256"
        },
        {
          "internalType": "uint256",
          "name": "activeSessions",
          "type": "uint256"
        }
      ],
      "stateMutability": "view",
      "type": "function"
    },
    {
      "inputs": [
        {
          "internalType": "address",
          "name": "",
          "type": "address"
        }
      ],
      "name": "hostEarnings",
      "outputs": [
        {
          "internalType": "uint256",
          "name": "",
          "type": "uint256"
        }
      ],
      "stateMutability": "view",
      "type": "function"
    },
    {
      "inputs": [
        {
          "internalType": "address",
          "name": "",
          "type": "address"
        },
        {
          "internalType": "uint256",
          "name": "",
          "type": "uint256"
        }
      ],
      "name": "hostNetworkIds",
      "outputs": [
        {
          "internalType": "uint256",
          "name": "",
          "type": "uint256"
        }
      ],
      "stateMutability": "view",
      "type": "function"
    },
    {
      "inputs": [
        {
          "internalType": "address",
          "name": "hostAddress",
          "type": "address"
        },
        {
          "internalType": "uint256",
          "name": "amount",
          "type": "uint256"
        }
      ],
      "name": "increaseHostEarnings",
      "outputs": [],
      "stateMutability": "nonpayable",
      "type": "function"
    },
    {
      "inputs": [],
      "name": "incrementNetworkId",
      "outputs": [
        {
          "internalType": "uint256",
          "name": "",
          "type": "uint256"
        }
      ],
      "stateMutability": "nonpayable",
      "type": "function"
    },
    {
      "inputs": [],
      "name": "incrementSessionId",
      "outputs": [
        {
          "internalType": "uint256",
          "name": "",
          "type": "uint256"
        }
      ],
      "stateMutability": "nonpayable",
      "type": "function"
    },
    {
      "inputs": [
        {
          "internalType": "uint256",
          "name": "",
          "type": "uint256"
        }
      ],
      "name": "networkExists",
      "outputs": [
        {
          "internalType": "bool",
          "name": "",
          "type": "bool"
        }
      ],
      "stateMutability": "view",
      "type": "function"
    },
    {
      "inputs": [],
      "name": "networkIdCounter",
      "outputs": [
        {
          "internalType": "uint256",
          "name": "",
          "type": "uint256"
        }
      ],
      "stateMutability": "view",
      "type": "function"
    },
    {
      "inputs": [
        {
          "internalType": "uint256",
          "name": "",
          "type": "uint256"
        }
      ],
      "name": "networks",
      "outputs": [
        {
          "internalType": "uint256",
          "name": "id",
          "type": "uint256"
        },
        {
          "internalType": "address",
          "name": "hostAddress",
          "type": "address"
        },
        {
          "internalType": "uint256",
          "name": "pricePerSession",
          "type": "uint256"
        },
        {
          "internalType": "string",
          "name": "mongoDataId",
          "type": "string"
        },
        {
          "internalType": "bool",
          "name": "isActive",
          "type": "bool"
        },
        {
          "internalType": "uint256",
          "name": "createdAt",
          "type": "uint256"
        },
        {
          "internalType": "uint256",
          "name": "updatedAt",
          "type": "uint256"
        }
      ],
      "stateMutability": "view",
      "type": "function"
    },
    {
      "inputs": [],
      "name": "owner",
      "outputs": [
        {
          "internalType": "address",
          "name": "",
          "type": "address"
        }
      ],
      "stateMutability": "view",
      "type": "function"
    },
    {
      "inputs": [],
      "name": "renounceOwnership",
      "outputs": [],
      "stateMutability": "nonpayable",
      "type": "function"
    },
    {
      "inputs": [
        {
          "internalType": "uint256",
          "name": "",
          "type": "uint256"
        }
      ],
      "name": "sessionExists",
      "outputs": [
        {
          "internalType": "bool",
          "name": "",
          "type": "bool"
        }
      ],
      "stateMutability": "view",
      "type": "function"
    },
    {
      "inputs": [],
      "name": "sessionIdCounter",
      "outputs": [
        {
          "internalType": "uint256",
          "name": "",
          "type": "uint256"
        }
      ],
      "stateMutability": "view",
      "type": "function"
    },
    {
      "inputs": [
        {
          "internalType": "uint256",
          "name": "",
          "type": "uint256"
        }
      ],
      "name": "sessions",
      "outputs": [
        {
          "internalType": "uint256",
          "name": "sessionId",
          "type": "uint256"
        },
        {
          "internalType": "uint256",
          "name": "networkId",
          "type": "uint256"
        },
        {
          "internalType": "address",
          "name": "paymentAddress",
          "type": "address"
        },
        {
          "internalType": "uint256",
          "name": "amount",
          "type": "uint256"
        },
        {
          "internalType": "bool",
          "name": "active",
          "type": "bool"
        },
        {
          "internalType": "string",
          "name": "voucherId",
          "type": "string"
        },
        {
          "internalType": "string",
          "name": "userId",
          "type": "string"
        },
        {
          "internalType": "uint256",
          "name": "startTime",
          "type": "uint256"
        }
      ],
      "stateMutability": "view",
      "type": "function"
    },
    {
      "inputs": [
        {
          "internalType": "address",
          "name": "_caller",
          "type": "address"
        },
        {
          "internalType": "bool",
          "name": "status",
          "type": "bool"
        }
      ],
      "name": "setAllowedCaller",
      "outputs": [],
      "stateMutability": "nonpayable",
      "type": "function"
    },
    {
      "inputs": [
        {
          "internalType": "address[]",
          "name": "_callers",
          "type": "address[]"
        },
        {
          "internalType": "bool",
          "name": "status",
          "type": "bool"
        }
      ],
      "name": "setAllowedCallers",
      "outputs": [],
      "stateMutability": "nonpayable",
      "type": "function"
    },
    {
      "inputs": [
        {
          "internalType": "uint256",
          "name": "id",
          "type": "uint256"
        },
        {
          "components": [
            {
              "internalType": "uint256",
              "name": "id",
              "type": "uint256"
            },
            {
              "internalType": "address",
              "name": "hostAddress",
              "type": "address"
            },
            {
              "internalType": "uint256",
              "name": "pricePerSession",
              "type": "uint256"
            },
            {
              "internalType": "string",
              "name": "mongoDataId",
              "type": "string"
            },
            {
              "internalType": "bool",
              "name": "isActive",
              "type": "bool"
            },
            {
              "internalType": "uint256",
              "name": "createdAt",
              "type": "uint256"
            },
            {
              "internalType": "uint256",
              "name": "updatedAt",
              "type": "uint256"
            }
          ],
          "internalType": "struct ZaaNetStorage.Network",
          "name": "net",
          "type": "tuple"
        }
      ],
      "name": "setNetwork",
      "outputs": [],
      "stateMutability": "nonpayable",
      "type": "function"
    },
    {
      "inputs": [
        {
          "internalType": "uint256",
          "name": "id",
          "type": "uint256"
        },
        {
          "components": [
            {
              "internalType": "uint256",
              "name": "sessionId",
              "type": "uint256"
            },
            {
              "internalType": "uint256",
              "name": "networkId",
              "type": "uint256"
            },
            {
              "internalType": "address",
              "name": "paymentAddress",
              "type": "address"
            },
            {
              "internalType": "uint256",
              "name": "amount",
              "type": "uint256"
            },
            {
              "internalType": "bool",
              "name": "active",
              "type": "bool"
            },
            {
              "internalType": "string",
              "name": "voucherId",
              "type": "string"
            },
            {
              "internalType": "string",
              "name": "userId",
              "type": "string"
            },
            {
              "internalType": "uint256",
              "name": "startTime",
              "type": "uint256"
            }
          ],
          "internalType": "struct ZaaNetStorage.Session",
          "name": "session",
          "type": "tuple"
        }
      ],
      "name": "setSession",
      "outputs": [],
      "stateMutability": "nonpayable",
      "type": "function"
    },
    {
      "inputs": [
        {
          "internalType": "address",
          "name": "newOwner",
          "type": "address"
        }
      ],
      "name": "transferOwnership",
      "outputs": [],
      "stateMutability": "nonpayable",
      "type": "function"
    }
  ],
  "bytecode": "0x60808060405234607957331560635760008054336001600160a01b0319821681178355916001600160a01b03909116907f8be0079c531659141344cd1fd0a4f28419497f9722a3daafe3b4186f6b6457e09080a360018055611c84908161007f8239f35b631e4fbdf760e01b600052600060045260246000fd5b600080fdfe608080604052600436101561001357600080fd5b60003560e01c908163217c682d146115635750806329c718b514610a095780633b9a80161461118f578063402ff0db14610fef57806350c0d41c14610b4c5780635290ffc614610aec57806352f51f8b146109ab5780635a29352d14610ace5780635a2f406f14610a435780636d65573f14610a09578063715018a6146109b057806371f7cd5b146109ab57806373f9a5d71461089257806379f0dc57146107d85780637b334154146107995780637bae8f5e1461074057806383c4b7a31461068e578063879ecf101461065d5780638bb0a17c146105ca5780638da5cb5b146105a157806395ea57171461053a578063c59d484714610475578063cc50764114610415578063d8b0e71614610386578063e1c7a8aa14610299578063ec13f2a114610268578063f2fde38b146101df5763fa9c81a41461015357600080fd5b346101da5760403660031901126101da57610172602435600435611ad4565b9060405190604082016040835281518091526060830190602060608260051b8601019301916000905b8282106101af578580868960208301520390f35b909192936020806101cc600193605f198a82030186528851611764565b96019201920190929161019b565b600080fd5b346101da5760203660031901126101da576101f861157e565b610200611c25565b6001600160a01b0316801561025257600080546001600160a01b03198116831782556001600160a01b0316907f8be0079c531659141344cd1fd0a4f28419497f9722a3daafe3b4186f6b6457e09080a3005b631e4fbdf760e01b600052600060045260246000fd5b346101da5760203660031901126101da576004356000526009602052602060ff604060002054166040519015158152f35b346101da5760403660031901126101da576102b261157e565b6024359033600052600260205260ff604060002054168015610372575b6102d8906117c0565b6002600154146103615760026001556001600160a01b0316906102fc821515611933565b610307811515611811565b8160005260076020526103206040600020918254611a8f565b90558060005260076020527f61a8b1a557e4d03803db90d13ff76db2c25fba3ed24882cecda8c8423b9b2be06020604060002054604051908152a260018055005b633ee5aeb560e01b60005260046000fd5b506000546001600160a01b031633146102cf565b346101da5760403660031901126101da5761039f61157e565b7fd6fc3082ae3a144ca59421d96180398241c1dd021d45d5a24fb5bf96c9f8212f60206103ca6115f1565b926103d3611c25565b6001600160a01b0316926103e88415156119ab565b836000526002825261040a8160406000209060ff801983541691151516179055565b6040519015158152a2005b346101da5760003660031901126101da5733600052600260205260ff604060002054168015610461575b610448906117c0565b6020610455600454611976565b80600455604051908152f35b506000546001600160a01b0316331461043f565b346101da5760003660031901126101da576003546004549060008060015b838111156104ff575060015b848111156104c25750608093604051938452602084015260408301526060820152f35b80600052600660205260ff600460406000200154166104ea575b6104e590611976565b61049f565b916104f76104e591611976565b9290506104dc565b808352600560205260ff600460408520015416610525575b61052090611976565b610493565b9061053261052091611976565b919050610517565b346101da5760203660031901126101da576004356105566119f0565b5080600052600960205261057160ff6040600020541661185d565b600052600560205261059d6105896040600020611a27565b604051918291602083526020830190611764565b0390f35b346101da5760003660031901126101da576000546040516001600160a01b039091168152602090f35b346101da5760203660031901126101da5760043560005260056020526040600020805460018060a01b0360018301541691600281015461060c600383016116c0565b9161064760ff60048301541693600660058401549301549360405197889788526020880152604087015260e0606087015260e0860190611594565b921515608085015260a084015260c08301520390f35b346101da5760203660031901126101da57600435600052600a602052602060ff604060002054166040519015158152f35b346101da5760203660031901126101da5760043560005260066020526040600020805460018201549161073660018060a01b0360028301541691610728600382015460ff6004840154166106e4600585016116c0565b9160076106f3600687016116c0565b95015496604051998a998a5260208a0152604089015260608801521515608087015261010060a0870152610100860190611594565b9084820360c0860152611594565b9060e08301520390f35b346101da5760403660031901126101da5761075961157e565b6001600160a01b03166000908152600860205260409020805460243591908210156101da5760209161078a91611600565b90549060031b1c604051908152f35b346101da5760203660031901126101da576001600160a01b036107ba61157e565b166000526002602052602060ff604060002054166040519015158152f35b346101da5760203660031901126101da576001600160a01b036107f961157e565b16600052600860205260406000206040518060208354918281520190819360005260206000209060005b81811061087c575050508161083991038261169f565b6040519182916020830190602084525180915260408301919060005b818110610863575050500390f35b8251845285945060209384019390920191600101610855565b8254845260209093019260019283019201610823565b346101da5760403660031901126101da576004356001600160401b0381116101da57366023820112156101da5780600401356001600160401b0381116101da576024820191602436918360051b0101116101da576108ee6115f1565b6108f6611c25565b8015159060005b83811061090657005b60019061092f6001600160a01b0361092761092284898b61199b565b6117fd565b1615156119ab565b818060a01b0361094361092283888a61199b565b1660005260026020526109668360406000209060ff801983541691151516179055565b818060a01b0361097a61092283888a61199b565b167fd6fc3082ae3a144ca59421d96180398241c1dd021d45d5a24fb5bf96c9f8212f6020604051878152a2016108fd565b6115d5565b346101da5760003660031901126101da576109c9611c25565b600080546001600160a01b0319811682556001600160a01b03167f8be0079c531659141344cd1fd0a4f28419497f9722a3daafe3b4186f6b6457e08280a3005b346101da5760203660031901126101da576001600160a01b03610a2a61157e565b1660005260076020526020604060002054604051908152f35b346101da5760203660031901126101da57600435610a5f611c25565b806000526009602052610a7960ff6040600020541661185d565b600081815260056020526040812060048101805460ff19169055426006820155600101546001600160a01b031691907f14796949d4d1a6824063ec05e354db666bde3356a8cf646c6075272b5353185c9080a3005b346101da5760003660031901126101da576020600454604051908152f35b346101da5760003660031901126101da5733600052600260205260ff604060002054168015610b38575b610b1f906117c0565b6020610b2c600354611976565b80600355604051908152f35b506000546001600160a01b03163314610b16565b346101da5760403660031901126101da576024356004356001600160401b0382116101da57816004019160e060031982360301126101da5733600052600260205260ff604060002054168015610fdb575b610ba6906117c0565b8115610fa1576024810190610bcd6001600160a01b03610bc5846117fd565b161515611933565b6044810135938415610f5c5760648201610be781836118af565b905015610f2057846000526009602052608460ff604060002054161593610c23610c1a610c13886117fd565b94866118af565b939092016118a2565b908515610f085742925b60405195610c3a87611684565b3586526001600160a01b0390941660208601908152604086018a815290946001600160401b038111610e395760405192610c7e601f8301601f19166020018561169f565b81845236828201116101da57816000926020928387013784010152606086019182529115156080860190815260a086019384524260c0870190815260008a81526005602052604090209651875594516001870180546001600160a01b0319166001600160a01b03929092169190911790559151600286015551805160038601916001600160401b038211610e3957610d2082610d1a855461162e565b856118e1565b602090601f8311600114610e985782600697969593610d769593610d5b93600092610e8d575b50508160011b916000199060031b1c19161790565b90555b511515600486019060ff801983541691151516179055565b5160058401555191015515610e4f576000828152600960205260409020805460ff191660011790556001600160a01b03610daf826117fd565b16600052600860205260406000209081549068010000000000000000821015610e3957610e05827f3a3ee326dd9451112d67d1babdaf697562d06e41e2571ddd356b4e9be0de478e946001602095018155611600565b815460001960039290921b91821b19169086901b1790556001600160a01b0390610e2e906117fd565b1693604051908152a3005b634e487b7160e01b600052604160045260246000fd5b9091506001600160a01b0390610e64906117fd565b16907f14796949d4d1a6824063ec05e354db666bde3356a8cf646c6075272b5353185c600080a3005b015190508e80610d46565b90601f1983169184600052816000209260005b818110610ef0575092600192859260069a999896610d76989610610ed7575b505050811b019055610d5e565b015160001960f88460031b161c191690558d8080610eca565b92936020600181928786015181550195019301610eab565b87600052600560205260056040600020015492610c2d565b60405162461bcd60e51b8152602060048201526014602482015273135bdb99dbd1185d185251081c995c5d5a5c995960621b6044820152606490fd5b60405162461bcd60e51b815260206004820152601c60248201527f5072696365206d7573742062652067726561746572207468616e2030000000006044820152606490fd5b60405162461bcd60e51b8152602060048201526012602482015271125b9d985b1a59081b995d1ddbdc9ac8125160721b6044820152606490fd5b506000546001600160a01b03163314610b9d565b346101da5760203660031901126101da57600435600060e060405161101381611668565b828152826020820152826040820152826060820152826080820152606060a0820152606060c0820152015280600052600a60205260ff6040600020541615611151576000526006602052604060002060405161106e81611668565b815481526001820154916020820192835261114560018060a01b03600283015416916040840192835261113260038201546060860190815260ff6004840154166080870190151581526110c3600585016116c0565b9160a0880192835260076110d9600687016116c0565b9560c08a0196875201549660e08901978852604051998a9960208b525160208b01525160408a015260018060a01b03905116606089015251608088015251151560a08701525161010060c0870152610120860190611594565b9051848203601f190160e0860152611594565b90516101008301520390f35b60405162461bcd60e51b815260206004820152601660248201527514d95cdcda5bdb88191bd95cc81b9bdd08195e1a5cdd60521b6044820152606490fd5b346101da5760403660031901126101da576024356004356001600160401b0382116101da578160040161010060031984360301126101da5733600052600260205260ff60406000205416801561154f575b6111e9906117c0565b81156115155760448301906001600160a01b03611205836117fd565b16156114d05760648401359361121c851515611811565b60248101359182600052600960205261123c60ff6040600020541661185d565b84600052600660205260406000209281358455600184015561125d846117fd565b6002840180546001600160a01b0319166001600160a01b03909216919091179055600383018690556112a9611294608484016118a2565b600485019060ff801983541691151516179055565b600583016112ba60a48401836118af565b906001600160401b038211610e39576112d782610d1a855461162e565b600090601f831160011461146c576113079291600091836114615750508160011b916000199060031b1c19161790565b90555b61131c600684019160c48401906118af565b906001600160401b038211610e395761133982610d1a855461162e565b600090601f83116001146113d25793602095936113958460079560e4957f6d8d8fde140edbf6c26881f091850cb55bae733f801e9e4f9b7d123b88b620c89b996000926113c75750508160011b916000199060031b1c19161790565b90555b01359101556000848152600a835260409020805460ff191660011790556001600160a01b0390610e2e906117fd565b013590508d80610d46565b8382526020822091601f198416815b81811061144957508460e4947f6d8d8fde140edbf6c26881f091850cb55bae733f801e9e4f9b7d123b88b620c89a989460209a98946007986001951061142f575b505050811b019055611398565b0135600019600384901b60f8161c191690558c8080611422565b919360206001819287870135815501950192016113e1565b013590508a80610d46565b8382526020822091601f198416815b8181106114b8575090846001959493921061149e575b505050811b01905561130a565b0135600019600384901b60f8161c19169055898080611491565b9193602060018192878701358155019501920161147b565b60405162461bcd60e51b815260206004820152601760248201527f496e76616c6964207061796d656e7420616464726573730000000000000000006044820152606490fd5b60405162461bcd60e51b8152602060048201526012602482015271125b9d985b1a59081cd95cdcda5bdb88125160721b6044820152606490fd5b506000546001600160a01b031633146111e0565b346101da5760003660031901126101da576020906003548152f35b600435906001600160a01b03821682036101da57565b919082519283825260005b8481106115c0575050826000602080949584010152601f8019910116010190565b8060208092840101518282860101520161159f565b346101da5760003660031901126101da57602060405160648152f35b6024359081151582036101da57565b80548210156116185760005260206000200190600090565b634e487b7160e01b600052603260045260246000fd5b90600182811c9216801561165e575b602083101461164857565b634e487b7160e01b600052602260045260246000fd5b91607f169161163d565b61010081019081106001600160401b03821117610e3957604052565b60e081019081106001600160401b03821117610e3957604052565b90601f801991011681019081106001600160401b03821117610e3957604052565b90604051918260008254926116d48461162e565b808452936001811690811561174257506001146116fb575b506116f99250038361169f565b565b90506000929192526020600020906000915b8183106117265750509060206116f992820101386116ec565b602091935080600191548385890101520191019091849261170d565b9050602092506116f994915060ff191682840152151560051b820101386116ec565b908151815260018060a01b0360208301511660208201526040820151604082015260c0806117a1606085015160e0606086015260e0850190611594565b9360808101511515608085015260a081015160a0850152015191015290565b156117c757565b60405162461bcd60e51b815260206004820152600e60248201526d139bdd08185d5d1a1bdc9a5e995960921b6044820152606490fd5b356001600160a01b03811681036101da5790565b1561181857565b60405162461bcd60e51b815260206004820152601d60248201527f416d6f756e74206d7573742062652067726561746572207468616e20300000006044820152606490fd5b1561186457565b60405162461bcd60e51b815260206004820152601660248201527513995d1ddbdc9ac8191bd95cc81b9bdd08195e1a5cdd60521b6044820152606490fd5b3580151581036101da5790565b903590601e19813603018212156101da57018035906001600160401b0382116101da576020019181360383136101da57565b601f82116118ee57505050565b6000526020600020906020601f840160051c83019310611929575b601f0160051c01905b81811061191d575050565b60008155600101611912565b9091508190611909565b1561193a57565b60405162461bcd60e51b8152602060048201526014602482015273496e76616c696420686f7374206164647265737360601b6044820152606490fd5b60001981146119855760010190565b634e487b7160e01b600052601160045260246000fd5b91908110156116185760051b0190565b156119b257565b60405162461bcd60e51b8152602060048201526016602482015275496e76616c69642063616c6c6572206164647265737360501b6044820152606490fd5b604051906119fd82611684565b600060c0838281528260208201528260408201526060808201528260808201528260a08201520152565b90604051611a3481611684565b8254815260018301546001600160a01b031660208201526002830154604082015291829060c090600690611a6a600382016116c0565b606085015260ff60048201541615156080850152600581015460a08501520154910152565b9190820180921161198557565b6001600160401b038111610e395760051b60200190565b9190820391821161198557565b80518210156116185760209160051b010190565b91909160648311611bef576003549283821015611bb357611af59082611a8f565b838111611bac575b611b078282611ab3565b91611b1183611a9c565b92611b1f604051948561169f565b808452611b2e601f1991611a9c565b0160005b818110611b95575050805b828110611b4b575050509190565b6001810190818111611985576001916000526005602052611b8e6040600020611b7d611b778685611ab3565b91611a27565b611b878289611ac0565b5286611ac0565b5001611b3d565b602090611ba06119f0565b82828801015201611b32565b5082611afd565b50506040516000611bc560208361169f565b81526000805b818110611bd85750509190565b602090611be36119f0565b82828601015201611bcb565b60405162461bcd60e51b815260206004820152600e60248201526d098d2dad2e840e8dede40d0d2ced60931b6044820152606490fd5b6000546001600160a01b03163303611c3957565b63118cdaa760e01b6000523360045260246000fdfea2646970667358221220ca7e6add7b2d3986fedff597b5d4e7c4c2fd38444ab9a885388a82164eb9b23464736f6c634300081c0033",
  "linkReferences": {},
  "deployedLinkReferences": {}
}