{
  "_format": "hh-sol-artifact-1",
  "contractName": "ZaaNetNetwork",
  "sourceName": "contracts/ZaaNetNetwork.sol",
  "abi": [
    {
      "inputs": [
        {
          "internalType": "address",
          "name": "_storageContract",
          "type": "address"
        }
      ],
      "stateMutability": "nonpayable",
      "type": "constructor"
    },
    {
      "inputs": [],
      "name": "EnforcedPause",
      "type": "error"
    },
    {
      "inputs": [],
      "name": "ExpectedPause",
      "type": "error"
    },
    {
      "inputs": [
        {
          "internalType": "address",
          "name": "owner",
          "type": "address"
        }
      ],
      "name": "OwnableInvalidOwner",
      "type": "error"
    },
    {
      "inputs": [
        {
          "internalType": "address",
          "name": "account",
          "type": "address"
        }
      ],
      "name": "OwnableUnauthorizedAccount",
      "type": "error"
    },
    {
      "inputs": [],
      "name": "ReentrancyGuardReentrantCall",
      "type": "error"
    },
    {
      "anonymous": false,
      "inputs": [
        {
          "indexed": true,
          "internalType": "address",
          "name": "newHostAddress",
          "type": "address"
        }
      ],
      "name": "HostAdded",
      "type": "event"
    },
    {
      "anonymous": false,
      "inputs": [
        {
          "indexed": true,
          "internalType": "uint256",
          "name": "networkId",
          "type": "uint256"
        },
        {
          "indexed": false,
          "internalType": "uint256",
          "name": "oldPrice",
          "type": "uint256"
        },
        {
          "indexed": false,
          "internalType": "uint256",
          "name": "newPrice",
          "type": "uint256"
        }
      ],
      "name": "NetworkPriceUpdated",
      "type": "event"
    },
    {
      "anonymous": false,
      "inputs": [
        {
          "indexed": true,
          "internalType": "uint256",
          "name": "networkId",
          "type": "uint256"
        },
        {
          "indexed": true,
          "internalType": "address",
          "name": "hostAddress",
          "type": "address"
        },
        {
          "indexed": false,
          "internalType": "string",
          "name": "mongoDataId",
          "type": "string"
        }
      ],
      "name": "NetworkRegistered",
      "type": "event"
    },
    {
      "anonymous": false,
      "inputs": [
        {
          "indexed": true,
          "internalType": "uint256",
          "name": "networkId",
          "type": "uint256"
        },
        {
          "indexed": false,
          "internalType": "bool",
          "name": "oldStatus",
          "type": "bool"
        },
        {
          "indexed": false,
          "internalType": "bool",
          "name": "newStatus",
          "type": "bool"
        }
      ],
      "name": "NetworkStatusChanged",
      "type": "event"
    },
    {
      "anonymous": false,
      "inputs": [
        {
          "indexed": true,
          "internalType": "uint256",
          "name": "networkId",
          "type": "uint256"
        },
        {
          "indexed": true,
          "internalType": "address",
          "name": "hostAddress",
          "type": "address"
        },
        {
          "indexed": false,
          "internalType": "uint256",
          "name": "pricePerHour",
          "type": "uint256"
        },
        {
          "indexed": false,
          "internalType": "string",
          "name": "mongoDataId",
          "type": "string"
        },
        {
          "indexed": false,
          "internalType": "bool",
          "name": "isActive",
          "type": "bool"
        }
      ],
      "name": "NetworkUpdated",
      "type": "event"
    },
    {
      "anonymous": false,
      "inputs": [
        {
          "indexed": true,
          "internalType": "address",
          "name": "previousOwner",
          "type": "address"
        },
        {
          "indexed": true,
          "internalType": "address",
          "name": "newOwner",
          "type": "address"
        }
      ],
      "name": "OwnershipTransferred",
      "type": "event"
    },
    {
      "anonymous": false,
      "inputs": [
        {
          "indexed": false,
          "internalType": "address",
          "name": "account",
          "type": "address"
        }
      ],
      "name": "Paused",
      "type": "event"
    },
    {
      "anonymous": false,
      "inputs": [
        {
          "indexed": false,
          "internalType": "address",
          "name": "account",
          "type": "address"
        }
      ],
      "name": "Unpaused",
      "type": "event"
    },
    {
      "inputs": [],
      "name": "MAX_MONGO_DATA_LENGTH",
      "outputs": [
        {
          "internalType": "uint256",
          "name": "",
          "type": "uint256"
        }
      ],
      "stateMutability": "view",
      "type": "function"
    },
    {
      "inputs": [],
      "name": "MAX_PRICE_PER_SESSION",
      "outputs": [
        {
          "internalType": "uint256",
          "name": "",
          "type": "uint256"
        }
      ],
      "stateMutability": "view",
      "type": "function"
    },
    {
      "inputs": [],
      "name": "MIN_PRICE_PER_SESSION",
      "outputs": [
        {
          "internalType": "uint256",
          "name": "",
          "type": "uint256"
        }
      ],
      "stateMutability": "view",
      "type": "function"
    },
    {
      "inputs": [],
      "name": "REGISTRATION_COOLDOWN",
      "outputs": [
        {
          "internalType": "uint256",
          "name": "",
          "type": "uint256"
        }
      ],
      "stateMutability": "view",
      "type": "function"
    },
    {
      "inputs": [
        {
          "internalType": "uint256",
          "name": "_networkId",
          "type": "uint256"
        }
      ],
      "name": "deactivateNetwork",
      "outputs": [],
      "stateMutability": "nonpayable",
      "type": "function"
    },
    {
      "inputs": [
        {
          "internalType": "address",
          "name": "hostAddress",
          "type": "address"
        }
      ],
      "name": "getActiveHostNetworks",
      "outputs": [
        {
          "components": [
            {
              "internalType": "uint256",
              "name": "id",
              "type": "uint256"
            },
            {
              "internalType": "address",
              "name": "hostAddress",
              "type": "address"
            },
            {
              "internalType": "uint256",
              "name": "pricePerSession",
              "type": "uint256"
            },
            {
              "internalType": "string",
              "name": "mongoDataId",
              "type": "string"
            },
            {
              "internalType": "bool",
              "name": "isActive",
              "type": "bool"
            },
            {
              "internalType": "uint256",
              "name": "createdAt",
              "type": "uint256"
            },
            {
              "internalType": "uint256",
              "name": "updatedAt",
              "type": "uint256"
            }
          ],
          "internalType": "struct ZaaNetStorage.Network[]",
          "name": "",
          "type": "tuple[]"
        }
      ],
      "stateMutability": "view",
      "type": "function"
    },
    {
      "inputs": [],
      "name": "getAllActiveNetworks",
      "outputs": [
        {
          "components": [
            {
              "internalType": "uint256",
              "name": "id",
              "type": "uint256"
            },
            {
              "internalType": "address",
              "name": "hostAddress",
              "type": "address"
            },
            {
              "internalType": "uint256",
              "name": "pricePerSession",
              "type": "uint256"
            },
            {
              "internalType": "string",
              "name": "mongoDataId",
              "type": "string"
            },
            {
              "internalType": "bool",
              "name": "isActive",
              "type": "bool"
            },
            {
              "internalType": "uint256",
              "name": "createdAt",
              "type": "uint256"
            },
            {
              "internalType": "uint256",
              "name": "updatedAt",
              "type": "uint256"
            }
          ],
          "internalType": "struct ZaaNetStorage.Network[]",
          "name": "",
          "type": "tuple[]"
        }
      ],
      "stateMutability": "view",
      "type": "function"
    },
    {
      "inputs": [],
      "name": "getContractStats",
      "outputs": [
        {
          "internalType": "uint256",
          "name": "totalNetworks",
          "type": "uint256"
        }
      ],
      "stateMutability": "view",
      "type": "function"
    },
    {
      "inputs": [
        {
          "internalType": "address",
          "name": "hostAddress",
          "type": "address"
        }
      ],
      "name": "getHostNetworks",
      "outputs": [
        {
          "internalType": "uint256[]",
          "name": "",
          "type": "uint256[]"
        }
      ],
      "stateMutability": "view",
      "type": "function"
    },
    {
      "inputs": [
        {
          "internalType": "address",
          "name": "hostAddress",
          "type": "address"
        }
      ],
      "name": "getHostStats",
      "outputs": [
        {
          "internalType": "uint256",
          "name": "totalNetworks",
          "type": "uint256"
        },
        {
          "internalType": "uint256",
          "name": "activeNetworks",
          "type": "uint256"
        },
        {
          "internalType": "uint256",
          "name": "totalEarnings",
          "type": "uint256"
        }
      ],
      "stateMutability": "view",
      "type": "function"
    },
    {
      "inputs": [
        {
          "internalType": "uint256",
          "name": "_networkId",
          "type": "uint256"
        }
      ],
      "name": "getHostedNetworkById",
      "outputs": [
        {
          "components": [
            {
              "internalType": "uint256",
              "name": "id",
              "type": "uint256"
            },
            {
              "internalType": "address",
              "name": "hostAddress",
              "type": "address"
            },
            {
              "internalType": "uint256",
              "name": "pricePerSession",
              "type": "uint256"
            },
            {
              "internalType": "string",
              "name": "mongoDataId",
              "type": "string"
            },
            {
              "internalType": "bool",
              "name": "isActive",
              "type": "bool"
            },
            {
              "internalType": "uint256",
              "name": "createdAt",
              "type": "uint256"
            },
            {
              "internalType": "uint256",
              "name": "updatedAt",
              "type": "uint256"
            }
          ],
          "internalType": "struct ZaaNetStorage.Network",
          "name": "",
          "type": "tuple"
        }
      ],
      "stateMutability": "view",
      "type": "function"
    },
    {
      "inputs": [
        {
          "internalType": "uint256",
          "name": "offset",
          "type": "uint256"
        },
        {
          "internalType": "uint256",
          "name": "limit",
          "type": "uint256"
        }
      ],
      "name": "getNetworksPaginated",
      "outputs": [
        {
          "components": [
            {
              "internalType": "uint256",
              "name": "id",
              "type": "uint256"
            },
            {
              "internalType": "address",
              "name": "hostAddress",
              "type": "address"
            },
            {
              "internalType": "uint256",
              "name": "pricePerSession",
              "type": "uint256"
            },
            {
              "internalType": "string",
              "name": "mongoDataId",
              "type": "string"
            },
            {
              "internalType": "bool",
              "name": "isActive",
              "type": "bool"
            },
            {
              "internalType": "uint256",
              "name": "createdAt",
              "type": "uint256"
            },
            {
              "internalType": "uint256",
              "name": "updatedAt",
              "type": "uint256"
            }
          ],
          "internalType": "struct ZaaNetStorage.Network[]",
          "name": "networks",
          "type": "tuple[]"
        },
        {
          "internalType": "uint256",
          "name": "totalCount",
          "type": "uint256"
        }
      ],
      "stateMutability": "view",
      "type": "function"
    },
    {
      "inputs": [
        {
          "internalType": "address",
          "name": "",
          "type": "address"
        }
      ],
      "name": "isHost",
      "outputs": [
        {
          "internalType": "bool",
          "name": "",
          "type": "bool"
        }
      ],
      "stateMutability": "view",
      "type": "function"
    },
    {
      "inputs": [
        {
          "internalType": "address",
          "name": "hostAddress",
          "type": "address"
        }
      ],
      "name": "isRegisteredHost",
      "outputs": [
        {
          "internalType": "bool",
          "name": "",
          "type": "bool"
        }
      ],
      "stateMutability": "view",
      "type": "function"
    },
    {
      "inputs": [
        {
          "internalType": "address",
          "name": "",
          "type": "address"
        }
      ],
      "name": "lastRegistrationTime",
      "outputs": [
        {
          "internalType": "uint256",
          "name": "",
          "type": "uint256"
        }
      ],
      "stateMutability": "view",
      "type": "function"
    },
    {
      "inputs": [
        {
          "internalType": "uint256",
          "name": "",
          "type": "uint256"
        }
      ],
      "name": "networkToHost",
      "outputs": [
        {
          "internalType": "address",
          "name": "",
          "type": "address"
        }
      ],
      "stateMutability": "view",
      "type": "function"
    },
    {
      "inputs": [],
      "name": "owner",
      "outputs": [
        {
          "internalType": "address",
          "name": "",
          "type": "address"
        }
      ],
      "stateMutability": "view",
      "type": "function"
    },
    {
      "inputs": [],
      "name": "pause",
      "outputs": [],
      "stateMutability": "nonpayable",
      "type": "function"
    },
    {
      "inputs": [],
      "name": "paused",
      "outputs": [
        {
          "internalType": "bool",
          "name": "",
          "type": "bool"
        }
      ],
      "stateMutability": "view",
      "type": "function"
    },
    {
      "inputs": [
        {
          "internalType": "uint256",
          "name": "_pricePerHour",
          "type": "uint256"
        },
        {
          "internalType": "string",
          "name": "_mongoDataId",
          "type": "string"
        },
        {
          "internalType": "bool",
          "name": "_isActive",
          "type": "bool"
        }
      ],
      "name": "registerNetwork",
      "outputs": [],
      "stateMutability": "nonpayable",
      "type": "function"
    },
    {
      "inputs": [],
      "name": "renounceOwnership",
      "outputs": [],
      "stateMutability": "nonpayable",
      "type": "function"
    },
    {
      "inputs": [],
      "name": "storageContract",
      "outputs": [
        {
          "internalType": "contract ZaaNetStorage",
          "name": "",
          "type": "address"
        }
      ],
      "stateMutability": "view",
      "type": "function"
    },
    {
      "inputs": [
        {
          "internalType": "address",
          "name": "newOwner",
          "type": "address"
        }
      ],
      "name": "transferOwnership",
      "outputs": [],
      "stateMutability": "nonpayable",
      "type": "function"
    },
    {
      "inputs": [],
      "name": "unpause",
      "outputs": [],
      "stateMutability": "nonpayable",
      "type": "function"
    },
    {
      "inputs": [
        {
          "internalType": "uint256",
          "name": "_networkId",
          "type": "uint256"
        },
        {
          "internalType": "uint256",
          "name": "_pricePerHour",
          "type": "uint256"
        },
        {
          "internalType": "bool",
          "name": "_isActive",
          "type": "bool"
        }
      ],
      "name": "updateNetwork",
      "outputs": [],
      "stateMutability": "nonpayable",
      "type": "function"
    }
  ],
  "bytecode": "0x60803461012557601f611b9d38819003918201601f19168301916001600160401b0383118484101761012a5780849260209460405283398101031261012557516001600160a01b0381169081900361012557331561010f5760008054336001600160a01b03198216811783556040519290916001600160a01b0316907f8be0079c531659141344cd1fd0a4f28419497f9722a3daafe3b4186f6b6457e09080a36001805581156100cd5750600280546001600160a01b031916919091179055604051611a5c90816101418239f35b62461bcd60e51b815260206004820181905260248201527f496e76616c69642073746f7261676520636f6e747261637420616464726573736044820152606490fd5b631e4fbdf760e01b600052600060045260246000fd5b600080fd5b634e487b7160e01b600052604160045260246000fdfe608080604052600436101561001357600080fd5b600090813560e01c90816309115e97146115335750806311ce02671461150a57806316cb6eff146114085780631b63fe671461119d5780632b2a748c14610fd05780633f4ba83a14610f625780634335521414610f2f5780634b9791e814610bad5780635c975abb14610b88578063715018a614610b2e578063764ac7341461098e57806379f0dc57146108d55780637f6e8cbf146108985780638456cb5914610837578063867f1a09146102715780638da5cb5b14610810578063900e41b114610444578063b0ff638314610428578063cd83fb9a14610386578063d4f38d0414610363578063dfe6b5d6146102cf578063e67d86f1146102b3578063eb2931b714610271578063f2fde38b146101e35763fa9c81a41461013457600080fd5b346101e05760403660031901126101e057600254604051633ea7206960e21b81526004803590820152602480359082015291908190839060449082906001600160a01b03165afa80156101d3576101a3928280926101ad575b50506040519283926040845260408401906115f9565b9060208301520390f35b9091506101cc92503d8091833e6101c48183611693565b8101906117b5565b388061018d565b50604051903d90823e3d90fd5b80fd5b50346101e05760203660031901126101e0576004356001600160a01b0381169081900361026d576102126119fd565b80156102595781546001600160a01b03198116821783556001600160a01b03167f8be0079c531659141344cd1fd0a4f28419497f9722a3daafe3b4186f6b6457e08380a380f35b631e4fbdf760e01b82526004829052602482fd5b5080fd5b50346101e05760203660031901126101e0576004356001600160a01b0381169081900361026d5760408260ff9260209452600384522054166040519015158152f35b50346101e057806003193601126101e057602060405160c88152f35b50346101e057806003193601126101e05760025460405163217c682d60e01b81529190602090839060049082906001600160a01b03165afa908115610357579061031f575b602090604051908152f35b506020813d60201161034f575b8161033960209383611693565b8101031261034a5760209051610314565b600080fd5b3d915061032c565b604051903d90823e3d90fd5b50346101e057806003193601126101e0576020604051674563918244f400008152f35b50346101e05760203660031901126101e0576103a06118a8565b506002546040516395ea571760e01b81526004803590820152908290829060249082906001600160a01b03165afa90811561041d57826103f693926103fa575b505060405191829160208352602083019061159d565b0390f35b61041692503d8091833e61040e8183611693565b81019061192f565b38806103e0565b6040513d84823e3d90fd5b50346101e057806003193601126101e0576020604051603c8152f35b50346101e05760603660031901126101e05760243560043567ffffffffffffffff821161070e573660238301121561070e5782826004013592610486846116b5565b936104946040519586611693565b808552366024828401011161070e578060246020930183870137840101526104ba611652565b6104c26119bb565b6104ca6119db565b33845260066020526040842054603c81018091116107fc5742106107b7576702c68af0bb140000821015806107a5575b61050390611958565b82518015159081610799575b5015610754576002546040516329487fe360e11b815292859290916020908590600490829087906001600160a01b03165af1938415610749578394610712575b5060018060a01b0360025416906040519261056984611661565b8584523360208501526040840152856060840152151560808301524260a08301524260c0830152803b1561070e57604051631430350760e21b815291839183918290849082906105bd908a600484016119a4565b03925af1801561041d576106f9575b5050338352600460205260408320805490680100000000000000008210156106e557600182018082558210156106d1579082918552602085200155808352600560205260408320336bffffffffffffffffffffffff60a01b8254161790553383526006602052426040842055338352600360205260ff60408420541615610690575b7fac8d319e4ba2a19144062917c8cb50cc9cffb2f0eea3004b86b48c06cc6845c8604051602081528061068633956020830190611578565b0390a36001805580f35b33808452600360205260408420805460ff191660011790557f8ff9310abede1de3c5d3fdbb7cf09c40bc8258ca75c0f949ad92f964deac98b38480a261064e565b634e487b7160e01b85526032600452602485fd5b634e487b7160e01b85526041600452602485fd5b8161070391611693565b61070e5782386105cc565b8280fd5b925092506020823d602011610741575b8161072f60209383611693565b8101031261034a57849151923861054f565b3d9150610722565b6040513d85823e3d90fd5b60405162461bcd60e51b815260206004820152601a60248201527f496e76616c6964204d6f6e676f446174614944206c656e6774680000000000006044820152606490fd5b60c8915011153861050f565b50674563918244f400008211156104fa565b60405162461bcd60e51b815260206004820152601c60248201527f526567697374726174696f6e20636f6f6c646f776e20616374697665000000006044820152606490fd5b634e487b7160e01b85526011600452602485fd5b50346101e057806003193601126101e057546040516001600160a01b039091168152602090f35b50346101e057806003193601126101e0576108506119fd565b6108586119bb565b805460ff60a01b1916600160a01b1781556040513381527f62e78cea01bee320cd4e420270b5ea74000d11b0c9f74754ebdbfc544b05a25890602090a180f35b50346101e05760203660031901126101e0576004356001600160a01b0381169081900361026d578160409160209352600683522054604051908152f35b50346101e05760203660031901126101e0576004356001600160a01b0381169081900361026d578152600460205260408120604051908160208254918281520190819285526020852090855b8181106109785750505082610937910383611693565b604051928392602084019060208552518091526040840192915b81811061095f575050500390f35b8251845285945060209384019390920191600101610951565b8254845260209093019260019283019201610921565b50346101e05760203660031901126101e0576004356001600160a01b0381169081900361026d57818183526004602052604083205460018060a01b03600254169060405193636d65573f60e01b8552806004860152602085602481865afa948515610b23578695610aef575b508552600460205260408520906040518083602082955493848152019089526020892092895b818110610ad6575050610a3592500383611693565b855b8251811015610abf57610a4a8184611859565b51604051906395ea571760e01b825260048201528781602481885afa8015610ab4576080918991610a9a575b500151610a86575b600101610a37565b93610a92600191611883565b949050610a7e565b610aae91503d808b833e61040e8183611693565b38610a76565b6040513d8a823e3d90fd5b606082878760405192835260208301526040820152f35b8454835260019485019487945060209093019201610a20565b9094506020813d602011610b1b575b81610b0b60209383611693565b8101031261034a575193386109fa565b3d9150610afe565b6040513d88823e3d90fd5b50346101e057806003193601126101e057610b476119fd565b80546001600160a01b03198116825581906001600160a01b03167f8be0079c531659141344cd1fd0a4f28419497f9722a3daafe3b4186f6b6457e08280a380f35b50346101e057806003193601126101e05760ff6020915460a01c166040519015158152f35b50346101e05760203660031901126101e057600435610bca6119bb565b6002546040516395ea571760e01b815260048101839052908390829060249082906001600160a01b03165afa908115610749578391610f15575b5060208101516001600160a01b03163303610ed057608081015115610e8b5760409081015160025491516395ea571760e01b8152600481018490529092916001600160a01b03168482602481845afa918215610e80578592610e64575b506020820151336001600160a01b0390911603610e28576702c68af0bb14000084101580610e16575b610c9390611958565b846040830151926080810151151590606081019360a0855192015160405192610cbb84611661565b888452336020850152896040850152606084015284608084015260a08301524260c0830152803b15610e1257610d0c8492918392604051968780948193631430350760e21b83528d600484016119a4565b03925af19283156101d3578693610df1575b50509081610d7393928286897f54505b9e522263d538acc1f6de9658c2ae4fd39b8771f562481c2d375d1c1f2d9803610dba575b5050610d83575b505051604051948552606060208601526060850190611578565b928460408201528033940390a380f35b60407fb061566845b6680f66461fbe29235493f3aa355419d464d868114a32e0e7ae7b918151908152896020820152a28338610d59565b60407f07d20e42fbc3910f3e2536c15bfb3d2deec361f7b0534c071570af6608429f019181519081528b6020820152a28238610d52565b819294935090610e0091611693565b610e0e579083908638610d1e565b8580fd5b8380fd5b50674563918244f40000841115610c8a565b60405162461bcd60e51b81526020600482015260146024820152734f6e6c7920686f73742063616e2075706461746560601b6044820152606490fd5b610e799192503d8087833e61040e8183611693565b9038610c61565b6040513d87823e3d90fd5b60405162461bcd60e51b815260206004820152601860248201527f4e6574776f726b20616c726561647920696e61637469766500000000000000006044820152606490fd5b60405162461bcd60e51b815260206004820152601860248201527f4f6e6c7920686f73742063616e206465616374697661746500000000000000006044820152606490fd5b610f2991503d8085833e61040e8183611693565b38610c04565b50346101e05760203660031901126101e057602090600435815260058252604060018060a01b0391205416604051908152f35b50346101e057806003193601126101e057610f7b6119fd565b805460ff8160a01c1615610fc15760ff60a01b191681556040513381527f5db9ee0a495bf2e6ff9c91a7834c1ba4fdd244a5e8aa4e537bd38aeae4b073aa90602090a180f35b638dfc202b60e01b8252600482fd5b50346101e05760203660031901126101e0576004356001600160a01b0381169081900361026d5781526004602052604081206040518082602082945493848152019085526020852092855b81811061118457505061103092500382611693565b60025482906001600160a01b031681805b84518110156110be576110548186611859565b51604051906395ea571760e01b825260048201528281602481875afa80156107495760809184916110a4575b500151611090575b600101611041565b9261109c600191611883565b939050611088565b6110b891503d8086833e61040e8183611693565b38611080565b5050906110ca906118df565b8390845b845181101561116e576110e18186611859565b51604051906395ea571760e01b825260048201528681602481885afa908115611163578791611149575b50608081015161111f575b506001016110ce565b83611142916111316001949686611859565b5261113c8185611859565b50611883565b9290611116565b61115d91503d8089833e61040e8183611693565b3861110b565b6040513d89823e3d90fd5b604051602080825281906103f6908201856115f9565b845483526001948501948694506020909301920161101b565b50346101e05760603660031901126101e0576024356004356111bd611652565b916111c66119bb565b6111ce6119db565b6002546040516395ea571760e01b815260048101849052906001600160a01b03168582602481845afa918215610b235786926113ec575b506020820151336001600160a01b0390911603610e28576702c68af0bb140000831015806113da575b61123790611958565b6040820151866080840151151592606085019460a08651910151986040519161125f83611661565b898352336020840152886040840152606083015215159889608083015260a08201524260c0820152813b1561070e5782916112b191604051948580948193631430350760e21b83528d600484016119a4565b03925af18015610ab457611398575b509184611317928185877f54505b9e522263d538acc1f6de9658c2ae4fd39b8771f562481c2d375d1c1f2d989703611361575b505087810361132a575b505051604051928352606060208401526060830190611578565b9360408201528033940390a36001805580f35b60407fb061566845b6680f66461fbe29235493f3aa355419d464d868114a32e0e7ae7b918151908152896020820152a284386112fd565b60407f07d20e42fbc3910f3e2536c15bfb3d2deec361f7b0534c071570af6608429f01918151908152886020820152a281386112f3565b6113179286896113cd7f54505b9e522263d538acc1f6de9658c2ae4fd39b8771f562481c2d375d1c1f2d9897959b8395611693565b99939596505092506112c0565b50674563918244f4000083111561122e565b6114019192503d8088833e61040e8183611693565b9038611205565b50346101e057806003193601126101e057600254604051633ea7206960e21b8152600481018390526064602482015291908190839060449082906001600160a01b03165afa9182156101d35781926114ed575b5080815b83518110156114985760806114748286611859565b510151611484575b60010161145f565b90611490600191611883565b91905061147c565b506114a2906118df565b815b835181101561116e5760806114b98286611859565b5101516114c9575b6001016114a4565b916114e56001916114da8587611859565b516111318286611859565b9290506114c1565b6115029192503d8084833e6101c48183611693565b50903861145b565b50346101e057806003193601126101e0576002546040516001600160a01b039091168152602090f35b90503461026d578160031936011261026d57806702c68af0bb14000060209252f35b60005b8381106115685750506000910152565b8181015183820152602001611558565b9060209161159181518092818552858086019101611555565b601f01601f1916010190565b908151815260018060a01b0360208301511660208201526040820151604082015260c0806115da606085015160e0606086015260e0850190611578565b9360808101511515608085015260a081015160a0850152015191015290565b9080602083519182815201916020808360051b8301019401926000915b83831061162557505050505090565b9091929394602080611643600193601f19868203018752895161159d565b97019301930191939290611616565b60443590811515820361034a57565b60e0810190811067ffffffffffffffff82111761167d57604052565b634e487b7160e01b600052604160045260246000fd5b90601f8019910116810190811067ffffffffffffffff82111761167d57604052565b67ffffffffffffffff811161167d57601f01601f191660200190565b67ffffffffffffffff811161167d5760051b60200190565b91909160e08184031261034a576040519061170382611661565b805182526020810151919384926001600160a01b038116810361034a57602084015260408201516040840152606082015167ffffffffffffffff811161034a57820181601f8201121561034a57805161175b816116b5565b926117696040519485611693565b8184526020828401011161034a576117879160208085019101611555565b60608301526080810151801515810361034a5760c0918291608085015260a081015160a08501520151910152565b919060408382031261034a57825167ffffffffffffffff811161034a5783019080601f8301121561034a5781516117eb816116d1565b926117f96040519485611693565b81845260208085019260051b8201019183831161034a5760208201905b83821061182b57505050505060209092015190565b815167ffffffffffffffff811161034a5760209161184e878480948801016116e9565b815201910190611816565b805182101561186d5760209160051b010190565b634e487b7160e01b600052603260045260246000fd5b60001981146118925760010190565b634e487b7160e01b600052601160045260246000fd5b604051906118b582611661565b600060c0838281528260208201528260408201526060808201528260808201528260a08201520152565b906118e9826116d1565b6118f66040519182611693565b8281528092611907601f19916116d1565b019060005b82811061191857505050565b6020906119236118a8565b8282850101520161190c565b9060208282031261034a57815167ffffffffffffffff811161034a5761195592016116e9565b90565b1561195f57565b60405162461bcd60e51b815260206004820152601a60248201527f5072696365206f7574206f6620616c6c6f7765642072616e67650000000000006044820152606490fd5b60409061195593928152816020820152019061159d565b60ff60005460a01c166119ca57565b63d93c066560e01b60005260046000fd5b6002600154146119ec576002600155565b633ee5aeb560e01b60005260046000fd5b6000546001600160a01b03163303611a1157565b63118cdaa760e01b6000523360045260246000fdfea2646970667358221220c9558fb6453ec7ca55b19de52259006e6ec38f310e5fb94b1cbde8bc8b5ecd0664736f6c634300081c0033",
  "linkReferences": {},
  "deployedLinkReferences": {}
}